{
  "address": "0xeBD311957f4C974adf5E9D9a73E2D1bfC41e5fF2",
  "abi": [
    {
      "inputs": [
        {
          "internalType": "address",
          "name": "_bridge",
          "type": "address"
        },
        {
          "internalType": "address",
          "name": "_remoteToken",
          "type": "address"
        },
        {
          "internalType": "string",
          "name": "_name",
          "type": "string"
        },
        {
          "internalType": "string",
          "name": "_symbol",
          "type": "string"
        }
      ],
      "stateMutability": "nonpayable",
      "type": "constructor"
    },
    {
      "inputs": [
        {
          "internalType": "address",
          "name": "spender",
          "type": "address"
        },
        {
          "internalType": "uint256",
          "name": "allowance",
          "type": "uint256"
        },
        {
          "internalType": "uint256",
          "name": "needed",
          "type": "uint256"
        }
      ],
      "name": "ERC20InsufficientAllowance",
      "type": "error"
    },
    {
      "inputs": [
        {
          "internalType": "address",
          "name": "sender",
          "type": "address"
        },
        {
          "internalType": "uint256",
          "name": "balance",
          "type": "uint256"
        },
        {
          "internalType": "uint256",
          "name": "needed",
          "type": "uint256"
        }
      ],
      "name": "ERC20InsufficientBalance",
      "type": "error"
    },
    {
      "inputs": [
        {
          "internalType": "address",
          "name": "approver",
          "type": "address"
        }
      ],
      "name": "ERC20InvalidApprover",
      "type": "error"
    },
    {
      "inputs": [
        {
          "internalType": "address",
          "name": "receiver",
          "type": "address"
        }
      ],
      "name": "ERC20InvalidReceiver",
      "type": "error"
    },
    {
      "inputs": [
        {
          "internalType": "address",
          "name": "sender",
          "type": "address"
        }
      ],
      "name": "ERC20InvalidSender",
      "type": "error"
    },
    {
      "inputs": [
        {
          "internalType": "address",
          "name": "spender",
          "type": "address"
        }
      ],
      "name": "ERC20InvalidSpender",
      "type": "error"
    },
    {
      "anonymous": false,
      "inputs": [
        {
          "indexed": true,
          "internalType": "address",
          "name": "owner",
          "type": "address"
        },
        {
          "indexed": true,
          "internalType": "address",
          "name": "spender",
          "type": "address"
        },
        {
          "indexed": false,
          "internalType": "uint256",
          "name": "value",
          "type": "uint256"
        }
      ],
      "name": "Approval",
      "type": "event"
    },
    {
      "anonymous": false,
      "inputs": [
        {
          "indexed": true,
          "internalType": "address",
          "name": "account",
          "type": "address"
        },
        {
          "indexed": false,
          "internalType": "uint256",
          "name": "amount",
          "type": "uint256"
        }
      ],
      "name": "Burn",
      "type": "event"
    },
    {
      "anonymous": false,
      "inputs": [
        {
          "indexed": true,
          "internalType": "address",
          "name": "account",
          "type": "address"
        },
        {
          "indexed": false,
          "internalType": "uint256",
          "name": "amount",
          "type": "uint256"
        }
      ],
      "name": "Mint",
      "type": "event"
    },
    {
      "anonymous": false,
      "inputs": [
        {
          "indexed": true,
          "internalType": "address",
          "name": "from",
          "type": "address"
        },
        {
          "indexed": true,
          "internalType": "address",
          "name": "to",
          "type": "address"
        },
        {
          "indexed": false,
          "internalType": "uint256",
          "name": "value",
          "type": "uint256"
        }
      ],
      "name": "Transfer",
      "type": "event"
    },
    {
      "inputs": [],
      "name": "BRIDGE",
      "outputs": [
        {
          "internalType": "address",
          "name": "",
          "type": "address"
        }
      ],
      "stateMutability": "view",
      "type": "function"
    },
    {
      "inputs": [],
      "name": "REMOTE_TOKEN",
      "outputs": [
        {
          "internalType": "address",
          "name": "",
          "type": "address"
        }
      ],
      "stateMutability": "view",
      "type": "function"
    },
    {
      "inputs": [
        {
          "internalType": "address",
          "name": "owner",
          "type": "address"
        },
        {
          "internalType": "address",
          "name": "spender",
          "type": "address"
        }
      ],
      "name": "allowance",
      "outputs": [
        {
          "internalType": "uint256",
          "name": "",
          "type": "uint256"
        }
      ],
      "stateMutability": "view",
      "type": "function"
    },
    {
      "inputs": [
        {
          "internalType": "address",
          "name": "spender",
          "type": "address"
        },
        {
          "internalType": "uint256",
          "name": "value",
          "type": "uint256"
        }
      ],
      "name": "approve",
      "outputs": [
        {
          "internalType": "bool",
          "name": "",
          "type": "bool"
        }
      ],
      "stateMutability": "nonpayable",
      "type": "function"
    },
    {
      "inputs": [
        {
          "internalType": "address",
          "name": "account",
          "type": "address"
        }
      ],
      "name": "balanceOf",
      "outputs": [
        {
          "internalType": "uint256",
          "name": "",
          "type": "uint256"
        }
      ],
      "stateMutability": "view",
      "type": "function"
    },
    {
      "inputs": [],
      "name": "bridge",
      "outputs": [
        {
          "internalType": "address",
          "name": "",
          "type": "address"
        }
      ],
      "stateMutability": "view",
      "type": "function"
    },
    {
      "inputs": [
        {
          "internalType": "address",
          "name": "_from",
          "type": "address"
        },
        {
          "internalType": "uint256",
          "name": "_amount",
          "type": "uint256"
        }
      ],
      "name": "burn",
      "outputs": [],
      "stateMutability": "nonpayable",
      "type": "function"
    },
    {
      "inputs": [],
      "name": "decimals",
      "outputs": [
        {
          "internalType": "uint8",
          "name": "",
          "type": "uint8"
        }
      ],
      "stateMutability": "view",
      "type": "function"
    },
    {
      "inputs": [],
      "name": "l1Token",
      "outputs": [
        {
          "internalType": "address",
          "name": "",
          "type": "address"
        }
      ],
      "stateMutability": "view",
      "type": "function"
    },
    {
      "inputs": [],
      "name": "l2Bridge",
      "outputs": [
        {
          "internalType": "address",
          "name": "",
          "type": "address"
        }
      ],
      "stateMutability": "view",
      "type": "function"
    },
    {
      "inputs": [
        {
          "internalType": "address",
          "name": "_to",
          "type": "address"
        },
        {
          "internalType": "uint256",
          "name": "_amount",
          "type": "uint256"
        }
      ],
      "name": "mint",
      "outputs": [],
      "stateMutability": "nonpayable",
      "type": "function"
    },
    {
      "inputs": [],
      "name": "name",
      "outputs": [
        {
          "internalType": "string",
          "name": "",
          "type": "string"
        }
      ],
      "stateMutability": "view",
      "type": "function"
    },
    {
      "inputs": [],
      "name": "remoteToken",
      "outputs": [
        {
          "internalType": "address",
          "name": "",
          "type": "address"
        }
      ],
      "stateMutability": "view",
      "type": "function"
    },
    {
      "inputs": [
        {
          "internalType": "bytes4",
          "name": "_interfaceId",
          "type": "bytes4"
        }
      ],
      "name": "supportsInterface",
      "outputs": [
        {
          "internalType": "bool",
          "name": "",
          "type": "bool"
        }
      ],
      "stateMutability": "pure",
      "type": "function"
    },
    {
      "inputs": [],
      "name": "symbol",
      "outputs": [
        {
          "internalType": "string",
          "name": "",
          "type": "string"
        }
      ],
      "stateMutability": "view",
      "type": "function"
    },
    {
      "inputs": [],
      "name": "totalSupply",
      "outputs": [
        {
          "internalType": "uint256",
          "name": "",
          "type": "uint256"
        }
      ],
      "stateMutability": "view",
      "type": "function"
    },
    {
      "inputs": [
        {
          "internalType": "address",
          "name": "to",
          "type": "address"
        },
        {
          "internalType": "uint256",
          "name": "value",
          "type": "uint256"
        }
      ],
      "name": "transfer",
      "outputs": [
        {
          "internalType": "bool",
          "name": "",
          "type": "bool"
        }
      ],
      "stateMutability": "nonpayable",
      "type": "function"
    },
    {
      "inputs": [
        {
          "internalType": "address",
          "name": "from",
          "type": "address"
        },
        {
          "internalType": "address",
          "name": "to",
          "type": "address"
        },
        {
          "internalType": "uint256",
          "name": "value",
          "type": "uint256"
        }
      ],
      "name": "transferFrom",
      "outputs": [
        {
          "internalType": "bool",
          "name": "",
          "type": "bool"
        }
      ],
      "stateMutability": "nonpayable",
      "type": "function"
    }
  ],
  "transactionHash": "0x43c4ce51db843a1c9b28cab867ac4f71064fb44bede1ed9c366c36dd2a3c4a19",
  "args": [
    "0x4200000000000000000000000000000000000010",
    "0x9DDC1EFe941cACC23F447882e9337a726Af4223a",
    "Edgeless Wrapped USD",
    "ewUSD"
  ],
  "numDeployments": 1,
  "solcInputHash": "60d155b7606fab173f7ddb8171c4be14",
  "bytecode": "0x60c06040523480156200001157600080fd5b5060405162000e4838038062000e48833981016040819052620000349162000155565b8181600362000044838262000276565b50600462000053828262000276565b5050506001600160a01b0392831660805250501660a05262000342565b80516001600160a01b03811681146200008857600080fd5b919050565b634e487b7160e01b600052604160045260246000fd5b600082601f830112620000b557600080fd5b81516001600160401b0380821115620000d257620000d26200008d565b604051601f8301601f19908116603f01168101908282118183101715620000fd57620000fd6200008d565b81604052838152602092508660208588010111156200011b57600080fd5b600091505b838210156200013f578582018301518183018401529082019062000120565b6000602085830101528094505050505092915050565b600080600080608085870312156200016c57600080fd5b620001778562000070565b9350620001876020860162000070565b60408601519093506001600160401b0380821115620001a557600080fd5b620001b388838901620000a3565b93506060870151915080821115620001ca57600080fd5b50620001d987828801620000a3565b91505092959194509250565b600181811c90821680620001fa57607f821691505b6020821081036200021b57634e487b7160e01b600052602260045260246000fd5b50919050565b601f82111562000271576000816000526020600020601f850160051c810160208610156200024c5750805b601f850160051c820191505b818110156200026d5782815560010162000258565b5050505b505050565b81516001600160401b038111156200029257620002926200008d565b620002aa81620002a38454620001e5565b8462000221565b602080601f831160018114620002e25760008415620002c95750858301515b600019600386901b1c1916600185901b1785556200026d565b600085815260208120601f198616915b828110156200031357888601518255948401946001909101908401620002f2565b5085821015620003325787850151600019600388901b60f8161c191681555b5050505050600190811b01905550565b60805160a051610ac4620003846000396000818161021101528181610273015281816103ce015261047f01526000818161011801526102370152610ac46000f3fe608060405234801561001057600080fd5b50600436106100e65760003560e01c806301ffc9a7146100eb578063033964be1461011357806306fdde0314610147578063095ea7b31461015c57806318160ddd1461016f57806323b872dd14610181578063313ce5671461019457806340c10f19146101a357806370a08231146101b857806395d89b41146101e15780639dc29fac146101e9578063a9059cbb146101fc578063ae1f6aaf1461020f578063c01e1bd614610235578063d6c0b2c414610235578063dd62ed3e1461025b578063e78cea921461020f578063ee9a31a21461026e575b600080fd5b6100fe6100f936600461085a565b610295565b60405190151581526020015b60405180910390f35b61013a7f000000000000000000000000000000000000000000000000000000000000000081565b60405161010a919061088b565b61014f6102f3565b60405161010a919061089f565b6100fe61016a36600461090a565b610385565b6002545b60405190815260200161010a565b6100fe61018f366004610934565b61039f565b6040516012815260200161010a565b6101b66101b136600461090a565b6103c3565b005b6101736101c6366004610970565b6001600160a01b031660009081526020819052604090205490565b61014f610465565b6101b66101f736600461090a565b610474565b6100fe61020a36600461090a565b610501565b7f000000000000000000000000000000000000000000000000000000000000000061013a565b7f000000000000000000000000000000000000000000000000000000000000000061013a565b61017361026936600461098b565b61050f565b61013a7f000000000000000000000000000000000000000000000000000000000000000081565b60006301ffc9a760e01b631d1d8b6360e01b63ec4fc8e360e01b6001600160e01b031985168314806102d357506001600160e01b0319858116908316145b806102ea57506001600160e01b0319858116908216145b95945050505050565b606060038054610302906109be565b80601f016020809104026020016040519081016040528092919081815260200182805461032e906109be565b801561037b5780601f106103505761010080835404028352916020019161037b565b820191906000526020600020905b81548152906001019060200180831161035e57829003601f168201915b5050505050905090565b60003361039381858561053a565b60019150505b92915050565b6000336103ad85828561054c565b6103b885858561059f565b506001949350505050565b336001600160a01b037f000000000000000000000000000000000000000000000000000000000000000016146104145760405162461bcd60e51b815260040161040b906109f8565b60405180910390fd5b61041e82826105fe565b816001600160a01b03167f0f6798a560793a54c3bcfe86a93cde1e73087d944c0ea20544137d41213968858260405161045991815260200190565b60405180910390a25050565b606060048054610302906109be565b336001600160a01b037f000000000000000000000000000000000000000000000000000000000000000016146104bc5760405162461bcd60e51b815260040161040b906109f8565b6104c68282610638565b816001600160a01b03167fcc16f5dbb4873280815c1ee09dbd06736cffcc184412cf7a71a0fdb75d397ca58260405161045991815260200190565b60003361039381858561059f565b6001600160a01b03918216600090815260016020908152604080832093909416825291909152205490565b610547838383600161066e565b505050565b6000610558848461050f565b90506000198114610599578181101561058a57828183604051637dc7a0d960e11b815260040161040b93929190610a4c565b6105998484848403600061066e565b50505050565b6001600160a01b0383166105c9576000604051634b637e8f60e11b815260040161040b919061088b565b6001600160a01b0382166105f357600060405163ec442f0560e01b815260040161040b919061088b565b610547838383610743565b6001600160a01b03821661062857600060405163ec442f0560e01b815260040161040b919061088b565b61063460008383610743565b5050565b6001600160a01b038216610662576000604051634b637e8f60e11b815260040161040b919061088b565b61063482600083610743565b6001600160a01b03841661069857600060405163e602df0560e01b815260040161040b919061088b565b6001600160a01b0383166106c2576000604051634a1406b160e11b815260040161040b919061088b565b6001600160a01b038085166000908152600160209081526040808320938716835292905220829055801561059957826001600160a01b0316846001600160a01b03167f8c5be1e5ebec7d5bd14f71427d1e84f3dd0314c0f7b2291e5b200ac8c7c3b9258460405161073591815260200190565b60405180910390a350505050565b6001600160a01b03831661076e5780600260008282546107639190610a6d565b909155506107cd9050565b6001600160a01b038316600090815260208190526040902054818110156107ae5783818360405163391434e360e21b815260040161040b93929190610a4c565b6001600160a01b03841660009081526020819052604090209082900390555b6001600160a01b0382166107e957600280548290039055610808565b6001600160a01b03821660009081526020819052604090208054820190555b816001600160a01b0316836001600160a01b03167fddf252ad1be2c89b69c2b068fc378daa952ba7f163c4a11628f55a4df523b3ef8360405161084d91815260200190565b60405180910390a3505050565b60006020828403121561086c57600080fd5b81356001600160e01b03198116811461088457600080fd5b9392505050565b6001600160a01b0391909116815260200190565b60006020808352835180602085015260005b818110156108cd578581018301518582016040015282016108b1565b506000604082860101526040601f19601f8301168501019250505092915050565b80356001600160a01b038116811461090557600080fd5b919050565b6000806040838503121561091d57600080fd5b610926836108ee565b946020939093013593505050565b60008060006060848603121561094957600080fd5b610952846108ee565b9250610960602085016108ee565b9150604084013590509250925092565b60006020828403121561098257600080fd5b610884826108ee565b6000806040838503121561099e57600080fd5b6109a7836108ee565b91506109b5602084016108ee565b90509250929050565b600181811c908216806109d257607f821691505b6020821081036109f257634e487b7160e01b600052602260045260246000fd5b50919050565b60208082526034908201527f4f7074696d69736d4d696e7461626c6545524332303a206f6e6c79206272696460408201527333b29031b0b71036b4b73a1030b73210313ab93760611b606082015260800190565b6001600160a01b039390931683526020830191909152604082015260600190565b8082018082111561039957634e487b7160e01b600052601160045260246000fdfea2646970667358221220ba9f2cdfc30d37726dd080009e6a0484c597fc2322b814acb2e4e10beb271eaa64736f6c63430008170033",
  "devdoc": {
    "errors": {
      "ERC20InsufficientAllowance(address,uint256,uint256)": [
        {
          "details": "Indicates a failure with the `spender`s `allowance`. Used in transfers.",
          "params": {
            "allowance": "Amount of tokens a `spender` is allowed to operate with.",
            "needed": "Minimum amount required to perform a transfer.",
            "spender": "Address that may be allowed to operate on tokens without being their owner."
          }
        }
      ],
      "ERC20InsufficientBalance(address,uint256,uint256)": [
        {
          "details": "Indicates an error related to the current `balance` of a `sender`. Used in transfers.",
          "params": {
            "balance": "Current balance for the interacting account.",
            "needed": "Minimum amount required to perform a transfer.",
            "sender": "Address whose tokens are being transferred."
          }
        }
      ],
      "ERC20InvalidApprover(address)": [
        {
          "details": "Indicates a failure with the `approver` of a token to be approved. Used in approvals.",
          "params": {
            "approver": "Address initiating an approval operation."
          }
        }
      ],
      "ERC20InvalidReceiver(address)": [
        {
          "details": "Indicates a failure with the token `receiver`. Used in transfers.",
          "params": {
            "receiver": "Address to which tokens are being transferred."
          }
        }
      ],
      "ERC20InvalidSender(address)": [
        {
          "details": "Indicates a failure with the token `sender`. Used in transfers.",
          "params": {
            "sender": "Address whose tokens are being transferred."
          }
        }
      ],
      "ERC20InvalidSpender(address)": [
        {
          "details": "Indicates a failure with the `spender` to be approved. Used in approvals.",
          "params": {
            "spender": "Address that may be allowed to operate on tokens without being their owner."
          }
        }
      ]
    },
    "events": {
      "Approval(address,address,uint256)": {
        "details": "Emitted when the allowance of a `spender` for an `owner` is set by a call to {approve}. `value` is the new allowance."
      },
      "Burn(address,uint256)": {
        "params": {
          "account": "Address of the account tokens are being burned from.",
          "amount": "Amount of tokens burned."
        }
      },
      "Mint(address,uint256)": {
        "params": {
          "account": "Address of the account tokens are being minted for.",
          "amount": "Amount of tokens minted."
        }
      },
      "Transfer(address,address,uint256)": {
        "details": "Emitted when `value` tokens are moved from one account (`from`) to another (`to`). Note that `value` may be zero."
      }
    },
    "kind": "dev",
    "methods": {
      "allowance(address,address)": {
        "details": "See {IERC20-allowance}."
      },
      "approve(address,uint256)": {
        "details": "See {IERC20-approve}. NOTE: If `value` is the maximum `uint256`, the allowance is not updated on `transferFrom`. This is semantically equivalent to an infinite approval. Requirements: - `spender` cannot be the zero address."
      },
      "balanceOf(address)": {
        "details": "See {IERC20-balanceOf}."
      },
      "bridge()": {
        "custom:legacy": "@notice Legacy getter for BRIDGE."
      },
      "burn(address,uint256)": {
        "params": {
          "_amount": "Amount of tokens to burn.",
          "_from": "Address to burn tokens from."
        }
      },
      "constructor": {
        "params": {
          "_bridge": "Address of the L2 standard bridge.",
          "_name": "ERC20 name.",
          "_remoteToken": "Address of the corresponding L1 token.",
          "_symbol": "ERC20 symbol."
        }
      },
      "decimals()": {
        "details": "Returns the number of decimals used to get its user representation. For example, if `decimals` equals `2`, a balance of `505` tokens should be displayed to a user as `5.05` (`505 / 10 ** 2`). Tokens usually opt for a value of 18, imitating the relationship between Ether and Wei. This is the default value returned by this function, unless it's overridden. NOTE: This information is only used for _display_ purposes: it in no way affects any of the arithmetic of the contract, including {IERC20-balanceOf} and {IERC20-transfer}."
      },
      "l1Token()": {
        "custom:legacy": "@notice Legacy getter for the remote token. Use REMOTE_TOKEN going forward."
      },
      "l2Bridge()": {
        "custom:legacy": "@notice Legacy getter for the bridge. Use BRIDGE going forward."
      },
      "mint(address,uint256)": {
        "params": {
          "_amount": "Amount of tokens to mint.",
          "_to": "Address to mint tokens to."
        }
      },
      "name()": {
        "details": "Returns the name of the token."
      },
      "remoteToken()": {
        "custom:legacy": "@notice Legacy getter for REMOTE_TOKEN."
      },
      "supportsInterface(bytes4)": {
        "params": {
          "_interfaceId": "Interface ID to check."
        },
        "returns": {
          "_0": "Whether or not the interface is supported by this contract."
        }
      },
      "symbol()": {
        "details": "Returns the symbol of the token, usually a shorter version of the name."
      },
      "totalSupply()": {
        "details": "See {IERC20-totalSupply}."
      },
      "transfer(address,uint256)": {
        "details": "See {IERC20-transfer}. Requirements: - `to` cannot be the zero address. - the caller must have a balance of at least `value`."
      },
      "transferFrom(address,address,uint256)": {
        "details": "See {IERC20-transferFrom}. Emits an {Approval} event indicating the updated allowance. This is not required by the EIP. See the note at the beginning of {ERC20}. NOTE: Does not update the allowance if the current allowance is the maximum `uint256`. Requirements: - `from` and `to` cannot be the zero address. - `from` must have a balance of at least `value`. - the caller must have allowance for ``from``'s tokens of at least `value`."
      }
    },
    "title": "OptimismMintableERC20",
    "version": 1
  },
  "userdoc": {
    "events": {
      "Burn(address,uint256)": {
        "notice": "Emitted whenever tokens are burned from an account."
      },
      "Mint(address,uint256)": {
        "notice": "Emitted whenever tokens are minted for an account."
      }
    },
    "kind": "user",
    "methods": {
      "BRIDGE()": {
        "notice": "Address of the StandardBridge on this network."
      },
      "REMOTE_TOKEN()": {
        "notice": "Address of the corresponding version of this token on the remote chain."
      },
      "burn(address,uint256)": {
        "notice": "Allows the StandardBridge on this network to burn tokens."
      },
      "mint(address,uint256)": {
        "notice": "Allows the StandardBridge on this network to mint tokens."
      },
      "supportsInterface(bytes4)": {
        "notice": "ERC165 interface check function."
      }
    },
    "notice": "OptimismMintableERC20 is a standard extension of the base ERC20 token contract designed         to allow the StandardBridge contracts to mint and burn tokens. This makes it possible to         use an OptimismMintablERC20 as the L2 representation of an L1 token, or vice-versa.         Designed to be backwards compatible with the older StandardL2ERC20 token which was only         meant for use on L2.",
    "version": 1
  },
  "storageLayout": {
    "storage": [
      {
        "astId": 1381,
        "contract": "src/edgeless/OptimismMintableERC20.sol:OptimismMintableERC20",
        "label": "_balances",
        "offset": 0,
        "slot": "0",
        "type": "t_mapping(t_address,t_uint256)"
      },
      {
        "astId": 1387,
        "contract": "src/edgeless/OptimismMintableERC20.sol:OptimismMintableERC20",
        "label": "_allowances",
        "offset": 0,
        "slot": "1",
        "type": "t_mapping(t_address,t_mapping(t_address,t_uint256))"
      },
      {
        "astId": 1389,
        "contract": "src/edgeless/OptimismMintableERC20.sol:OptimismMintableERC20",
        "label": "_totalSupply",
        "offset": 0,
        "slot": "2",
        "type": "t_uint256"
      },
      {
        "astId": 1391,
        "contract": "src/edgeless/OptimismMintableERC20.sol:OptimismMintableERC20",
        "label": "_name",
        "offset": 0,
        "slot": "3",
        "type": "t_string_storage"
      },
      {
        "astId": 1393,
        "contract": "src/edgeless/OptimismMintableERC20.sol:OptimismMintableERC20",
        "label": "_symbol",
        "offset": 0,
        "slot": "4",
        "type": "t_string_storage"
      }
    ],
    "types": {
      "t_address": {
        "encoding": "inplace",
        "label": "address",
        "numberOfBytes": "20"
      },
      "t_mapping(t_address,t_mapping(t_address,t_uint256))": {
        "encoding": "mapping",
        "key": "t_address",
        "label": "mapping(address => mapping(address => uint256))",
        "numberOfBytes": "32",
        "value": "t_mapping(t_address,t_uint256)"
      },
      "t_mapping(t_address,t_uint256)": {
        "encoding": "mapping",
        "key": "t_address",
        "label": "mapping(address => uint256)",
        "numberOfBytes": "32",
        "value": "t_uint256"
      },
      "t_string_storage": {
        "encoding": "bytes",
        "label": "string",
        "numberOfBytes": "32"
      },
      "t_uint256": {
        "encoding": "inplace",
        "label": "uint256",
        "numberOfBytes": "32"
      }
    }
  }
}