{
  "address": "0xE4E2BBaCAb9bE9258D7cf3eF9D993cfA81a55356",
  "abi": [
    {
      "inputs": [],
      "stateMutability": "nonpayable",
      "type": "constructor"
    },
    {
      "inputs": [
        {
          "internalType": "address",
          "name": "target",
          "type": "address"
        }
      ],
      "name": "AddressEmptyCode",
      "type": "error"
    },
    {
      "inputs": [
        {
          "internalType": "address",
          "name": "implementation",
          "type": "address"
        }
      ],
      "name": "ERC1967InvalidImplementation",
      "type": "error"
    },
    {
      "inputs": [],
      "name": "ERC1967NonPayable",
      "type": "error"
    },
    {
      "inputs": [],
      "name": "FailedInnerCall",
      "type": "error"
    },
    {
      "inputs": [],
      "name": "InvalidInitialization",
      "type": "error"
    },
    {
      "inputs": [],
      "name": "MaxMintExceeded",
      "type": "error"
    },
    {
      "inputs": [],
      "name": "NotInitializing",
      "type": "error"
    },
    {
      "inputs": [
        {
          "internalType": "address",
          "name": "owner",
          "type": "address"
        }
      ],
      "name": "OwnableInvalidOwner",
      "type": "error"
    },
    {
      "inputs": [
        {
          "internalType": "address",
          "name": "account",
          "type": "address"
        }
      ],
      "name": "OwnableUnauthorizedAccount",
      "type": "error"
    },
    {
      "inputs": [
        {
          "internalType": "bytes",
          "name": "data",
          "type": "bytes"
        }
      ],
      "name": "TransferFailed",
      "type": "error"
    },
    {
      "inputs": [],
      "name": "UUPSUnauthorizedCallContext",
      "type": "error"
    },
    {
      "inputs": [
        {
          "internalType": "bytes32",
          "name": "slot",
          "type": "bytes32"
        }
      ],
      "name": "UUPSUnsupportedProxiableUUID",
      "type": "error"
    },
    {
      "inputs": [],
      "name": "ZeroAddress",
      "type": "error"
    },
    {
      "anonymous": false,
      "inputs": [
        {
          "indexed": true,
          "internalType": "address",
          "name": "to",
          "type": "address"
        },
        {
          "indexed": true,
          "internalType": "address",
          "name": "from",
          "type": "address"
        },
        {
          "indexed": false,
          "internalType": "uint256",
          "name": "EthAmount",
          "type": "uint256"
        },
        {
          "indexed": false,
          "internalType": "uint256",
          "name": "mintAmount",
          "type": "uint256"
        }
      ],
      "name": "DepositEth",
      "type": "event"
    },
    {
      "anonymous": false,
      "inputs": [
        {
          "indexed": false,
          "internalType": "uint64",
          "name": "version",
          "type": "uint64"
        }
      ],
      "name": "Initialized",
      "type": "event"
    },
    {
      "anonymous": false,
      "inputs": [
        {
          "indexed": true,
          "internalType": "address",
          "name": "to",
          "type": "address"
        },
        {
          "indexed": false,
          "internalType": "uint256",
          "name": "amount",
          "type": "uint256"
        }
      ],
      "name": "MintWrappedEth",
      "type": "event"
    },
    {
      "anonymous": false,
      "inputs": [
        {
          "indexed": true,
          "internalType": "address",
          "name": "previousOwner",
          "type": "address"
        },
        {
          "indexed": true,
          "internalType": "address",
          "name": "newOwner",
          "type": "address"
        }
      ],
      "name": "OwnershipTransferStarted",
      "type": "event"
    },
    {
      "anonymous": false,
      "inputs": [
        {
          "indexed": true,
          "internalType": "address",
          "name": "previousOwner",
          "type": "address"
        },
        {
          "indexed": true,
          "internalType": "address",
          "name": "newOwner",
          "type": "address"
        }
      ],
      "name": "OwnershipTransferred",
      "type": "event"
    },
    {
      "anonymous": false,
      "inputs": [
        {
          "indexed": false,
          "internalType": "uint256",
          "name": "amount",
          "type": "uint256"
        }
      ],
      "name": "ReceivedStakingManagerWithdrawal",
      "type": "event"
    },
    {
      "anonymous": false,
      "inputs": [
        {
          "indexed": true,
          "internalType": "address",
          "name": "implementation",
          "type": "address"
        }
      ],
      "name": "Upgraded",
      "type": "event"
    },
    {
      "anonymous": false,
      "inputs": [
        {
          "indexed": true,
          "internalType": "address",
          "name": "from",
          "type": "address"
        },
        {
          "indexed": true,
          "internalType": "address",
          "name": "to",
          "type": "address"
        },
        {
          "indexed": false,
          "internalType": "uint256",
          "name": "EthAmountWithdrew",
          "type": "uint256"
        },
        {
          "indexed": false,
          "internalType": "uint256",
          "name": "burnAmount",
          "type": "uint256"
        }
      ],
      "name": "WithdrawEth",
      "type": "event"
    },
    {
      "inputs": [],
      "name": "UPGRADE_INTERFACE_VERSION",
      "outputs": [
        {
          "internalType": "string",
          "name": "",
          "type": "string"
        }
      ],
      "stateMutability": "view",
      "type": "function"
    },
    {
      "inputs": [],
      "name": "acceptOwnership",
      "outputs": [],
      "stateMutability": "nonpayable",
      "type": "function"
    },
    {
      "inputs": [
        {
          "internalType": "address",
          "name": "to",
          "type": "address"
        }
      ],
      "name": "depositEth",
      "outputs": [],
      "stateMutability": "payable",
      "type": "function"
    },
    {
      "inputs": [
        {
          "internalType": "address",
          "name": "_owner",
          "type": "address"
        },
        {
          "internalType": "contract StakingManager",
          "name": "_stakingManager",
          "type": "address"
        }
      ],
      "name": "initialize",
      "outputs": [],
      "stateMutability": "nonpayable",
      "type": "function"
    },
    {
      "inputs": [
        {
          "internalType": "address",
          "name": "to",
          "type": "address"
        },
        {
          "internalType": "uint256",
          "name": "amount",
          "type": "uint256"
        }
      ],
      "name": "mintEthBasedOnStakedAmount",
      "outputs": [],
      "stateMutability": "nonpayable",
      "type": "function"
    },
    {
      "inputs": [],
      "name": "owner",
      "outputs": [
        {
          "internalType": "address",
          "name": "",
          "type": "address"
        }
      ],
      "stateMutability": "view",
      "type": "function"
    },
    {
      "inputs": [],
      "name": "pendingOwner",
      "outputs": [
        {
          "internalType": "address",
          "name": "",
          "type": "address"
        }
      ],
      "stateMutability": "view",
      "type": "function"
    },
    {
      "inputs": [],
      "name": "proxiableUUID",
      "outputs": [
        {
          "internalType": "bytes32",
          "name": "",
          "type": "bytes32"
        }
      ],
      "stateMutability": "view",
      "type": "function"
    },
    {
      "inputs": [],
      "name": "renounceOwnership",
      "outputs": [],
      "stateMutability": "nonpayable",
      "type": "function"
    },
    {
      "inputs": [],
      "name": "stakingManager",
      "outputs": [
        {
          "internalType": "contract StakingManager",
          "name": "",
          "type": "address"
        }
      ],
      "stateMutability": "view",
      "type": "function"
    },
    {
      "inputs": [
        {
          "internalType": "address",
          "name": "newOwner",
          "type": "address"
        }
      ],
      "name": "transferOwnership",
      "outputs": [],
      "stateMutability": "nonpayable",
      "type": "function"
    },
    {
      "inputs": [],
      "name": "upgrade",
      "outputs": [],
      "stateMutability": "nonpayable",
      "type": "function"
    },
    {
      "inputs": [
        {
          "internalType": "address",
          "name": "newImplementation",
          "type": "address"
        },
        {
          "internalType": "bytes",
          "name": "data",
          "type": "bytes"
        }
      ],
      "name": "upgradeToAndCall",
      "outputs": [],
      "stateMutability": "payable",
      "type": "function"
    },
    {
      "inputs": [
        {
          "internalType": "address",
          "name": "to",
          "type": "address"
        },
        {
          "internalType": "uint256",
          "name": "amount",
          "type": "uint256"
        }
      ],
      "name": "withdrawEth",
      "outputs": [],
      "stateMutability": "nonpayable",
      "type": "function"
    },
    {
      "inputs": [],
      "name": "wrappedEth",
      "outputs": [
        {
          "internalType": "contract WrappedToken",
          "name": "",
          "type": "address"
        }
      ],
      "stateMutability": "view",
      "type": "function"
    },
    {
      "stateMutability": "payable",
      "type": "receive"
    }
  ],
  "transactionHash": "0x96f7fa419be834843786298365a0e4ca26e9d061d476faadaa561a7d3f991fc1",
  "args": [],
  "numDeployments": 1,
  "solcInputHash": "f421dc95f531cba494033b617e562788",
  "bytecode": "0x60a06040523060805234801561001457600080fd5b5061001d610022565b6100d4565b7ff0c57e16840df040f15088dc2f81fe391c3923bec73e23a9662efc9c229c6a00805468010000000000000000900460ff16156100725760405163f92ee8a960e01b815260040160405180910390fd5b80546001600160401b03908116146100d15780546001600160401b0319166001600160401b0390811782556040519081527fc7f505b2f371ae2175ee4913f4499e1f2633a7b5936321eed1cdaeb6115181d29060200160405180910390a15b50565b608051612a7f6100fd6000396000818161115e0152818161118801526113b60152612a7f6000f3fe608060405260043610620000ff5760003560e01c8063715018a61162000095578063ad9d4ba31162000060578063ad9d4ba31462000343578063d55ec697146200035a578063e30c39781462000372578063f2fde38b146200038a57600080fd5b8063715018a614620002a157806379ba509714620002b95780638da5cb5b14620002d1578063ad3cb1cc14620002e957600080fd5b8063485cc95511620000d6578063485cc955146200020f5780634f1ef286146200023457806352d1902d146200024b57806368ca883a146200027257600080fd5b80631b9a91a4146200016c57806322828cc214620001915780632bb33bbe14620001ea57600080fd5b36620001675760015473ffffffffffffffffffffffffffffffffffffffff1633036200015a576040513481527ffd11153dfaefca3a3390f4fe5048ca2682995d45d7d0fddbb072a279f18725dd9060200160405180910390a1005b6200016533620003af565b005b600080fd5b3480156200017957600080fd5b50620001656200018b36600462001818565b62000533565b3480156200019e57600080fd5b50600154620001c09073ffffffffffffffffffffffffffffffffffffffff1681565b60405173ffffffffffffffffffffffffffffffffffffffff90911681526020015b60405180910390f35b348015620001f757600080fd5b50620001656200020936600462001818565b620007ee565b3480156200021c57600080fd5b50620001656200022e36600462001847565b62000ae9565b6200016562000245366004620018b4565b62000ddc565b3480156200025857600080fd5b506200026362000e01565b604051908152602001620001e1565b3480156200027f57600080fd5b50600054620001c09073ffffffffffffffffffffffffffffffffffffffff1681565b348015620002ae57600080fd5b506200016562000e32565b348015620002c657600080fd5b506200016562000e4a565b348015620002de57600080fd5b50620001c062000ecb565b348015620002f657600080fd5b50620003346040518060400160405280600581526020017f352e302e3000000000000000000000000000000000000000000000000000000081525081565b604051620001e1919062001a14565b620001656200035436600462001a29565b620003af565b3480156200036757600080fd5b506200016562000f0d565b3480156200037f57600080fd5b50620001c062000f17565b3480156200039757600080fd5b5062000165620003a936600462001a29565b62000f41565b34620003bc828262000ffc565b600154604080517fa734f06e000000000000000000000000000000000000000000000000000000008152905173ffffffffffffffffffffffffffffffffffffffff909216916326476204918491849163a734f06e9160048083019260209291908290030181865afa15801562000436573d6000803e3d6000fd5b505050506040513d601f19601f820116820180604052508101906200045c919062001a49565b6040517fffffffff0000000000000000000000000000000000000000000000000000000060e085901b16815273ffffffffffffffffffffffffffffffffffffffff90911660048201526024016000604051808303818588803b158015620004c257600080fd5b505af1158015620004d7573d6000803e3d6000fd5b5050604080513481526020810186905233945073ffffffffffffffffffffffffffffffffffffffff871693507f5e7e61836e7aac688d4f66257806e3118cc7a380422ee384512b7812e53cd1aa92500160405180910390a35050565b6000546040517f9dc29fac0000000000000000000000000000000000000000000000000000000081523360048201526024810183905273ffffffffffffffffffffffffffffffffffffffff90911690639dc29fac90604401600060405180830381600087803b158015620005a657600080fd5b505af1158015620005bb573d6000803e3d6000fd5b50506001546040517f2e1a7d4d000000000000000000000000000000000000000000000000000000008152600481018590526000935073ffffffffffffffffffffffffffffffffffffffff9091169150632e1a7d4d906024016020604051808303816000875af115801562000634573d6000803e3d6000fd5b505050506040513d601f19601f820116820180604052508101906200065a919062001a69565b9050818114620006f1576040517f08c379a000000000000000000000000000000000000000000000000000000000815260206004820152603160248201527f456467656c6573734465706f7369743a205769746864726177616c20616d6f7560448201527f6e7420646f6573206e6f74206d6174636800000000000000000000000000000060648201526084015b60405180910390fd5b6000808473ffffffffffffffffffffffffffffffffffffffff168460405160006040518083038185875af1925050503d80600081146200074e576040519150601f19603f3d011682016040523d82523d6000602084013e62000753565b606091505b5091509150816200079457806040517f9a367e17000000000000000000000000000000000000000000000000000000008152600401620006e8919062001a14565b604080518581526020810186905273ffffffffffffffffffffffffffffffffffffffff87169133917f98dd409e09cadcfcca8697e6c594347ba2afdf87aa0ecb9281ce09ea76081ad1910160405180910390a35050505050565b620007f86200108e565b60008060009054906101000a900473ffffffffffffffffffffffffffffffffffffffff1673ffffffffffffffffffffffffffffffffffffffff166318160ddd6040518163ffffffff1660e01b8152600401602060405180830381865afa15801562000867573d6000803e3d6000fd5b505050506040513d601f19601f820116820180604052508101906200088d919062001a69565b600154604080517fa734f06e000000000000000000000000000000000000000000000000000000008152905173ffffffffffffffffffffffffffffffffffffffff9092169163b241908391839163a734f06e916004808201926020929091908290030181865afa15801562000906573d6000803e3d6000fd5b505050506040513d601f19601f820116820180604052508101906200092c919062001a49565b6040517fffffffff0000000000000000000000000000000000000000000000000000000060e084901b16815273ffffffffffffffffffffffffffffffffffffffff9091166004820152602401602060405180830381865afa15801562000996573d6000803e3d6000fd5b505050506040513d601f19601f82011682018060405250810190620009bc919062001a69565b620009c8919062001a83565b90508181101562000a05576040517f79d2bf0a00000000000000000000000000000000000000000000000000000000815260040160405180910390fd5b6000546040517f40c10f1900000000000000000000000000000000000000000000000000000000815273ffffffffffffffffffffffffffffffffffffffff858116600483015260248201859052909116906340c10f1990604401600060405180830381600087803b15801562000a7a57600080fd5b505af115801562000a8f573d6000803e3d6000fd5b505050508273ffffffffffffffffffffffffffffffffffffffff167f9c8e207d198ed50e04d0d89e27ec60af229e8a19f25b8efce8dbe4cfa0e563388360405162000adc91815260200190565b60405180910390a2505050565b7ff0c57e16840df040f15088dc2f81fe391c3923bec73e23a9662efc9c229c6a00805468010000000000000000810460ff16159067ffffffffffffffff1660008115801562000b355750825b905060008267ffffffffffffffff16600114801562000b535750303b155b90508115801562000b62575080155b1562000b9a576040517ff92ee8a900000000000000000000000000000000000000000000000000000000815260040160405180910390fd5b84547fffffffffffffffffffffffffffffffffffffffffffffffff0000000000000000166001178555831562000bfc5784547fffffffffffffffffffffffffffffffffffffffffffffff00ffffffffffffffff16680100000000000000001785555b73ffffffffffffffffffffffffffffffffffffffff871662000c4a576040517fd92e233d00000000000000000000000000000000000000000000000000000000815260040160405180910390fd5b3060405162000c5990620017e7565b73ffffffffffffffffffffffffffffffffffffffff90911681526060602082018190526014908201527f456467656c657373205772617070656420457468000000000000000000000000608082015260a0604082018190526005908201527f657745746800000000000000000000000000000000000000000000000000000060c082015260e001604051809103906000f08015801562000cfd573d6000803e3d6000fd5b50600080547fffffffffffffffffffffffff000000000000000000000000000000000000000090811673ffffffffffffffffffffffffffffffffffffffff938416179091556001805490911691881691909117905562000d5c620010ea565b62000d66620010ea565b62000d7187620010f4565b831562000dd35784547fffffffffffffffffffffffffffffffffffffffffffffff00ffffffffffffffff168555604051600181527fc7f505b2f371ae2175ee4913f4499e1f2633a7b5936321eed1cdaeb6115181d29060200160405180910390a15b50505050505050565b62000de662001146565b62000df1826200124d565b62000dfd828262001257565b5050565b600062000e0d6200139e565b507f360894a13ba1a3210667c828492db98dca3e2076cc3735a920a3ca505d382bbc90565b62000e3c6200108e565b62000e486000620010f4565b565b338062000e5662000f17565b73ffffffffffffffffffffffffffffffffffffffff161462000ebd576040517f118cdaa700000000000000000000000000000000000000000000000000000000815273ffffffffffffffffffffffffffffffffffffffff82166004820152602401620006e8565b62000ec881620010f4565b50565b6000807f9016d09d72d40fdae2fd8ceac6b6234c7706214fd39c1cd1e609a0528c1993005b5473ffffffffffffffffffffffffffffffffffffffff1692915050565b62000e486200108e565b6000807f237e158222e3e6968b72b9db0d8043aacf074ad9f650f0d1606b4d82ee432c0062000ef0565b62000f4b6200108e565b7f237e158222e3e6968b72b9db0d8043aacf074ad9f650f0d1606b4d82ee432c0080547fffffffffffffffffffffffff00000000000000000000000000000000000000001673ffffffffffffffffffffffffffffffffffffffff8316908117825562000fb662000ecb565b73ffffffffffffffffffffffffffffffffffffffff167f38d16b8cac22d99fc7c124b9cd0de2d3fa1faef420bfe791d8c362d765e2270060405160405180910390a35050565b6000546040517f40c10f1900000000000000000000000000000000000000000000000000000000815273ffffffffffffffffffffffffffffffffffffffff848116600483015260248201849052909116906340c10f1990604401600060405180830381600087803b1580156200107157600080fd5b505af115801562001086573d6000803e3d6000fd5b505050505050565b336200109962000ecb565b73ffffffffffffffffffffffffffffffffffffffff161462000e48576040517f118cdaa7000000000000000000000000000000000000000000000000000000008152336004820152602401620006e8565b62000e486200140e565b7f237e158222e3e6968b72b9db0d8043aacf074ad9f650f0d1606b4d82ee432c0080547fffffffffffffffffffffffff000000000000000000000000000000000000000016815562000dfd8262001476565b3073ffffffffffffffffffffffffffffffffffffffff7f00000000000000000000000000000000000000000000000000000000000000001614806200121557507f000000000000000000000000000000000000000000000000000000000000000073ffffffffffffffffffffffffffffffffffffffff16620011fc7f360894a13ba1a3210667c828492db98dca3e2076cc3735a920a3ca505d382bbc5473ffffffffffffffffffffffffffffffffffffffff1690565b73ffffffffffffffffffffffffffffffffffffffff1614155b1562000e48576040517fe07c8dba00000000000000000000000000000000000000000000000000000000815260040160405180910390fd5b62000ec86200108e565b8173ffffffffffffffffffffffffffffffffffffffff166352d1902d6040518163ffffffff1660e01b8152600401602060405180830381865afa925050508015620012df575060408051601f3d9081017fffffffffffffffffffffffffffffffffffffffffffffffffffffffffffffffe0168201909252620012dc9181019062001a69565b60015b6200132f576040517f4c9c8ce300000000000000000000000000000000000000000000000000000000815273ffffffffffffffffffffffffffffffffffffffff83166004820152602401620006e8565b7f360894a13ba1a3210667c828492db98dca3e2076cc3735a920a3ca505d382bbc81146200138d576040517faa1d49a400000000000000000000000000000000000000000000000000000000815260048101829052602401620006e8565b6200139983836200150c565b505050565b3073ffffffffffffffffffffffffffffffffffffffff7f0000000000000000000000000000000000000000000000000000000000000000161462000e48576040517fe07c8dba00000000000000000000000000000000000000000000000000000000815260040160405180910390fd5b7ff0c57e16840df040f15088dc2f81fe391c3923bec73e23a9662efc9c229c6a005468010000000000000000900460ff1662000e48576040517fd7e6bcf800000000000000000000000000000000000000000000000000000000815260040160405180910390fd5b7f9016d09d72d40fdae2fd8ceac6b6234c7706214fd39c1cd1e609a0528c19930080547fffffffffffffffffffffffff0000000000000000000000000000000000000000811673ffffffffffffffffffffffffffffffffffffffff848116918217845560405192169182907f8be0079c531659141344cd1fd0a4f28419497f9722a3daafe3b4186f6b6457e090600090a3505050565b620015178262001576565b60405173ffffffffffffffffffffffffffffffffffffffff8316907fbc7cd75a20ee27fd9adebab32041f755214dbc6bffa90cc0225b39da2e5c2d3b90600090a28051156200156c5762001399828262001647565b62000dfd620016d2565b8073ffffffffffffffffffffffffffffffffffffffff163b600003620015e1576040517f4c9c8ce300000000000000000000000000000000000000000000000000000000815273ffffffffffffffffffffffffffffffffffffffff82166004820152602401620006e8565b7f360894a13ba1a3210667c828492db98dca3e2076cc3735a920a3ca505d382bbc80547fffffffffffffffffffffffff00000000000000000000000000000000000000001673ffffffffffffffffffffffffffffffffffffffff92909216919091179055565b60606000808473ffffffffffffffffffffffffffffffffffffffff168460405162001673919062001abe565b600060405180830381855af49150503d8060008114620016b0576040519150601f19603f3d011682016040523d82523d6000602084013e620016b5565b606091505b5091509150620016c78583836200170b565b925050505b92915050565b341562000e48576040517fb398979f00000000000000000000000000000000000000000000000000000000815260040160405180910390fd5b60608262001724576200171e82620017a4565b6200179d565b815115801562001749575073ffffffffffffffffffffffffffffffffffffffff84163b155b156200179a576040517f9996b31500000000000000000000000000000000000000000000000000000000815273ffffffffffffffffffffffffffffffffffffffff85166004820152602401620006e8565b50805b9392505050565b805115620017b55780518082602001fd5b6040517f1425ea4200000000000000000000000000000000000000000000000000000000815260040160405180910390fd5b610f6d8062001add83390190565b73ffffffffffffffffffffffffffffffffffffffff8116811462000ec857600080fd5b600080604083850312156200182c57600080fd5b82356200183981620017f5565b946020939093013593505050565b600080604083850312156200185b57600080fd5b82356200186881620017f5565b915060208301356200187a81620017f5565b809150509250929050565b7f4e487b7100000000000000000000000000000000000000000000000000000000600052604160045260246000fd5b60008060408385031215620018c857600080fd5b8235620018d581620017f5565b9150602083013567ffffffffffffffff80821115620018f357600080fd5b818501915085601f8301126200190857600080fd5b8135818111156200191d576200191d62001885565b604051601f82017fffffffffffffffffffffffffffffffffffffffffffffffffffffffffffffffe0908116603f0116810190838211818310171562001966576200196662001885565b816040528281528860208487010111156200198057600080fd5b8260208601602083013760006020848301015280955050505050509250929050565b60005b83811015620019bf578181015183820152602001620019a5565b50506000910152565b60008151808452620019e2816020860160208601620019a2565b601f017fffffffffffffffffffffffffffffffffffffffffffffffffffffffffffffffe0169290920160200192915050565b6020815260006200179d6020830184620019c8565b60006020828403121562001a3c57600080fd5b81356200179d81620017f5565b60006020828403121562001a5c57600080fd5b81516200179d81620017f5565b60006020828403121562001a7c57600080fd5b5051919050565b81810381811115620016cc577f4e487b7100000000000000000000000000000000000000000000000000000000600052601160045260246000fd5b6000825162001ad2818460208701620019a2565b919091019291505056fe60a06040523480156200001157600080fd5b5060405162000f6d38038062000f6d833981016040819052620000349162000135565b8181600362000044838262000250565b50600462000053828262000250565b5050506001600160a01b03909216608052506200031c9050565b634e487b7160e01b600052604160045260246000fd5b600082601f8301126200009557600080fd5b81516001600160401b0380821115620000b257620000b26200006d565b604051601f8301601f19908116603f01168101908282118183101715620000dd57620000dd6200006d565b8160405283815260209250866020858801011115620000fb57600080fd5b600091505b838210156200011f578582018301518183018401529082019062000100565b6000602085830101528094505050505092915050565b6000806000606084860312156200014b57600080fd5b83516001600160a01b03811681146200016357600080fd5b60208501519093506001600160401b03808211156200018157600080fd5b6200018f8783880162000083565b93506040860151915080821115620001a657600080fd5b50620001b58682870162000083565b9150509250925092565b600181811c90821680620001d457607f821691505b602082108103620001f557634e487b7160e01b600052602260045260246000fd5b50919050565b601f8211156200024b576000816000526020600020601f850160051c81016020861015620002265750805b601f850160051c820191505b81811015620002475782815560010162000232565b5050505b505050565b81516001600160401b038111156200026c576200026c6200006d565b62000284816200027d8454620001bf565b84620001fb565b602080601f831160018114620002bc5760008415620002a35750858301515b600019600386901b1c1916600185901b17855562000247565b600085815260208120601f198616915b82811015620002ed57888601518255948401946001909101908401620002cc565b50858210156200030c5787850151600019600388901b60f8161c191681555b5050505050600190811b01905550565b608051610c28620003456000396000818160fc01528181610341015261041d0152610c286000f3fe608060405234801561001057600080fd5b50600436106100d45760003560e01c806340c10f19116100815780639dc29fac1161005b5780639dc29fac146101ed578063a9059cbb14610200578063dd62ed3e1461021357600080fd5b806340c10f191461019a57806370a08231146101af57806395d89b41146101e557600080fd5b806318160ddd116100b257806318160ddd1461016657806323b872dd14610178578063313ce5671461018b57600080fd5b806306fdde03146100d957806307546172146100f7578063095ea7b314610143575b600080fd5b6100e1610259565b6040516100ee9190610a14565b60405180910390f35b61011e7f000000000000000000000000000000000000000000000000000000000000000081565b60405173ffffffffffffffffffffffffffffffffffffffff90911681526020016100ee565b610156610151366004610aaa565b6102eb565b60405190151581526020016100ee565b6002545b6040519081526020016100ee565b610156610186366004610ad4565b610305565b604051601281526020016100ee565b6101ad6101a8366004610aaa565b610329565b005b61016a6101bd366004610b10565b73ffffffffffffffffffffffffffffffffffffffff1660009081526020819052604090205490565b6100e16103f6565b6101ad6101fb366004610aaa565b610405565b61015661020e366004610aaa565b6104c6565b61016a610221366004610b32565b73ffffffffffffffffffffffffffffffffffffffff918216600090815260016020908152604080832093909416825291909152205490565b60606003805461026890610b65565b80601f016020809104026020016040519081016040528092919081815260200182805461029490610b65565b80156102e15780601f106102b6576101008083540402835291602001916102e1565b820191906000526020600020905b8154815290600101906020018083116102c457829003601f168201915b5050505050905090565b6000336102f98185856104d4565b60019150505b92915050565b6000336103138582856104e6565b61031e8585856105ba565b506001949350505050565b3373ffffffffffffffffffffffffffffffffffffffff7f00000000000000000000000000000000000000000000000000000000000000001614610398576040517f469d9d3300000000000000000000000000000000000000000000000000000000815260040160405180910390fd5b6103a28282610665565b8173ffffffffffffffffffffffffffffffffffffffff167f0f6798a560793a54c3bcfe86a93cde1e73087d944c0ea20544137d4121396885826040516103ea91815260200190565b60405180910390a25050565b60606004805461026890610b65565b3373ffffffffffffffffffffffffffffffffffffffff7f00000000000000000000000000000000000000000000000000000000000000001614610474576040517f469d9d3300000000000000000000000000000000000000000000000000000000815260040160405180910390fd5b61047e82826106c5565b8173ffffffffffffffffffffffffffffffffffffffff167fcc16f5dbb4873280815c1ee09dbd06736cffcc184412cf7a71a0fdb75d397ca5826040516103ea91815260200190565b6000336102f98185856105ba565b6104e18383836001610721565b505050565b73ffffffffffffffffffffffffffffffffffffffff8381166000908152600160209081526040808320938616835292905220547fffffffffffffffffffffffffffffffffffffffffffffffffffffffffffffffff81146105b457818110156105a5576040517ffb8f41b200000000000000000000000000000000000000000000000000000000815273ffffffffffffffffffffffffffffffffffffffff8416600482015260248101829052604481018390526064015b60405180910390fd5b6105b484848484036000610721565b50505050565b73ffffffffffffffffffffffffffffffffffffffff831661060a576040517f96c6fd1e0000000000000000000000000000000000000000000000000000000081526000600482015260240161059c565b73ffffffffffffffffffffffffffffffffffffffff821661065a576040517fec442f050000000000000000000000000000000000000000000000000000000081526000600482015260240161059c565b6104e1838383610869565b73ffffffffffffffffffffffffffffffffffffffff82166106b5576040517fec442f050000000000000000000000000000000000000000000000000000000081526000600482015260240161059c565b6106c160008383610869565b5050565b73ffffffffffffffffffffffffffffffffffffffff8216610715576040517f96c6fd1e0000000000000000000000000000000000000000000000000000000081526000600482015260240161059c565b6106c182600083610869565b73ffffffffffffffffffffffffffffffffffffffff8416610771576040517fe602df050000000000000000000000000000000000000000000000000000000081526000600482015260240161059c565b73ffffffffffffffffffffffffffffffffffffffff83166107c1576040517f94280d620000000000000000000000000000000000000000000000000000000081526000600482015260240161059c565b73ffffffffffffffffffffffffffffffffffffffff808516600090815260016020908152604080832093871683529290522082905580156105b4578273ffffffffffffffffffffffffffffffffffffffff168473ffffffffffffffffffffffffffffffffffffffff167f8c5be1e5ebec7d5bd14f71427d1e84f3dd0314c0f7b2291e5b200ac8c7c3b9258460405161085b91815260200190565b60405180910390a350505050565b73ffffffffffffffffffffffffffffffffffffffff83166108a15780600260008282546108969190610bb8565b909155506109539050565b73ffffffffffffffffffffffffffffffffffffffff831660009081526020819052604090205481811015610927576040517fe450d38c00000000000000000000000000000000000000000000000000000000815273ffffffffffffffffffffffffffffffffffffffff85166004820152602481018290526044810183905260640161059c565b73ffffffffffffffffffffffffffffffffffffffff841660009081526020819052604090209082900390555b73ffffffffffffffffffffffffffffffffffffffff821661097c576002805482900390556109a8565b73ffffffffffffffffffffffffffffffffffffffff821660009081526020819052604090208054820190555b8173ffffffffffffffffffffffffffffffffffffffff168373ffffffffffffffffffffffffffffffffffffffff167fddf252ad1be2c89b69c2b068fc378daa952ba7f163c4a11628f55a4df523b3ef83604051610a0791815260200190565b60405180910390a3505050565b60006020808352835180602085015260005b81811015610a4257858101830151858201604001528201610a26565b5060006040828601015260407fffffffffffffffffffffffffffffffffffffffffffffffffffffffffffffffe0601f8301168501019250505092915050565b803573ffffffffffffffffffffffffffffffffffffffff81168114610aa557600080fd5b919050565b60008060408385031215610abd57600080fd5b610ac683610a81565b946020939093013593505050565b600080600060608486031215610ae957600080fd5b610af284610a81565b9250610b0060208501610a81565b9150604084013590509250925092565b600060208284031215610b2257600080fd5b610b2b82610a81565b9392505050565b60008060408385031215610b4557600080fd5b610b4e83610a81565b9150610b5c60208401610a81565b90509250929050565b600181811c90821680610b7957607f821691505b602082108103610bb2577f4e487b7100000000000000000000000000000000000000000000000000000000600052602260045260246000fd5b50919050565b808201808211156102ff577f4e487b7100000000000000000000000000000000000000000000000000000000600052601160045260246000fdfea2646970667358221220594a3cfabdaea37d3ba08f2ed97015c881430a80259635a9bf0a72fbce88d95764736f6c63430008170033a2646970667358221220412e7db6d6a586eef408b5f0ecef0557f597ec36ee760afceac24f68b4f1779964736f6c63430008170033",
  "devdoc": {
    "errors": {
      "AddressEmptyCode(address)": [
        {
          "details": "There's no code at `target` (it is not a contract)."
        }
      ],
      "ERC1967InvalidImplementation(address)": [
        {
          "details": "The `implementation` of the proxy is invalid."
        }
      ],
      "ERC1967NonPayable()": [
        {
          "details": "An upgrade function sees `msg.value > 0` that may be lost."
        }
      ],
      "FailedInnerCall()": [
        {
          "details": "A call to an address target failed. The target may have reverted."
        }
      ],
      "InvalidInitialization()": [
        {
          "details": "The contract is already initialized."
        }
      ],
      "NotInitializing()": [
        {
          "details": "The contract is not initializing."
        }
      ],
      "OwnableInvalidOwner(address)": [
        {
          "details": "The owner is not a valid owner account. (eg. `address(0)`)"
        }
      ],
      "OwnableUnauthorizedAccount(address)": [
        {
          "details": "The caller account is not authorized to perform an operation."
        }
      ],
      "UUPSUnauthorizedCallContext()": [
        {
          "details": "The call is from an unauthorized context."
        }
      ],
      "UUPSUnsupportedProxiableUUID(bytes32)": [
        {
          "details": "The storage `slot` is unsupported as a UUID."
        }
      ]
    },
    "events": {
      "Initialized(uint64)": {
        "details": "Triggered when the contract has been initialized or reinitialized."
      },
      "Upgraded(address)": {
        "details": "Emitted when the implementation is upgraded."
      }
    },
    "kind": "dev",
    "methods": {
      "acceptOwnership()": {
        "details": "The new owner accepts the ownership transfer."
      },
      "depositEth(address)": {
        "params": {
          "to": "Address to mint wrapped tokens to"
        }
      },
      "mintEthBasedOnStakedAmount(address,uint256)": {
        "details": "The owner can only mint up to the amount of Eth deposited + Eth staking rewards from Lido",
        "params": {
          "amount": "Amount of wrapped tokens to mint",
          "to": "Address to mint wrapped tokens to"
        }
      },
      "owner()": {
        "details": "Returns the address of the current owner."
      },
      "pendingOwner()": {
        "details": "Returns the address of the pending owner."
      },
      "proxiableUUID()": {
        "details": "Implementation of the ERC1822 {proxiableUUID} function. This returns the storage slot used by the implementation. It is used to validate the implementation's compatibility when performing an upgrade. IMPORTANT: A proxy pointing at a proxiable contract should not be considered proxiable itself, because this risks bricking a proxy that upgrades to it, by delegating to itself until out of gas. Thus it is critical that this function revert if invoked through a proxy. This is guaranteed by the `notDelegated` modifier."
      },
      "renounceOwnership()": {
        "details": "Leaves the contract without owner. It will not be possible to call `onlyOwner` functions. Can only be called by the current owner. NOTE: Renouncing ownership will leave the contract without an owner, thereby disabling any functionality that is only available to the owner."
      },
      "transferOwnership(address)": {
        "details": "Starts the ownership transfer of the contract to a new account. Replaces the pending transfer if there is one. Can only be called by the current owner."
      },
      "upgradeToAndCall(address,bytes)": {
        "custom:oz-upgrades-unsafe-allow-reachable": "delegatecall",
        "details": "Upgrade the implementation of the proxy to `newImplementation`, and subsequently execute the function call encoded in `data`. Calls {_authorizeUpgrade}. Emits an {Upgraded} event."
      },
      "withdrawEth(address,uint256)": {
        "params": {
          "amount": "Amount to withdraw",
          "to": "Address to withdraw Eth to"
        }
      }
    },
    "version": 1
  },
  "userdoc": {
    "kind": "user",
    "methods": {
      "depositEth(address)": {
        "notice": "Deposit Eth, mint wrapped tokens, and bridge to the Edgeless L2"
      },
      "mintEthBasedOnStakedAmount(address,uint256)": {
        "notice": "Mint wrapped tokens based on the amount of Eth staked"
      },
      "withdrawEth(address,uint256)": {
        "notice": "Withdraw Eth from the Eth pool"
      }
    },
    "notice": "EdgelessDeposit is a contract that allows users to deposit Eth and receive wrapped tokens",
    "version": 1
  },
  "storageLayout": {
    "storage": [
      {
        "astId": 2655,
        "contract": "src/EdgelessDeposit.sol:EdgelessDeposit",
        "label": "wrappedEth",
        "offset": 0,
        "slot": "0",
        "type": "t_contract(WrappedToken)3641"
      },
      {
        "astId": 2658,
        "contract": "src/EdgelessDeposit.sol:EdgelessDeposit",
        "label": "stakingManager",
        "offset": 0,
        "slot": "1",
        "type": "t_contract(StakingManager)3544"
      },
      {
        "astId": 2662,
        "contract": "src/EdgelessDeposit.sol:EdgelessDeposit",
        "label": "__gap",
        "offset": 0,
        "slot": "2",
        "type": "t_array(t_uint256)50_storage"
      }
    ],
    "types": {
      "t_array(t_uint256)50_storage": {
        "base": "t_uint256",
        "encoding": "inplace",
        "label": "uint256[50]",
        "numberOfBytes": "1600"
      },
      "t_contract(StakingManager)3544": {
        "encoding": "inplace",
        "label": "contract StakingManager",
        "numberOfBytes": "20"
      },
      "t_contract(WrappedToken)3641": {
        "encoding": "inplace",
        "label": "contract WrappedToken",
        "numberOfBytes": "20"
      },
      "t_uint256": {
        "encoding": "inplace",
        "label": "uint256",
        "numberOfBytes": "32"
      }
    }
  }
}