{
  "address": "0xaD69577988FD1fF2F265C0B46E45fbC722F4Cf4c",
  "abi": [
    {
      "inputs": [],
      "stateMutability": "nonpayable",
      "type": "constructor"
    },
    {
      "inputs": [
        {
          "internalType": "address",
          "name": "target",
          "type": "address"
        }
      ],
      "name": "AddressEmptyCode",
      "type": "error"
    },
    {
      "inputs": [
        {
          "internalType": "address",
          "name": "implementation",
          "type": "address"
        }
      ],
      "name": "ERC1967InvalidImplementation",
      "type": "error"
    },
    {
      "inputs": [],
      "name": "ERC1967NonPayable",
      "type": "error"
    },
    {
      "inputs": [],
      "name": "FailedInnerCall",
      "type": "error"
    },
    {
      "inputs": [],
      "name": "InsufficientFunds",
      "type": "error"
    },
    {
      "inputs": [],
      "name": "InvalidInitialization",
      "type": "error"
    },
    {
      "inputs": [],
      "name": "NotInitializing",
      "type": "error"
    },
    {
      "inputs": [
        {
          "internalType": "address",
          "name": "sender",
          "type": "address"
        }
      ],
      "name": "OnlyStakingManager",
      "type": "error"
    },
    {
      "inputs": [
        {
          "internalType": "address",
          "name": "owner",
          "type": "address"
        }
      ],
      "name": "OwnableInvalidOwner",
      "type": "error"
    },
    {
      "inputs": [
        {
          "internalType": "address",
          "name": "account",
          "type": "address"
        }
      ],
      "name": "OwnableUnauthorizedAccount",
      "type": "error"
    },
    {
      "inputs": [],
      "name": "RequestIdsMustBeSorted",
      "type": "error"
    },
    {
      "inputs": [
        {
          "internalType": "bytes",
          "name": "data",
          "type": "bytes"
        }
      ],
      "name": "TransferFailed",
      "type": "error"
    },
    {
      "inputs": [],
      "name": "UUPSUnauthorizedCallContext",
      "type": "error"
    },
    {
      "inputs": [
        {
          "internalType": "bytes32",
          "name": "slot",
          "type": "bytes32"
        }
      ],
      "name": "UUPSUnsupportedProxiableUUID",
      "type": "error"
    },
    {
      "anonymous": false,
      "inputs": [
        {
          "indexed": false,
          "internalType": "uint256[]",
          "name": "requestIds",
          "type": "uint256[]"
        }
      ],
      "name": "ClaimedLidoWithdrawals",
      "type": "event"
    },
    {
      "anonymous": false,
      "inputs": [
        {
          "indexed": false,
          "internalType": "uint256",
          "name": "amount",
          "type": "uint256"
        },
        {
          "indexed": false,
          "internalType": "uint256",
          "name": "sharesGenerated",
          "type": "uint256"
        }
      ],
      "name": "EthStaked",
      "type": "event"
    },
    {
      "anonymous": false,
      "inputs": [
        {
          "indexed": false,
          "internalType": "uint256",
          "name": "amount",
          "type": "uint256"
        }
      ],
      "name": "EthWithdrawn",
      "type": "event"
    },
    {
      "anonymous": false,
      "inputs": [
        {
          "indexed": false,
          "internalType": "uint64",
          "name": "version",
          "type": "uint64"
        }
      ],
      "name": "Initialized",
      "type": "event"
    },
    {
      "anonymous": false,
      "inputs": [
        {
          "indexed": true,
          "internalType": "address",
          "name": "previousOwner",
          "type": "address"
        },
        {
          "indexed": true,
          "internalType": "address",
          "name": "newOwner",
          "type": "address"
        }
      ],
      "name": "OwnershipTransferStarted",
      "type": "event"
    },
    {
      "anonymous": false,
      "inputs": [
        {
          "indexed": true,
          "internalType": "address",
          "name": "previousOwner",
          "type": "address"
        },
        {
          "indexed": true,
          "internalType": "address",
          "name": "newOwner",
          "type": "address"
        }
      ],
      "name": "OwnershipTransferred",
      "type": "event"
    },
    {
      "anonymous": false,
      "inputs": [
        {
          "indexed": false,
          "internalType": "uint256[]",
          "name": "requestIds",
          "type": "uint256[]"
        },
        {
          "indexed": false,
          "internalType": "uint256[]",
          "name": "amounts",
          "type": "uint256[]"
        }
      ],
      "name": "RequestedLidoWithdrawals",
      "type": "event"
    },
    {
      "anonymous": false,
      "inputs": [
        {
          "indexed": false,
          "internalType": "bool",
          "name": "autoStake",
          "type": "bool"
        }
      ],
      "name": "SetAutoStake",
      "type": "event"
    },
    {
      "anonymous": false,
      "inputs": [
        {
          "indexed": false,
          "internalType": "address",
          "name": "stakingManager",
          "type": "address"
        }
      ],
      "name": "SetStakingManager",
      "type": "event"
    },
    {
      "anonymous": false,
      "inputs": [
        {
          "indexed": true,
          "internalType": "address",
          "name": "implementation",
          "type": "address"
        }
      ],
      "name": "Upgraded",
      "type": "event"
    },
    {
      "inputs": [],
      "name": "UPGRADE_INTERFACE_VERSION",
      "outputs": [
        {
          "internalType": "string",
          "name": "",
          "type": "string"
        }
      ],
      "stateMutability": "view",
      "type": "function"
    },
    {
      "inputs": [],
      "name": "acceptOwnership",
      "outputs": [],
      "stateMutability": "nonpayable",
      "type": "function"
    },
    {
      "inputs": [],
      "name": "autoStake",
      "outputs": [
        {
          "internalType": "bool",
          "name": "",
          "type": "bool"
        }
      ],
      "stateMutability": "view",
      "type": "function"
    },
    {
      "inputs": [
        {
          "internalType": "uint256[]",
          "name": "requestIds",
          "type": "uint256[]"
        }
      ],
      "name": "claimLidoWithdrawals",
      "outputs": [],
      "stateMutability": "nonpayable",
      "type": "function"
    },
    {
      "inputs": [
        {
          "internalType": "uint256",
          "name": "amount",
          "type": "uint256"
        }
      ],
      "name": "deposit",
      "outputs": [],
      "stateMutability": "payable",
      "type": "function"
    },
    {
      "inputs": [],
      "name": "ethUnderWithdrawal",
      "outputs": [
        {
          "internalType": "uint256",
          "name": "",
          "type": "uint256"
        }
      ],
      "stateMutability": "view",
      "type": "function"
    },
    {
      "inputs": [
        {
          "internalType": "address",
          "name": "_owner",
          "type": "address"
        },
        {
          "internalType": "address",
          "name": "_stakingManager",
          "type": "address"
        }
      ],
      "name": "initialize",
      "outputs": [],
      "stateMutability": "nonpayable",
      "type": "function"
    },
    {
      "inputs": [],
      "name": "owner",
      "outputs": [
        {
          "internalType": "address",
          "name": "",
          "type": "address"
        }
      ],
      "stateMutability": "view",
      "type": "function"
    },
    {
      "inputs": [
        {
          "internalType": "uint256",
          "name": "amount",
          "type": "uint256"
        }
      ],
      "name": "ownerDeposit",
      "outputs": [],
      "stateMutability": "payable",
      "type": "function"
    },
    {
      "inputs": [
        {
          "internalType": "uint256",
          "name": "amount",
          "type": "uint256"
        }
      ],
      "name": "ownerWithdraw",
      "outputs": [
        {
          "internalType": "uint256",
          "name": "withdrawnAmount",
          "type": "uint256"
        }
      ],
      "stateMutability": "nonpayable",
      "type": "function"
    },
    {
      "inputs": [],
      "name": "pendingOwner",
      "outputs": [
        {
          "internalType": "address",
          "name": "",
          "type": "address"
        }
      ],
      "stateMutability": "view",
      "type": "function"
    },
    {
      "inputs": [],
      "name": "proxiableUUID",
      "outputs": [
        {
          "internalType": "bytes32",
          "name": "",
          "type": "bytes32"
        }
      ],
      "stateMutability": "view",
      "type": "function"
    },
    {
      "inputs": [],
      "name": "renounceOwnership",
      "outputs": [],
      "stateMutability": "nonpayable",
      "type": "function"
    },
    {
      "inputs": [
        {
          "internalType": "uint256[]",
          "name": "amounts",
          "type": "uint256[]"
        }
      ],
      "name": "requestLidoWithdrawal",
      "outputs": [
        {
          "internalType": "uint256[]",
          "name": "requestIds",
          "type": "uint256[]"
        }
      ],
      "stateMutability": "nonpayable",
      "type": "function"
    },
    {
      "inputs": [
        {
          "internalType": "bool",
          "name": "_autoStake",
          "type": "bool"
        }
      ],
      "name": "setAutoStake",
      "outputs": [],
      "stateMutability": "nonpayable",
      "type": "function"
    },
    {
      "inputs": [
        {
          "internalType": "address",
          "name": "_stakingManager",
          "type": "address"
        }
      ],
      "name": "setStakingManager",
      "outputs": [],
      "stateMutability": "nonpayable",
      "type": "function"
    },
    {
      "inputs": [],
      "name": "stakingManager",
      "outputs": [
        {
          "internalType": "address",
          "name": "",
          "type": "address"
        }
      ],
      "stateMutability": "view",
      "type": "function"
    },
    {
      "inputs": [
        {
          "internalType": "address",
          "name": "newOwner",
          "type": "address"
        }
      ],
      "name": "transferOwnership",
      "outputs": [],
      "stateMutability": "nonpayable",
      "type": "function"
    },
    {
      "inputs": [],
      "name": "underlyingAssetAmount",
      "outputs": [
        {
          "internalType": "uint256",
          "name": "",
          "type": "uint256"
        }
      ],
      "stateMutability": "view",
      "type": "function"
    },
    {
      "inputs": [
        {
          "internalType": "address",
          "name": "newImplementation",
          "type": "address"
        },
        {
          "internalType": "bytes",
          "name": "data",
          "type": "bytes"
        }
      ],
      "name": "upgradeToAndCall",
      "outputs": [],
      "stateMutability": "payable",
      "type": "function"
    },
    {
      "inputs": [
        {
          "internalType": "uint256",
          "name": "amount",
          "type": "uint256"
        }
      ],
      "name": "withdraw",
      "outputs": [
        {
          "internalType": "uint256",
          "name": "withdrawnAmount",
          "type": "uint256"
        }
      ],
      "stateMutability": "nonpayable",
      "type": "function"
    },
    {
      "stateMutability": "payable",
      "type": "receive"
    }
  ],
  "transactionHash": "0x974be11f53a047a25fe57180c309dfab6e541340673c8a23b536a01ca4d147ca",
  "args": [],
  "numDeployments": 1,
  "solcInputHash": "f421dc95f531cba494033b617e562788",
  "bytecode": "0x60a06040523060805234801561001457600080fd5b5061001d610022565b6100d4565b7ff0c57e16840df040f15088dc2f81fe391c3923bec73e23a9662efc9c229c6a00805468010000000000000000900460ff16156100725760405163f92ee8a960e01b815260040160405180910390fd5b80546001600160401b03908116146100d15780546001600160401b0319166001600160401b0390811782556040519081527fc7f505b2f371ae2175ee4913f4499e1f2633a7b5936321eed1cdaeb6115181d29060200160405180910390a15b50565b608051611fda6100fd6000396000818161136e0152818161139701526115b80152611fda6000f3fe60806040526004361061016e5760003560e01c8063715018a6116100cb578063b00bba6a1161007f578063ed27575211610059578063ed27575214610408578063f2fde38b1461041e578063f48ccabd1461043e57600080fd5b8063b00bba6a146103c0578063b6b55f25146103e0578063e30c3978146103f357600080fd5b80637d46b0af116100b05780637d46b0af146103285780638da5cb5b14610355578063ad3cb1cc1461036a57600080fd5b8063715018a6146102fe57806379ba50971461031357600080fd5b80634789badd116101225780634e1d1840116101075780634e1d1840146102b65780634f1ef286146102d657806352d1902d146102e957600080fd5b80634789badd14610254578063485cc9551461029657600080fd5b806322828cc21161015357806322828cc2146101af5780632e1a7d4d1461020657806333f707d11461023457600080fd5b8063141833dc1461017a5780631d212c961461018f57600080fd5b3661017557005b600080fd5b61018d6101883660046119cd565b610453565b005b34801561019b57600080fd5b5061018d6101aa3660046119f4565b610467565b3480156101bb57600080fd5b506000546101dc9073ffffffffffffffffffffffffffffffffffffffff1681565b60405173ffffffffffffffffffffffffffffffffffffffff90911681526020015b60405180910390f35b34801561021257600080fd5b506102266102213660046119cd565b6104f3565b6040519081526020016101fd565b34801561024057600080fd5b5061022661024f3660046119cd565b610573565b34801561026057600080fd5b506000546102869074010000000000000000000000000000000000000000900460ff1681565b60405190151581526020016101fd565b3480156102a257600080fd5b5061018d6102b1366004611a35565b61058c565b3480156102c257600080fd5b5061018d6102d1366004611a68565b610774565b61018d6102e4366004611b5b565b610a21565b3480156102f557600080fd5b50610226610a40565b34801561030a57600080fd5b5061018d610a6f565b34801561031f57600080fd5b5061018d610a83565b34801561033457600080fd5b50610348610343366004611a68565b610afb565b6040516101fd9190611c5b565b34801561036157600080fd5b506101dc610df4565b34801561037657600080fd5b506103b36040518060400160405280600581526020017f352e302e3000000000000000000000000000000000000000000000000000000081525081565b6040516101fd9190611cdc565b3480156103cc57600080fd5b5061018d6103db366004611cef565b610e36565b61018d6103ee3660046119cd565b610eb1565b3480156103ff57600080fd5b506101dc610f30565b34801561041457600080fd5b5061022660015481565b34801561042a57600080fd5b5061018d610439366004611cef565b610f59565b34801561044a57600080fd5b50610226611010565b61045b6110bc565b61046481611114565b50565b61046f6110bc565b6000805482151574010000000000000000000000000000000000000000027fffffffffffffffffffffff00ffffffffffffffffffffffffffffffffffffffff9091161790556040517fc236baa3e21fdc712591cbbebfb2930bae5f479427ab19de579ef52e28680426906104e890831515815260200190565b60405180910390a150565b6000805473ffffffffffffffffffffffffffffffffffffffff16331461054c576040517f8e71c98f0000000000000000000000000000000000000000000000000000000081523360048201526024015b60405180910390fd5b478083111561055d57809150610561565b8291505b61056a82611222565b9150505b919050565b600061057d6110bc565b61058682611222565b92915050565b7ff0c57e16840df040f15088dc2f81fe391c3923bec73e23a9662efc9c229c6a00805468010000000000000000810460ff16159067ffffffffffffffff166000811580156105d75750825b905060008267ffffffffffffffff1660011480156105f45750303b155b905081158015610602575080155b15610639576040517ff92ee8a900000000000000000000000000000000000000000000000000000000815260040160405180910390fd5b84547fffffffffffffffffffffffffffffffffffffffffffffffff0000000000000000166001178555831561069a5784547fffffffffffffffffffffffffffffffffffffffffffffff00ffffffffffffffff16680100000000000000001785555b600080547fffffffffffffffffffffff0000000000000000000000000000000000000000001673ffffffffffffffffffffffffffffffffffffffff881617740100000000000000000000000000000000000000001790556106f96112fe565b6107016112fe565b61070a87611306565b831561076b5784547fffffffffffffffffffffffffffffffffffffffffffffff00ffffffffffffffff168555604051600181527fc7f505b2f371ae2175ee4913f4499e1f2633a7b5936321eed1cdaeb6115181d29060200160405180910390a15b50505050505050565b61077c6110bc565b60005b61078a600183611d39565b81101561080d57828261079e836001611d4c565b8181106107ad576107ad611d5f565b905060200201358383838181106107c6576107c6611d5f565b905060200201351115610805576040517f37b5abb200000000000000000000000000000000000000000000000000000000815260040160405180910390fd5b60010161077f565b50600073889edc2edab5f40e902b864ad4d7ade8e412f9b173ffffffffffffffffffffffffffffffffffffffff1663526eae3e6040518163ffffffff1660e01b8152600401602060405180830381865afa15801561086f573d6000803e3d6000fd5b505050506040513d601f19601f820116820180604052508101906108939190611d8e565b6040517f62abe3fa00000000000000000000000000000000000000000000000000000000815290915060009073889edc2edab5f40e902b864ad4d7ade8e412f9b1906362abe3fa906108f090879087906001908890600401611df2565b600060405180830381865afa15801561090d573d6000803e3d6000fd5b505050506040513d6000823e601f3d9081017fffffffffffffffffffffffffffffffffffffffffffffffffffffffffffffffe01682016040526109539190810190611e19565b6040517fe3afe0a300000000000000000000000000000000000000000000000000000000815290915073889edc2edab5f40e902b864ad4d7ade8e412f9b19063e3afe0a3906109aa90879087908690600401611ebf565b600060405180830381600087803b1580156109c457600080fd5b505af11580156109d8573d6000803e3d6000fd5b5050600060015550506040517f7aee03fd3b4f28038c0a19aae4813d09e881d6334d568d75f13c2147621a146690610a139086908690611eef565b60405180910390a150505050565b610a29611356565b610a328261145a565b610a3c8282611462565b5050565b6000610a4a6115a0565b507f360894a13ba1a3210667c828492db98dca3e2076cc3735a920a3ca505d382bbc90565b610a776110bc565b610a816000611306565b565b3380610a8d610f30565b73ffffffffffffffffffffffffffffffffffffffff1614610af2576040517f118cdaa700000000000000000000000000000000000000000000000000000000815273ffffffffffffffffffffffffffffffffffffffff82166004820152602401610543565b61046481611306565b6060610b056110bc565b60015415610b95576040517f08c379a000000000000000000000000000000000000000000000000000000000815260206004820152602b60248201527f45746853747261746567793a205769746864726177616c20616c72656164792060448201527f696e2070726f67726573730000000000000000000000000000000000000000006064820152608401610543565b6000805b83811015610bcf57848482818110610bb357610bb3611d5f565b9050602002013582610bc59190611d4c565b9150600101610b99565b506040517f095ea7b300000000000000000000000000000000000000000000000000000000815273889edc2edab5f40e902b864ad4d7ade8e412f9b160048201526024810182905273ae7ab96520de3a18e5e111b5eaab095312d7fe849063095ea7b3906044016020604051808303816000875af1158015610c55573d6000803e3d6000fd5b505050506040513d601f19601f82011682018060405250810190610c799190611f0b565b610cdf576040517f08c379a000000000000000000000000000000000000000000000000000000000815260206004820152600e60248201527f617070726f7665206661696c65640000000000000000000000000000000000006044820152606401610543565b6040517fd668104200000000000000000000000000000000000000000000000000000000815273889edc2edab5f40e902b864ad4d7ade8e412f9b19063d668104290610d3390879087903090600401611f28565b6000604051808303816000875af1158015610d52573d6000803e3d6000fd5b505050506040513d6000823e601f3d9081017fffffffffffffffffffffffffffffffffffffffffffffffffffffffffffffffe0168201604052610d989190810190611e19565b91508060016000828254610dac9190611d4c565b90915550506040517f739045819b08e6460066e1a5d4637e55804ab88b0c81458bb5472dbc5897171590610de590849087908790611f62565b60405180910390a15092915050565b6000807f9016d09d72d40fdae2fd8ceac6b6234c7706214fd39c1cd1e609a0528c1993005b5473ffffffffffffffffffffffffffffffffffffffff1692915050565b610e3e6110bc565b600080547fffffffffffffffffffffffff00000000000000000000000000000000000000001673ffffffffffffffffffffffffffffffffffffffff83169081179091556040519081527f6ecce10fc14cb0941ba8416ce0e86d44c4b9122f214c5493e737dd16a5faeb65906020016104e8565b60005473ffffffffffffffffffffffffffffffffffffffff163314610f04576040517f8e71c98f000000000000000000000000000000000000000000000000000000008152336004820152602401610543565b60005474010000000000000000000000000000000000000000900460ff16156104645761046481611114565b6000807f237e158222e3e6968b72b9db0d8043aacf074ad9f650f0d1606b4d82ee432c00610e19565b610f616110bc565b7f237e158222e3e6968b72b9db0d8043aacf074ad9f650f0d1606b4d82ee432c0080547fffffffffffffffffffffffff00000000000000000000000000000000000000001673ffffffffffffffffffffffffffffffffffffffff83169081178255610fca610df4565b73ffffffffffffffffffffffffffffffffffffffff167f38d16b8cac22d99fc7c124b9cd0de2d3fa1faef420bfe791d8c362d765e2270060405160405180910390a35050565b6001546040517f70a082310000000000000000000000000000000000000000000000000000000081523060048201526000919073ae7ab96520de3a18e5e111b5eaab095312d7fe84906370a0823190602401602060405180830381865afa15801561107f573d6000803e3d6000fd5b505050506040513d601f19601f820116820180604052508101906110a39190611d8e565b6110ad9047611d4c565b6110b79190611d4c565b905090565b336110c5610df4565b73ffffffffffffffffffffffffffffffffffffffff1614610a81576040517f118cdaa7000000000000000000000000000000000000000000000000000000008152336004820152602401610543565b4781111561114e576040517f356680b700000000000000000000000000000000000000000000000000000000815260040160405180910390fd5b6040517fa1903eab0000000000000000000000000000000000000000000000000000000081526000600482018190529073ae7ab96520de3a18e5e111b5eaab095312d7fe849063a1903eab90849060240160206040518083038185885af11580156111bd573d6000803e3d6000fd5b50505050506040513d601f19601f820116820180604052508101906111e29190611d8e565b60408051848152602081018390529192507fa7dcb08922a063db79b4d800c29b8b0249fa2f818908162b631f6ab921745443910160405180910390a15050565b600080546040518291829173ffffffffffffffffffffffffffffffffffffffff9091169085908381818185875af1925050503d8060008114611280576040519150601f19603f3d011682016040523d82523d6000602084013e611285565b606091505b5091509150816112c357806040517f9a367e170000000000000000000000000000000000000000000000000000000081526004016105439190611cdc565b6040518481527f7909752b76037727fecfc6c1abb7264306fd284ff7be21e2aa09bf2fdc00579d9060200160405180910390a1509192915050565b610a8161160f565b7f237e158222e3e6968b72b9db0d8043aacf074ad9f650f0d1606b4d82ee432c0080547fffffffffffffffffffffffff0000000000000000000000000000000000000000168155610a3c82611676565b3073ffffffffffffffffffffffffffffffffffffffff7f000000000000000000000000000000000000000000000000000000000000000016148061142357507f000000000000000000000000000000000000000000000000000000000000000073ffffffffffffffffffffffffffffffffffffffff1661140a7f360894a13ba1a3210667c828492db98dca3e2076cc3735a920a3ca505d382bbc5473ffffffffffffffffffffffffffffffffffffffff1690565b73ffffffffffffffffffffffffffffffffffffffff1614155b15610a81576040517fe07c8dba00000000000000000000000000000000000000000000000000000000815260040160405180910390fd5b6104646110bc565b8173ffffffffffffffffffffffffffffffffffffffff166352d1902d6040518163ffffffff1660e01b8152600401602060405180830381865afa9250505080156114e7575060408051601f3d9081017fffffffffffffffffffffffffffffffffffffffffffffffffffffffffffffffe01682019092526114e491810190611d8e565b60015b611535576040517f4c9c8ce300000000000000000000000000000000000000000000000000000000815273ffffffffffffffffffffffffffffffffffffffff83166004820152602401610543565b7f360894a13ba1a3210667c828492db98dca3e2076cc3735a920a3ca505d382bbc8114611591576040517faa1d49a400000000000000000000000000000000000000000000000000000000815260048101829052602401610543565b61159b838361170c565b505050565b3073ffffffffffffffffffffffffffffffffffffffff7f00000000000000000000000000000000000000000000000000000000000000001614610a81576040517fe07c8dba00000000000000000000000000000000000000000000000000000000815260040160405180910390fd5b7ff0c57e16840df040f15088dc2f81fe391c3923bec73e23a9662efc9c229c6a005468010000000000000000900460ff16610a81576040517fd7e6bcf800000000000000000000000000000000000000000000000000000000815260040160405180910390fd5b7f9016d09d72d40fdae2fd8ceac6b6234c7706214fd39c1cd1e609a0528c19930080547fffffffffffffffffffffffff0000000000000000000000000000000000000000811673ffffffffffffffffffffffffffffffffffffffff848116918217845560405192169182907f8be0079c531659141344cd1fd0a4f28419497f9722a3daafe3b4186f6b6457e090600090a3505050565b6117158261176f565b60405173ffffffffffffffffffffffffffffffffffffffff8316907fbc7cd75a20ee27fd9adebab32041f755214dbc6bffa90cc0225b39da2e5c2d3b90600090a28051156117675761159b828261183e565b610a3c6118c1565b8073ffffffffffffffffffffffffffffffffffffffff163b6000036117d8576040517f4c9c8ce300000000000000000000000000000000000000000000000000000000815273ffffffffffffffffffffffffffffffffffffffff82166004820152602401610543565b7f360894a13ba1a3210667c828492db98dca3e2076cc3735a920a3ca505d382bbc80547fffffffffffffffffffffffff00000000000000000000000000000000000000001673ffffffffffffffffffffffffffffffffffffffff92909216919091179055565b60606000808473ffffffffffffffffffffffffffffffffffffffff16846040516118689190611f88565b600060405180830381855af49150503d80600081146118a3576040519150601f19603f3d011682016040523d82523d6000602084013e6118a8565b606091505b50915091506118b88583836118f9565b95945050505050565b3415610a81576040517fb398979f00000000000000000000000000000000000000000000000000000000815260040160405180910390fd5b60608261190e576119098261198b565b611984565b8151158015611932575073ffffffffffffffffffffffffffffffffffffffff84163b155b15611981576040517f9996b31500000000000000000000000000000000000000000000000000000000815273ffffffffffffffffffffffffffffffffffffffff85166004820152602401610543565b50805b9392505050565b80511561199b5780518082602001fd5b6040517f1425ea4200000000000000000000000000000000000000000000000000000000815260040160405180910390fd5b6000602082840312156119df57600080fd5b5035919050565b801515811461046457600080fd5b600060208284031215611a0657600080fd5b8135611984816119e6565b803573ffffffffffffffffffffffffffffffffffffffff8116811461056e57600080fd5b60008060408385031215611a4857600080fd5b611a5183611a11565b9150611a5f60208401611a11565b90509250929050565b60008060208385031215611a7b57600080fd5b823567ffffffffffffffff80821115611a9357600080fd5b818501915085601f830112611aa757600080fd5b813581811115611ab657600080fd5b8660208260051b8501011115611acb57600080fd5b60209290920196919550909350505050565b7f4e487b7100000000000000000000000000000000000000000000000000000000600052604160045260246000fd5b604051601f82017fffffffffffffffffffffffffffffffffffffffffffffffffffffffffffffffe016810167ffffffffffffffff81118282101715611b5357611b53611add565b604052919050565b60008060408385031215611b6e57600080fd5b611b7783611a11565b915060208084013567ffffffffffffffff80821115611b9557600080fd5b818601915086601f830112611ba957600080fd5b813581811115611bbb57611bbb611add565b611beb847fffffffffffffffffffffffffffffffffffffffffffffffffffffffffffffffe0601f84011601611b0c565b91508082528784828501011115611c0157600080fd5b80848401858401376000848284010152508093505050509250929050565b60008151808452602080850194506020840160005b83811015611c5057815187529582019590820190600101611c34565b509495945050505050565b6020815260006119846020830184611c1f565b60005b83811015611c89578181015183820152602001611c71565b50506000910152565b60008151808452611caa816020860160208601611c6e565b601f017fffffffffffffffffffffffffffffffffffffffffffffffffffffffffffffffe0169290920160200192915050565b6020815260006119846020830184611c92565b600060208284031215611d0157600080fd5b61198482611a11565b7f4e487b7100000000000000000000000000000000000000000000000000000000600052601160045260246000fd5b8181038181111561058657610586611d0a565b8082018082111561058657610586611d0a565b7f4e487b7100000000000000000000000000000000000000000000000000000000600052603260045260246000fd5b600060208284031215611da057600080fd5b5051919050565b81835260007f07ffffffffffffffffffffffffffffffffffffffffffffffffffffffffffffff831115611dd957600080fd5b8260051b80836020870137939093016020019392505050565b606081526000611e06606083018688611da7565b6020830194909452506040015292915050565b60006020808385031215611e2c57600080fd5b825167ffffffffffffffff80821115611e4457600080fd5b818501915085601f830112611e5857600080fd5b815181811115611e6a57611e6a611add565b8060051b9150611e7b848301611b0c565b8181529183018401918481019088841115611e9557600080fd5b938501935b83851015611eb357845182529385019390850190611e9a565b98975050505050505050565b604081526000611ed3604083018587611da7565b8281036020840152611ee58185611c1f565b9695505050505050565b602081526000611f03602083018486611da7565b949350505050565b600060208284031215611f1d57600080fd5b8151611984816119e6565b604081526000611f3c604083018587611da7565b905073ffffffffffffffffffffffffffffffffffffffff83166020830152949350505050565b604081526000611f756040830186611c1f565b8281036020840152611ee5818587611da7565b60008251611f9a818460208701611c6e565b919091019291505056fea26469706673582212207f245d4d2ad189e40d9b93bb4be3dce5e116d712c89b2b853f4f12c728bffc1564736f6c63430008170033",
  "devdoc": {
    "errors": {
      "AddressEmptyCode(address)": [
        {
          "details": "There's no code at `target` (it is not a contract)."
        }
      ],
      "ERC1967InvalidImplementation(address)": [
        {
          "details": "The `implementation` of the proxy is invalid."
        }
      ],
      "ERC1967NonPayable()": [
        {
          "details": "An upgrade function sees `msg.value > 0` that may be lost."
        }
      ],
      "FailedInnerCall()": [
        {
          "details": "A call to an address target failed. The target may have reverted."
        }
      ],
      "InvalidInitialization()": [
        {
          "details": "The contract is already initialized."
        }
      ],
      "NotInitializing()": [
        {
          "details": "The contract is not initializing."
        }
      ],
      "OwnableInvalidOwner(address)": [
        {
          "details": "The owner is not a valid owner account. (eg. `address(0)`)"
        }
      ],
      "OwnableUnauthorizedAccount(address)": [
        {
          "details": "The caller account is not authorized to perform an operation."
        }
      ],
      "UUPSUnauthorizedCallContext()": [
        {
          "details": "The call is from an unauthorized context."
        }
      ],
      "UUPSUnsupportedProxiableUUID(bytes32)": [
        {
          "details": "The storage `slot` is unsupported as a UUID."
        }
      ]
    },
    "events": {
      "Initialized(uint64)": {
        "details": "Triggered when the contract has been initialized or reinitialized."
      },
      "Upgraded(address)": {
        "details": "Emitted when the implementation is upgraded."
      }
    },
    "kind": "dev",
    "methods": {
      "acceptOwnership()": {
        "details": "The new owner accepts the ownership transfer."
      },
      "owner()": {
        "details": "Returns the address of the current owner."
      },
      "pendingOwner()": {
        "details": "Returns the address of the pending owner."
      },
      "proxiableUUID()": {
        "details": "Implementation of the ERC1822 {proxiableUUID} function. This returns the storage slot used by the implementation. It is used to validate the implementation's compatibility when performing an upgrade. IMPORTANT: A proxy pointing at a proxiable contract should not be considered proxiable itself, because this risks bricking a proxy that upgrades to it, by delegating to itself until out of gas. Thus it is critical that this function revert if invoked through a proxy. This is guaranteed by the `notDelegated` modifier."
      },
      "renounceOwnership()": {
        "details": "Leaves the contract without owner. It will not be possible to call `onlyOwner` functions. Can only be called by the current owner. NOTE: Renouncing ownership will leave the contract without an owner, thereby disabling any functionality that is only available to the owner."
      },
      "transferOwnership(address)": {
        "details": "Starts the ownership transfer of the contract to a new account. Replaces the pending transfer if there is one. Can only be called by the current owner."
      },
      "upgradeToAndCall(address,bytes)": {
        "custom:oz-upgrades-unsafe-allow-reachable": "delegatecall",
        "details": "Upgrade the implementation of the proxy to `newImplementation`, and subsequently execute the function call encoded in `data`. Calls {_authorizeUpgrade}. Emits an {Upgraded} event."
      }
    },
    "version": 1
  },
  "userdoc": {
    "kind": "user",
    "methods": {
      "deposit(uint256)": {
        "notice": "--------------------------------  External Functions  --------------------------------"
      },
      "ownerDeposit(uint256)": {
        "notice": "----------------------------------  Admin Functions  ----------------------------------"
      },
      "underlyingAssetAmount()": {
        "notice": "---------------------------------  View Functions  ---------------------------------"
      }
    },
    "version": 1
  },
  "storageLayout": {
    "storage": [
      {
        "astId": 3809,
        "contract": "src/strategies/EthStrategy.sol:EthStrategy",
        "label": "stakingManager",
        "offset": 0,
        "slot": "0",
        "type": "t_address"
      },
      {
        "astId": 3811,
        "contract": "src/strategies/EthStrategy.sol:EthStrategy",
        "label": "autoStake",
        "offset": 20,
        "slot": "0",
        "type": "t_bool"
      },
      {
        "astId": 3813,
        "contract": "src/strategies/EthStrategy.sol:EthStrategy",
        "label": "ethUnderWithdrawal",
        "offset": 0,
        "slot": "1",
        "type": "t_uint256"
      },
      {
        "astId": 3817,
        "contract": "src/strategies/EthStrategy.sol:EthStrategy",
        "label": "__gap",
        "offset": 0,
        "slot": "2",
        "type": "t_array(t_uint256)50_storage"
      }
    ],
    "types": {
      "t_address": {
        "encoding": "inplace",
        "label": "address",
        "numberOfBytes": "20"
      },
      "t_array(t_uint256)50_storage": {
        "base": "t_uint256",
        "encoding": "inplace",
        "label": "uint256[50]",
        "numberOfBytes": "1600"
      },
      "t_bool": {
        "encoding": "inplace",
        "label": "bool",
        "numberOfBytes": "1"
      },
      "t_uint256": {
        "encoding": "inplace",
        "label": "uint256",
        "numberOfBytes": "32"
      }
    }
  }
}