{
  "address": "0x0165878A594ca255338adfa4d48449f69242Eb8F",
  "abi": [
    {
      "inputs": [
        {
          "internalType": "address",
          "name": "target",
          "type": "address"
        }
      ],
      "name": "AddressEmptyCode",
      "type": "error"
    },
    {
      "inputs": [
        {
          "internalType": "address",
          "name": "implementation",
          "type": "address"
        }
      ],
      "name": "ERC1967InvalidImplementation",
      "type": "error"
    },
    {
      "inputs": [],
      "name": "ERC1967NonPayable",
      "type": "error"
    },
    {
      "inputs": [],
      "name": "FailedInnerCall",
      "type": "error"
    },
    {
      "inputs": [],
      "name": "InsufficientFunds",
      "type": "error"
    },
    {
      "inputs": [],
      "name": "InvalidInitialization",
      "type": "error"
    },
    {
      "inputs": [],
      "name": "NotInitializing",
      "type": "error"
    },
    {
      "inputs": [
        {
          "internalType": "address",
          "name": "sender",
          "type": "address"
        }
      ],
      "name": "OnlyStakingManager",
      "type": "error"
    },
    {
      "inputs": [
        {
          "internalType": "address",
          "name": "owner",
          "type": "address"
        }
      ],
      "name": "OwnableInvalidOwner",
      "type": "error"
    },
    {
      "inputs": [
        {
          "internalType": "address",
          "name": "account",
          "type": "address"
        }
      ],
      "name": "OwnableUnauthorizedAccount",
      "type": "error"
    },
    {
      "inputs": [],
      "name": "RequestIdsMustBeSorted",
      "type": "error"
    },
    {
      "inputs": [
        {
          "internalType": "bytes",
          "name": "data",
          "type": "bytes"
        }
      ],
      "name": "TransferFailed",
      "type": "error"
    },
    {
      "inputs": [],
      "name": "UUPSUnauthorizedCallContext",
      "type": "error"
    },
    {
      "inputs": [
        {
          "internalType": "bytes32",
          "name": "slot",
          "type": "bytes32"
        }
      ],
      "name": "UUPSUnsupportedProxiableUUID",
      "type": "error"
    },
    {
      "anonymous": false,
      "inputs": [
        {
          "indexed": false,
          "internalType": "uint256[]",
          "name": "requestIds",
          "type": "uint256[]"
        }
      ],
      "name": "ClaimedLidoWithdrawals",
      "type": "event"
    },
    {
      "anonymous": false,
      "inputs": [
        {
          "indexed": false,
          "internalType": "uint256",
          "name": "amount",
          "type": "uint256"
        }
      ],
      "name": "EthStaked",
      "type": "event"
    },
    {
      "anonymous": false,
      "inputs": [
        {
          "indexed": false,
          "internalType": "uint256",
          "name": "amount",
          "type": "uint256"
        }
      ],
      "name": "EthWithdrawn",
      "type": "event"
    },
    {
      "anonymous": false,
      "inputs": [
        {
          "indexed": false,
          "internalType": "uint64",
          "name": "version",
          "type": "uint64"
        }
      ],
      "name": "Initialized",
      "type": "event"
    },
    {
      "anonymous": false,
      "inputs": [
        {
          "indexed": true,
          "internalType": "address",
          "name": "previousOwner",
          "type": "address"
        },
        {
          "indexed": true,
          "internalType": "address",
          "name": "newOwner",
          "type": "address"
        }
      ],
      "name": "OwnershipTransferStarted",
      "type": "event"
    },
    {
      "anonymous": false,
      "inputs": [
        {
          "indexed": true,
          "internalType": "address",
          "name": "previousOwner",
          "type": "address"
        },
        {
          "indexed": true,
          "internalType": "address",
          "name": "newOwner",
          "type": "address"
        }
      ],
      "name": "OwnershipTransferred",
      "type": "event"
    },
    {
      "anonymous": false,
      "inputs": [
        {
          "indexed": false,
          "internalType": "uint256[]",
          "name": "requestIds",
          "type": "uint256[]"
        },
        {
          "indexed": false,
          "internalType": "uint256[]",
          "name": "amounts",
          "type": "uint256[]"
        }
      ],
      "name": "RequestedLidoWithdrawals",
      "type": "event"
    },
    {
      "anonymous": false,
      "inputs": [
        {
          "indexed": false,
          "internalType": "bool",
          "name": "autoStake",
          "type": "bool"
        }
      ],
      "name": "SetAutoStake",
      "type": "event"
    },
    {
      "anonymous": false,
      "inputs": [
        {
          "indexed": false,
          "internalType": "address",
          "name": "stakingManager",
          "type": "address"
        }
      ],
      "name": "SetStakingManager",
      "type": "event"
    },
    {
      "anonymous": false,
      "inputs": [
        {
          "indexed": true,
          "internalType": "address",
          "name": "implementation",
          "type": "address"
        }
      ],
      "name": "Upgraded",
      "type": "event"
    },
    {
      "inputs": [],
      "name": "UPGRADE_INTERFACE_VERSION",
      "outputs": [
        {
          "internalType": "string",
          "name": "",
          "type": "string"
        }
      ],
      "stateMutability": "view",
      "type": "function"
    },
    {
      "inputs": [],
      "name": "acceptOwnership",
      "outputs": [],
      "stateMutability": "nonpayable",
      "type": "function"
    },
    {
      "inputs": [],
      "name": "autoStake",
      "outputs": [
        {
          "internalType": "bool",
          "name": "",
          "type": "bool"
        }
      ],
      "stateMutability": "view",
      "type": "function"
    },
    {
      "inputs": [
        {
          "internalType": "uint256[]",
          "name": "requestIds",
          "type": "uint256[]"
        }
      ],
      "name": "claimLidoWithdrawals",
      "outputs": [],
      "stateMutability": "nonpayable",
      "type": "function"
    },
    {
      "inputs": [
        {
          "internalType": "uint256",
          "name": "amount",
          "type": "uint256"
        }
      ],
      "name": "deposit",
      "outputs": [],
      "stateMutability": "payable",
      "type": "function"
    },
    {
      "inputs": [
        {
          "internalType": "address",
          "name": "_owner",
          "type": "address"
        },
        {
          "internalType": "address",
          "name": "_stakingManager",
          "type": "address"
        }
      ],
      "name": "initialize",
      "outputs": [],
      "stateMutability": "nonpayable",
      "type": "function"
    },
    {
      "inputs": [],
      "name": "owner",
      "outputs": [
        {
          "internalType": "address",
          "name": "",
          "type": "address"
        }
      ],
      "stateMutability": "view",
      "type": "function"
    },
    {
      "inputs": [
        {
          "internalType": "uint256",
          "name": "amount",
          "type": "uint256"
        }
      ],
      "name": "ownerDeposit",
      "outputs": [],
      "stateMutability": "payable",
      "type": "function"
    },
    {
      "inputs": [
        {
          "internalType": "uint256",
          "name": "amount",
          "type": "uint256"
        }
      ],
      "name": "ownerWithdraw",
      "outputs": [
        {
          "internalType": "uint256",
          "name": "withdrawnAmount",
          "type": "uint256"
        }
      ],
      "stateMutability": "nonpayable",
      "type": "function"
    },
    {
      "inputs": [],
      "name": "pendingOwner",
      "outputs": [
        {
          "internalType": "address",
          "name": "",
          "type": "address"
        }
      ],
      "stateMutability": "view",
      "type": "function"
    },
    {
      "inputs": [],
      "name": "proxiableUUID",
      "outputs": [
        {
          "internalType": "bytes32",
          "name": "",
          "type": "bytes32"
        }
      ],
      "stateMutability": "view",
      "type": "function"
    },
    {
      "inputs": [],
      "name": "renounceOwnership",
      "outputs": [],
      "stateMutability": "nonpayable",
      "type": "function"
    },
    {
      "inputs": [
        {
          "internalType": "uint256[]",
          "name": "amounts",
          "type": "uint256[]"
        }
      ],
      "name": "requestLidoWithdrawal",
      "outputs": [
        {
          "internalType": "uint256[]",
          "name": "requestIds",
          "type": "uint256[]"
        }
      ],
      "stateMutability": "nonpayable",
      "type": "function"
    },
    {
      "inputs": [
        {
          "internalType": "bool",
          "name": "_autoStake",
          "type": "bool"
        }
      ],
      "name": "setAutoStake",
      "outputs": [],
      "stateMutability": "nonpayable",
      "type": "function"
    },
    {
      "inputs": [
        {
          "internalType": "address",
          "name": "_stakingManager",
          "type": "address"
        }
      ],
      "name": "setStakingManager",
      "outputs": [],
      "stateMutability": "nonpayable",
      "type": "function"
    },
    {
      "inputs": [],
      "name": "stakingManager",
      "outputs": [
        {
          "internalType": "address",
          "name": "",
          "type": "address"
        }
      ],
      "stateMutability": "view",
      "type": "function"
    },
    {
      "inputs": [
        {
          "internalType": "address",
          "name": "newOwner",
          "type": "address"
        }
      ],
      "name": "transferOwnership",
      "outputs": [],
      "stateMutability": "nonpayable",
      "type": "function"
    },
    {
      "inputs": [],
      "name": "underlyingAssetAmount",
      "outputs": [
        {
          "internalType": "uint256",
          "name": "",
          "type": "uint256"
        }
      ],
      "stateMutability": "view",
      "type": "function"
    },
    {
      "inputs": [
        {
          "internalType": "address",
          "name": "newImplementation",
          "type": "address"
        },
        {
          "internalType": "bytes",
          "name": "data",
          "type": "bytes"
        }
      ],
      "name": "upgradeToAndCall",
      "outputs": [],
      "stateMutability": "payable",
      "type": "function"
    },
    {
      "inputs": [
        {
          "internalType": "uint256",
          "name": "amount",
          "type": "uint256"
        }
      ],
      "name": "withdraw",
      "outputs": [
        {
          "internalType": "uint256",
          "name": "withdrawnAmount",
          "type": "uint256"
        }
      ],
      "stateMutability": "nonpayable",
      "type": "function"
    },
    {
      "stateMutability": "payable",
      "type": "receive"
    }
  ],
  "transactionHash": "0xcce8d1828850c1cac9d48677fb322d7e4da8d12bde980fddfd55d6c7b5da44d2",
  "args": [],
  "numDeployments": 1,
  "solcInputHash": "a7ab53fa647a90a5cce3fdffd0462a50",
  "bytecode": "0x60a06040523060805234801561001457600080fd5b5060805161181a61003e60003960008181610df201528181610e1b0152610f58015261181a6000f3fe6080604052600436106100f35760003560e01c8063141833dc146100ff5780631d212c961461011457806322828cc2146101345780632e1a7d4d1461016a57806333f707d1146101985780634789badd146101b8578063485cc955146101e95780634e1d1840146102095780634f1ef2861461022957806352d1902d1461023c578063715018a61461025157806379ba5097146102665780637d46b0af1461027b5780638da5cb5b146102a8578063ad3cb1cc146102bd578063b00bba6a146102fb578063b6b55f251461031b578063e30c39781461032e578063f2fde38b14610343578063f48ccabd1461036357600080fd5b366100fa57005b600080fd5b61011261010d366004611296565b610378565b005b34801561012057600080fd5b5061011261012f3660046112bd565b610449565b34801561014057600080fd5b50600054610154906001600160a01b031681565b60405161016191906112da565b60405180910390f35b34801561017657600080fd5b5061018a610185366004611296565b61049e565b604051908152602001610161565b3480156101a457600080fd5b5061018a6101b3366004611296565b61058b565b3480156101c457600080fd5b506000546101d990600160a01b900460ff1681565b6040519015158152602001610161565b3480156101f557600080fd5b50610112610204366004611305565b610635565b34801561021557600080fd5b50610112610224366004611338565b610750565b6101126102373660046113f2565b610981565b34801561024857600080fd5b5061018a6109a0565b34801561025d57600080fd5b506101126109bd565b34801561027257600080fd5b506101126109d1565b34801561028757600080fd5b5061029b610296366004611338565b610a10565b60405161016191906114d3565b3480156102b457600080fd5b50610154610bac565b3480156102c957600080fd5b506102ee604051806040016040528060058152602001640352e302e360dc1b81525081565b6040516101619190611536565b34801561030757600080fd5b50610112610316366004611549565b610bc7565b610112610329366004611296565b610c1a565b34801561033a57600080fd5b50610154610c7a565b34801561034f57600080fd5b5061011261035e366004611549565b610c85565b34801561036f57600080fd5b5061018a610cf6565b610380610d80565b478111156103a15760405163356680b760e01b815260040160405180910390fd5b60405163a1903eab60e01b815273ae7ab96520de3a18e5e111b5eaab095312d7fe849063a1903eab9083906103db906000906004016112da565b6000604051808303818588803b1580156103f457600080fd5b505af1158015610408573d6000803e3d6000fd5b50505050507f5ac3d75f987a73cee9a456a277139319eee6559e3d027a360d2fc37ac93e74a38160405161043e91815260200190565b60405180910390a150565b610451610d80565b60008054821515600160a01b0260ff60a01b199091161790556040517fc236baa3e21fdc712591cbbebfb2930bae5f479427ab19de579ef52e286804269061043e90831515815260200190565b600080546001600160a01b031633146104d55733604051638e71c98f60e01b81526004016104cc91906112da565b60405180910390fd5b47808311156104e6578091506104ea565b8291505b6000805460405182916001600160a01b03169085908381818185875af1925050503d8060008114610537576040519150601f19603f3d011682016040523d82523d6000602084013e61053c565b606091505b5091509150816105615780604051639a367e1760e01b81526004016104cc9190611536565b6040518481526000805160206117c58339815191529060200160405180910390a15050505b919050565b6000610595610d80565b6000805460405182916001600160a01b03169085908381818185875af1925050503d80600081146105e2576040519150601f19603f3d011682016040523d82523d6000602084013e6105e7565b606091505b50915091508161060c5780604051639a367e1760e01b81526004016104cc9190611536565b6040518481526000805160206117c58339815191529060200160405180910390a1509192915050565b600061063f610db2565b805490915060ff600160401b82041615906001600160401b03166000811580156106665750825b90506000826001600160401b031660011480156106825750303b155b905081158015610690575080155b156106ae5760405163f92ee8a960e01b815260040160405180910390fd5b84546001600160401b031916600117855583156106d757845460ff60401b1916600160401b1785555b600080546001600160a81b0319166001600160a01b03881617600160a01b17905561070187610dd6565b831561074757845460ff60401b19168555604051600181527fc7f505b2f371ae2175ee4913f4499e1f2633a7b5936321eed1cdaeb6115181d29060200160405180910390a15b50505050505050565b610758610d80565b60005b61076660018361157a565b8110156107d057828261077a83600161158d565b818110610789576107896115a0565b905060200201358383838181106107a2576107a26115a0565b9050602002013511156107c857604051631bdad5d960e11b815260040160405180910390fd5b60010161075b565b50600073889edc2edab5f40e902b864ad4d7ade8e412f9b16001600160a01b031663526eae3e6040518163ffffffff1660e01b8152600401602060405180830381865afa158015610825573d6000803e3d6000fd5b505050506040513d601f19601f8201168201806040525081019061084991906115b6565b604051633155f1fd60e11b815290915060009073889edc2edab5f40e902b864ad4d7ade8e412f9b1906362abe3fa9061088d90879087906001908890600401611601565b600060405180830381865afa1580156108aa573d6000803e3d6000fd5b505050506040513d6000823e601f3d908101601f191682016040526108d29190810190611628565b60405163e3afe0a360e01b815290915073889edc2edab5f40e902b864ad4d7ade8e412f9b19063e3afe0a390610910908790879086906004016116cd565b600060405180830381600087803b15801561092a57600080fd5b505af115801561093e573d6000803e3d6000fd5b505050507f7aee03fd3b4f28038c0a19aae4813d09e881d6334d568d75f13c2147621a146684846040516109739291906116fd565b60405180910390a150505050565b610989610de7565b61099282610e8c565b61099c8282610e94565b5050565b60006109aa610f4d565b506000805160206117a583398151915290565b6109c5610d80565b6109cf6000610f96565b565b33806109db610c7a565b6001600160a01b031614610a04578060405163118cdaa760e01b81526004016104cc91906112da565b610a0d81610f96565b50565b6060610a1a610d80565b6000805b83811015610a5457848482818110610a3857610a386115a0565b9050602002013582610a4a919061158d565b9150600101610a1e565b5060405163095ea7b360e01b815273889edc2edab5f40e902b864ad4d7ade8e412f9b160048201526024810182905273ae7ab96520de3a18e5e111b5eaab095312d7fe849063095ea7b3906044016020604051808303816000875af1158015610ac1573d6000803e3d6000fd5b505050506040513d601f19601f82011682018060405250810190610ae59190611719565b50604051636b34082160e11b815273889edc2edab5f40e902b864ad4d7ade8e412f9b19063d668104290610b2190879087903090600401611736565b6000604051808303816000875af1158015610b40573d6000803e3d6000fd5b505050506040513d6000823e601f3d908101601f19168201604052610b689190810190611628565b91507f739045819b08e6460066e1a5d4637e55804ab88b0c81458bb5472dbc58971715828585604051610b9d93929190611762565b60405180910390a15092915050565b600080610bb7610fb9565b546001600160a01b031692915050565b610bcf610d80565b600080546001600160a01b0319166001600160a01b0383161790556040517f6ecce10fc14cb0941ba8416ce0e86d44c4b9122f214c5493e737dd16a5faeb659061043e9083906112da565b6000546001600160a01b03163314610c475733604051638e71c98f60e01b81526004016104cc91906112da565b600054600160a01b900460ff1615610a0d57478111156103a15760405163356680b760e01b815260040160405180910390fd5b600080610bb7610fdd565b610c8d610d80565b6000610c97610fdd565b80546001600160a01b0319166001600160a01b0384169081178255909150610cbd610bac565b6001600160a01b03167f38d16b8cac22d99fc7c124b9cd0de2d3fa1faef420bfe791d8c362d765e2270060405160405180910390a35050565b6040516370a0823160e01b815260009073ae7ab96520de3a18e5e111b5eaab095312d7fe84906370a0823190610d309030906004016112da565b602060405180830381865afa158015610d4d573d6000803e3d6000fd5b505050506040513d601f19601f82011682018060405250810190610d7191906115b6565b610d7b904761158d565b905090565b33610d89610bac565b6001600160a01b0316146109cf573360405163118cdaa760e01b81526004016104cc91906112da565b7ff0c57e16840df040f15088dc2f81fe391c3923bec73e23a9662efc9c229c6a0090565b610dde611001565b610a0d81611026565b306001600160a01b037f0000000000000000000000000000000000000000000000000000000000000000161480610e6e57507f00000000000000000000000000000000000000000000000000000000000000006001600160a01b0316610e626000805160206117a5833981519152546001600160a01b031690565b6001600160a01b031614155b156109cf5760405163703e46dd60e11b815260040160405180910390fd5b610a0d610d80565b816001600160a01b03166352d1902d6040518163ffffffff1660e01b8152600401602060405180830381865afa925050508015610eee575060408051601f3d908101601f19168201909252610eeb918101906115b6565b60015b610f0d5781604051634c9c8ce360e01b81526004016104cc91906112da565b6000805160206117a58339815191528114610f3e57604051632a87526960e21b8152600481018290526024016104cc565b610f488383611058565b505050565b306001600160a01b037f000000000000000000000000000000000000000000000000000000000000000016146109cf5760405163703e46dd60e11b815260040160405180910390fd5b6000610fa0610fdd565b80546001600160a01b0319168155905061099c826110ae565b7f9016d09d72d40fdae2fd8ceac6b6234c7706214fd39c1cd1e609a0528c19930090565b7f237e158222e3e6968b72b9db0d8043aacf074ad9f650f0d1606b4d82ee432c0090565b61100961110a565b6109cf57604051631afcd79f60e31b815260040160405180910390fd5b61102e611001565b6001600160a01b038116610a04576000604051631e4fbdf760e01b81526004016104cc91906112da565b61106182611124565b6040516001600160a01b038316907fbc7cd75a20ee27fd9adebab32041f755214dbc6bffa90cc0225b39da2e5c2d3b90600090a28051156110a657610f488282611180565b61099c6111f8565b60006110b8610fb9565b80546001600160a01b038481166001600160a01b031983168117845560405193945091169182907f8be0079c531659141344cd1fd0a4f28419497f9722a3daafe3b4186f6b6457e090600090a3505050565b6000611114610db2565b54600160401b900460ff16919050565b806001600160a01b03163b6000036111515780604051634c9c8ce360e01b81526004016104cc91906112da565b6000805160206117a583398151915280546001600160a01b0319166001600160a01b0392909216919091179055565b6060600080846001600160a01b03168460405161119d9190611788565b600060405180830381855af49150503d80600081146111d8576040519150601f19603f3d011682016040523d82523d6000602084013e6111dd565b606091505b50915091506111ed858383611217565b925050505b92915050565b34156109cf5760405163b398979f60e01b815260040160405180910390fd5b60608261122c576112278261126d565b611266565b815115801561124357506001600160a01b0384163b155b156112635783604051639996b31560e01b81526004016104cc91906112da565b50805b9392505050565b80511561127d5780518082602001fd5b604051630a12f52160e11b815260040160405180910390fd5b6000602082840312156112a857600080fd5b5035919050565b8015158114610a0d57600080fd5b6000602082840312156112cf57600080fd5b8135611266816112af565b6001600160a01b0391909116815260200190565b80356001600160a01b038116811461058657600080fd5b6000806040838503121561131857600080fd5b611321836112ee565b915061132f602084016112ee565b90509250929050565b6000806020838503121561134b57600080fd5b82356001600160401b038082111561136257600080fd5b818501915085601f83011261137657600080fd5b81358181111561138557600080fd5b8660208260051b850101111561139a57600080fd5b60209290920196919550909350505050565b634e487b7160e01b600052604160045260246000fd5b604051601f8201601f191681016001600160401b03811182821017156113ea576113ea6113ac565b604052919050565b6000806040838503121561140557600080fd5b61140e836112ee565b91506020838101356001600160401b038082111561142b57600080fd5b818601915086601f83011261143f57600080fd5b813581811115611451576114516113ac565b611463601f8201601f191685016113c2565b9150808252878482850101111561147957600080fd5b80848401858401376000848284010152508093505050509250929050565b60008151808452602080850194506020840160005b838110156114c8578151875295820195908201906001016114ac565b509495945050505050565b6020815260006112666020830184611497565b60005b838110156115015781810151838201526020016114e9565b50506000910152565b600081518084526115228160208601602086016114e6565b601f01601f19169290920160200192915050565b602081526000611266602083018461150a565b60006020828403121561155b57600080fd5b611266826112ee565b634e487b7160e01b600052601160045260246000fd5b818103818111156111f2576111f2611564565b808201808211156111f2576111f2611564565b634e487b7160e01b600052603260045260246000fd5b6000602082840312156115c857600080fd5b5051919050565b81835260006001600160fb1b038311156115e857600080fd5b8260051b80836020870137939093016020019392505050565b6060815260006116156060830186886115cf565b6020830194909452506040015292915050565b6000602080838503121561163b57600080fd5b82516001600160401b038082111561165257600080fd5b818501915085601f83011261166657600080fd5b815181811115611678576116786113ac565b8060051b91506116898483016113c2565b81815291830184019184810190888411156116a357600080fd5b938501935b838510156116c1578451825293850193908501906116a8565b98975050505050505050565b6040815260006116e16040830185876115cf565b82810360208401526116f38185611497565b9695505050505050565b6020815260006117116020830184866115cf565b949350505050565b60006020828403121561172b57600080fd5b8151611266816112af565b60408152600061174a6040830185876115cf565b905060018060a01b0383166020830152949350505050565b6040815260006117756040830186611497565b82810360208401526116f38185876115cf565b6000825161179a8184602087016114e6565b919091019291505056fe360894a13ba1a3210667c828492db98dca3e2076cc3735a920a3ca505d382bbc7909752b76037727fecfc6c1abb7264306fd284ff7be21e2aa09bf2fdc00579da2646970667358221220632222b28bd16fe58e496c6a5879ea2b06d45b98aa14701657ad2c452094391f64736f6c63430008170033",
  "devdoc": {
    "errors": {
      "AddressEmptyCode(address)": [
        {
          "details": "There's no code at `target` (it is not a contract)."
        }
      ],
      "ERC1967InvalidImplementation(address)": [
        {
          "details": "The `implementation` of the proxy is invalid."
        }
      ],
      "ERC1967NonPayable()": [
        {
          "details": "An upgrade function sees `msg.value > 0` that may be lost."
        }
      ],
      "FailedInnerCall()": [
        {
          "details": "A call to an address target failed. The target may have reverted."
        }
      ],
      "InvalidInitialization()": [
        {
          "details": "The contract is already initialized."
        }
      ],
      "NotInitializing()": [
        {
          "details": "The contract is not initializing."
        }
      ],
      "OwnableInvalidOwner(address)": [
        {
          "details": "The owner is not a valid owner account. (eg. `address(0)`)"
        }
      ],
      "OwnableUnauthorizedAccount(address)": [
        {
          "details": "The caller account is not authorized to perform an operation."
        }
      ],
      "UUPSUnauthorizedCallContext()": [
        {
          "details": "The call is from an unauthorized context."
        }
      ],
      "UUPSUnsupportedProxiableUUID(bytes32)": [
        {
          "details": "The storage `slot` is unsupported as a UUID."
        }
      ]
    },
    "events": {
      "Initialized(uint64)": {
        "details": "Triggered when the contract has been initialized or reinitialized."
      },
      "Upgraded(address)": {
        "details": "Emitted when the implementation is upgraded."
      }
    },
    "kind": "dev",
    "methods": {
      "acceptOwnership()": {
        "details": "The new owner accepts the ownership transfer."
      },
      "owner()": {
        "details": "Returns the address of the current owner."
      },
      "pendingOwner()": {
        "details": "Returns the address of the pending owner."
      },
      "proxiableUUID()": {
        "details": "Implementation of the ERC1822 {proxiableUUID} function. This returns the storage slot used by the implementation. It is used to validate the implementation's compatibility when performing an upgrade. IMPORTANT: A proxy pointing at a proxiable contract should not be considered proxiable itself, because this risks bricking a proxy that upgrades to it, by delegating to itself until out of gas. Thus it is critical that this function revert if invoked through a proxy. This is guaranteed by the `notDelegated` modifier."
      },
      "renounceOwnership()": {
        "details": "Leaves the contract without owner. It will not be possible to call `onlyOwner` functions. Can only be called by the current owner. NOTE: Renouncing ownership will leave the contract without an owner, thereby disabling any functionality that is only available to the owner."
      },
      "transferOwnership(address)": {
        "details": "Starts the ownership transfer of the contract to a new account. Replaces the pending transfer if there is one. Can only be called by the current owner."
      },
      "upgradeToAndCall(address,bytes)": {
        "custom:oz-upgrades-unsafe-allow-reachable": "delegatecall",
        "details": "Upgrade the implementation of the proxy to `newImplementation`, and subsequently execute the function call encoded in `data`. Calls {_authorizeUpgrade}. Emits an {Upgraded} event."
      }
    },
    "version": 1
  },
  "userdoc": {
    "kind": "user",
    "methods": {
      "deposit(uint256)": {
        "notice": "--------------------------------  External Functions  --------------------------------"
      },
      "ownerDeposit(uint256)": {
        "notice": "----------------------------------  Admin Functions  ----------------------------------"
      },
      "underlyingAssetAmount()": {
        "notice": "---------------------------------  View Functions  ---------------------------------"
      }
    },
    "version": 1
  },
  "storageLayout": {
    "storage": [
      {
        "astId": 3844,
        "contract": "src/strategies/EthStrategy.sol:EthStrategy",
        "label": "stakingManager",
        "offset": 0,
        "slot": "0",
        "type": "t_address"
      },
      {
        "astId": 3846,
        "contract": "src/strategies/EthStrategy.sol:EthStrategy",
        "label": "autoStake",
        "offset": 20,
        "slot": "0",
        "type": "t_bool"
      },
      {
        "astId": 3850,
        "contract": "src/strategies/EthStrategy.sol:EthStrategy",
        "label": "__gap",
        "offset": 0,
        "slot": "1",
        "type": "t_array(t_uint256)50_storage"
      }
    ],
    "types": {
      "t_address": {
        "encoding": "inplace",
        "label": "address",
        "numberOfBytes": "20"
      },
      "t_array(t_uint256)50_storage": {
        "base": "t_uint256",
        "encoding": "inplace",
        "label": "uint256[50]",
        "numberOfBytes": "1600"
      },
      "t_bool": {
        "encoding": "inplace",
        "label": "bool",
        "numberOfBytes": "1"
      },
      "t_uint256": {
        "encoding": "inplace",
        "label": "uint256",
        "numberOfBytes": "32"
      }
    }
  }
}