{
  "address": "0xA51c1fc2f0D1a1b8494Ed1FE312d7C3a78Ed91C0",
  "abi": [
    {
      "inputs": [
        {
          "internalType": "address",
          "name": "target",
          "type": "address"
        }
      ],
      "name": "AddressEmptyCode",
      "type": "error"
    },
    {
      "inputs": [
        {
          "internalType": "address",
          "name": "implementation",
          "type": "address"
        }
      ],
      "name": "ERC1967InvalidImplementation",
      "type": "error"
    },
    {
      "inputs": [],
      "name": "ERC1967NonPayable",
      "type": "error"
    },
    {
      "inputs": [],
      "name": "FailedInnerCall",
      "type": "error"
    },
    {
      "inputs": [],
      "name": "InvalidInitialization",
      "type": "error"
    },
    {
      "inputs": [],
      "name": "NotInitializing",
      "type": "error"
    },
    {
      "inputs": [
        {
          "internalType": "address",
          "name": "sender",
          "type": "address"
        }
      ],
      "name": "OnlyStaker",
      "type": "error"
    },
    {
      "inputs": [
        {
          "internalType": "address",
          "name": "owner",
          "type": "address"
        }
      ],
      "name": "OwnableInvalidOwner",
      "type": "error"
    },
    {
      "inputs": [
        {
          "internalType": "address",
          "name": "account",
          "type": "address"
        }
      ],
      "name": "OwnableUnauthorizedAccount",
      "type": "error"
    },
    {
      "inputs": [
        {
          "internalType": "bytes",
          "name": "data",
          "type": "bytes"
        }
      ],
      "name": "TransferFailed",
      "type": "error"
    },
    {
      "inputs": [],
      "name": "UUPSUnauthorizedCallContext",
      "type": "error"
    },
    {
      "inputs": [
        {
          "internalType": "bytes32",
          "name": "slot",
          "type": "bytes32"
        }
      ],
      "name": "UUPSUnsupportedProxiableUUID",
      "type": "error"
    },
    {
      "anonymous": false,
      "inputs": [
        {
          "indexed": true,
          "internalType": "address",
          "name": "asset",
          "type": "address"
        },
        {
          "indexed": true,
          "internalType": "contract IStakingStrategy",
          "name": "strategy",
          "type": "address"
        }
      ],
      "name": "AddStrategy",
      "type": "event"
    },
    {
      "anonymous": false,
      "inputs": [
        {
          "indexed": false,
          "internalType": "uint64",
          "name": "version",
          "type": "uint64"
        }
      ],
      "name": "Initialized",
      "type": "event"
    },
    {
      "anonymous": false,
      "inputs": [
        {
          "indexed": true,
          "internalType": "address",
          "name": "previousOwner",
          "type": "address"
        },
        {
          "indexed": true,
          "internalType": "address",
          "name": "newOwner",
          "type": "address"
        }
      ],
      "name": "OwnershipTransferStarted",
      "type": "event"
    },
    {
      "anonymous": false,
      "inputs": [
        {
          "indexed": true,
          "internalType": "address",
          "name": "previousOwner",
          "type": "address"
        },
        {
          "indexed": true,
          "internalType": "address",
          "name": "newOwner",
          "type": "address"
        }
      ],
      "name": "OwnershipTransferred",
      "type": "event"
    },
    {
      "anonymous": false,
      "inputs": [
        {
          "indexed": true,
          "internalType": "address",
          "name": "asset",
          "type": "address"
        },
        {
          "indexed": true,
          "internalType": "contract IStakingStrategy",
          "name": "strategy",
          "type": "address"
        },
        {
          "indexed": false,
          "internalType": "uint256",
          "name": "withdrawnAmount",
          "type": "uint256"
        }
      ],
      "name": "RemoveStrategy",
      "type": "event"
    },
    {
      "anonymous": false,
      "inputs": [
        {
          "indexed": true,
          "internalType": "address",
          "name": "asset",
          "type": "address"
        },
        {
          "indexed": false,
          "internalType": "uint256",
          "name": "index",
          "type": "uint256"
        }
      ],
      "name": "SetActiveStrategy",
      "type": "event"
    },
    {
      "anonymous": false,
      "inputs": [
        {
          "indexed": false,
          "internalType": "bool",
          "name": "autoStake",
          "type": "bool"
        }
      ],
      "name": "SetAutoStake",
      "type": "event"
    },
    {
      "anonymous": false,
      "inputs": [
        {
          "indexed": false,
          "internalType": "address",
          "name": "staker",
          "type": "address"
        }
      ],
      "name": "SetStaker",
      "type": "event"
    },
    {
      "anonymous": false,
      "inputs": [
        {
          "indexed": true,
          "internalType": "address",
          "name": "asset",
          "type": "address"
        },
        {
          "indexed": false,
          "internalType": "uint256",
          "name": "amount",
          "type": "uint256"
        }
      ],
      "name": "Stake",
      "type": "event"
    },
    {
      "anonymous": false,
      "inputs": [
        {
          "indexed": true,
          "internalType": "address",
          "name": "implementation",
          "type": "address"
        }
      ],
      "name": "Upgraded",
      "type": "event"
    },
    {
      "anonymous": false,
      "inputs": [
        {
          "indexed": true,
          "internalType": "address",
          "name": "asset",
          "type": "address"
        },
        {
          "indexed": false,
          "internalType": "uint256",
          "name": "amount",
          "type": "uint256"
        }
      ],
      "name": "Withdraw",
      "type": "event"
    },
    {
      "inputs": [],
      "name": "ETH_ADDRESS",
      "outputs": [
        {
          "internalType": "address",
          "name": "",
          "type": "address"
        }
      ],
      "stateMutability": "view",
      "type": "function"
    },
    {
      "inputs": [],
      "name": "UPGRADE_INTERFACE_VERSION",
      "outputs": [
        {
          "internalType": "string",
          "name": "",
          "type": "string"
        }
      ],
      "stateMutability": "view",
      "type": "function"
    },
    {
      "inputs": [],
      "name": "acceptOwnership",
      "outputs": [],
      "stateMutability": "nonpayable",
      "type": "function"
    },
    {
      "inputs": [
        {
          "internalType": "address",
          "name": "",
          "type": "address"
        }
      ],
      "name": "activeStrategyIndex",
      "outputs": [
        {
          "internalType": "uint256",
          "name": "",
          "type": "uint256"
        }
      ],
      "stateMutability": "view",
      "type": "function"
    },
    {
      "inputs": [
        {
          "internalType": "address",
          "name": "asset",
          "type": "address"
        },
        {
          "internalType": "contract IStakingStrategy",
          "name": "strategy",
          "type": "address"
        }
      ],
      "name": "addStrategy",
      "outputs": [],
      "stateMutability": "nonpayable",
      "type": "function"
    },
    {
      "inputs": [],
      "name": "autoStake",
      "outputs": [
        {
          "internalType": "bool",
          "name": "",
          "type": "bool"
        }
      ],
      "stateMutability": "view",
      "type": "function"
    },
    {
      "inputs": [],
      "name": "depositor",
      "outputs": [
        {
          "internalType": "address",
          "name": "",
          "type": "address"
        }
      ],
      "stateMutability": "view",
      "type": "function"
    },
    {
      "inputs": [
        {
          "internalType": "address",
          "name": "asset",
          "type": "address"
        }
      ],
      "name": "getActiveStrategy",
      "outputs": [
        {
          "internalType": "contract IStakingStrategy",
          "name": "",
          "type": "address"
        }
      ],
      "stateMutability": "view",
      "type": "function"
    },
    {
      "inputs": [
        {
          "internalType": "address",
          "name": "asset",
          "type": "address"
        }
      ],
      "name": "getAssetTotal",
      "outputs": [
        {
          "internalType": "uint256",
          "name": "total",
          "type": "uint256"
        }
      ],
      "stateMutability": "view",
      "type": "function"
    },
    {
      "inputs": [
        {
          "internalType": "address",
          "name": "_owner",
          "type": "address"
        }
      ],
      "name": "initialize",
      "outputs": [],
      "stateMutability": "nonpayable",
      "type": "function"
    },
    {
      "inputs": [],
      "name": "owner",
      "outputs": [
        {
          "internalType": "address",
          "name": "",
          "type": "address"
        }
      ],
      "stateMutability": "view",
      "type": "function"
    },
    {
      "inputs": [],
      "name": "pendingOwner",
      "outputs": [
        {
          "internalType": "address",
          "name": "",
          "type": "address"
        }
      ],
      "stateMutability": "view",
      "type": "function"
    },
    {
      "inputs": [],
      "name": "proxiableUUID",
      "outputs": [
        {
          "internalType": "bytes32",
          "name": "",
          "type": "bytes32"
        }
      ],
      "stateMutability": "view",
      "type": "function"
    },
    {
      "inputs": [
        {
          "internalType": "address",
          "name": "asset",
          "type": "address"
        },
        {
          "internalType": "uint256",
          "name": "index",
          "type": "uint256"
        }
      ],
      "name": "removeStrategy",
      "outputs": [],
      "stateMutability": "nonpayable",
      "type": "function"
    },
    {
      "inputs": [],
      "name": "renounceOwnership",
      "outputs": [],
      "stateMutability": "nonpayable",
      "type": "function"
    },
    {
      "inputs": [
        {
          "internalType": "address",
          "name": "asset",
          "type": "address"
        },
        {
          "internalType": "uint256",
          "name": "index",
          "type": "uint256"
        }
      ],
      "name": "setActiveStrategy",
      "outputs": [],
      "stateMutability": "nonpayable",
      "type": "function"
    },
    {
      "inputs": [
        {
          "internalType": "bool",
          "name": "_autoStake",
          "type": "bool"
        }
      ],
      "name": "setAutoStake",
      "outputs": [],
      "stateMutability": "nonpayable",
      "type": "function"
    },
    {
      "inputs": [
        {
          "internalType": "address",
          "name": "_staker",
          "type": "address"
        }
      ],
      "name": "setStaker",
      "outputs": [],
      "stateMutability": "nonpayable",
      "type": "function"
    },
    {
      "inputs": [
        {
          "internalType": "address",
          "name": "asset",
          "type": "address"
        },
        {
          "internalType": "uint256",
          "name": "amount",
          "type": "uint256"
        }
      ],
      "name": "stake",
      "outputs": [],
      "stateMutability": "payable",
      "type": "function"
    },
    {
      "inputs": [],
      "name": "staker",
      "outputs": [
        {
          "internalType": "address",
          "name": "",
          "type": "address"
        }
      ],
      "stateMutability": "view",
      "type": "function"
    },
    {
      "inputs": [
        {
          "internalType": "address",
          "name": "",
          "type": "address"
        },
        {
          "internalType": "uint256",
          "name": "",
          "type": "uint256"
        }
      ],
      "name": "strategies",
      "outputs": [
        {
          "internalType": "contract IStakingStrategy",
          "name": "",
          "type": "address"
        }
      ],
      "stateMutability": "view",
      "type": "function"
    },
    {
      "inputs": [
        {
          "internalType": "address",
          "name": "newOwner",
          "type": "address"
        }
      ],
      "name": "transferOwnership",
      "outputs": [],
      "stateMutability": "nonpayable",
      "type": "function"
    },
    {
      "inputs": [
        {
          "internalType": "address",
          "name": "newImplementation",
          "type": "address"
        },
        {
          "internalType": "bytes",
          "name": "data",
          "type": "bytes"
        }
      ],
      "name": "upgradeToAndCall",
      "outputs": [],
      "stateMutability": "payable",
      "type": "function"
    },
    {
      "inputs": [
        {
          "internalType": "uint256",
          "name": "amount",
          "type": "uint256"
        }
      ],
      "name": "withdraw",
      "outputs": [],
      "stateMutability": "nonpayable",
      "type": "function"
    },
    {
      "stateMutability": "payable",
      "type": "receive"
    }
  ],
  "transactionHash": "0x461f4c4d47572b406e15cada90b6ff7e3535a3987d2210422b78c81b0ca5c3a4",
  "args": [],
  "numDeployments": 1,
  "solcInputHash": "a7ab53fa647a90a5cce3fdffd0462a50",
  "bytecode": "0x60a06040523060805234801561001457600080fd5b506080516116d061003e60003960008181610e6001528181610e890152610fc601526116d06000f3fe60806040526004361061011f5760003560e01c806310cc25d71461012b578063124a38d81461016b57806318066943146101985780631d212c96146101ba5780631e18086e146101da5780632e1a7d4d146101fa5780634789badd1461021a5780634f1ef2861461024b57806352d1902d1461025e5780635ebaf1db14610273578063715018a61461029357806379ba5097146102a85780638da5cb5b146102bd5780639f8f3244146102d2578063a29a43bb146102f2578063a734f06e14610312578063ad3cb1cc1461033a578063adc9772e14610378578063b24190831461038b578063c4d66de8146103ab578063c7c4ff46146103cb578063e30c3978146103eb578063ea682eeb14610400578063f2fde38b1461042057600080fd5b3661012657005b600080fd5b34801561013757600080fd5b506101586101463660046113d0565b60016020526000908152604090205481565b6040519081526020015b60405180910390f35b34801561017757600080fd5b5061018b6101863660046113d0565b610440565b60405161016291906113ed565b3480156101a457600080fd5b506101b86101b3366004611401565b61048c565b005b3480156101c657600080fd5b506101b86101d536600461143a565b6104fc565b3480156101e657600080fd5b506101b86101f536600461145c565b61055c565b34801561020657600080fd5b506101b8610215366004611488565b6105bd565b34801561022657600080fd5b5060035461023b90600160a01b900460ff1681565b6040519015158152602001610162565b6101b86102593660046114b7565b6105ff565b34801561026a57600080fd5b5061015861061e565b34801561027f57600080fd5b5060025461018b906001600160a01b031681565b34801561029f57600080fd5b506101b861063b565b3480156102b457600080fd5b506101b861064f565b3480156102c957600080fd5b5061018b61068b565b3480156102de57600080fd5b5061018b6102ed36600461145c565b6106a6565b3480156102fe57600080fd5b506101b861030d3660046113d0565b6106de565b34801561031e57600080fd5b5061018b73eeeeeeeeeeeeeeeeeeeeeeeeeeeeeeeeeeeeeeee81565b34801561034657600080fd5b5061036b604051806040016040528060058152602001640352e302e360dc1b81525081565b60405161016291906115ca565b6101b861038636600461145c565b610731565b34801561039757600080fd5b506101586103a63660046113d0565b6107a2565b3480156103b757600080fd5b506101b86103c63660046113d0565b610880565b3480156103d757600080fd5b5060035461018b906001600160a01b031681565b3480156103f757600080fd5b5061018b610979565b34801561040c57600080fd5b506101b861041b36600461145c565b610984565b34801561042c57600080fd5b506101b861043b3660046113d0565b610c31565b6001600160a01b038116600090815260208181526040808320600190925282205481548110610471576104716115dd565b6000918252602090912001546001600160a01b031692915050565b610494610ca2565b6001600160a01b03828116600081815260208181526040808320805460018101825590845291832090910180546001600160a01b0319169486169485179055517ff5356ea32b86d53c1386eda4d869e6027a0a1d4edebb9c2f778d9f8559d236aa9190a35050565b610504610ca2565b60038054821515600160a01b0260ff60a01b199091161790556040517fc236baa3e21fdc712591cbbebfb2930bae5f479427ab19de579ef52e286804269061055190831515815260200190565b60405180910390a150565b610564610ca2565b6001600160a01b03821660008181526001602052604090819020839055517ff0703abfcce99547a9dfd5745a76d9d98e149d7a1e1682bdcba8e517ca3311a1906105b19084815260200190565b60405180910390a25050565b6002546001600160a01b031633146105f35733604051631f18623160e21b81526004016105ea91906113ed565b60405180910390fd5b6105fc81610cd4565b50565b610607610e55565b61061082610efa565b61061a8282610f02565b5050565b6000610628610fbb565b5060008051602061167b83398151915290565b610643610ca2565b61064d6000611004565b565b3380610659610979565b6001600160a01b031614610682578060405163118cdaa760e01b81526004016105ea91906113ed565b6105fc81611004565b600080610696611027565b546001600160a01b031692915050565b600060205281600052604060002081815481106106c257600080fd5b6000918252602090912001546001600160a01b03169150829050565b6106e6610ca2565b600280546001600160a01b0319166001600160a01b0383161790556040517f6901da73a3480b0bbd7deb64f259ff29a76ce811c7a3e5cf495f0e1eb4fb4dfb906105519083906113ed565b6002546001600160a01b0316331461075e5733604051631f18623160e21b81526004016105ea91906113ed565b6107673461104b565b816001600160a01b03167febedb8b3c678666e7f36970bc8f57abf6d8fa2e828c0da91ea5b75bf68ed101a826040516105b191815260200190565b6000805b6001600160a01b03831660009081526020819052604090205481101561087a576001600160a01b03831660009081526020819052604081208054839081106107f0576107f06115dd565b600091825260209182902001546040805163f48ccabd60e01b815290516001600160a01b039092169350839263f48ccabd926004808401938290030181865afa158015610841573d6000803e3d6000fd5b505050506040513d601f19601f8201168201806040525081019061086591906115f3565b61086f9084611622565b9250506001016107a6565b50919050565b600061088a6110cd565b805490915060ff600160401b82041615906001600160401b03166000811580156108b15750825b90506000826001600160401b031660011480156108cd5750303b155b9050811580156108db575080155b156108f95760405163f92ee8a960e01b815260040160405180910390fd5b84546001600160401b0319166001178555831561092257845460ff60401b1916600160401b1785555b61092b866110f1565b831561097157845460ff60401b19168555604051600181527fc7f505b2f371ae2175ee4913f4499e1f2633a7b5936321eed1cdaeb6115181d29060200160405180910390a15b505050505050565b600080610696611102565b61098c610ca2565b6001600160a01b03821660009081526020819052604081208054839081106109b6576109b66115dd565b9060005260206000200160009054906101000a90046001600160a01b031690506000816001600160a01b0316632e1a7d4d836001600160a01b031663f48ccabd6040518163ffffffff1660e01b8152600401602060405180830381865afa158015610a25573d6000803e3d6000fd5b505050506040513d601f19601f82011682018060405250810190610a4991906115f3565b6040518263ffffffff1660e01b8152600401610a6791815260200190565b6020604051808303816000875af1158015610a86573d6000803e3d6000fd5b505050506040513d601f19601f82011682018060405250810190610aaa91906115f3565b6001600160a01b03851660009081526020819052604081205491925090610ad390600190611635565b6001600160a01b038616600090815260208190526040902080549192509082908110610b0157610b016115dd565b60009182526020808320909101546001600160a01b038881168452918390526040909220805491909216919086908110610b3d57610b3d6115dd565b600091825260208083209190910180546001600160a01b0319166001600160a01b0394851617905591871681529081905260409020805480610b8157610b81611648565b60008281526020808220830160001990810180546001600160a01b03191690559092019092556001600160a01b0387168252600190526040902054849003610bdd576001600160a01b0385166000908152600160205260408120555b826001600160a01b0316856001600160a01b03167fc11b81149ee1579e4f558be47e79ebdefb8b0882f833687661c60ea700f2f79c84604051610c2291815260200190565b60405180910390a35050505050565b610c39610ca2565b6000610c43611102565b80546001600160a01b0319166001600160a01b0384169081178255909150610c6961068b565b6001600160a01b03167f38d16b8cac22d99fc7c124b9cd0de2d3fa1faef420bfe791d8c362d765e2270060405160405180910390a35050565b33610cab61068b565b6001600160a01b03161461064d573360405163118cdaa760e01b81526004016105ea91906113ed565b6000610cf373eeeeeeeeeeeeeeeeeeeeeeeeeeeeeeeeeeeeeeee610440565b905060006001600160a01b03821615610d7857604051632e1a7d4d60e01b8152600481018490526001600160a01b03831690632e1a7d4d906024016020604051808303816000875af1158015610d4d573d6000803e3d6000fd5b505050506040513d601f19601f82011682018060405250810190610d7191906115f3565b9050610d8a565b478311610d855782610d87565b475b90505b60025460405160009182916001600160a01b039091169084908381818185875af1925050503d8060008114610ddb576040519150601f19603f3d011682016040523d82523d6000602084013e610de0565b606091505b509150915081610e055780604051639a367e1760e01b81526004016105ea91906115ca565b60405185815273eeeeeeeeeeeeeeeeeeeeeeeeeeeeeeeeeeeeeeee907f884edad9ce6fa2440d8a54cc123490eb96d2768479d49ff9c7366125a94243649060200160405180910390a25050505050565b306001600160a01b037f0000000000000000000000000000000000000000000000000000000000000000161480610edc57507f00000000000000000000000000000000000000000000000000000000000000006001600160a01b0316610ed060008051602061167b833981519152546001600160a01b031690565b6001600160a01b031614155b1561064d5760405163703e46dd60e11b815260040160405180910390fd5b6105fc610ca2565b816001600160a01b03166352d1902d6040518163ffffffff1660e01b8152600401602060405180830381865afa925050508015610f5c575060408051601f3d908101601f19168201909252610f59918101906115f3565b60015b610f7b5781604051634c9c8ce360e01b81526004016105ea91906113ed565b60008051602061167b8339815191528114610fac57604051632a87526960e21b8152600481018290526024016105ea565b610fb68383611126565b505050565b306001600160a01b037f0000000000000000000000000000000000000000000000000000000000000000161461064d5760405163703e46dd60e11b815260040160405180910390fd5b600061100e611102565b80546001600160a01b0319168155905061061a8261117c565b7f9016d09d72d40fdae2fd8ceac6b6234c7706214fd39c1cd1e609a0528c19930090565b600061106a73eeeeeeeeeeeeeeeeeeeeeeeeeeeeeeeeeeeeeeee610440565b60405163b6b55f2560e01b8152600481018490529091506001600160a01b0382169063b6b55f259084906024016000604051808303818588803b1580156110b057600080fd5b505af11580156110c4573d6000803e3d6000fd5b50505050505050565b7ff0c57e16840df040f15088dc2f81fe391c3923bec73e23a9662efc9c229c6a0090565b6110f96111d8565b6105fc816111fd565b7f237e158222e3e6968b72b9db0d8043aacf074ad9f650f0d1606b4d82ee432c0090565b61112f8261122f565b6040516001600160a01b038316907fbc7cd75a20ee27fd9adebab32041f755214dbc6bffa90cc0225b39da2e5c2d3b90600090a280511561117457610fb6828261128b565b61061a611303565b6000611186611027565b80546001600160a01b038481166001600160a01b031983168117845560405193945091169182907f8be0079c531659141344cd1fd0a4f28419497f9722a3daafe3b4186f6b6457e090600090a3505050565b6111e0611322565b61064d57604051631afcd79f60e31b815260040160405180910390fd5b6112056111d8565b6001600160a01b038116610682576000604051631e4fbdf760e01b81526004016105ea91906113ed565b806001600160a01b03163b60000361125c5780604051634c9c8ce360e01b81526004016105ea91906113ed565b60008051602061167b83398151915280546001600160a01b0319166001600160a01b0392909216919091179055565b6060600080846001600160a01b0316846040516112a8919061165e565b600060405180830381855af49150503d80600081146112e3576040519150601f19603f3d011682016040523d82523d6000602084013e6112e8565b606091505b50915091506112f885838361133c565b925050505b92915050565b341561064d5760405163b398979f60e01b815260040160405180910390fd5b600061132c6110cd565b54600160401b900460ff16919050565b6060826113515761134c82611392565b61138b565b815115801561136857506001600160a01b0384163b155b156113885783604051639996b31560e01b81526004016105ea91906113ed565b50805b9392505050565b8051156113a25780518082602001fd5b604051630a12f52160e11b815260040160405180910390fd5b6001600160a01b03811681146105fc57600080fd5b6000602082840312156113e257600080fd5b813561138b816113bb565b6001600160a01b0391909116815260200190565b6000806040838503121561141457600080fd5b823561141f816113bb565b9150602083013561142f816113bb565b809150509250929050565b60006020828403121561144c57600080fd5b8135801515811461138b57600080fd5b6000806040838503121561146f57600080fd5b823561147a816113bb565b946020939093013593505050565b60006020828403121561149a57600080fd5b5035919050565b634e487b7160e01b600052604160045260246000fd5b600080604083850312156114ca57600080fd5b82356114d5816113bb565b915060208301356001600160401b03808211156114f157600080fd5b818501915085601f83011261150557600080fd5b813581811115611517576115176114a1565b604051601f8201601f19908116603f0116810190838211818310171561153f5761153f6114a1565b8160405282815288602084870101111561155857600080fd5b8260208601602083013760006020848301015280955050505050509250929050565b60005b8381101561159557818101518382015260200161157d565b50506000910152565b600081518084526115b681602086016020860161157a565b601f01601f19169290920160200192915050565b60208152600061138b602083018461159e565b634e487b7160e01b600052603260045260246000fd5b60006020828403121561160557600080fd5b5051919050565b634e487b7160e01b600052601160045260246000fd5b808201808211156112fd576112fd61160c565b818103818111156112fd576112fd61160c565b634e487b7160e01b600052603160045260246000fd5b6000825161167081846020870161157a565b919091019291505056fe360894a13ba1a3210667c828492db98dca3e2076cc3735a920a3ca505d382bbca2646970667358221220e36a485a1e10d6fb57555bdd8b96e2ae50f0e9048a9ece35e7e1e75be531db0f64736f6c63430008170033",
  "devdoc": {
    "errors": {
      "AddressEmptyCode(address)": [
        {
          "details": "There's no code at `target` (it is not a contract)."
        }
      ],
      "ERC1967InvalidImplementation(address)": [
        {
          "details": "The `implementation` of the proxy is invalid."
        }
      ],
      "ERC1967NonPayable()": [
        {
          "details": "An upgrade function sees `msg.value > 0` that may be lost."
        }
      ],
      "FailedInnerCall()": [
        {
          "details": "A call to an address target failed. The target may have reverted."
        }
      ],
      "InvalidInitialization()": [
        {
          "details": "The contract is already initialized."
        }
      ],
      "NotInitializing()": [
        {
          "details": "The contract is not initializing."
        }
      ],
      "OwnableInvalidOwner(address)": [
        {
          "details": "The owner is not a valid owner account. (eg. `address(0)`)"
        }
      ],
      "OwnableUnauthorizedAccount(address)": [
        {
          "details": "The caller account is not authorized to perform an operation."
        }
      ],
      "UUPSUnauthorizedCallContext()": [
        {
          "details": "The call is from an unauthorized context."
        }
      ],
      "UUPSUnsupportedProxiableUUID(bytes32)": [
        {
          "details": "The storage `slot` is unsupported as a UUID."
        }
      ]
    },
    "events": {
      "Initialized(uint64)": {
        "details": "Triggered when the contract has been initialized or reinitialized."
      },
      "Upgraded(address)": {
        "details": "Emitted when the implementation is upgraded."
      }
    },
    "kind": "dev",
    "methods": {
      "acceptOwnership()": {
        "details": "The new owner accepts the ownership transfer."
      },
      "owner()": {
        "details": "Returns the address of the current owner."
      },
      "pendingOwner()": {
        "details": "Returns the address of the pending owner."
      },
      "proxiableUUID()": {
        "details": "Implementation of the ERC1822 {proxiableUUID} function. This returns the storage slot used by the implementation. It is used to validate the implementation's compatibility when performing an upgrade. IMPORTANT: A proxy pointing at a proxiable contract should not be considered proxiable itself, because this risks bricking a proxy that upgrades to it, by delegating to itself until out of gas. Thus it is critical that this function revert if invoked through a proxy. This is guaranteed by the `notDelegated` modifier."
      },
      "renounceOwnership()": {
        "details": "Leaves the contract without owner. It will not be possible to call `onlyOwner` functions. Can only be called by the current owner. NOTE: Renouncing ownership will leave the contract without an owner, thereby disabling any functionality that is only available to the owner."
      },
      "transferOwnership(address)": {
        "details": "Starts the ownership transfer of the contract to a new account. Replaces the pending transfer if there is one. Can only be called by the current owner."
      },
      "upgradeToAndCall(address,bytes)": {
        "custom:oz-upgrades-unsafe-allow-reachable": "delegatecall",
        "details": "Upgrade the implementation of the proxy to `newImplementation`, and subsequently execute the function call encoded in `data`. Calls {_authorizeUpgrade}. Emits an {Upgraded} event."
      }
    },
    "version": 1
  },
  "userdoc": {
    "kind": "user",
    "methods": {
      "getActiveStrategy(address)": {
        "notice": "---------------------------------  View Functions  ---------------------------------"
      },
      "setStaker(address)": {
        "notice": "----------------------------------  Admin Functions  ----------------------------------"
      },
      "stake(address,uint256)": {
        "notice": "--------------------------------  Staker Functions  --------------------------------"
      }
    },
    "notice": "The purpose of this contract is solely to take in assets and send them to strategies. Upon withdrawal, all assets go to the depositor. The depositor needs to be set after deployment",
    "version": 1
  },
  "storageLayout": {
    "storage": [
      {
        "astId": 3127,
        "contract": "src/StakingManager.sol:StakingManager",
        "label": "strategies",
        "offset": 0,
        "slot": "0",
        "type": "t_mapping(t_address,t_array(t_contract(IStakingStrategy)3747)dyn_storage)"
      },
      {
        "astId": 3131,
        "contract": "src/StakingManager.sol:StakingManager",
        "label": "activeStrategyIndex",
        "offset": 0,
        "slot": "1",
        "type": "t_mapping(t_address,t_uint256)"
      },
      {
        "astId": 3133,
        "contract": "src/StakingManager.sol:StakingManager",
        "label": "staker",
        "offset": 0,
        "slot": "2",
        "type": "t_address"
      },
      {
        "astId": 3135,
        "contract": "src/StakingManager.sol:StakingManager",
        "label": "depositor",
        "offset": 0,
        "slot": "3",
        "type": "t_address"
      },
      {
        "astId": 3137,
        "contract": "src/StakingManager.sol:StakingManager",
        "label": "autoStake",
        "offset": 20,
        "slot": "3",
        "type": "t_bool"
      },
      {
        "astId": 3147,
        "contract": "src/StakingManager.sol:StakingManager",
        "label": "__gap",
        "offset": 0,
        "slot": "4",
        "type": "t_array(t_uint256)50_storage"
      }
    ],
    "types": {
      "t_address": {
        "encoding": "inplace",
        "label": "address",
        "numberOfBytes": "20"
      },
      "t_array(t_contract(IStakingStrategy)3747)dyn_storage": {
        "base": "t_contract(IStakingStrategy)3747",
        "encoding": "dynamic_array",
        "label": "contract IStakingStrategy[]",
        "numberOfBytes": "32"
      },
      "t_array(t_uint256)50_storage": {
        "base": "t_uint256",
        "encoding": "inplace",
        "label": "uint256[50]",
        "numberOfBytes": "1600"
      },
      "t_bool": {
        "encoding": "inplace",
        "label": "bool",
        "numberOfBytes": "1"
      },
      "t_contract(IStakingStrategy)3747": {
        "encoding": "inplace",
        "label": "contract IStakingStrategy",
        "numberOfBytes": "20"
      },
      "t_mapping(t_address,t_array(t_contract(IStakingStrategy)3747)dyn_storage)": {
        "encoding": "mapping",
        "key": "t_address",
        "label": "mapping(address => contract IStakingStrategy[])",
        "numberOfBytes": "32",
        "value": "t_array(t_contract(IStakingStrategy)3747)dyn_storage"
      },
      "t_mapping(t_address,t_uint256)": {
        "encoding": "mapping",
        "key": "t_address",
        "label": "mapping(address => uint256)",
        "numberOfBytes": "32",
        "value": "t_uint256"
      },
      "t_uint256": {
        "encoding": "inplace",
        "label": "uint256",
        "numberOfBytes": "32"
      }
    }
  }
}