{
  "address": "0x55E9360e7903d163B5558A6b940B8F2cB6807161",
  "abi": [
    {
      "inputs": [],
      "name": "InsufficientFunds",
      "type": "error"
    },
    {
      "inputs": [],
      "name": "InvalidInitialization",
      "type": "error"
    },
    {
      "inputs": [],
      "name": "NotInitializing",
      "type": "error"
    },
    {
      "inputs": [
        {
          "internalType": "address",
          "name": "sender",
          "type": "address"
        }
      ],
      "name": "OnlyStakingManager",
      "type": "error"
    },
    {
      "inputs": [
        {
          "internalType": "address",
          "name": "owner",
          "type": "address"
        }
      ],
      "name": "OwnableInvalidOwner",
      "type": "error"
    },
    {
      "inputs": [
        {
          "internalType": "address",
          "name": "account",
          "type": "address"
        }
      ],
      "name": "OwnableUnauthorizedAccount",
      "type": "error"
    },
    {
      "anonymous": false,
      "inputs": [
        {
          "indexed": false,
          "internalType": "uint256",
          "name": "amount",
          "type": "uint256"
        }
      ],
      "name": "DaiStaked",
      "type": "event"
    },
    {
      "anonymous": false,
      "inputs": [
        {
          "indexed": false,
          "internalType": "uint256",
          "name": "amount",
          "type": "uint256"
        }
      ],
      "name": "DaiWithdrawn",
      "type": "event"
    },
    {
      "anonymous": false,
      "inputs": [
        {
          "indexed": false,
          "internalType": "uint64",
          "name": "version",
          "type": "uint64"
        }
      ],
      "name": "Initialized",
      "type": "event"
    },
    {
      "anonymous": false,
      "inputs": [
        {
          "indexed": true,
          "internalType": "address",
          "name": "previousOwner",
          "type": "address"
        },
        {
          "indexed": true,
          "internalType": "address",
          "name": "newOwner",
          "type": "address"
        }
      ],
      "name": "OwnershipTransferStarted",
      "type": "event"
    },
    {
      "anonymous": false,
      "inputs": [
        {
          "indexed": true,
          "internalType": "address",
          "name": "previousOwner",
          "type": "address"
        },
        {
          "indexed": true,
          "internalType": "address",
          "name": "newOwner",
          "type": "address"
        }
      ],
      "name": "OwnershipTransferred",
      "type": "event"
    },
    {
      "anonymous": false,
      "inputs": [
        {
          "indexed": false,
          "internalType": "bool",
          "name": "autoStake",
          "type": "bool"
        }
      ],
      "name": "SetAutoStake",
      "type": "event"
    },
    {
      "anonymous": false,
      "inputs": [
        {
          "indexed": false,
          "internalType": "address",
          "name": "stakingManager",
          "type": "address"
        }
      ],
      "name": "SetStakingManager",
      "type": "event"
    },
    {
      "inputs": [],
      "name": "acceptOwnership",
      "outputs": [],
      "stateMutability": "nonpayable",
      "type": "function"
    },
    {
      "inputs": [],
      "name": "autoStake",
      "outputs": [
        {
          "internalType": "bool",
          "name": "",
          "type": "bool"
        }
      ],
      "stateMutability": "view",
      "type": "function"
    },
    {
      "inputs": [
        {
          "internalType": "uint256",
          "name": "amount",
          "type": "uint256"
        }
      ],
      "name": "deposit",
      "outputs": [],
      "stateMutability": "payable",
      "type": "function"
    },
    {
      "inputs": [
        {
          "internalType": "address",
          "name": "_owner",
          "type": "address"
        },
        {
          "internalType": "address",
          "name": "_stakingManager",
          "type": "address"
        }
      ],
      "name": "initialize",
      "outputs": [],
      "stateMutability": "nonpayable",
      "type": "function"
    },
    {
      "inputs": [],
      "name": "owner",
      "outputs": [
        {
          "internalType": "address",
          "name": "",
          "type": "address"
        }
      ],
      "stateMutability": "view",
      "type": "function"
    },
    {
      "inputs": [
        {
          "internalType": "uint256",
          "name": "amount",
          "type": "uint256"
        }
      ],
      "name": "ownerDeposit",
      "outputs": [],
      "stateMutability": "payable",
      "type": "function"
    },
    {
      "inputs": [
        {
          "internalType": "uint256",
          "name": "amount",
          "type": "uint256"
        }
      ],
      "name": "ownerWithdraw",
      "outputs": [
        {
          "internalType": "uint256",
          "name": "withdrawnAmount",
          "type": "uint256"
        }
      ],
      "stateMutability": "nonpayable",
      "type": "function"
    },
    {
      "inputs": [],
      "name": "pendingOwner",
      "outputs": [
        {
          "internalType": "address",
          "name": "",
          "type": "address"
        }
      ],
      "stateMutability": "view",
      "type": "function"
    },
    {
      "inputs": [],
      "name": "renounceOwnership",
      "outputs": [],
      "stateMutability": "nonpayable",
      "type": "function"
    },
    {
      "inputs": [
        {
          "internalType": "bool",
          "name": "_autoStake",
          "type": "bool"
        }
      ],
      "name": "setAutoStake",
      "outputs": [],
      "stateMutability": "nonpayable",
      "type": "function"
    },
    {
      "inputs": [
        {
          "internalType": "address",
          "name": "_stakingManager",
          "type": "address"
        }
      ],
      "name": "setStakingManager",
      "outputs": [],
      "stateMutability": "nonpayable",
      "type": "function"
    },
    {
      "inputs": [],
      "name": "stakingManager",
      "outputs": [
        {
          "internalType": "address",
          "name": "",
          "type": "address"
        }
      ],
      "stateMutability": "view",
      "type": "function"
    },
    {
      "inputs": [
        {
          "internalType": "address",
          "name": "newOwner",
          "type": "address"
        }
      ],
      "name": "transferOwnership",
      "outputs": [],
      "stateMutability": "nonpayable",
      "type": "function"
    },
    {
      "inputs": [],
      "name": "underlyingAsset",
      "outputs": [
        {
          "internalType": "address",
          "name": "",
          "type": "address"
        }
      ],
      "stateMutability": "pure",
      "type": "function"
    },
    {
      "inputs": [],
      "name": "underlyingAssetAmount",
      "outputs": [
        {
          "internalType": "uint256",
          "name": "",
          "type": "uint256"
        }
      ],
      "stateMutability": "nonpayable",
      "type": "function"
    },
    {
      "inputs": [],
      "name": "underlyingAssetAmountNoUpdate",
      "outputs": [
        {
          "internalType": "uint256",
          "name": "",
          "type": "uint256"
        }
      ],
      "stateMutability": "view",
      "type": "function"
    },
    {
      "inputs": [
        {
          "internalType": "uint256",
          "name": "amount",
          "type": "uint256"
        }
      ],
      "name": "withdraw",
      "outputs": [
        {
          "internalType": "uint256",
          "name": "withdrawnAmount",
          "type": "uint256"
        }
      ],
      "stateMutability": "nonpayable",
      "type": "function"
    }
  ],
  "transactionHash": "0x34a091bafce120166c54012c2e0670041ca668f68b90e9ba8ed3f733d71e9c56",
  "args": [],
  "numDeployments": 1,
  "solcInputHash": "404a57e9177115a388da0654e3829a4b",
  "bytecode": "0x608060405234801561001057600080fd5b50611276806100206000396000f3fe6080604052600436106100ce5760003560e01c8063141833dc146100d35780631d212c96146100e857806322828cc2146101085780632e1a7d4d1461013e57806333f707d11461016c5780634789badd1461018c578063485cc955146101bd5780636a4e494f146101dd578063715018a6146101f25780637158da7c1461020757806379ba5097146102285780638da5cb5b1461023d578063b00bba6a14610252578063b6b55f2514610272578063e30c397814610285578063f2fde38b1461029a578063f48ccabd146102ba575b600080fd5b6100e66100e1366004611056565b6102cf565b005b3480156100f457600080fd5b506100e661010336600461107d565b6103fd565b34801561011457600080fd5b50600054610128906001600160a01b031681565b604051610135919061109a565b60405180910390f35b34801561014a57600080fd5b5061015e610159366004611056565b610452565b604051908152602001610135565b34801561017857600080fd5b5061015e610187366004611056565b6106b0565b34801561019857600080fd5b506000546101ad90600160a01b900460ff1681565b6040519015158152602001610135565b3480156101c957600080fd5b506100e66101d83660046110c3565b6106ba565b3480156101e957600080fd5b5061015e6107d5565b3480156101fe57600080fd5b506100e6610a9a565b34801561021357600080fd5b50600080516020611221833981519152610128565b34801561023457600080fd5b506100e6610aae565b34801561024957600080fd5b50610128610aed565b34801561025e57600080fd5b506100e661026d3660046110fc565b610b08565b6100e6610280366004611056565b610b5b565b34801561029157600080fd5b50610128610c58565b3480156102a657600080fd5b506100e66102b53660046110fc565b610c63565b3480156102c657600080fd5b5061015e610cd4565b6102d7610dcc565b60405163095ea7b360e01b81526000805160206112218339815191529063095ea7b39061031890600080516020611201833981519152908590600401611119565b6020604051808303816000875af1158015610337573d6000803e3d6000fd5b505050506040513d601f19601f8201168201806040525081019061035b9190611132565b50604051633b4da69f60e01b815260008051602061120183398151915290633b4da69f9061038f9030908590600401611119565b600060405180830381600087803b1580156103a957600080fd5b505af11580156103bd573d6000803e3d6000fd5b505050507f982021fc45e4a9c28ba63e98a2a2e534166e3bcb2ef32e1f120fd754cbb5c718816040516103f291815260200190565b60405180910390a150565b610405610dcc565b60008054821515600160a01b0260ff60a01b199091161790556040517fc236baa3e21fdc712591cbbebfb2930bae5f479427ab19de579ef52e28680426906103f290831515815260200190565b600080546001600160a01b031633146104895733604051638e71c98f60e01b8152600401610480919061109a565b60405180910390fd5b6040516370a0823160e01b8152600090600080516020611221833981519152906370a08231906104bd90309060040161109a565b602060405180830381865afa1580156104da573d6000803e3d6000fd5b505050506040513d601f19601f820116820180604052508101906104fe919061114f565b90508281101561056e5760405163ef693bed60e01b81526000805160206112018339815191529063ef693bed9061053b9030908790600401611119565b600060405180830381600087803b15801561055557600080fd5b505af1158015610569573d6000803e3d6000fd5b505050505b6040516370a0823160e01b8152600090600080516020611221833981519152906370a08231906105a290309060040161109a565b602060405180830381865afa1580156105bf573d6000803e3d6000fd5b505050506040513d601f19601f820116820180604052508101906105e3919061114f565b90506105ef828261117e565b60005460405163a9059cbb60e01b81529194506000805160206112218339815191529163a9059cbb91610632916001600160a01b03909116908790600401611119565b6020604051808303816000875af1158015610651573d6000803e3d6000fd5b505050506040513d601f19601f820116820180604052508101906106759190611132565b506040518381527f35ce9a92825e20b0f22cb7effbaab12a8404e2442adec3360b1a6c2e03c234419060200160405180910390a15050919050565b6000610489610dcc565b60006106c4610dfe565b805490915060ff600160401b82041615906001600160401b03166000811580156106eb5750825b90506000826001600160401b031660011480156107075750303b155b905081158015610715575080155b156107335760405163f92ee8a960e01b815260040160405180910390fd5b84546001600160401b0319166001178555831561075c57845460ff60401b1916600160401b1785555b600080546001600160a81b0319166001600160a01b03881617600160a01b17905561078687610e22565b83156107cc57845460ff60401b19168555604051600181527fc7f505b2f371ae2175ee4913f4499e1f2633a7b5936321eed1cdaeb6115181d29060200160405180910390a15b50505050505050565b6000806000805160206112018339815191526001600160a01b0316634ba2363a6040518163ffffffff1660e01b8152600401602060405180830381865afa158015610824573d6000803e3d6000fd5b505050506040513d601f19601f820116820180604052508101906108489190611197565b90506000610998610931836001600160a01b031663487bf0826040518163ffffffff1660e01b8152600401602060405180830381865afa158015610890573d6000803e3d6000fd5b505050506040513d601f19601f820116820180604052508101906108b4919061114f565b846001600160a01b03166320aba08b6040518163ffffffff1660e01b8152600401602060405180830381865afa1580156108f2573d6000803e3d6000fd5b505050506040513d601f19601f82011682018060405250810190610916919061114f565b610920904261117e565b676765c793fa10079d601b1b610e33565b836001600160a01b031663c92aecc46040518163ffffffff1660e01b8152600401602060405180830381865afa15801561096f573d6000803e3d6000fd5b505050506040513d601f19601f82011682018060405250810190610993919061114f565b610ef1565b6040516388787f2b60e01b8152909150610a1790600080516020611201833981519152906388787f2b906109d090309060040161109a565b602060405180830381865afa1580156109ed573d6000803e3d6000fd5b505050506040513d601f19601f82011682018060405250810190610a11919061114f565b82610ef1565b6040516370a0823160e01b8152600080516020611221833981519152906370a0823190610a4890309060040161109a565b602060405180830381865afa158015610a65573d6000803e3d6000fd5b505050506040513d601f19601f82011682018060405250810190610a89919061114f565b610a9391906111b4565b9250505090565b610aa2610dcc565b610aac6000610f1a565b565b3380610ab8610c58565b6001600160a01b031614610ae1578060405163118cdaa760e01b8152600401610480919061109a565b610aea81610f1a565b50565b600080610af8610f41565b546001600160a01b031692915050565b610b10610dcc565b600080546001600160a01b0319166001600160a01b0383161790556040517f6ecce10fc14cb0941ba8416ce0e86d44c4b9122f214c5493e737dd16a5faeb65906103f290839061109a565b6000546001600160a01b03163314610b885733604051638e71c98f60e01b8152600401610480919061109a565b600054600160a01b900460ff1615610aea576040516323b872dd60e01b815233600482015230602482015260448101829052600080516020611221833981519152906323b872dd906064016020604051808303816000875af1158015610bf2573d6000803e3d6000fd5b505050506040513d601f19601f82011682018060405250810190610c169190611132565b5060405163095ea7b360e01b81526000805160206112218339815191529063095ea7b39061031890600080516020611201833981519152908590600401611119565b600080610af8610f65565b610c6b610dcc565b6000610c75610f65565b80546001600160a01b0319166001600160a01b0384169081178255909150610c9b610aed565b6001600160a01b03167f38d16b8cac22d99fc7c124b9cd0de2d3fa1faef420bfe791d8c362d765e2270060405160405180910390a35050565b60405163d7f7098f60e01b81526000906000805160206112018339815191529063d7f7098f90610d0890309060040161109a565b6020604051808303816000875af1158015610d27573d6000803e3d6000fd5b505050506040513d601f19601f82011682018060405250810190610d4b919061114f565b6040516370a0823160e01b8152600080516020611221833981519152906370a0823190610d7c90309060040161109a565b602060405180830381865afa158015610d99573d6000803e3d6000fd5b505050506040513d601f19601f82011682018060405250810190610dbd919061114f565b610dc791906111b4565b905090565b33610dd5610aed565b6001600160a01b031614610aac573360405163118cdaa760e01b8152600401610480919061109a565b7ff0c57e16840df040f15088dc2f81fe391c3923bec73e23a9662efc9c229c6a0090565b610e2a610f89565b610aea81610fae565b6000838015610ed357600184168015610e4e57859250610e52565b8392505b50600283046002850494505b8415610ecd578586028687820414610e7557600080fd5b81810181811015610e8557600080fd5b8590049650506001851615610ec2578583028387820414158715151615610eab57600080fd5b81810181811015610ebb57600080fd5b8590049350505b600285049450610e5e565b50610ee9565b838015610ee35760009250610ee7565b8392505b505b509392505050565b6000676765c793fa10079d601b1b610f0983856111c7565b610f1391906111de565b9392505050565b6000610f24610f65565b80546001600160a01b03191681559050610f3d82610fe0565b5050565b7f9016d09d72d40fdae2fd8ceac6b6234c7706214fd39c1cd1e609a0528c19930090565b7f237e158222e3e6968b72b9db0d8043aacf074ad9f650f0d1606b4d82ee432c0090565b610f9161103c565b610aac57604051631afcd79f60e31b815260040160405180910390fd5b610fb6610f89565b6001600160a01b038116610ae1576000604051631e4fbdf760e01b8152600401610480919061109a565b6000610fea610f41565b80546001600160a01b038481166001600160a01b031983168117845560405193945091169182907f8be0079c531659141344cd1fd0a4f28419497f9722a3daafe3b4186f6b6457e090600090a3505050565b6000611046610dfe565b54600160401b900460ff16919050565b60006020828403121561106857600080fd5b5035919050565b8015158114610aea57600080fd5b60006020828403121561108f57600080fd5b8135610f138161106f565b6001600160a01b0391909116815260200190565b6001600160a01b0381168114610aea57600080fd5b600080604083850312156110d657600080fd5b82356110e1816110ae565b915060208301356110f1816110ae565b809150509250929050565b60006020828403121561110e57600080fd5b8135610f13816110ae565b6001600160a01b03929092168252602082015260400190565b60006020828403121561114457600080fd5b8151610f138161106f565b60006020828403121561116157600080fd5b5051919050565b634e487b7160e01b600052601160045260246000fd5b8181038181111561119157611191611168565b92915050565b6000602082840312156111a957600080fd5b8151610f13816110ae565b8082018082111561119157611191611168565b808202811582820484141761119157611191611168565b6000826111fb57634e487b7160e01b600052601260045260246000fd5b50049056fe000000000000000000000000373238337bfe1146fb49989fc222523f83081ddb0000000000000000000000006b175474e89094c44da98b954eedeac495271d0fa2646970667358221220eb78361c71fd5a5a31d8a654c3119768adaab595cc9ba1ca0289351070bd199a64736f6c63430008170033",
  "devdoc": {
    "errors": {
      "InvalidInitialization()": [
        {
          "details": "The contract is already initialized."
        }
      ],
      "NotInitializing()": [
        {
          "details": "The contract is not initializing."
        }
      ],
      "OwnableInvalidOwner(address)": [
        {
          "details": "The owner is not a valid owner account. (eg. `address(0)`)"
        }
      ],
      "OwnableUnauthorizedAccount(address)": [
        {
          "details": "The caller account is not authorized to perform an operation."
        }
      ]
    },
    "events": {
      "Initialized(uint64)": {
        "details": "Triggered when the contract has been initialized or reinitialized."
      }
    },
    "kind": "dev",
    "methods": {
      "acceptOwnership()": {
        "details": "The new owner accepts the ownership transfer."
      },
      "owner()": {
        "details": "Returns the address of the current owner."
      },
      "pendingOwner()": {
        "details": "Returns the address of the pending owner."
      },
      "renounceOwnership()": {
        "details": "Leaves the contract without owner. It will not be possible to call `onlyOwner` functions. Can only be called by the current owner. NOTE: Renouncing ownership will leave the contract without an owner, thereby disabling any functionality that is only available to the owner."
      },
      "transferOwnership(address)": {
        "details": "Starts the ownership transfer of the contract to a new account. Replaces the pending transfer if there is one. Can only be called by the current owner."
      }
    },
    "version": 1
  },
  "userdoc": {
    "kind": "user",
    "methods": {
      "deposit(uint256)": {
        "notice": "--------------------------------  External Functions  --------------------------------"
      },
      "ownerDeposit(uint256)": {
        "notice": "----------------------------------  Admin Functions  ----------------------------------"
      },
      "underlyingAsset()": {
        "notice": "---------------------------------  View Functions  ---------------------------------"
      }
    },
    "version": 1
  },
  "storageLayout": {
    "storage": [
      {
        "astId": 5563,
        "contract": "src/strategies/DaiStrategy.sol:DaiStrategy",
        "label": "stakingManager",
        "offset": 0,
        "slot": "0",
        "type": "t_address"
      },
      {
        "astId": 5565,
        "contract": "src/strategies/DaiStrategy.sol:DaiStrategy",
        "label": "autoStake",
        "offset": 20,
        "slot": "0",
        "type": "t_bool"
      }
    ],
    "types": {
      "t_address": {
        "encoding": "inplace",
        "label": "address",
        "numberOfBytes": "20"
      },
      "t_bool": {
        "encoding": "inplace",
        "label": "bool",
        "numberOfBytes": "1"
      }
    }
  }
}