{
  "address": "0x67C6423e8534cE7A3631782a22f01A535A7dB77d",
  "abi": [
    {
      "inputs": [],
      "name": "InvalidInitialization",
      "type": "error"
    },
    {
      "inputs": [],
      "name": "MaxMintExceeded",
      "type": "error"
    },
    {
      "inputs": [],
      "name": "NotInitializing",
      "type": "error"
    },
    {
      "inputs": [
        {
          "internalType": "address",
          "name": "owner",
          "type": "address"
        }
      ],
      "name": "OwnableInvalidOwner",
      "type": "error"
    },
    {
      "inputs": [
        {
          "internalType": "address",
          "name": "account",
          "type": "address"
        }
      ],
      "name": "OwnableUnauthorizedAccount",
      "type": "error"
    },
    {
      "inputs": [
        {
          "internalType": "bytes",
          "name": "data",
          "type": "bytes"
        }
      ],
      "name": "TransferFailed",
      "type": "error"
    },
    {
      "inputs": [],
      "name": "ZeroAddress",
      "type": "error"
    },
    {
      "anonymous": false,
      "inputs": [
        {
          "indexed": true,
          "internalType": "address",
          "name": "from",
          "type": "address"
        },
        {
          "indexed": true,
          "internalType": "address",
          "name": "to",
          "type": "address"
        },
        {
          "indexed": true,
          "internalType": "address",
          "name": "l2Address",
          "type": "address"
        },
        {
          "indexed": false,
          "internalType": "uint256",
          "name": "amount",
          "type": "uint256"
        }
      ],
      "name": "BridgeToL2",
      "type": "event"
    },
    {
      "anonymous": false,
      "inputs": [
        {
          "indexed": true,
          "internalType": "address",
          "name": "to",
          "type": "address"
        },
        {
          "indexed": true,
          "internalType": "address",
          "name": "from",
          "type": "address"
        },
        {
          "indexed": false,
          "internalType": "uint256",
          "name": "EthAmount",
          "type": "uint256"
        },
        {
          "indexed": false,
          "internalType": "uint256",
          "name": "mintAmount",
          "type": "uint256"
        }
      ],
      "name": "DepositEth",
      "type": "event"
    },
    {
      "anonymous": false,
      "inputs": [
        {
          "indexed": false,
          "internalType": "uint64",
          "name": "version",
          "type": "uint64"
        }
      ],
      "name": "Initialized",
      "type": "event"
    },
    {
      "anonymous": false,
      "inputs": [
        {
          "indexed": true,
          "internalType": "address",
          "name": "to",
          "type": "address"
        },
        {
          "indexed": false,
          "internalType": "uint256",
          "name": "amount",
          "type": "uint256"
        }
      ],
      "name": "MintWrappedEth",
      "type": "event"
    },
    {
      "anonymous": false,
      "inputs": [
        {
          "indexed": true,
          "internalType": "address",
          "name": "previousOwner",
          "type": "address"
        },
        {
          "indexed": true,
          "internalType": "address",
          "name": "newOwner",
          "type": "address"
        }
      ],
      "name": "OwnershipTransferStarted",
      "type": "event"
    },
    {
      "anonymous": false,
      "inputs": [
        {
          "indexed": true,
          "internalType": "address",
          "name": "previousOwner",
          "type": "address"
        },
        {
          "indexed": true,
          "internalType": "address",
          "name": "newOwner",
          "type": "address"
        }
      ],
      "name": "OwnershipTransferred",
      "type": "event"
    },
    {
      "anonymous": false,
      "inputs": [
        {
          "indexed": false,
          "internalType": "uint256",
          "name": "amount",
          "type": "uint256"
        }
      ],
      "name": "ReceivedStakingManagerWithdrawal",
      "type": "event"
    },
    {
      "anonymous": false,
      "inputs": [
        {
          "indexed": false,
          "internalType": "bool",
          "name": "autoBridge",
          "type": "bool"
        }
      ],
      "name": "SetAutoBridge",
      "type": "event"
    },
    {
      "anonymous": false,
      "inputs": [
        {
          "indexed": false,
          "internalType": "contract IL1ERC20Bridge",
          "name": "l1standardBridge",
          "type": "address"
        }
      ],
      "name": "SetL1StandardBridge",
      "type": "event"
    },
    {
      "anonymous": false,
      "inputs": [
        {
          "indexed": false,
          "internalType": "address",
          "name": "l2Eth",
          "type": "address"
        }
      ],
      "name": "SetL2Eth",
      "type": "event"
    },
    {
      "anonymous": false,
      "inputs": [
        {
          "indexed": true,
          "internalType": "address",
          "name": "from",
          "type": "address"
        },
        {
          "indexed": true,
          "internalType": "address",
          "name": "to",
          "type": "address"
        },
        {
          "indexed": false,
          "internalType": "uint256",
          "name": "EthAmountWithdrew",
          "type": "uint256"
        },
        {
          "indexed": false,
          "internalType": "uint256",
          "name": "burnAmount",
          "type": "uint256"
        }
      ],
      "name": "WithdrawEth",
      "type": "event"
    },
    {
      "inputs": [],
      "name": "acceptOwnership",
      "outputs": [],
      "stateMutability": "nonpayable",
      "type": "function"
    },
    {
      "inputs": [],
      "name": "autoBridge",
      "outputs": [
        {
          "internalType": "bool",
          "name": "",
          "type": "bool"
        }
      ],
      "stateMutability": "view",
      "type": "function"
    },
    {
      "inputs": [
        {
          "internalType": "address",
          "name": "to",
          "type": "address"
        }
      ],
      "name": "depositEth",
      "outputs": [],
      "stateMutability": "payable",
      "type": "function"
    },
    {
      "inputs": [
        {
          "internalType": "address",
          "name": "_owner",
          "type": "address"
        },
        {
          "internalType": "contract IL1ERC20Bridge",
          "name": "_l1standardBridge",
          "type": "address"
        },
        {
          "internalType": "contract StakingManager",
          "name": "_stakingManager",
          "type": "address"
        }
      ],
      "name": "initialize",
      "outputs": [],
      "stateMutability": "nonpayable",
      "type": "function"
    },
    {
      "inputs": [],
      "name": "l1standardBridge",
      "outputs": [
        {
          "internalType": "contract IL1ERC20Bridge",
          "name": "",
          "type": "address"
        }
      ],
      "stateMutability": "view",
      "type": "function"
    },
    {
      "inputs": [],
      "name": "l2Eth",
      "outputs": [
        {
          "internalType": "address",
          "name": "",
          "type": "address"
        }
      ],
      "stateMutability": "view",
      "type": "function"
    },
    {
      "inputs": [
        {
          "internalType": "address",
          "name": "to",
          "type": "address"
        },
        {
          "internalType": "uint256",
          "name": "amount",
          "type": "uint256"
        }
      ],
      "name": "mintEthBasedOnStakedAmount",
      "outputs": [],
      "stateMutability": "nonpayable",
      "type": "function"
    },
    {
      "inputs": [],
      "name": "owner",
      "outputs": [
        {
          "internalType": "address",
          "name": "",
          "type": "address"
        }
      ],
      "stateMutability": "view",
      "type": "function"
    },
    {
      "inputs": [],
      "name": "pendingOwner",
      "outputs": [
        {
          "internalType": "address",
          "name": "",
          "type": "address"
        }
      ],
      "stateMutability": "view",
      "type": "function"
    },
    {
      "inputs": [],
      "name": "renounceOwnership",
      "outputs": [],
      "stateMutability": "nonpayable",
      "type": "function"
    },
    {
      "inputs": [
        {
          "internalType": "bool",
          "name": "_autoBridge",
          "type": "bool"
        }
      ],
      "name": "setAutoBridge",
      "outputs": [],
      "stateMutability": "nonpayable",
      "type": "function"
    },
    {
      "inputs": [
        {
          "internalType": "contract IL1ERC20Bridge",
          "name": "_l1standardBridge",
          "type": "address"
        }
      ],
      "name": "setL1StandardBridge",
      "outputs": [],
      "stateMutability": "nonpayable",
      "type": "function"
    },
    {
      "inputs": [
        {
          "internalType": "address",
          "name": "_l2Eth",
          "type": "address"
        }
      ],
      "name": "setL2Eth",
      "outputs": [],
      "stateMutability": "nonpayable",
      "type": "function"
    },
    {
      "inputs": [],
      "name": "stakingManager",
      "outputs": [
        {
          "internalType": "contract StakingManager",
          "name": "",
          "type": "address"
        }
      ],
      "stateMutability": "view",
      "type": "function"
    },
    {
      "inputs": [
        {
          "internalType": "address",
          "name": "newOwner",
          "type": "address"
        }
      ],
      "name": "transferOwnership",
      "outputs": [],
      "stateMutability": "nonpayable",
      "type": "function"
    },
    {
      "inputs": [
        {
          "internalType": "address",
          "name": "to",
          "type": "address"
        },
        {
          "internalType": "uint256",
          "name": "amount",
          "type": "uint256"
        }
      ],
      "name": "withdrawEth",
      "outputs": [],
      "stateMutability": "nonpayable",
      "type": "function"
    },
    {
      "inputs": [],
      "name": "wrappedEth",
      "outputs": [
        {
          "internalType": "contract WrappedToken",
          "name": "",
          "type": "address"
        }
      ],
      "stateMutability": "view",
      "type": "function"
    },
    {
      "stateMutability": "payable",
      "type": "receive"
    }
  ],
  "transactionHash": "0xbd12271963421513b352dd2463349bcc6b69c67807311637f4eb61cc1c251be9",
  "args": [],
  "numDeployments": 1,
  "solcInputHash": "863611cf67f114d731aac8faef38e4b0",
  "bytecode": "0x608060405234801561001057600080fd5b50611f30806100206000396000f3fe608060405260043610620000e45760003560e01c80631b9a91a4146200014457806322828cc214620001695780632bb33bbe14620001a3578063555a23bb14620001c857806368ca883a14620001ed5780636cf510da146200020f578063715018a6146200023157806379ba509714620002495780638aba131714620002615780638da5cb5b146200028e578063ad9d4ba314620002a6578063bb7ea01914620002bd578063c057e24914620002e2578063c0c53b8b1462000307578063e30c3978146200032c578063e32292111462000344578063f2fde38b146200036b57600080fd5b366200013f576003546001600160a01b0316330362000132576040513481527ffd11153dfaefca3a3390f4fe5048ca2682995d45d7d0fddbb072a279f18725dd9060200160405180910390a1005b6200013d3362000390565b005b600080fd5b3480156200015157600080fd5b506200013d620001633660046200110e565b620004db565b3480156200017657600080fd5b506003546200018b906001600160a01b031681565b6040516200019a91906200113d565b60405180910390f35b348015620001b057600080fd5b506200013d620001c23660046200110e565b62000675565b348015620001d557600080fd5b506200013d620001e736600462001160565b620008ac565b348015620001fa57600080fd5b506001546200018b906001600160a01b031681565b3480156200021c57600080fd5b506002546200018b906001600160a01b031681565b3480156200023e57600080fd5b506200013d620008fe565b3480156200025657600080fd5b506200013d62000916565b3480156200026e57600080fd5b506000546200027d9060ff1681565b60405190151581526020016200019a565b3480156200029b57600080fd5b506200018b6200095c565b6200013d620002b736600462001187565b62000390565b348015620002ca57600080fd5b506200013d620002dc36600462001187565b62000979565b348015620002ef57600080fd5b506200013d6200030136600462001187565b620009f8565b3480156200031457600080fd5b506200013d62000326366004620011a7565b62000a7c565b3480156200033957600080fd5b506200018b62000c89565b3480156200035157600080fd5b506000546200018b9061010090046001600160a01b031681565b3480156200037857600080fd5b506200013d6200038a36600462001187565b62000c96565b346200039d828262000d0d565b6003546040805163539a783760e11b815290516001600160a01b039092169163adc9772e918491849163a734f06e9160048083019260209291908290030181865afa158015620003f1573d6000803e3d6000fd5b505050506040513d601f19601f82011682018060405250810190620004179190620011f9565b846040518463ffffffff1660e01b81526004016200043792919062001219565b6000604051808303818588803b1580156200045157600080fd5b505af115801562000466573d6000803e3d6000fd5b50506001546000546200049194506001600160a01b0391821693506101009004169050848462000dbd565b604080513481526020810183905233916001600160a01b038516917f5e7e61836e7aac688d4f66257806e3118cc7a380422ee384512b7812e53cd1aa910160405180910390a35050565b600154604051632770a7eb60e21b81526001600160a01b0390911690639dc29fac906200050f903390859060040162001219565b600060405180830381600087803b1580156200052a57600080fd5b505af11580156200053f573d6000803e3d6000fd5b5050600354604051632e1a7d4d60e01b8152600481018590526001600160a01b039091169250632e1a7d4d9150602401600060405180830381600087803b1580156200058a57600080fd5b505af11580156200059f573d6000803e3d6000fd5b50505050600080836001600160a01b03168360405160006040518083038185875af1925050503d8060008114620005f3576040519150601f19603f3d011682016040523d82523d6000602084013e620005f8565b606091505b509150915081620006295780604051639a367e1760e01b815260040162000620919062001232565b60405180910390fd5b60408051848152602081018590526001600160a01b0386169133917f98dd409e09cadcfcca8697e6c594347ba2afdf87aa0ecb9281ce09ea76081ad1910160405180910390a350505050565b6200067f62000f32565b600154604080516318160ddd60e01b815290516000926001600160a01b0316916318160ddd9160048083019260209291908290030181865afa158015620006ca573d6000803e3d6000fd5b505050506040513d601f19601f82011682018060405250810190620006f0919062001283565b6003546040805163539a783760e11b815290516001600160a01b039092169163b241908391839163a734f06e916004808201926020929091908290030181865afa15801562000743573d6000803e3d6000fd5b505050506040513d601f19601f82011682018060405250810190620007699190620011f9565b6040518263ffffffff1660e01b81526004016200078791906200113d565b602060405180830381865afa158015620007a5573d6000803e3d6000fd5b505050506040513d601f19601f82011682018060405250810190620007cb919062001283565b620007d791906200129d565b905081811015620007fb57604051633ce95f8560e11b815260040160405180910390fd5b6001546040516340c10f1960e01b81526001600160a01b03909116906340c10f19906200082f908690869060040162001219565b600060405180830381600087803b1580156200084a57600080fd5b505af11580156200085f573d6000803e3d6000fd5b50505050826001600160a01b03167f9c8e207d198ed50e04d0d89e27ec60af229e8a19f25b8efce8dbe4cfa0e56338836040516200089f91815260200190565b60405180910390a2505050565b620008b662000f32565b6000805460ff19168215159081179091556040519081527f215a7d64fb51bebc34020eacfcbd22580622c6148ad085a557d7b3c4b850372c906020015b60405180910390a150565b6200090862000f32565b62000914600062000f69565b565b33806200092262000c89565b6001600160a01b0316146200094e578060405163118cdaa760e01b81526004016200062091906200113d565b620009598162000f69565b50565b6000806200096962000f90565b546001600160a01b031692915050565b6200098362000f32565b6001600160a01b038116620009ab5760405163d92e233d60e01b815260040160405180910390fd5b600280546001600160a01b0319166001600160a01b0383161790556040517f6bd18dd71dbbe09ce1c748bd59a9d3578fd72f868be620e941baaf7ededc1b2c90620008f39083906200113d565b62000a0262000f32565b6001600160a01b03811662000a2a5760405163d92e233d60e01b815260040160405180910390fd5b60008054610100600160a81b0319166101006001600160a01b038416021790556040517fef378cd64aa039f8aa85e2d1348e2d05fc857350febd6741215907a7176da26b90620008f39083906200113d565b600062000a8862000fb4565b805490915060ff600160401b82041615906001600160401b031660008115801562000ab05750825b90506000826001600160401b0316600114801562000acd5750303b155b90508115801562000adc575080155b1562000afb5760405163f92ee8a960e01b815260040160405180910390fd5b84546001600160401b0319166001178555831562000b2557845460ff60401b1916600160401b1785555b6001600160a01b038716158062000b4357506001600160a01b038816155b1562000b625760405163d92e233d60e01b815260040160405180910390fd5b3060405162000b7190620010ea565b6001600160a01b0390911681526060602082018190526014908201527308ac8cecad8cae6e640aee4c2e0e0cac8408ae8d60631b608082015260a060408201819052600590820152640caee8ae8d60db1b60c082015260e001604051809103906000f08015801562000be7573d6000803e3d6000fd5b50600180546001600160a01b03199081166001600160a01b03938416179091556002805482168a84161790556000805460ff191690556003805490911691881691909117905562000c388862000fd8565b831562000c7f57845460ff60401b19168555604051600181527fc7f505b2f371ae2175ee4913f4499e1f2633a7b5936321eed1cdaeb6115181d29060200160405180910390a15b5050505050505050565b6000806200096962000fed565b62000ca062000f32565b600062000cac62000fed565b80546001600160a01b0319166001600160a01b038416908117825590915062000cd46200095c565b6001600160a01b03167f38d16b8cac22d99fc7c124b9cd0de2d3fa1faef420bfe791d8c362d765e2270060405160405180910390a35050565b60005460ff161562000d85576001546040516340c10f1960e01b81526001600160a01b03909116906340c10f199062000d4d903090859060040162001219565b600060405180830381600087803b15801562000d6857600080fd5b505af115801562000d7d573d6000803e3d6000fd5b505050505050565b6001546040516340c10f1960e01b81526001600160a01b03909116906340c10f199062000d4d908590859060040162001219565b5050565b60005460ff161562000f2c5760025460405163095ea7b360e01b81526001600160a01b038681169263095ea7b39262000dff9290911690859060040162001219565b6020604051808303816000875af115801562000e1f573d6000803e3d6000fd5b505050506040513d601f19601f8201168201806040525081019062000e459190620012c5565b5060025460405163041c592960e51b81526001600160a01b038681166004830152858116602483015284811660448301526064820184905260006084830181905260c060a484015260c48301529091169063838b25209060e401600060405180830381600087803b15801562000eba57600080fd5b505af115801562000ecf573d6000803e3d6000fd5b50505050816001600160a01b0316836001600160a01b0316856001600160a01b03167f6135fd8533e4fd39a83c3c4945477ff42492bfd5e0c5e24422df7da3332f098f8460405162000f2391815260200190565b60405180910390a45b50505050565b3362000f3d6200095c565b6001600160a01b03161462000914573360405163118cdaa760e01b81526004016200062091906200113d565b600062000f7562000fed565b80546001600160a01b0319168155905062000db98262001011565b7f9016d09d72d40fdae2fd8ceac6b6234c7706214fd39c1cd1e609a0528c19930090565b7ff0c57e16840df040f15088dc2f81fe391c3923bec73e23a9662efc9c229c6a0090565b62000fe26200106f565b620009598162001097565b7f237e158222e3e6968b72b9db0d8043aacf074ad9f650f0d1606b4d82ee432c0090565b60006200101d62000f90565b80546001600160a01b038481166001600160a01b031983168117845560405193945091169182907f8be0079c531659141344cd1fd0a4f28419497f9722a3daafe3b4186f6b6457e090600090a3505050565b62001079620010ce565b6200091457604051631afcd79f60e31b815260040160405180910390fd5b620010a16200106f565b6001600160a01b0381166200094e576000604051631e4fbdf760e01b81526004016200062091906200113d565b6000620010da62000fb4565b54600160401b900460ff16919050565b610c1580620012e683390190565b6001600160a01b03811681146200095957600080fd5b600080604083850312156200112257600080fd5b82356200112f81620010f8565b946020939093013593505050565b6001600160a01b0391909116815260200190565b80151581146200095957600080fd5b6000602082840312156200117357600080fd5b8135620011808162001151565b9392505050565b6000602082840312156200119a57600080fd5b81356200118081620010f8565b600080600060608486031215620011bd57600080fd5b8335620011ca81620010f8565b92506020840135620011dc81620010f8565b91506040840135620011ee81620010f8565b809150509250925092565b6000602082840312156200120c57600080fd5b81516200118081620010f8565b6001600160a01b03929092168252602082015260400190565b60006020808352835180602085015260005b81811015620012625785810183015185820160400152820162001244565b506000604082860101526040601f19601f8301168501019250505092915050565b6000602082840312156200129657600080fd5b5051919050565b81810381811115620012bf57634e487b7160e01b600052601160045260246000fd5b92915050565b600060208284031215620012d857600080fd5b815162001180816200115156fe60806040523480156200001157600080fd5b5060405162000c1538038062000c15833981016040819052620000349162000148565b8181600362000044838262000263565b50600462000053828262000263565b5050600580546001600160a01b0319166001600160a01b039590951694909417909355506200032f915050565b634e487b7160e01b600052604160045260246000fd5b600082601f830112620000a857600080fd5b81516001600160401b0380821115620000c557620000c562000080565b604051601f8301601f19908116603f01168101908282118183101715620000f057620000f062000080565b81604052838152602092508660208588010111156200010e57600080fd5b600091505b8382101562000132578582018301518183018401529082019062000113565b6000602085830101528094505050505092915050565b6000806000606084860312156200015e57600080fd5b83516001600160a01b03811681146200017657600080fd5b60208501519093506001600160401b03808211156200019457600080fd5b620001a28783880162000096565b93506040860151915080821115620001b957600080fd5b50620001c88682870162000096565b9150509250925092565b600181811c90821680620001e757607f821691505b6020821081036200020857634e487b7160e01b600052602260045260246000fd5b50919050565b601f8211156200025e576000816000526020600020601f850160051c81016020861015620002395750805b601f850160051c820191505b818110156200025a5782815560010162000245565b5050505b505050565b81516001600160401b038111156200027f576200027f62000080565b6200029781620002908454620001d2565b846200020e565b602080601f831160018114620002cf5760008415620002b65750858301515b600019600386901b1c1916600185901b1785556200025a565b600085815260208120601f198616915b828110156200030057888601518255948401946001909101908401620002df565b50858210156200031f5787850151600019600388901b60f8161c191681555b5050505050600190811b01905550565b6108d6806200033f6000396000f3fe608060405234801561001057600080fd5b50600436106100a45760003560e01c806306fdde03146100a957806307546172146100c7578063095ea7b3146100e757806318160ddd1461010a57806323b872dd1461011c578063313ce5671461012f57806340c10f191461013e57806370a082311461015357806395d89b411461017c5780639dc29fac14610184578063a9059cbb14610197578063dd62ed3e146101aa575b600080fd5b6100b16101bd565b6040516100be91906106ea565b60405180910390f35b6005546100da906001600160a01b031681565b6040516100be9190610739565b6100fa6100f5366004610769565b61024f565b60405190151581526020016100be565b6002545b6040519081526020016100be565b6100fa61012a366004610793565b610269565b604051601281526020016100be565b61015161014c366004610769565b61028d565b005b61010e6101613660046107cf565b6001600160a01b031660009081526020819052604090205490565b6100b1610309565b610151610192366004610769565b610318565b6100fa6101a5366004610769565b610388565b61010e6101b83660046107f1565b610396565b6060600380546101cc90610824565b80601f01602080910402602001604051908101604052809291908181526020018280546101f890610824565b80156102455780601f1061021a57610100808354040283529160200191610245565b820191906000526020600020905b81548152906001019060200180831161022857829003601f168201915b5050505050905090565b60003361025d8185856103c1565b60019150505b92915050565b6000336102778582856103d3565b61028285858561042f565b506001949350505050565b6005546001600160a01b031633146102b85760405163469d9d3360e01b815260040160405180910390fd5b6102c2828261048e565b816001600160a01b03167f0f6798a560793a54c3bcfe86a93cde1e73087d944c0ea20544137d4121396885826040516102fd91815260200190565b60405180910390a25050565b6060600480546101cc90610824565b6005546001600160a01b031633146103435760405163469d9d3360e01b815260040160405180910390fd5b61034d82826104c8565b816001600160a01b03167fcc16f5dbb4873280815c1ee09dbd06736cffcc184412cf7a71a0fdb75d397ca5826040516102fd91815260200190565b60003361025d81858561042f565b6001600160a01b03918216600090815260016020908152604080832093909416825291909152205490565b6103ce83838360016104fe565b505050565b60006103df8484610396565b90506000198114610429578181101561041a57828183604051637dc7a0d960e11b81526004016104119392919061085e565b60405180910390fd5b610429848484840360006104fe565b50505050565b6001600160a01b038316610459576000604051634b637e8f60e11b81526004016104119190610739565b6001600160a01b03821661048357600060405163ec442f0560e01b81526004016104119190610739565b6103ce8383836105d3565b6001600160a01b0382166104b857600060405163ec442f0560e01b81526004016104119190610739565b6104c4600083836105d3565b5050565b6001600160a01b0382166104f2576000604051634b637e8f60e11b81526004016104119190610739565b6104c4826000836105d3565b6001600160a01b03841661052857600060405163e602df0560e01b81526004016104119190610739565b6001600160a01b038316610552576000604051634a1406b160e11b81526004016104119190610739565b6001600160a01b038085166000908152600160209081526040808320938716835292905220829055801561042957826001600160a01b0316846001600160a01b03167f8c5be1e5ebec7d5bd14f71427d1e84f3dd0314c0f7b2291e5b200ac8c7c3b925846040516105c591815260200190565b60405180910390a350505050565b6001600160a01b0383166105fe5780600260008282546105f3919061087f565b9091555061065d9050565b6001600160a01b0383166000908152602081905260409020548181101561063e5783818360405163391434e360e21b81526004016104119392919061085e565b6001600160a01b03841660009081526020819052604090209082900390555b6001600160a01b03821661067957600280548290039055610698565b6001600160a01b03821660009081526020819052604090208054820190555b816001600160a01b0316836001600160a01b03167fddf252ad1be2c89b69c2b068fc378daa952ba7f163c4a11628f55a4df523b3ef836040516106dd91815260200190565b60405180910390a3505050565b60006020808352835180602085015260005b81811015610718578581018301518582016040015282016106fc565b506000604082860101526040601f19601f8301168501019250505092915050565b6001600160a01b0391909116815260200190565b80356001600160a01b038116811461076457600080fd5b919050565b6000806040838503121561077c57600080fd5b6107858361074d565b946020939093013593505050565b6000806000606084860312156107a857600080fd5b6107b18461074d565b92506107bf6020850161074d565b9150604084013590509250925092565b6000602082840312156107e157600080fd5b6107ea8261074d565b9392505050565b6000806040838503121561080457600080fd5b61080d8361074d565b915061081b6020840161074d565b90509250929050565b600181811c9082168061083857607f821691505b60208210810361085857634e487b7160e01b600052602260045260246000fd5b50919050565b6001600160a01b039390931683526020830191909152604082015260600190565b8082018082111561026357634e487b7160e01b600052601160045260246000fdfea2646970667358221220d72cfe5069cbefba716ca93aa03fc0a5c90d2eca250cd42e9851009b7bb6802664736f6c63430008170033a264697066735822122097f946d9c0fa45ff8496d6acc916db1b37cfd588ca7313c6eadf6332535034e764736f6c63430008170033",
  "devdoc": {
    "errors": {
      "InvalidInitialization()": [
        {
          "details": "The contract is already initialized."
        }
      ],
      "NotInitializing()": [
        {
          "details": "The contract is not initializing."
        }
      ],
      "OwnableInvalidOwner(address)": [
        {
          "details": "The owner is not a valid owner account. (eg. `address(0)`)"
        }
      ],
      "OwnableUnauthorizedAccount(address)": [
        {
          "details": "The caller account is not authorized to perform an operation."
        }
      ]
    },
    "events": {
      "Initialized(uint64)": {
        "details": "Triggered when the contract has been initialized or reinitialized."
      }
    },
    "kind": "dev",
    "methods": {
      "acceptOwnership()": {
        "details": "The new owner accepts the ownership transfer."
      },
      "depositEth(address)": {
        "params": {
          "to": "Address to mint wrapped tokens to"
        }
      },
      "mintEthBasedOnStakedAmount(address,uint256)": {
        "details": "The owner can only mint up to the amount of Eth deposited + Eth staking rewards from Lido",
        "params": {
          "amount": "Amount of wrapped tokens to mint",
          "to": "Address to mint wrapped tokens to"
        }
      },
      "owner()": {
        "details": "Returns the address of the current owner."
      },
      "pendingOwner()": {
        "details": "Returns the address of the pending owner."
      },
      "renounceOwnership()": {
        "details": "Leaves the contract without owner. It will not be possible to call `onlyOwner` functions. Can only be called by the current owner. NOTE: Renouncing ownership will leave the contract without an owner, thereby disabling any functionality that is only available to the owner."
      },
      "setAutoBridge(bool)": {
        "params": {
          "_autoBridge": "True to pause autobridging, false to unpause"
        }
      },
      "setL1StandardBridge(address)": {
        "params": {
          "_l1standardBridge": "Address of the L1StandardBridge contract"
        }
      },
      "setL2Eth(address)": {
        "params": {
          "_l2Eth": "Address of the L2 Wrapped Eth contract"
        }
      },
      "transferOwnership(address)": {
        "details": "Starts the ownership transfer of the contract to a new account. Replaces the pending transfer if there is one. Can only be called by the current owner."
      },
      "withdrawEth(address,uint256)": {
        "params": {
          "amount": "Amount to withdraw",
          "to": "Address to withdraw Eth to"
        }
      }
    },
    "title": "EdgelessDeposit",
    "version": 1
  },
  "userdoc": {
    "kind": "user",
    "methods": {
      "depositEth(address)": {
        "notice": "Deposit Eth, mint wrapped tokens, and bridge to the Edgeless L2"
      },
      "mintEthBasedOnStakedAmount(address,uint256)": {
        "notice": "Mint wrapped tokens based on the amount of Eth staked"
      },
      "setAutoBridge(bool)": {
        "notice": "Pause autobridging of wrapped tokens to the Edgeless L2"
      },
      "setL1StandardBridge(address)": {
        "notice": "Set the address of the L1StandardBridge contract"
      },
      "setL2Eth(address)": {
        "notice": "Set the address of the L2 Wrapped Eth contract"
      },
      "withdrawEth(address,uint256)": {
        "notice": "Withdraw Eth from the Eth pool"
      }
    },
    "notice": "EdgelessDeposit is a contract that allows users to deposit Eth and receive wrapped tokens in return. The wrapped tokens can be used to bridge to the Edgeless L2",
    "version": 1
  },
  "storageLayout": {
    "storage": [
      {
        "astId": 2037,
        "contract": "src/EdgelessDeposit.sol:EdgelessDeposit",
        "label": "autoBridge",
        "offset": 0,
        "slot": "0",
        "type": "t_bool"
      },
      {
        "astId": 2039,
        "contract": "src/EdgelessDeposit.sol:EdgelessDeposit",
        "label": "l2Eth",
        "offset": 1,
        "slot": "0",
        "type": "t_address"
      },
      {
        "astId": 2042,
        "contract": "src/EdgelessDeposit.sol:EdgelessDeposit",
        "label": "wrappedEth",
        "offset": 0,
        "slot": "1",
        "type": "t_contract(WrappedToken)3056"
      },
      {
        "astId": 2045,
        "contract": "src/EdgelessDeposit.sol:EdgelessDeposit",
        "label": "l1standardBridge",
        "offset": 0,
        "slot": "2",
        "type": "t_contract(IL1ERC20Bridge)3091"
      },
      {
        "astId": 2048,
        "contract": "src/EdgelessDeposit.sol:EdgelessDeposit",
        "label": "stakingManager",
        "offset": 0,
        "slot": "3",
        "type": "t_contract(StakingManager)2959"
      },
      {
        "astId": 2052,
        "contract": "src/EdgelessDeposit.sol:EdgelessDeposit",
        "label": "__gap",
        "offset": 0,
        "slot": "4",
        "type": "t_array(t_uint256)50_storage"
      }
    ],
    "types": {
      "t_address": {
        "encoding": "inplace",
        "label": "address",
        "numberOfBytes": "20"
      },
      "t_array(t_uint256)50_storage": {
        "base": "t_uint256",
        "encoding": "inplace",
        "label": "uint256[50]",
        "numberOfBytes": "1600"
      },
      "t_bool": {
        "encoding": "inplace",
        "label": "bool",
        "numberOfBytes": "1"
      },
      "t_contract(IL1ERC20Bridge)3091": {
        "encoding": "inplace",
        "label": "contract IL1ERC20Bridge",
        "numberOfBytes": "20"
      },
      "t_contract(StakingManager)2959": {
        "encoding": "inplace",
        "label": "contract StakingManager",
        "numberOfBytes": "20"
      },
      "t_contract(WrappedToken)3056": {
        "encoding": "inplace",
        "label": "contract WrappedToken",
        "numberOfBytes": "20"
      },
      "t_uint256": {
        "encoding": "inplace",
        "label": "uint256",
        "numberOfBytes": "32"
      }
    }
  }
}