{
  "address": "0x082C7773aa8ce1B14501E3222CA35e827551d493",
  "abi": [
    {
      "inputs": [
        {
          "internalType": "address",
          "name": "target",
          "type": "address"
        }
      ],
      "name": "AddressEmptyCode",
      "type": "error"
    },
    {
      "inputs": [
        {
          "internalType": "address",
          "name": "implementation",
          "type": "address"
        }
      ],
      "name": "ERC1967InvalidImplementation",
      "type": "error"
    },
    {
      "inputs": [],
      "name": "ERC1967NonPayable",
      "type": "error"
    },
    {
      "inputs": [],
      "name": "FailedInnerCall",
      "type": "error"
    },
    {
      "inputs": [],
      "name": "InsufficientBalance",
      "type": "error"
    },
    {
      "inputs": [],
      "name": "InvalidInitialization",
      "type": "error"
    },
    {
      "inputs": [],
      "name": "L2EthSet",
      "type": "error"
    },
    {
      "inputs": [],
      "name": "L2USDSet",
      "type": "error"
    },
    {
      "inputs": [],
      "name": "MaxMintExceeded",
      "type": "error"
    },
    {
      "inputs": [],
      "name": "NotInitializing",
      "type": "error"
    },
    {
      "inputs": [
        {
          "internalType": "address",
          "name": "owner",
          "type": "address"
        }
      ],
      "name": "OwnableInvalidOwner",
      "type": "error"
    },
    {
      "inputs": [
        {
          "internalType": "address",
          "name": "account",
          "type": "address"
        }
      ],
      "name": "OwnableUnauthorizedAccount",
      "type": "error"
    },
    {
      "inputs": [
        {
          "internalType": "bytes",
          "name": "data",
          "type": "bytes"
        }
      ],
      "name": "TransferFailed",
      "type": "error"
    },
    {
      "inputs": [],
      "name": "UUPSUnauthorizedCallContext",
      "type": "error"
    },
    {
      "inputs": [
        {
          "internalType": "bytes32",
          "name": "slot",
          "type": "bytes32"
        }
      ],
      "name": "UUPSUnsupportedProxiableUUID",
      "type": "error"
    },
    {
      "inputs": [],
      "name": "ZeroAddress",
      "type": "error"
    },
    {
      "inputs": [],
      "name": "ZeroDeposit",
      "type": "error"
    },
    {
      "anonymous": false,
      "inputs": [
        {
          "indexed": true,
          "internalType": "address",
          "name": "from",
          "type": "address"
        },
        {
          "indexed": true,
          "internalType": "address",
          "name": "to",
          "type": "address"
        },
        {
          "indexed": true,
          "internalType": "address",
          "name": "l2Address",
          "type": "address"
        },
        {
          "indexed": false,
          "internalType": "uint256",
          "name": "amount",
          "type": "uint256"
        }
      ],
      "name": "BridgeToL2",
      "type": "event"
    },
    {
      "anonymous": false,
      "inputs": [
        {
          "indexed": true,
          "internalType": "address",
          "name": "to",
          "type": "address"
        },
        {
          "indexed": true,
          "internalType": "address",
          "name": "from",
          "type": "address"
        },
        {
          "indexed": false,
          "internalType": "uint256",
          "name": "DaiAmount",
          "type": "uint256"
        },
        {
          "indexed": false,
          "internalType": "uint256",
          "name": "mintAmount",
          "type": "uint256"
        }
      ],
      "name": "DepositDai",
      "type": "event"
    },
    {
      "anonymous": false,
      "inputs": [
        {
          "indexed": true,
          "internalType": "address",
          "name": "to",
          "type": "address"
        },
        {
          "indexed": true,
          "internalType": "address",
          "name": "from",
          "type": "address"
        },
        {
          "indexed": false,
          "internalType": "uint256",
          "name": "EthAmount",
          "type": "uint256"
        },
        {
          "indexed": false,
          "internalType": "uint256",
          "name": "mintAmount",
          "type": "uint256"
        }
      ],
      "name": "DepositEth",
      "type": "event"
    },
    {
      "anonymous": false,
      "inputs": [
        {
          "indexed": true,
          "internalType": "address",
          "name": "to",
          "type": "address"
        },
        {
          "indexed": true,
          "internalType": "address",
          "name": "from",
          "type": "address"
        },
        {
          "indexed": false,
          "internalType": "uint256",
          "name": "UsdtAmount",
          "type": "uint256"
        },
        {
          "indexed": false,
          "internalType": "uint256",
          "name": "mintAmount",
          "type": "uint256"
        }
      ],
      "name": "DepositStEth",
      "type": "event"
    },
    {
      "anonymous": false,
      "inputs": [
        {
          "indexed": true,
          "internalType": "address",
          "name": "to",
          "type": "address"
        },
        {
          "indexed": true,
          "internalType": "address",
          "name": "from",
          "type": "address"
        },
        {
          "indexed": false,
          "internalType": "uint256",
          "name": "UsdcAmount",
          "type": "uint256"
        },
        {
          "indexed": false,
          "internalType": "uint256",
          "name": "mintAmount",
          "type": "uint256"
        }
      ],
      "name": "DepositUsdc",
      "type": "event"
    },
    {
      "anonymous": false,
      "inputs": [
        {
          "indexed": true,
          "internalType": "address",
          "name": "to",
          "type": "address"
        },
        {
          "indexed": true,
          "internalType": "address",
          "name": "from",
          "type": "address"
        },
        {
          "indexed": false,
          "internalType": "uint256",
          "name": "UsdtAmount",
          "type": "uint256"
        },
        {
          "indexed": false,
          "internalType": "uint256",
          "name": "mintAmount",
          "type": "uint256"
        }
      ],
      "name": "DepositUsdt",
      "type": "event"
    },
    {
      "anonymous": false,
      "inputs": [
        {
          "indexed": false,
          "internalType": "uint64",
          "name": "version",
          "type": "uint64"
        }
      ],
      "name": "Initialized",
      "type": "event"
    },
    {
      "anonymous": false,
      "inputs": [
        {
          "indexed": true,
          "internalType": "address",
          "name": "to",
          "type": "address"
        },
        {
          "indexed": false,
          "internalType": "uint256",
          "name": "amount",
          "type": "uint256"
        }
      ],
      "name": "MintWrappedEth",
      "type": "event"
    },
    {
      "anonymous": false,
      "inputs": [
        {
          "indexed": true,
          "internalType": "address",
          "name": "to",
          "type": "address"
        },
        {
          "indexed": false,
          "internalType": "uint256",
          "name": "amount",
          "type": "uint256"
        }
      ],
      "name": "MintWrappedUSD",
      "type": "event"
    },
    {
      "anonymous": false,
      "inputs": [
        {
          "indexed": true,
          "internalType": "address",
          "name": "previousOwner",
          "type": "address"
        },
        {
          "indexed": true,
          "internalType": "address",
          "name": "newOwner",
          "type": "address"
        }
      ],
      "name": "OwnershipTransferStarted",
      "type": "event"
    },
    {
      "anonymous": false,
      "inputs": [
        {
          "indexed": true,
          "internalType": "address",
          "name": "previousOwner",
          "type": "address"
        },
        {
          "indexed": true,
          "internalType": "address",
          "name": "newOwner",
          "type": "address"
        }
      ],
      "name": "OwnershipTransferred",
      "type": "event"
    },
    {
      "anonymous": false,
      "inputs": [
        {
          "indexed": false,
          "internalType": "uint256",
          "name": "amount",
          "type": "uint256"
        }
      ],
      "name": "ReceivedStakingManagerWithdrawal",
      "type": "event"
    },
    {
      "anonymous": false,
      "inputs": [
        {
          "indexed": false,
          "internalType": "bool",
          "name": "autoBridge",
          "type": "bool"
        }
      ],
      "name": "SetAutoBridge",
      "type": "event"
    },
    {
      "anonymous": false,
      "inputs": [
        {
          "indexed": false,
          "internalType": "contract IL1StandardBridge",
          "name": "l1standardBridge",
          "type": "address"
        }
      ],
      "name": "SetL1StandardBridge",
      "type": "event"
    },
    {
      "anonymous": false,
      "inputs": [
        {
          "indexed": false,
          "internalType": "address",
          "name": "l2Eth",
          "type": "address"
        }
      ],
      "name": "SetL2Eth",
      "type": "event"
    },
    {
      "anonymous": false,
      "inputs": [
        {
          "indexed": false,
          "internalType": "address",
          "name": "l2USD",
          "type": "address"
        }
      ],
      "name": "SetL2USD",
      "type": "event"
    },
    {
      "anonymous": false,
      "inputs": [
        {
          "indexed": true,
          "internalType": "address",
          "name": "implementation",
          "type": "address"
        }
      ],
      "name": "Upgraded",
      "type": "event"
    },
    {
      "anonymous": false,
      "inputs": [
        {
          "indexed": true,
          "internalType": "address",
          "name": "from",
          "type": "address"
        },
        {
          "indexed": true,
          "internalType": "address",
          "name": "to",
          "type": "address"
        },
        {
          "indexed": false,
          "internalType": "uint256",
          "name": "EthAmountWithdrew",
          "type": "uint256"
        },
        {
          "indexed": false,
          "internalType": "uint256",
          "name": "burnAmount",
          "type": "uint256"
        }
      ],
      "name": "WithdrawEth",
      "type": "event"
    },
    {
      "anonymous": false,
      "inputs": [
        {
          "indexed": true,
          "internalType": "address",
          "name": "from",
          "type": "address"
        },
        {
          "indexed": true,
          "internalType": "address",
          "name": "to",
          "type": "address"
        },
        {
          "indexed": false,
          "internalType": "uint256",
          "name": "usdAmountWithdrew",
          "type": "uint256"
        },
        {
          "indexed": false,
          "internalType": "uint256",
          "name": "burnAmount",
          "type": "uint256"
        }
      ],
      "name": "WithdrawUSD",
      "type": "event"
    },
    {
      "inputs": [],
      "name": "UPGRADE_INTERFACE_VERSION",
      "outputs": [
        {
          "internalType": "string",
          "name": "",
          "type": "string"
        }
      ],
      "stateMutability": "view",
      "type": "function"
    },
    {
      "inputs": [],
      "name": "_BASIS_POINTS",
      "outputs": [
        {
          "internalType": "uint256",
          "name": "",
          "type": "uint256"
        }
      ],
      "stateMutability": "view",
      "type": "function"
    },
    {
      "inputs": [],
      "name": "_CURVE_Dai_INDEX",
      "outputs": [
        {
          "internalType": "int128",
          "name": "",
          "type": "int128"
        }
      ],
      "stateMutability": "view",
      "type": "function"
    },
    {
      "inputs": [],
      "name": "_CURVE_Usdt_INDEX",
      "outputs": [
        {
          "internalType": "int128",
          "name": "",
          "type": "int128"
        }
      ],
      "stateMutability": "view",
      "type": "function"
    },
    {
      "inputs": [],
      "name": "_INITIAL_DEPOSIT_AMOUNT",
      "outputs": [
        {
          "internalType": "uint256",
          "name": "",
          "type": "uint256"
        }
      ],
      "stateMutability": "view",
      "type": "function"
    },
    {
      "inputs": [],
      "name": "_INITIAL_TOKEN_HOLDER",
      "outputs": [
        {
          "internalType": "address",
          "name": "",
          "type": "address"
        }
      ],
      "stateMutability": "view",
      "type": "function"
    },
    {
      "inputs": [],
      "name": "_WAD",
      "outputs": [
        {
          "internalType": "uint256",
          "name": "",
          "type": "uint256"
        }
      ],
      "stateMutability": "view",
      "type": "function"
    },
    {
      "inputs": [],
      "name": "acceptOwnership",
      "outputs": [],
      "stateMutability": "nonpayable",
      "type": "function"
    },
    {
      "inputs": [],
      "name": "autoBridge",
      "outputs": [
        {
          "internalType": "bool",
          "name": "",
          "type": "bool"
        }
      ],
      "stateMutability": "view",
      "type": "function"
    },
    {
      "inputs": [
        {
          "internalType": "address",
          "name": "to",
          "type": "address"
        },
        {
          "internalType": "uint256",
          "name": "DaiAmount",
          "type": "uint256"
        }
      ],
      "name": "depositDai",
      "outputs": [],
      "stateMutability": "nonpayable",
      "type": "function"
    },
    {
      "inputs": [
        {
          "internalType": "address",
          "name": "to",
          "type": "address"
        },
        {
          "internalType": "uint256",
          "name": "DaiAmount",
          "type": "uint256"
        },
        {
          "internalType": "uint256",
          "name": "nonce",
          "type": "uint256"
        },
        {
          "internalType": "uint256",
          "name": "expiry",
          "type": "uint256"
        },
        {
          "internalType": "uint8",
          "name": "v",
          "type": "uint8"
        },
        {
          "internalType": "bytes32",
          "name": "r",
          "type": "bytes32"
        },
        {
          "internalType": "bytes32",
          "name": "s",
          "type": "bytes32"
        }
      ],
      "name": "depositDaiWithPermit",
      "outputs": [],
      "stateMutability": "nonpayable",
      "type": "function"
    },
    {
      "inputs": [
        {
          "internalType": "address",
          "name": "to",
          "type": "address"
        }
      ],
      "name": "depositEth",
      "outputs": [],
      "stateMutability": "payable",
      "type": "function"
    },
    {
      "inputs": [
        {
          "internalType": "address",
          "name": "to",
          "type": "address"
        },
        {
          "internalType": "uint256",
          "name": "stEthAmount",
          "type": "uint256"
        }
      ],
      "name": "depositStEth",
      "outputs": [],
      "stateMutability": "nonpayable",
      "type": "function"
    },
    {
      "inputs": [
        {
          "internalType": "address",
          "name": "to",
          "type": "address"
        },
        {
          "internalType": "uint256",
          "name": "stEthAmount",
          "type": "uint256"
        },
        {
          "internalType": "uint256",
          "name": "deadline",
          "type": "uint256"
        },
        {
          "internalType": "uint8",
          "name": "v",
          "type": "uint8"
        },
        {
          "internalType": "bytes32",
          "name": "r",
          "type": "bytes32"
        },
        {
          "internalType": "bytes32",
          "name": "s",
          "type": "bytes32"
        }
      ],
      "name": "depositStEthWithPermit",
      "outputs": [],
      "stateMutability": "nonpayable",
      "type": "function"
    },
    {
      "inputs": [
        {
          "internalType": "address",
          "name": "to",
          "type": "address"
        },
        {
          "internalType": "uint256",
          "name": "UsdcAmount",
          "type": "uint256"
        }
      ],
      "name": "depositUsdc",
      "outputs": [],
      "stateMutability": "nonpayable",
      "type": "function"
    },
    {
      "inputs": [
        {
          "internalType": "address",
          "name": "to",
          "type": "address"
        },
        {
          "internalType": "uint256",
          "name": "UsdcAmount",
          "type": "uint256"
        },
        {
          "internalType": "uint256",
          "name": "deadline",
          "type": "uint256"
        },
        {
          "internalType": "uint8",
          "name": "v",
          "type": "uint8"
        },
        {
          "internalType": "bytes32",
          "name": "r",
          "type": "bytes32"
        },
        {
          "internalType": "bytes32",
          "name": "s",
          "type": "bytes32"
        }
      ],
      "name": "depositUsdcWithPermit",
      "outputs": [],
      "stateMutability": "nonpayable",
      "type": "function"
    },
    {
      "inputs": [
        {
          "internalType": "address",
          "name": "to",
          "type": "address"
        },
        {
          "internalType": "uint256",
          "name": "UsdtAmount",
          "type": "uint256"
        },
        {
          "internalType": "uint256",
          "name": "minDaiAmount",
          "type": "uint256"
        }
      ],
      "name": "depositUsdt",
      "outputs": [],
      "stateMutability": "nonpayable",
      "type": "function"
    },
    {
      "inputs": [
        {
          "internalType": "address",
          "name": "_owner",
          "type": "address"
        },
        {
          "internalType": "address",
          "name": "_staker",
          "type": "address"
        },
        {
          "internalType": "contract IL1StandardBridge",
          "name": "_l1standardBridge",
          "type": "address"
        },
        {
          "internalType": "contract StakingManager",
          "name": "_stakingManager",
          "type": "address"
        }
      ],
      "name": "initialize",
      "outputs": [],
      "stateMutability": "nonpayable",
      "type": "function"
    },
    {
      "inputs": [],
      "name": "l1standardBridge",
      "outputs": [
        {
          "internalType": "contract IL1StandardBridge",
          "name": "",
          "type": "address"
        }
      ],
      "stateMutability": "view",
      "type": "function"
    },
    {
      "inputs": [],
      "name": "l2Eth",
      "outputs": [
        {
          "internalType": "address",
          "name": "",
          "type": "address"
        }
      ],
      "stateMutability": "view",
      "type": "function"
    },
    {
      "inputs": [],
      "name": "l2USD",
      "outputs": [
        {
          "internalType": "address",
          "name": "",
          "type": "address"
        }
      ],
      "stateMutability": "view",
      "type": "function"
    },
    {
      "inputs": [
        {
          "internalType": "address",
          "name": "to",
          "type": "address"
        },
        {
          "internalType": "uint256",
          "name": "amount",
          "type": "uint256"
        }
      ],
      "name": "mintEthBasedOnStakedAmount",
      "outputs": [],
      "stateMutability": "nonpayable",
      "type": "function"
    },
    {
      "inputs": [
        {
          "internalType": "address",
          "name": "to",
          "type": "address"
        },
        {
          "internalType": "uint256",
          "name": "amount",
          "type": "uint256"
        }
      ],
      "name": "mintUSDBasedOnStakedAmount",
      "outputs": [],
      "stateMutability": "nonpayable",
      "type": "function"
    },
    {
      "inputs": [],
      "name": "owner",
      "outputs": [
        {
          "internalType": "address",
          "name": "",
          "type": "address"
        }
      ],
      "stateMutability": "view",
      "type": "function"
    },
    {
      "inputs": [],
      "name": "pendingOwner",
      "outputs": [
        {
          "internalType": "address",
          "name": "",
          "type": "address"
        }
      ],
      "stateMutability": "view",
      "type": "function"
    },
    {
      "inputs": [],
      "name": "proxiableUUID",
      "outputs": [
        {
          "internalType": "bytes32",
          "name": "",
          "type": "bytes32"
        }
      ],
      "stateMutability": "view",
      "type": "function"
    },
    {
      "inputs": [],
      "name": "renounceOwnership",
      "outputs": [],
      "stateMutability": "nonpayable",
      "type": "function"
    },
    {
      "inputs": [
        {
          "internalType": "bool",
          "name": "_autoBridge",
          "type": "bool"
        }
      ],
      "name": "setAutoBridge",
      "outputs": [],
      "stateMutability": "nonpayable",
      "type": "function"
    },
    {
      "inputs": [
        {
          "internalType": "contract IL1StandardBridge",
          "name": "_l1standardBridge",
          "type": "address"
        }
      ],
      "name": "setL1StandardBridge",
      "outputs": [],
      "stateMutability": "nonpayable",
      "type": "function"
    },
    {
      "inputs": [
        {
          "internalType": "address",
          "name": "_l2Eth",
          "type": "address"
        }
      ],
      "name": "setL2Eth",
      "outputs": [],
      "stateMutability": "nonpayable",
      "type": "function"
    },
    {
      "inputs": [
        {
          "internalType": "address",
          "name": "_l2USD",
          "type": "address"
        }
      ],
      "name": "setL2USD",
      "outputs": [],
      "stateMutability": "nonpayable",
      "type": "function"
    },
    {
      "inputs": [],
      "name": "stakingManager",
      "outputs": [
        {
          "internalType": "contract StakingManager",
          "name": "",
          "type": "address"
        }
      ],
      "stateMutability": "view",
      "type": "function"
    },
    {
      "inputs": [
        {
          "internalType": "address",
          "name": "newOwner",
          "type": "address"
        }
      ],
      "name": "transferOwnership",
      "outputs": [],
      "stateMutability": "nonpayable",
      "type": "function"
    },
    {
      "inputs": [
        {
          "internalType": "address",
          "name": "newImplementation",
          "type": "address"
        },
        {
          "internalType": "bytes",
          "name": "data",
          "type": "bytes"
        }
      ],
      "name": "upgradeToAndCall",
      "outputs": [],
      "stateMutability": "payable",
      "type": "function"
    },
    {
      "inputs": [
        {
          "internalType": "address",
          "name": "to",
          "type": "address"
        },
        {
          "internalType": "uint256",
          "name": "amount",
          "type": "uint256"
        }
      ],
      "name": "withdrawEth",
      "outputs": [],
      "stateMutability": "nonpayable",
      "type": "function"
    },
    {
      "inputs": [
        {
          "internalType": "address",
          "name": "to",
          "type": "address"
        },
        {
          "internalType": "uint256",
          "name": "amount",
          "type": "uint256"
        }
      ],
      "name": "withdrawUSD",
      "outputs": [],
      "stateMutability": "nonpayable",
      "type": "function"
    },
    {
      "inputs": [],
      "name": "wrappedEth",
      "outputs": [
        {
          "internalType": "contract WrappedToken",
          "name": "",
          "type": "address"
        }
      ],
      "stateMutability": "view",
      "type": "function"
    },
    {
      "inputs": [],
      "name": "wrappedUSD",
      "outputs": [
        {
          "internalType": "contract WrappedToken",
          "name": "",
          "type": "address"
        }
      ],
      "stateMutability": "view",
      "type": "function"
    },
    {
      "stateMutability": "payable",
      "type": "receive"
    }
  ],
  "transactionHash": "0xcbadc591bfc568c9820639c6b997dc48a9a70a118695fc677f1c5639a7452360",
  "args": [],
  "numDeployments": 1,
  "solcInputHash": "404a57e9177115a388da0654e3829a4b",
  "bytecode": "0x60a06040523060805234801561001457600080fd5b5060805161410561003e600039600081816125520152818161257c01526126c901526141056000f3fe608060405260043610620001e05760003560e01c8063032c36c4146200024057806303373ee5146200027a57806310406a3514620002a15780631b9a91a414620002c6578063209f433314620002eb578063226c06e3146200031057806322828cc2146200033b5780632bb33bbe146200035d57806335fac3b114620003825780633ec97e1d146200039a57806345c0433314620003b25780634f1ef28614620003d757806352d1902d14620003ee578063555a23bb14620004065780636873e231146200042b57806368ca883a14620004505780636c6a3e2814620004725780636cf510da1462000489578063715018a614620004ab57806379ba509714620004c35780638850aa4614620004db5780638aba131714620005005780638da5cb5b146200052d5780638e4724331462000545578063a44098e1146200056a578063ad3cb1cc146200058c578063ad9d4ba314620005ce578063bb7ea01914620005e5578063c057e249146200060a578063cceacc66146200062f578063e02f64f21462000654578063e30c39781462000679578063e32292111462000691578063ee62ef6c14620006b8578063f02bb2f414620006d6578063f2fde38b14620006fb578063f3497cc21462000720578063f8c8765e146200074557600080fd5b366200023b576005546001600160a01b031633036200022e576040513481527ffd11153dfaefca3a3390f4fe5048ca2682995d45d7d0fddbb072a279f18725dd9060200160405180910390a1005b62000239336200076a565b005b600080fd5b3480156200024d57600080fd5b5060035462000262906001600160a01b031681565b60405162000271919062002e8f565b60405180910390f35b3480156200028757600080fd5b50620002926103e881565b60405190815260200162000271565b348015620002ae57600080fd5b5062000239620002c036600462002eb9565b620008cc565b348015620002d357600080fd5b5062000239620002e536600462002eb9565b62000a6f565b348015620002f857600080fd5b50620002396200030a36600462002eff565b62000c7f565b3480156200031d57600080fd5b5062000327600081565b604051600f9190910b815260200162000271565b3480156200034857600080fd5b5060055462000262906001600160a01b031681565b3480156200036a57600080fd5b50620002396200037c36600462002eb9565b62000d0c565b3480156200038f57600080fd5b506200029261271081565b348015620003a757600080fd5b506200026261dead81565b348015620003bf57600080fd5b5062000239620003d136600462002f5e565b62000f45565b62000239620003e836600462002fac565b620010c7565b348015620003fb57600080fd5b5062000292620010ec565b3480156200041357600080fd5b5062000239620004253660046200308a565b6200110c565b3480156200043857600080fd5b50620002396200044a366004620030aa565b6200115e565b3480156200045d57600080fd5b5060025462000262906001600160a01b031681565b3480156200047f57600080fd5b5062000327600281565b3480156200049657600080fd5b5060045462000262906001600160a01b031681565b348015620004b857600080fd5b506200023962001207565b348015620004d057600080fd5b50620002396200121f565b348015620004e857600080fd5b5062000239620004fa36600462002eb9565b62001265565b3480156200050d57600080fd5b506000546200051c9060ff1681565b604051901515815260200162000271565b3480156200053a57600080fd5b506200026262001402565b3480156200055257600080fd5b50620002396200056436600462002eff565b6200141f565b3480156200057757600080fd5b5060015462000262906001600160a01b031681565b3480156200059957600080fd5b50620005bf604051806040016040528060058152602001640352e302e360dc1b81525081565b60405162000271919062003168565b62000239620005df3660046200317d565b6200076a565b348015620005f257600080fd5b5062000239620006043660046200317d565b620014a4565b3480156200061757600080fd5b5062000239620006293660046200317d565b62001523565b3480156200063c57600080fd5b50620002396200064e36600462002eb9565b620015d7565b3480156200066157600080fd5b50620002396200067336600462002eb9565b62001758565b3480156200068657600080fd5b50620002626200192e565b3480156200069e57600080fd5b50600054620002629061010090046001600160a01b031681565b348015620006c557600080fd5b5062000292670de0b6b3a764000081565b348015620006e357600080fd5b5062000239620006f53660046200317d565b6200193b565b3480156200070857600080fd5b50620002396200071a3660046200317d565b620019e5565b3480156200072d57600080fd5b50620002396200073f36600462002eb9565b62001a5c565b3480156200075257600080fd5b5062000239620007643660046200319d565b62001bdd565b6000620007773462001ea5565b905062000785828262001ecd565b6005546040805163539a783760e11b815290516001600160a01b039092169163adc9772e918491849163a734f06e9160048083019260209291908290030181865afa158015620007d9573d6000803e3d6000fd5b505050506040513d601f19601f82011682018060405250810190620007ff919062003202565b846040518463ffffffff1660e01b81526004016200081f92919062003222565b6000604051808303818588803b1580156200083957600080fd5b505af11580156200084e573d6000803e3d6000fd5b50506002546000546200087994506001600160a01b0391821693506101009004169050848462001f71565b336001600160a01b0316826001600160a01b03167f5e7e61836e7aac688d4f66257806e3118cc7a380422ee384512b7812e53cd1aa3484604051620008c09291906200323b565b60405180910390a35050565b600354604051632770a7eb60e21b81526001600160a01b0390911690639dc29fac9062000900903390859060040162003222565b600060405180830381600087803b1580156200091b57600080fd5b505af115801562000930573d6000803e3d6000fd5b505060055460405163f3fef3a360e01b81526001600160a01b03909116925063f3fef3a3915062000977906000805160206200409083398151915290859060040162003222565b600060405180830381600087803b1580156200099257600080fd5b505af1158015620009a7573d6000803e3d6000fd5b505060405163a9059cbb60e01b815260008051602062004090833981519152925063a9059cbb9150620009e1908590859060040162003222565b6020604051808303816000875af115801562000a01573d6000803e3d6000fd5b505050506040513d601f19601f8201168201806040525081019062000a27919062003249565b50816001600160a01b0316336001600160a01b03167fad3c54c4fffd720f5ea7bdf12784fb570c90a5cc66326f2e78cdd9dc3a210db08384604051620008c09291906200323b565b600254604051632770a7eb60e21b81526001600160a01b0390911690639dc29fac9062000aa3903390859060040162003222565b600060405180830381600087803b15801562000abe57600080fd5b505af115801562000ad3573d6000803e3d6000fd5b50506005546040805163539a783760e11b815290516001600160a01b03909216935063f3fef3a39250839163a734f06e916004808201926020929091908290030181865afa15801562000b2a573d6000803e3d6000fd5b505050506040513d601f19601f8201168201806040525081019062000b50919062003202565b836040518363ffffffff1660e01b815260040162000b7092919062003222565b600060405180830381600087803b15801562000b8b57600080fd5b505af115801562000ba0573d6000803e3d6000fd5b50505050600080836001600160a01b03168360405160006040518083038185875af1925050503d806000811462000bf4576040519150601f19603f3d011682016040523d82523d6000602084013e62000bf9565b606091505b50915091508162000c2a5780604051639a367e1760e01b815260040162000c21919062003168565b60405180910390fd5b836001600160a01b0316336001600160a01b03167f98dd409e09cadcfcca8697e6c594347ba2afdf87aa0ecb9281ce09ea76081ad1858660405162000c719291906200323b565b60405180910390a350505050565b60405163d505accf60e01b815273a0b86991c6218b36c1d19d4a2e9eb0ce3606eb489063d505accf9062000cc490339030908a908a908a908a908a9060040162003269565b600060405180830381600087803b15801562000cdf57600080fd5b505af115801562000cf4573d6000803e3d6000fd5b5050505062000d048686620015d7565b505050505050565b62000d16620020e6565b600254604080516318160ddd60e01b815290516000926001600160a01b0316916318160ddd9160048083019260209291908290030181865afa15801562000d61573d6000803e3d6000fd5b505050506040513d601f19601f8201168201806040525081019062000d879190620032aa565b6005546040805163539a783760e11b815290516001600160a01b039092169163b241908391839163a734f06e916004808201926020929091908290030181865afa15801562000dda573d6000803e3d6000fd5b505050506040513d601f19601f8201168201806040525081019062000e00919062003202565b6040518263ffffffff1660e01b815260040162000e1e919062002e8f565b6020604051808303816000875af115801562000e3e573d6000803e3d6000fd5b505050506040513d601f19601f8201168201806040525081019062000e649190620032aa565b62000e709190620032da565b90508181111562000e9457604051633ce95f8560e11b815260040160405180910390fd5b6002546040516340c10f1960e01b81526001600160a01b03909116906340c10f199062000ec8908690869060040162003222565b600060405180830381600087803b15801562000ee357600080fd5b505af115801562000ef8573d6000803e3d6000fd5b50505050826001600160a01b03167f9c8e207d198ed50e04d0d89e27ec60af229e8a19f25b8efce8dbe4cfa0e563388360405162000f3891815260200190565b60405180910390a2505050565b600062000f5383836200211d565b905062000f618482620024d3565b60055460405163095ea7b360e01b8152600080516020620040908339815191529163095ea7b39162000fa2916001600160a01b031690859060040162003222565b6020604051808303816000875af115801562000fc2573d6000803e3d6000fd5b505050506040513d601f19601f8201168201806040525081019062000fe8919062003249565b506005546040516356e4bb9760e11b81526001600160a01b039091169063adc9772e906200102c906000805160206200409083398151915290859060040162003222565b600060405180830381600087803b1580156200104757600080fd5b505af11580156200105c573d6000803e3d6000fd5b50506003546001546200108093506001600160a01b03918216925016868462001f71565b336001600160a01b0316846001600160a01b03167f225dbcd0366c31e7051b7814d079c0b17f8c9170fb702300d8a0cf783ba4c56c858460405162000c719291906200323b565b620010d162002547565b620010dc82620025f0565b620010e88282620025fa565b5050565b6000620010f8620026be565b50600080516020620040b083398151915290565b62001116620020e6565b6000805460ff19168215159081179091556040519081527f215a7d64fb51bebc34020eacfcbd22580622c6148ad085a557d7b3c4b850372c906020015b60405180910390a150565b6040516323f2ebc360e21b815233600482015230602482015260448101869052606481018590526001608482015260ff841660a482015260c4810183905260e481018290526000805160206200409083398151915290638fcbaf0c9061010401600060405180830381600087803b158015620011d957600080fd5b505af1158015620011ee573d6000803e3d6000fd5b50505050620011fe878762001a5c565b50505050505050565b62001211620020e6565b6200121d600062002708565b565b33806200122b6200192e565b6001600160a01b03161462001257578060405163118cdaa760e01b815260040162000c21919062002e8f565b620012628162002708565b50565b600062001272826200272f565b905062001280838262001ecd565b60055460405163095ea7b360e01b815273ae7ab96520de3a18e5e111b5eaab095312d7fe849163095ea7b391620012c6916001600160a01b031690869060040162003222565b6020604051808303816000875af1158015620012e6573d6000803e3d6000fd5b505050506040513d601f19601f820116820180604052508101906200130c919062003249565b506005546040516356e4bb9760e11b81526001600160a01b039091169063adc9772e90620013559073ae7ab96520de3a18e5e111b5eaab095312d7fe8490869060040162003222565b600060405180830381600087803b1580156200137057600080fd5b505af115801562001385573d6000803e3d6000fd5b5050600254600054620013ae93506001600160a01b039182169250610100900416858462001f71565b336001600160a01b0316836001600160a01b03167fbfd9907006e12fdb4699f6e85603e9892fb5757c6042047d8169c4eb1b71ed958484604051620013f59291906200323b565b60405180910390a3505050565b6000806200140f620027dd565b546001600160a01b031692915050565b60405163d505accf60e01b815273ae7ab96520de3a18e5e111b5eaab095312d7fe849063d505accf906200146490339030908a908a908a908a908a9060040162003269565b600060405180830381600087803b1580156200147f57600080fd5b505af115801562001494573d6000803e3d6000fd5b5050505062000d04868662001265565b620014ae620020e6565b6001600160a01b038116620014d65760405163d92e233d60e01b815260040160405180910390fd5b600480546001600160a01b0319166001600160a01b0383161790556040517f6bd18dd71dbbe09ce1c748bd59a9d3578fd72f868be620e941baaf7ededc1b2c906200115390839062002e8f565b6200152d620020e6565b6001600160a01b038116620015555760405163d92e233d60e01b815260040160405180910390fd5b60005461010090046001600160a01b0316156200158557604051633c89824560e11b815260040160405180910390fd5b60008054610100600160a81b0319166101006001600160a01b038416021790556040517fef378cd64aa039f8aa85e2d1348e2d05fc857350febd6741215907a7176da26b906200115390839062002e8f565b6000620015e48262002801565b9050620015f28382620024d3565b60055460405163095ea7b360e01b8152600080516020620040908339815191529163095ea7b39162001633916001600160a01b031690859060040162003222565b6020604051808303816000875af115801562001653573d6000803e3d6000fd5b505050506040513d601f19601f8201168201806040525081019062001679919062003249565b506005546040516356e4bb9760e11b81526001600160a01b039091169063adc9772e90620016bd906000805160206200409083398151915290859060040162003222565b600060405180830381600087803b158015620016d857600080fd5b505af1158015620016ed573d6000803e3d6000fd5b50506003546001546200171193506001600160a01b03918216925016858462001f71565b336001600160a01b0316836001600160a01b03167f8ebf8992d27dc37606eb5695ad2b46de4bd947e7aad6284dd9d13b6a43a91a198484604051620013f59291906200323b565b62001762620020e6565b600354604080516318160ddd60e01b815290516000926001600160a01b0316916318160ddd9160048083019260209291908290030181865afa158015620017ad573d6000803e3d6000fd5b505050506040513d601f19601f82011682018060405250810190620017d39190620032aa565b60055460405163b241908360e01b81526001600160a01b039091169063b2419083906200181490600080516020620040908339815191529060040162002e8f565b6020604051808303816000875af115801562001834573d6000803e3d6000fd5b505050506040513d601f19601f820116820180604052508101906200185a9190620032aa565b620018669190620032da565b9050818111156200188a57604051633ce95f8560e11b815260040160405180910390fd5b6003546040516340c10f1960e01b81526001600160a01b03909116906340c10f1990620018be908690869060040162003222565b600060405180830381600087803b158015620018d957600080fd5b505af1158015620018ee573d6000803e3d6000fd5b50505050826001600160a01b03167fff4ccf245d654193481740374c71e8e4d2e48a49d4b6f2e634b3cf202139aab38360405162000f3891815260200190565b6000806200140f62002adf565b62001945620020e6565b6001600160a01b0381166200196d5760405163d92e233d60e01b815260040160405180910390fd5b6001546001600160a01b03161562001998576040516385698c8b60e01b815260040160405180910390fd5b600180546001600160a01b0319166001600160a01b0383161790556040517fbdb2fff55a25f4c33d1f97c239c9f34f0978a7fcb2e8761cf32c59c7e6a3352b906200115390839062002e8f565b620019ef620020e6565b6000620019fb62002adf565b80546001600160a01b0319166001600160a01b038416908117825590915062001a2362001402565b6001600160a01b03167f38d16b8cac22d99fc7c124b9cd0de2d3fa1faef420bfe791d8c362d765e2270060405160405180910390a35050565b600062001a698262002b03565b905062001a778382620024d3565b60055460405163095ea7b360e01b8152600080516020620040908339815191529163095ea7b39162001ab8916001600160a01b031690859060040162003222565b6020604051808303816000875af115801562001ad8573d6000803e3d6000fd5b505050506040513d601f19601f8201168201806040525081019062001afe919062003249565b506005546040516356e4bb9760e11b81526001600160a01b039091169063adc9772e9062001b42906000805160206200409083398151915290859060040162003222565b600060405180830381600087803b15801562001b5d57600080fd5b505af115801562001b72573d6000803e3d6000fd5b505060035460015462001b9693506001600160a01b03918216925016858462001f71565b336001600160a01b0316836001600160a01b03167fdac912335e242500234fd1c32ba2537db678dac6908b4ee54774aa2e3e90f7a98484604051620013f59291906200323b565b600062001be962002b5f565b805490915060ff600160401b82041615906001600160401b031660008115801562001c115750825b90506000826001600160401b0316600114801562001c2e5750303b155b90508115801562001c3d575080155b1562001c5c5760405163f92ee8a960e01b815260040160405180910390fd5b84546001600160401b0319166001178555831562001c8657845460ff60401b1916600160401b1785555b6001600160a01b038716158062001ca457506001600160a01b038916155b8062001cb757506001600160a01b038816155b1562001cd65760405163d92e233d60e01b815260040160405180910390fd5b3060405162001ce59062002e81565b6001600160a01b0390911681526060602082018190526014908201527308ac8cecad8cae6e640aee4c2e0e0cac8408ae8d60631b608082015260a060408201819052600590820152640caee8ae8d60db1b60c082015260e001604051809103906000f08015801562001d5b573d6000803e3d6000fd5b50600280546001600160a01b0319166001600160a01b0392909216919091179055604051309062001d8c9062002e81565b6001600160a01b03909116815260606020820181905260149082015273115919d95b195cdcc815dc985c1c1959081554d160621b608082015260a06040820181905260059082015264195dd554d160da1b60c082015260e001604051809103906000f08015801562001e02573d6000803e3d6000fd5b50600380546001600160a01b03199081166001600160a01b03938416179091556004805482168a84161790556000805460ff191690556005805490911691881691909117905562001e538962002b83565b831562001e9a57845460ff60401b19168555604051600181527fc7f505b2f371ae2175ee4913f4499e1f2633a7b5936321eed1cdaeb6115181d29060200160405180910390a15b505050505050505050565b60008160000362001ec9576040516356316e8760e01b815260040160405180910390fd5b5090565b60005460ff161562001f3d576002546040516340c10f1960e01b81526001600160a01b03909116906340c10f199062001f0d903090859060040162003222565b600060405180830381600087803b15801562001f2857600080fd5b505af115801562000d04573d6000803e3d6000fd5b6002546040516340c10f1960e01b81526001600160a01b03909116906340c10f199062001f0d908590859060040162003222565b60005460ff1615620020e0576004805460405163095ea7b360e01b81526001600160a01b038088169363095ea7b39362001fb19392169186910162003222565b6020604051808303816000875af115801562001fd1573d6000803e3d6000fd5b505050506040513d601f19601f8201168201806040525081019062001ff7919062003249565b506004805460405163041c592960e51b81526001600160a01b0387811693820193909352858316602482015284831660448201526064810184905260006084820181905260c060a483015260c482015291169063838b25209060e401600060405180830381600087803b1580156200206e57600080fd5b505af115801562002083573d6000803e3d6000fd5b50505050816001600160a01b0316836001600160a01b0316856001600160a01b03167f6135fd8533e4fd39a83c3c4945477ff42492bfd5e0c5e24422df7da3332f098f84604051620020d791815260200190565b60405180910390a45b50505050565b33620020f162001402565b6001600160a01b0316146200121d573360405163118cdaa760e01b815260040162000c21919062002e8f565b60008260000362002141576040516356316e8760e01b815260040160405180910390fd5b6040516370a0823160e01b815260009073dac17f958d2ee523a2206206994597c13d831ec7906370a08231906200217d90309060040162002e8f565b602060405180830381865afa1580156200219b573d6000803e3d6000fd5b505050506040513d601f19601f82011682018060405250810190620021c19190620032aa565b6040516323b872dd60e01b815290915073dac17f958d2ee523a2206206994597c13d831ec7906323b872dd906200220190339030908990600401620032f0565b600060405180830381600087803b1580156200221c57600080fd5b505af115801562002231573d6000803e3d6000fd5b50506040516370a0823160e01b81526000925083915073dac17f958d2ee523a2206206994597c13d831ec7906370a08231906200227390309060040162002e8f565b602060405180830381865afa15801562002291573d6000803e3d6000fd5b505050506040513d601f19601f82011682018060405250810190620022b79190620032aa565b620022c39190620032da565b6040516370a0823160e01b815290915060009060008051602062004090833981519152906370a0823190620022fd90309060040162002e8f565b602060405180830381865afa1580156200231b573d6000803e3d6000fd5b505050506040513d601f19601f82011682018060405250810190620023419190620032aa565b60405163095ea7b360e01b815290915073dac17f958d2ee523a2206206994597c13d831ec79063095ea7b390620023939073bebc44782c7db0a1a60cb6fe97d0b483032ff1c790869060040162003222565b600060405180830381600087803b158015620023ae57600080fd5b505af1158015620023c3573d6000803e3d6000fd5b5050604051630f7c084960e21b81526002600482015260006024820152604481018590526064810188905273bebc44782c7db0a1a60cb6fe97d0b483032ff1c79250633df021249150608401600060405180830381600087803b1580156200242a57600080fd5b505af11580156200243f573d6000803e3d6000fd5b50506040516370a0823160e01b81528392506000805160206200409083398151915291506370a08231906200247990309060040162002e8f565b602060405180830381865afa15801562002497573d6000803e3d6000fd5b505050506040513d601f19601f82011682018060405250810190620024bd9190620032aa565b620024c99190620032da565b9695505050505050565b60005460ff161562002513576003546040516340c10f1960e01b81526001600160a01b03909116906340c10f199062001f0d903090859060040162003222565b6003546040516340c10f1960e01b81526001600160a01b03909116906340c10f199062001f0d908590859060040162003222565b306001600160a01b037f0000000000000000000000000000000000000000000000000000000000000000161480620025d157507f00000000000000000000000000000000000000000000000000000000000000006001600160a01b0316620025c5600080516020620040b0833981519152546001600160a01b031690565b6001600160a01b031614155b156200121d5760405163703e46dd60e11b815260040160405180910390fd5b62001262620020e6565b816001600160a01b03166352d1902d6040518163ffffffff1660e01b8152600401602060405180830381865afa92505050801562002657575060408051601f3d908101601f191682019092526200265491810190620032aa565b60015b620026795781604051634c9c8ce360e01b815260040162000c21919062002e8f565b600080516020620040b08339815191528114620026ad57604051632a87526960e21b81526004810182905260240162000c21565b620026b9838362002b98565b505050565b306001600160a01b037f000000000000000000000000000000000000000000000000000000000000000016146200121d5760405163703e46dd60e11b815260040160405180910390fd5b60006200271462002adf565b80546001600160a01b03191681559050620010e88262002bf5565b60008160000362002753576040516356316e8760e01b815260040160405180910390fd5b6040516323b872dd60e01b815273ae7ab96520de3a18e5e111b5eaab095312d7fe84906323b872dd906200279090339030908790600401620032f0565b6020604051808303816000875af1158015620027b0573d6000803e3d6000fd5b505050506040513d601f19601f82011682018060405250810190620027d6919062003249565b5090919050565b7f9016d09d72d40fdae2fd8ceac6b6234c7706214fd39c1cd1e609a0528c19930090565b60008160000362002825576040516356316e8760e01b815260040160405180910390fd5b6000620028328362002c53565b90506000670de0b6b3a7640000827389b78cfa322f6c5de0abceecab66aee45393cc5a6001600160a01b031663568d4b6f6040518163ffffffff1660e01b8152600401602060405180830381865afa15801562002893573d6000803e3d6000fd5b505050506040513d601f19601f82011682018060405250810190620028b99190620032aa565b620028c5919062003314565b620028d191906200332e565b9050620028df8183620032da565b6040516323b872dd60e01b815290935073a0b86991c6218b36c1d19d4a2e9eb0ce3606eb48906323b872dd906200291f90339030908990600401620032f0565b6020604051808303816000875af11580156200293f573d6000803e3d6000fd5b505050506040513d601f19601f8201168201806040525081019062002965919062003249565b5073a0b86991c6218b36c1d19d4a2e9eb0ce3606eb486001600160a01b031663095ea7b37389b78cfa322f6c5de0abceecab66aee45393cc5a6001600160a01b03166301664f666040518163ffffffff1660e01b8152600401602060405180830381865afa158015620029dc573d6000803e3d6000fd5b505050506040513d601f19601f8201168201806040525081019062002a02919062003202565b866040518363ffffffff1660e01b815260040162002a2292919062003222565b6020604051808303816000875af115801562002a42573d6000803e3d6000fd5b505050506040513d601f19601f8201168201806040525081019062002a68919062003249565b50604051634acc893b60e11b81527389b78cfa322f6c5de0abceecab66aee45393cc5a9063959912769062002aa4903090889060040162003222565b600060405180830381600087803b15801562002abf57600080fd5b505af115801562002ad4573d6000803e3d6000fd5b505050505050919050565b7f237e158222e3e6968b72b9db0d8043aacf074ad9f650f0d1606b4d82ee432c0090565b60008160000362002b27576040516356316e8760e01b815260040160405180910390fd5b6040516323b872dd60e01b815260008051602062004090833981519152906323b872dd906200279090339030908790600401620032f0565b7ff0c57e16840df040f15088dc2f81fe391c3923bec73e23a9662efc9c229c6a0090565b62002b8d62002c82565b620012628162002caa565b62002ba38262002ce1565b6040516001600160a01b038316907fbc7cd75a20ee27fd9adebab32041f755214dbc6bffa90cc0225b39da2e5c2d3b90600090a280511562002beb57620026b9828262002d41565b620010e862002dbd565b600062002c01620027dd565b80546001600160a01b038481166001600160a01b031983168117845560405193945091169182907f8be0079c531659141344cd1fd0a4f28419497f9722a3daafe3b4186f6b6457e090600090a3505050565b600062002c6360066012620032da565b62002c7090600a6200344e565b62002c7c908362003314565b92915050565b62002c8c62002ddd565b6200121d57604051631afcd79f60e31b815260040160405180910390fd5b62002cb462002c82565b6001600160a01b03811662001257576000604051631e4fbdf760e01b815260040162000c21919062002e8f565b806001600160a01b03163b60000362002d115780604051634c9c8ce360e01b815260040162000c21919062002e8f565b600080516020620040b083398151915280546001600160a01b0319166001600160a01b0392909216919091179055565b6060600080846001600160a01b03168460405162002d6091906200345c565b600060405180830381855af49150503d806000811462002d9d576040519150601f19603f3d011682016040523d82523d6000602084013e62002da2565b606091505b509150915062002db485838362002df9565b95945050505050565b34156200121d5760405163b398979f60e01b815260040160405180910390fd5b600062002de962002b5f565b54600160401b900460ff16919050565b60608262002e125762002e0c8262002e57565b62002e50565b815115801562002e2a57506001600160a01b0384163b155b1562002e4d5783604051639996b31560e01b815260040162000c21919062002e8f565b50805b9392505050565b80511562002e685780518082602001fd5b604051630a12f52160e11b815260040160405180910390fd5b610c15806200347b83390190565b6001600160a01b0391909116815260200190565b6001600160a01b03811681146200126257600080fd5b6000806040838503121562002ecd57600080fd5b823562002eda8162002ea3565b946020939093013593505050565b803560ff8116811462002efa57600080fd5b919050565b60008060008060008060c0878903121562002f1957600080fd5b863562002f268162002ea3565b9550602087013594506040870135935062002f446060880162002ee8565b92506080870135915060a087013590509295509295509295565b60008060006060848603121562002f7457600080fd5b833562002f818162002ea3565b95602085013595506040909401359392505050565b634e487b7160e01b600052604160045260246000fd5b6000806040838503121562002fc057600080fd5b823562002fcd8162002ea3565b915060208301356001600160401b038082111562002fea57600080fd5b818501915085601f83011262002fff57600080fd5b81358181111562003014576200301462002f96565b604051601f8201601f19908116603f011681019083821181831017156200303f576200303f62002f96565b816040528281528860208487010111156200305957600080fd5b8260208601602083013760006020848301015280955050505050509250929050565b80151581146200126257600080fd5b6000602082840312156200309d57600080fd5b813562002e50816200307b565b600080600080600080600060e0888a031215620030c657600080fd5b8735620030d38162002ea3565b9650602088013595506040880135945060608801359350620030f86080890162002ee8565b925060a0880135915060c0880135905092959891949750929550565b60005b838110156200313157818101518382015260200162003117565b50506000910152565b600081518084526200315481602086016020860162003114565b601f01601f19169290920160200192915050565b60208152600062002e5060208301846200313a565b6000602082840312156200319057600080fd5b813562002e508162002ea3565b60008060008060808587031215620031b457600080fd5b8435620031c18162002ea3565b93506020850135620031d38162002ea3565b92506040850135620031e58162002ea3565b91506060850135620031f78162002ea3565b939692955090935050565b6000602082840312156200321557600080fd5b815162002e508162002ea3565b6001600160a01b03929092168252602082015260400190565b918252602082015260400190565b6000602082840312156200325c57600080fd5b815162002e50816200307b565b6001600160a01b0397881681529590961660208601526040850193909352606084019190915260ff16608083015260a082015260c081019190915260e00190565b600060208284031215620032bd57600080fd5b5051919050565b634e487b7160e01b600052601160045260246000fd5b8181038181111562002c7c5762002c7c620032c4565b6001600160a01b039384168152919092166020820152604081019190915260600190565b808202811582820484141762002c7c5762002c7c620032c4565b6000826200334c57634e487b7160e01b600052601260045260246000fd5b500490565b600181815b8085111562003392578160001904821115620033765762003376620032c4565b808516156200338457918102915b93841c939080029062003356565b509250929050565b600082620033ab5750600162002c7c565b81620033ba5750600062002c7c565b8160018114620033d35760028114620033de57620033fe565b600191505062002c7c565b60ff841115620033f257620033f2620032c4565b50506001821b62002c7c565b5060208310610133831016604e8410600b841016171562003423575081810a62002c7c565b6200342f838362003351565b8060001904821115620034465762003446620032c4565b029392505050565b600062002e5083836200339a565b600082516200347081846020870162003114565b919091019291505056fe60806040523480156200001157600080fd5b5060405162000c1538038062000c15833981016040819052620000349162000148565b8181600362000044838262000263565b50600462000053828262000263565b5050600580546001600160a01b0319166001600160a01b039590951694909417909355506200032f915050565b634e487b7160e01b600052604160045260246000fd5b600082601f830112620000a857600080fd5b81516001600160401b0380821115620000c557620000c562000080565b604051601f8301601f19908116603f01168101908282118183101715620000f057620000f062000080565b81604052838152602092508660208588010111156200010e57600080fd5b600091505b8382101562000132578582018301518183018401529082019062000113565b6000602085830101528094505050505092915050565b6000806000606084860312156200015e57600080fd5b83516001600160a01b03811681146200017657600080fd5b60208501519093506001600160401b03808211156200019457600080fd5b620001a28783880162000096565b93506040860151915080821115620001b957600080fd5b50620001c88682870162000096565b9150509250925092565b600181811c90821680620001e757607f821691505b6020821081036200020857634e487b7160e01b600052602260045260246000fd5b50919050565b601f8211156200025e576000816000526020600020601f850160051c81016020861015620002395750805b601f850160051c820191505b818110156200025a5782815560010162000245565b5050505b505050565b81516001600160401b038111156200027f576200027f62000080565b6200029781620002908454620001d2565b846200020e565b602080601f831160018114620002cf5760008415620002b65750858301515b600019600386901b1c1916600185901b1785556200025a565b600085815260208120601f198616915b828110156200030057888601518255948401946001909101908401620002df565b50858210156200031f5787850151600019600388901b60f8161c191681555b5050505050600190811b01905550565b6108d6806200033f6000396000f3fe608060405234801561001057600080fd5b50600436106100a45760003560e01c806306fdde03146100a957806307546172146100c7578063095ea7b3146100e757806318160ddd1461010a57806323b872dd1461011c578063313ce5671461012f57806340c10f191461013e57806370a082311461015357806395d89b411461017c5780639dc29fac14610184578063a9059cbb14610197578063dd62ed3e146101aa575b600080fd5b6100b16101bd565b6040516100be91906106ea565b60405180910390f35b6005546100da906001600160a01b031681565b6040516100be9190610739565b6100fa6100f5366004610769565b61024f565b60405190151581526020016100be565b6002545b6040519081526020016100be565b6100fa61012a366004610793565b610269565b604051601281526020016100be565b61015161014c366004610769565b61028d565b005b61010e6101613660046107cf565b6001600160a01b031660009081526020819052604090205490565b6100b1610309565b610151610192366004610769565b610318565b6100fa6101a5366004610769565b610388565b61010e6101b83660046107f1565b610396565b6060600380546101cc90610824565b80601f01602080910402602001604051908101604052809291908181526020018280546101f890610824565b80156102455780601f1061021a57610100808354040283529160200191610245565b820191906000526020600020905b81548152906001019060200180831161022857829003601f168201915b5050505050905090565b60003361025d8185856103c1565b60019150505b92915050565b6000336102778582856103d3565b61028285858561042f565b506001949350505050565b6005546001600160a01b031633146102b85760405163469d9d3360e01b815260040160405180910390fd5b6102c2828261048e565b816001600160a01b03167f0f6798a560793a54c3bcfe86a93cde1e73087d944c0ea20544137d4121396885826040516102fd91815260200190565b60405180910390a25050565b6060600480546101cc90610824565b6005546001600160a01b031633146103435760405163469d9d3360e01b815260040160405180910390fd5b61034d82826104c8565b816001600160a01b03167fcc16f5dbb4873280815c1ee09dbd06736cffcc184412cf7a71a0fdb75d397ca5826040516102fd91815260200190565b60003361025d81858561042f565b6001600160a01b03918216600090815260016020908152604080832093909416825291909152205490565b6103ce83838360016104fe565b505050565b60006103df8484610396565b90506000198114610429578181101561041a57828183604051637dc7a0d960e11b81526004016104119392919061085e565b60405180910390fd5b610429848484840360006104fe565b50505050565b6001600160a01b038316610459576000604051634b637e8f60e11b81526004016104119190610739565b6001600160a01b03821661048357600060405163ec442f0560e01b81526004016104119190610739565b6103ce8383836105d3565b6001600160a01b0382166104b857600060405163ec442f0560e01b81526004016104119190610739565b6104c4600083836105d3565b5050565b6001600160a01b0382166104f2576000604051634b637e8f60e11b81526004016104119190610739565b6104c4826000836105d3565b6001600160a01b03841661052857600060405163e602df0560e01b81526004016104119190610739565b6001600160a01b038316610552576000604051634a1406b160e11b81526004016104119190610739565b6001600160a01b038085166000908152600160209081526040808320938716835292905220829055801561042957826001600160a01b0316846001600160a01b03167f8c5be1e5ebec7d5bd14f71427d1e84f3dd0314c0f7b2291e5b200ac8c7c3b925846040516105c591815260200190565b60405180910390a350505050565b6001600160a01b0383166105fe5780600260008282546105f3919061087f565b9091555061065d9050565b6001600160a01b0383166000908152602081905260409020548181101561063e5783818360405163391434e360e21b81526004016104119392919061085e565b6001600160a01b03841660009081526020819052604090209082900390555b6001600160a01b03821661067957600280548290039055610698565b6001600160a01b03821660009081526020819052604090208054820190555b816001600160a01b0316836001600160a01b03167fddf252ad1be2c89b69c2b068fc378daa952ba7f163c4a11628f55a4df523b3ef836040516106dd91815260200190565b60405180910390a3505050565b60006020808352835180602085015260005b81811015610718578581018301518582016040015282016106fc565b506000604082860101526040601f19601f8301168501019250505092915050565b6001600160a01b0391909116815260200190565b80356001600160a01b038116811461076457600080fd5b919050565b6000806040838503121561077c57600080fd5b6107858361074d565b946020939093013593505050565b6000806000606084860312156107a857600080fd5b6107b18461074d565b92506107bf6020850161074d565b9150604084013590509250925092565b6000602082840312156107e157600080fd5b6107ea8261074d565b9392505050565b6000806040838503121561080457600080fd5b61080d8361074d565b915061081b6020840161074d565b90509250929050565b600181811c9082168061083857607f821691505b60208210810361085857634e487b7160e01b600052602260045260246000fd5b50919050565b6001600160a01b039390931683526020830191909152604082015260600190565b8082018082111561026357634e487b7160e01b600052601160045260246000fdfea26469706673582212209cd245464de079cf047395a640d3e062a8576223963ce926533888033064552864736f6c634300081700330000000000000000000000006b175474e89094c44da98b954eedeac495271d0f360894a13ba1a3210667c828492db98dca3e2076cc3735a920a3ca505d382bbca26469706673582212208d9165ae044f54ef886666b796c9f09df7bd5e314b687b7abb08aca5f8e382a564736f6c63430008170033",
  "devdoc": {
    "errors": {
      "AddressEmptyCode(address)": [
        {
          "details": "There's no code at `target` (it is not a contract)."
        }
      ],
      "ERC1967InvalidImplementation(address)": [
        {
          "details": "The `implementation` of the proxy is invalid."
        }
      ],
      "ERC1967NonPayable()": [
        {
          "details": "An upgrade function sees `msg.value > 0` that may be lost."
        }
      ],
      "FailedInnerCall()": [
        {
          "details": "A call to an address target failed. The target may have reverted."
        }
      ],
      "InvalidInitialization()": [
        {
          "details": "The contract is already initialized."
        }
      ],
      "NotInitializing()": [
        {
          "details": "The contract is not initializing."
        }
      ],
      "OwnableInvalidOwner(address)": [
        {
          "details": "The owner is not a valid owner account. (eg. `address(0)`)"
        }
      ],
      "OwnableUnauthorizedAccount(address)": [
        {
          "details": "The caller account is not authorized to perform an operation."
        }
      ],
      "UUPSUnauthorizedCallContext()": [
        {
          "details": "The call is from an unauthorized context."
        }
      ],
      "UUPSUnsupportedProxiableUUID(bytes32)": [
        {
          "details": "The storage `slot` is unsupported as a UUID."
        }
      ]
    },
    "events": {
      "Initialized(uint64)": {
        "details": "Triggered when the contract has been initialized or reinitialized."
      },
      "Upgraded(address)": {
        "details": "Emitted when the implementation is upgraded."
      }
    },
    "kind": "dev",
    "methods": {
      "acceptOwnership()": {
        "details": "The new owner accepts the ownership transfer."
      },
      "depositDai(address,uint256)": {
        "params": {
          "DaiAmount": "Amount to deposit in Dai (wad)",
          "to": "Address to mint wrapped tokens to"
        }
      },
      "depositDaiWithPermit(address,uint256,uint256,uint256,uint8,bytes32,bytes32)": {
        "params": {
          "DaiAmount": "Amount to deposit in Dai (wad)",
          "expiry": "Permit signature expiry timestamp",
          "nonce": "Permit signature nonce",
          "r": "Permit signature r parameter",
          "s": "Permit signature s parameter",
          "v": "Permit signature v parameter"
        }
      },
      "depositEth(address)": {
        "params": {
          "to": "Address to mint wrapped tokens to"
        }
      },
      "depositStEth(address,uint256)": {
        "params": {
          "stEthAmount": "Amount to deposit in Dai (wad)",
          "to": "Address to mint wrapped tokens to"
        }
      },
      "depositStEthWithPermit(address,uint256,uint256,uint8,bytes32,bytes32)": {
        "details": "Usdc is converted to Dai using Maker DssPsm",
        "params": {
          "deadline": "Permit signature deadline timestamp",
          "r": "Permit signature r parameter",
          "s": "Permit signature s parameter",
          "stEthAmount": "Amount to deposit in Usdc (usd)",
          "v": "Permit signature v parameter"
        }
      },
      "depositUsdc(address,uint256)": {
        "details": "Usdc is converted to Dai using Maker DssPsm",
        "params": {
          "UsdcAmount": "Amount to deposit in Usdc (usd)",
          "to": "Address to mint wrapped tokens to"
        }
      },
      "depositUsdcWithPermit(address,uint256,uint256,uint8,bytes32,bytes32)": {
        "details": "Usdc is converted to Dai using Maker DssPsm",
        "params": {
          "UsdcAmount": "Amount to deposit in Usdc (usd)",
          "deadline": "Permit signature deadline timestamp",
          "r": "Permit signature r parameter",
          "s": "Permit signature s parameter",
          "v": "Permit signature v parameter"
        }
      },
      "depositUsdt(address,uint256,uint256)": {
        "details": "Usdt is converted to Dai using Maker DssPsm",
        "params": {
          "UsdtAmount": "Amount to deposit in Usdt (usd)",
          "minDaiAmount": "Minimum amount of Dai to receive from the PSM (slippage protection)",
          "to": "Address to mint wrapped tokens to"
        }
      },
      "mintEthBasedOnStakedAmount(address,uint256)": {
        "details": "The owner can only mint up to the amount of Eth deposited + Eth staking rewards from Lido",
        "params": {
          "amount": "Amount of wrapped tokens to mint",
          "to": "Address to mint wrapped tokens to"
        }
      },
      "mintUSDBasedOnStakedAmount(address,uint256)": {
        "details": "The owner can only mint up to the amount of USD deposited + USD staking rewards from the Maker DSR",
        "params": {
          "amount": "Amount of wrapped tokens to mint",
          "to": "Address to mint wrapped tokens to"
        }
      },
      "owner()": {
        "details": "Returns the address of the current owner."
      },
      "pendingOwner()": {
        "details": "Returns the address of the pending owner."
      },
      "proxiableUUID()": {
        "details": "Implementation of the ERC1822 {proxiableUUID} function. This returns the storage slot used by the implementation. It is used to validate the implementation's compatibility when performing an upgrade. IMPORTANT: A proxy pointing at a proxiable contract should not be considered proxiable itself, because this risks bricking a proxy that upgrades to it, by delegating to itself until out of gas. Thus it is critical that this function revert if invoked through a proxy. This is guaranteed by the `notDelegated` modifier."
      },
      "renounceOwnership()": {
        "details": "Leaves the contract without owner. It will not be possible to call `onlyOwner` functions. Can only be called by the current owner. NOTE: Renouncing ownership will leave the contract without an owner, thereby disabling any functionality that is only available to the owner."
      },
      "setAutoBridge(bool)": {
        "params": {
          "_autoBridge": "True to pause autobridging, false to unpause"
        }
      },
      "setL1StandardBridge(address)": {
        "params": {
          "_l1standardBridge": "Address of the L1StandardBridge contract"
        }
      },
      "setL2Eth(address)": {
        "params": {
          "_l2Eth": "Address of the L2 Wrapped Eth contract"
        }
      },
      "setL2USD(address)": {
        "params": {
          "_l2USD": "Address of the L2 Wrapped USD contract"
        }
      },
      "transferOwnership(address)": {
        "details": "Starts the ownership transfer of the contract to a new account. Replaces the pending transfer if there is one. Can only be called by the current owner."
      },
      "upgradeToAndCall(address,bytes)": {
        "custom:oz-upgrades-unsafe-allow-reachable": "delegatecall",
        "details": "Upgrade the implementation of the proxy to `newImplementation`, and subsequently execute the function call encoded in `data`. Calls {_authorizeUpgrade}. Emits an {Upgraded} event."
      },
      "withdrawEth(address,uint256)": {
        "params": {
          "amount": "Amount to withdraw",
          "to": "Address to withdraw Eth to"
        }
      },
      "withdrawUSD(address,uint256)": {
        "params": {
          "amount": "Amount to withdraw",
          "to": "Address to withdraw Dai to"
        }
      }
    },
    "title": "EdgelessDeposit",
    "version": 1
  },
  "userdoc": {
    "kind": "user",
    "methods": {
      "depositDai(address,uint256)": {
        "notice": "Deposit Dai, mint wrapped tokens, and bridge to the Edgeless L2"
      },
      "depositDaiWithPermit(address,uint256,uint256,uint256,uint8,bytes32,bytes32)": {
        "notice": "Deposit Dai to the USD pool with a permit signature"
      },
      "depositEth(address)": {
        "notice": "Deposit Eth, mint wrapped tokens, and bridge to the Edgeless L2"
      },
      "depositStEth(address,uint256)": {
        "notice": "Deposit stEth, mint wrapped tokens, and bridge to the Edgeless L2"
      },
      "depositStEthWithPermit(address,uint256,uint256,uint8,bytes32,bytes32)": {
        "notice": "Deposit STEth with a permit signature"
      },
      "depositUsdc(address,uint256)": {
        "notice": "Deposit Usdc, mint wrapped tokens, and bridge to the Edgeless L2"
      },
      "depositUsdcWithPermit(address,uint256,uint256,uint8,bytes32,bytes32)": {
        "notice": "Deposit Usdc to the USD pool with a permit signature"
      },
      "depositUsdt(address,uint256,uint256)": {
        "notice": "Deposit Usdt, mint wrapped tokens, and bridge to the Edgeless L2"
      },
      "mintEthBasedOnStakedAmount(address,uint256)": {
        "notice": "Mint wrapped tokens based on the amount of Eth staked"
      },
      "mintUSDBasedOnStakedAmount(address,uint256)": {
        "notice": "Mint wrapped tokens based on the amount of USD staked"
      },
      "setAutoBridge(bool)": {
        "notice": "Pause autobridging of wrapped tokens to the Edgeless L2"
      },
      "setL1StandardBridge(address)": {
        "notice": "Set the address of the L1StandardBridge contract"
      },
      "setL2Eth(address)": {
        "notice": "Set the address of the L2 Wrapped Eth contract"
      },
      "setL2USD(address)": {
        "notice": "Set the address of the L2 Wrapped USD contract"
      },
      "withdrawEth(address,uint256)": {
        "notice": "Withdraw Eth from the Eth pool"
      },
      "withdrawUSD(address,uint256)": {
        "notice": "Withdraw Dai from the stablecoin pool"
      }
    },
    "notice": "EdgelessDeposit is a contract that allows users to deposit Eth, Usdc, Usdt, or Dai and receive wrapped tokens in return. The wrapped tokens can be used to bridge to the Edgeless L2",
    "version": 1
  },
  "storageLayout": {
    "storage": [
      {
        "astId": 3000,
        "contract": "src/EdgelessDeposit.sol:EdgelessDeposit",
        "label": "autoBridge",
        "offset": 0,
        "slot": "0",
        "type": "t_bool"
      },
      {
        "astId": 3002,
        "contract": "src/EdgelessDeposit.sol:EdgelessDeposit",
        "label": "l2Eth",
        "offset": 1,
        "slot": "0",
        "type": "t_address"
      },
      {
        "astId": 3004,
        "contract": "src/EdgelessDeposit.sol:EdgelessDeposit",
        "label": "l2USD",
        "offset": 0,
        "slot": "1",
        "type": "t_address"
      },
      {
        "astId": 3007,
        "contract": "src/EdgelessDeposit.sol:EdgelessDeposit",
        "label": "wrappedEth",
        "offset": 0,
        "slot": "2",
        "type": "t_contract(WrappedToken)4805"
      },
      {
        "astId": 3010,
        "contract": "src/EdgelessDeposit.sol:EdgelessDeposit",
        "label": "wrappedUSD",
        "offset": 0,
        "slot": "3",
        "type": "t_contract(WrappedToken)4805"
      },
      {
        "astId": 3013,
        "contract": "src/EdgelessDeposit.sol:EdgelessDeposit",
        "label": "l1standardBridge",
        "offset": 0,
        "slot": "4",
        "type": "t_contract(IL1StandardBridge)5236"
      },
      {
        "astId": 3016,
        "contract": "src/EdgelessDeposit.sol:EdgelessDeposit",
        "label": "stakingManager",
        "offset": 0,
        "slot": "5",
        "type": "t_contract(StakingManager)4707"
      }
    ],
    "types": {
      "t_address": {
        "encoding": "inplace",
        "label": "address",
        "numberOfBytes": "20"
      },
      "t_bool": {
        "encoding": "inplace",
        "label": "bool",
        "numberOfBytes": "1"
      },
      "t_contract(IL1StandardBridge)5236": {
        "encoding": "inplace",
        "label": "contract IL1StandardBridge",
        "numberOfBytes": "20"
      },
      "t_contract(StakingManager)4707": {
        "encoding": "inplace",
        "label": "contract StakingManager",
        "numberOfBytes": "20"
      },
      "t_contract(WrappedToken)4805": {
        "encoding": "inplace",
        "label": "contract WrappedToken",
        "numberOfBytes": "20"
      }
    }
  }
}