{
  "address": "0x3E6c54A78a3f6DBAca3397A16D3ecdca9319f03B",
  "abi": [
    {
      "inputs": [
        {
          "internalType": "address",
          "name": "target",
          "type": "address"
        }
      ],
      "name": "AddressEmptyCode",
      "type": "error"
    },
    {
      "inputs": [
        {
          "internalType": "address",
          "name": "implementation",
          "type": "address"
        }
      ],
      "name": "ERC1967InvalidImplementation",
      "type": "error"
    },
    {
      "inputs": [],
      "name": "ERC1967NonPayable",
      "type": "error"
    },
    {
      "inputs": [],
      "name": "FailedInnerCall",
      "type": "error"
    },
    {
      "inputs": [],
      "name": "InsufficientBalance",
      "type": "error"
    },
    {
      "inputs": [],
      "name": "InsufficientFunds",
      "type": "error"
    },
    {
      "inputs": [],
      "name": "InvalidInitialization",
      "type": "error"
    },
    {
      "inputs": [],
      "name": "L2EthSet",
      "type": "error"
    },
    {
      "inputs": [],
      "name": "L2USDSet",
      "type": "error"
    },
    {
      "inputs": [],
      "name": "MaxMintExceeded",
      "type": "error"
    },
    {
      "inputs": [],
      "name": "NotInitializing",
      "type": "error"
    },
    {
      "inputs": [
        {
          "internalType": "address",
          "name": "owner",
          "type": "address"
        }
      ],
      "name": "OwnableInvalidOwner",
      "type": "error"
    },
    {
      "inputs": [
        {
          "internalType": "address",
          "name": "account",
          "type": "address"
        }
      ],
      "name": "OwnableUnauthorizedAccount",
      "type": "error"
    },
    {
      "inputs": [],
      "name": "SenderIsNotStaker",
      "type": "error"
    },
    {
      "inputs": [
        {
          "internalType": "bytes",
          "name": "data",
          "type": "bytes"
        }
      ],
      "name": "TransferFailed",
      "type": "error"
    },
    {
      "inputs": [],
      "name": "UUPSUnauthorizedCallContext",
      "type": "error"
    },
    {
      "inputs": [
        {
          "internalType": "bytes32",
          "name": "slot",
          "type": "bytes32"
        }
      ],
      "name": "UUPSUnsupportedProxiableUUID",
      "type": "error"
    },
    {
      "inputs": [],
      "name": "ZeroAddress",
      "type": "error"
    },
    {
      "inputs": [],
      "name": "ZeroDeposit",
      "type": "error"
    },
    {
      "anonymous": false,
      "inputs": [
        {
          "indexed": false,
          "internalType": "uint256[]",
          "name": "requestIds",
          "type": "uint256[]"
        }
      ],
      "name": "ClaimedLidoWithdrawals",
      "type": "event"
    },
    {
      "anonymous": false,
      "inputs": [
        {
          "indexed": false,
          "internalType": "uint256",
          "name": "amount",
          "type": "uint256"
        }
      ],
      "name": "DaiStaked",
      "type": "event"
    },
    {
      "anonymous": false,
      "inputs": [
        {
          "indexed": true,
          "internalType": "address",
          "name": "to",
          "type": "address"
        },
        {
          "indexed": true,
          "internalType": "address",
          "name": "from",
          "type": "address"
        },
        {
          "indexed": false,
          "internalType": "uint256",
          "name": "daiAmount",
          "type": "uint256"
        },
        {
          "indexed": false,
          "internalType": "uint256",
          "name": "mintAmount",
          "type": "uint256"
        }
      ],
      "name": "DepositDAI",
      "type": "event"
    },
    {
      "anonymous": false,
      "inputs": [
        {
          "indexed": true,
          "internalType": "address",
          "name": "to",
          "type": "address"
        },
        {
          "indexed": true,
          "internalType": "address",
          "name": "from",
          "type": "address"
        },
        {
          "indexed": false,
          "internalType": "uint256",
          "name": "ethAmount",
          "type": "uint256"
        },
        {
          "indexed": false,
          "internalType": "uint256",
          "name": "mintAmount",
          "type": "uint256"
        }
      ],
      "name": "DepositEth",
      "type": "event"
    },
    {
      "anonymous": false,
      "inputs": [
        {
          "indexed": true,
          "internalType": "address",
          "name": "to",
          "type": "address"
        },
        {
          "indexed": true,
          "internalType": "address",
          "name": "from",
          "type": "address"
        },
        {
          "indexed": false,
          "internalType": "uint256",
          "name": "usdtAmount",
          "type": "uint256"
        },
        {
          "indexed": false,
          "internalType": "uint256",
          "name": "mintAmount",
          "type": "uint256"
        }
      ],
      "name": "DepositStEth",
      "type": "event"
    },
    {
      "anonymous": false,
      "inputs": [
        {
          "indexed": true,
          "internalType": "address",
          "name": "to",
          "type": "address"
        },
        {
          "indexed": true,
          "internalType": "address",
          "name": "from",
          "type": "address"
        },
        {
          "indexed": false,
          "internalType": "uint256",
          "name": "usdcAmount",
          "type": "uint256"
        },
        {
          "indexed": false,
          "internalType": "uint256",
          "name": "mintAmount",
          "type": "uint256"
        }
      ],
      "name": "DepositUSDC",
      "type": "event"
    },
    {
      "anonymous": false,
      "inputs": [
        {
          "indexed": true,
          "internalType": "address",
          "name": "to",
          "type": "address"
        },
        {
          "indexed": true,
          "internalType": "address",
          "name": "from",
          "type": "address"
        },
        {
          "indexed": false,
          "internalType": "uint256",
          "name": "usdtAmount",
          "type": "uint256"
        },
        {
          "indexed": false,
          "internalType": "uint256",
          "name": "mintAmount",
          "type": "uint256"
        }
      ],
      "name": "DepositUSDT",
      "type": "event"
    },
    {
      "anonymous": false,
      "inputs": [
        {
          "indexed": false,
          "internalType": "uint256",
          "name": "amount",
          "type": "uint256"
        }
      ],
      "name": "EthStaked",
      "type": "event"
    },
    {
      "anonymous": false,
      "inputs": [
        {
          "indexed": false,
          "internalType": "uint64",
          "name": "version",
          "type": "uint64"
        }
      ],
      "name": "Initialized",
      "type": "event"
    },
    {
      "anonymous": false,
      "inputs": [
        {
          "indexed": true,
          "internalType": "address",
          "name": "to",
          "type": "address"
        },
        {
          "indexed": false,
          "internalType": "uint256",
          "name": "amount",
          "type": "uint256"
        }
      ],
      "name": "MintWrappedETH",
      "type": "event"
    },
    {
      "anonymous": false,
      "inputs": [
        {
          "indexed": true,
          "internalType": "address",
          "name": "to",
          "type": "address"
        },
        {
          "indexed": false,
          "internalType": "uint256",
          "name": "amount",
          "type": "uint256"
        }
      ],
      "name": "MintWrappedUSD",
      "type": "event"
    },
    {
      "anonymous": false,
      "inputs": [
        {
          "indexed": true,
          "internalType": "address",
          "name": "previousOwner",
          "type": "address"
        },
        {
          "indexed": true,
          "internalType": "address",
          "name": "newOwner",
          "type": "address"
        }
      ],
      "name": "OwnershipTransferred",
      "type": "event"
    },
    {
      "anonymous": false,
      "inputs": [
        {
          "indexed": false,
          "internalType": "uint256",
          "name": "amount",
          "type": "uint256"
        }
      ],
      "name": "RecievedLidoWithdrawal",
      "type": "event"
    },
    {
      "anonymous": false,
      "inputs": [
        {
          "indexed": false,
          "internalType": "uint256[]",
          "name": "requestIds",
          "type": "uint256[]"
        },
        {
          "indexed": false,
          "internalType": "uint256[]",
          "name": "amounts",
          "type": "uint256[]"
        }
      ],
      "name": "RequestedLidoWithdrawals",
      "type": "event"
    },
    {
      "anonymous": false,
      "inputs": [
        {
          "indexed": false,
          "internalType": "bool",
          "name": "autoBridge",
          "type": "bool"
        }
      ],
      "name": "SetAutoBridge",
      "type": "event"
    },
    {
      "anonymous": false,
      "inputs": [
        {
          "indexed": false,
          "internalType": "bool",
          "name": "autoDeposit",
          "type": "bool"
        }
      ],
      "name": "SetAutoStake",
      "type": "event"
    },
    {
      "anonymous": false,
      "inputs": [
        {
          "indexed": false,
          "internalType": "contract IL1StandardBridge",
          "name": "l1standardBridge",
          "type": "address"
        }
      ],
      "name": "SetL1StandardBridge",
      "type": "event"
    },
    {
      "anonymous": false,
      "inputs": [
        {
          "indexed": false,
          "internalType": "address",
          "name": "l2Eth",
          "type": "address"
        }
      ],
      "name": "SetL2Eth",
      "type": "event"
    },
    {
      "anonymous": false,
      "inputs": [
        {
          "indexed": false,
          "internalType": "address",
          "name": "l2USD",
          "type": "address"
        }
      ],
      "name": "SetL2USD",
      "type": "event"
    },
    {
      "anonymous": false,
      "inputs": [
        {
          "indexed": false,
          "internalType": "address",
          "name": "staker",
          "type": "address"
        }
      ],
      "name": "SetStaker",
      "type": "event"
    },
    {
      "anonymous": false,
      "inputs": [
        {
          "indexed": true,
          "internalType": "address",
          "name": "implementation",
          "type": "address"
        }
      ],
      "name": "Upgraded",
      "type": "event"
    },
    {
      "anonymous": false,
      "inputs": [
        {
          "indexed": true,
          "internalType": "address",
          "name": "from",
          "type": "address"
        },
        {
          "indexed": true,
          "internalType": "address",
          "name": "to",
          "type": "address"
        },
        {
          "indexed": false,
          "internalType": "uint256",
          "name": "ethAmountWithdrew",
          "type": "uint256"
        },
        {
          "indexed": false,
          "internalType": "uint256",
          "name": "burnAmount",
          "type": "uint256"
        }
      ],
      "name": "WithdrawEth",
      "type": "event"
    },
    {
      "anonymous": false,
      "inputs": [
        {
          "indexed": true,
          "internalType": "address",
          "name": "from",
          "type": "address"
        },
        {
          "indexed": true,
          "internalType": "address",
          "name": "to",
          "type": "address"
        },
        {
          "indexed": false,
          "internalType": "uint256",
          "name": "usdAmountWithdrew",
          "type": "uint256"
        },
        {
          "indexed": false,
          "internalType": "uint256",
          "name": "burnAmount",
          "type": "uint256"
        }
      ],
      "name": "WithdrawUSD",
      "type": "event"
    },
    {
      "inputs": [],
      "name": "UPGRADE_INTERFACE_VERSION",
      "outputs": [
        {
          "internalType": "string",
          "name": "",
          "type": "string"
        }
      ],
      "stateMutability": "view",
      "type": "function"
    },
    {
      "inputs": [],
      "name": "_BASIS_POINTS",
      "outputs": [
        {
          "internalType": "uint256",
          "name": "",
          "type": "uint256"
        }
      ],
      "stateMutability": "view",
      "type": "function"
    },
    {
      "inputs": [],
      "name": "_CURVE_DAI_INDEX",
      "outputs": [
        {
          "internalType": "int128",
          "name": "",
          "type": "int128"
        }
      ],
      "stateMutability": "view",
      "type": "function"
    },
    {
      "inputs": [],
      "name": "_CURVE_USDT_INDEX",
      "outputs": [
        {
          "internalType": "int128",
          "name": "",
          "type": "int128"
        }
      ],
      "stateMutability": "view",
      "type": "function"
    },
    {
      "inputs": [],
      "name": "_INITIAL_DEPOSIT_AMOUNT",
      "outputs": [
        {
          "internalType": "uint256",
          "name": "",
          "type": "uint256"
        }
      ],
      "stateMutability": "view",
      "type": "function"
    },
    {
      "inputs": [],
      "name": "_INITIAL_TOKEN_HOLDER",
      "outputs": [
        {
          "internalType": "address",
          "name": "",
          "type": "address"
        }
      ],
      "stateMutability": "view",
      "type": "function"
    },
    {
      "inputs": [],
      "name": "_WAD",
      "outputs": [
        {
          "internalType": "uint256",
          "name": "",
          "type": "uint256"
        }
      ],
      "stateMutability": "view",
      "type": "function"
    },
    {
      "inputs": [],
      "name": "autoBridge",
      "outputs": [
        {
          "internalType": "bool",
          "name": "",
          "type": "bool"
        }
      ],
      "stateMutability": "view",
      "type": "function"
    },
    {
      "inputs": [],
      "name": "autoStake",
      "outputs": [
        {
          "internalType": "bool",
          "name": "",
          "type": "bool"
        }
      ],
      "stateMutability": "view",
      "type": "function"
    },
    {
      "inputs": [
        {
          "internalType": "uint256[]",
          "name": "requestIds",
          "type": "uint256[]"
        }
      ],
      "name": "claimLidoWithdrawals",
      "outputs": [],
      "stateMutability": "nonpayable",
      "type": "function"
    },
    {
      "inputs": [
        {
          "internalType": "address",
          "name": "to",
          "type": "address"
        },
        {
          "internalType": "uint256",
          "name": "daiAmount",
          "type": "uint256"
        }
      ],
      "name": "depositDAI",
      "outputs": [],
      "stateMutability": "nonpayable",
      "type": "function"
    },
    {
      "inputs": [
        {
          "internalType": "address",
          "name": "to",
          "type": "address"
        },
        {
          "internalType": "uint256",
          "name": "daiAmount",
          "type": "uint256"
        },
        {
          "internalType": "uint256",
          "name": "nonce",
          "type": "uint256"
        },
        {
          "internalType": "uint256",
          "name": "expiry",
          "type": "uint256"
        },
        {
          "internalType": "uint8",
          "name": "v",
          "type": "uint8"
        },
        {
          "internalType": "bytes32",
          "name": "r",
          "type": "bytes32"
        },
        {
          "internalType": "bytes32",
          "name": "s",
          "type": "bytes32"
        }
      ],
      "name": "depositDAIWithPermit",
      "outputs": [],
      "stateMutability": "nonpayable",
      "type": "function"
    },
    {
      "inputs": [
        {
          "internalType": "address",
          "name": "to",
          "type": "address"
        }
      ],
      "name": "depositEth",
      "outputs": [],
      "stateMutability": "payable",
      "type": "function"
    },
    {
      "inputs": [
        {
          "internalType": "address",
          "name": "to",
          "type": "address"
        },
        {
          "internalType": "uint256",
          "name": "stEthAmount",
          "type": "uint256"
        }
      ],
      "name": "depositStEth",
      "outputs": [],
      "stateMutability": "nonpayable",
      "type": "function"
    },
    {
      "inputs": [
        {
          "internalType": "address",
          "name": "to",
          "type": "address"
        },
        {
          "internalType": "uint256",
          "name": "stEthAmount",
          "type": "uint256"
        },
        {
          "internalType": "uint256",
          "name": "deadline",
          "type": "uint256"
        },
        {
          "internalType": "uint8",
          "name": "v",
          "type": "uint8"
        },
        {
          "internalType": "bytes32",
          "name": "r",
          "type": "bytes32"
        },
        {
          "internalType": "bytes32",
          "name": "s",
          "type": "bytes32"
        }
      ],
      "name": "depositStEthWithPermit",
      "outputs": [],
      "stateMutability": "nonpayable",
      "type": "function"
    },
    {
      "inputs": [
        {
          "internalType": "address",
          "name": "to",
          "type": "address"
        },
        {
          "internalType": "uint256",
          "name": "usdcAmount",
          "type": "uint256"
        }
      ],
      "name": "depositUSDC",
      "outputs": [],
      "stateMutability": "nonpayable",
      "type": "function"
    },
    {
      "inputs": [
        {
          "internalType": "address",
          "name": "to",
          "type": "address"
        },
        {
          "internalType": "uint256",
          "name": "usdcAmount",
          "type": "uint256"
        },
        {
          "internalType": "uint256",
          "name": "deadline",
          "type": "uint256"
        },
        {
          "internalType": "uint8",
          "name": "v",
          "type": "uint8"
        },
        {
          "internalType": "bytes32",
          "name": "r",
          "type": "bytes32"
        },
        {
          "internalType": "bytes32",
          "name": "s",
          "type": "bytes32"
        }
      ],
      "name": "depositUSDCWithPermit",
      "outputs": [],
      "stateMutability": "nonpayable",
      "type": "function"
    },
    {
      "inputs": [
        {
          "internalType": "address",
          "name": "to",
          "type": "address"
        },
        {
          "internalType": "uint256",
          "name": "usdtAmount",
          "type": "uint256"
        },
        {
          "internalType": "uint256",
          "name": "minDAIAmount",
          "type": "uint256"
        }
      ],
      "name": "depositUSDT",
      "outputs": [],
      "stateMutability": "nonpayable",
      "type": "function"
    },
    {
      "inputs": [
        {
          "internalType": "address",
          "name": "_owner",
          "type": "address"
        },
        {
          "internalType": "address",
          "name": "_staker",
          "type": "address"
        },
        {
          "internalType": "contract IL1StandardBridge",
          "name": "_l1standardBridge",
          "type": "address"
        }
      ],
      "name": "initialize",
      "outputs": [],
      "stateMutability": "nonpayable",
      "type": "function"
    },
    {
      "inputs": [],
      "name": "l1standardBridge",
      "outputs": [
        {
          "internalType": "contract IL1StandardBridge",
          "name": "",
          "type": "address"
        }
      ],
      "stateMutability": "view",
      "type": "function"
    },
    {
      "inputs": [],
      "name": "l2ETH",
      "outputs": [
        {
          "internalType": "address",
          "name": "",
          "type": "address"
        }
      ],
      "stateMutability": "view",
      "type": "function"
    },
    {
      "inputs": [],
      "name": "l2USD",
      "outputs": [
        {
          "internalType": "address",
          "name": "",
          "type": "address"
        }
      ],
      "stateMutability": "view",
      "type": "function"
    },
    {
      "inputs": [
        {
          "internalType": "address",
          "name": "to",
          "type": "address"
        },
        {
          "internalType": "uint256",
          "name": "amount",
          "type": "uint256"
        }
      ],
      "name": "mintEthBasedOnStakedAmount",
      "outputs": [],
      "stateMutability": "nonpayable",
      "type": "function"
    },
    {
      "inputs": [
        {
          "internalType": "address",
          "name": "to",
          "type": "address"
        },
        {
          "internalType": "uint256",
          "name": "amount",
          "type": "uint256"
        }
      ],
      "name": "mintUSDBasedOnStakedAmount",
      "outputs": [],
      "stateMutability": "nonpayable",
      "type": "function"
    },
    {
      "inputs": [],
      "name": "owner",
      "outputs": [
        {
          "internalType": "address",
          "name": "",
          "type": "address"
        }
      ],
      "stateMutability": "view",
      "type": "function"
    },
    {
      "inputs": [],
      "name": "proxiableUUID",
      "outputs": [
        {
          "internalType": "bytes32",
          "name": "",
          "type": "bytes32"
        }
      ],
      "stateMutability": "view",
      "type": "function"
    },
    {
      "inputs": [],
      "name": "renounceOwnership",
      "outputs": [],
      "stateMutability": "nonpayable",
      "type": "function"
    },
    {
      "inputs": [
        {
          "internalType": "uint256[]",
          "name": "amount",
          "type": "uint256[]"
        }
      ],
      "name": "requestLidoWithdrawal",
      "outputs": [
        {
          "internalType": "uint256[]",
          "name": "requestIds",
          "type": "uint256[]"
        }
      ],
      "stateMutability": "nonpayable",
      "type": "function"
    },
    {
      "inputs": [
        {
          "internalType": "bool",
          "name": "_autoBridge",
          "type": "bool"
        }
      ],
      "name": "setAutoBridge",
      "outputs": [],
      "stateMutability": "nonpayable",
      "type": "function"
    },
    {
      "inputs": [
        {
          "internalType": "bool",
          "name": "_autoStake",
          "type": "bool"
        }
      ],
      "name": "setAutoStake",
      "outputs": [],
      "stateMutability": "nonpayable",
      "type": "function"
    },
    {
      "inputs": [
        {
          "internalType": "contract IL1StandardBridge",
          "name": "_l1standardBridge",
          "type": "address"
        }
      ],
      "name": "setL1StandardBridge",
      "outputs": [],
      "stateMutability": "nonpayable",
      "type": "function"
    },
    {
      "inputs": [
        {
          "internalType": "address",
          "name": "_l2Eth",
          "type": "address"
        }
      ],
      "name": "setL2Eth",
      "outputs": [],
      "stateMutability": "nonpayable",
      "type": "function"
    },
    {
      "inputs": [
        {
          "internalType": "address",
          "name": "_l2USD",
          "type": "address"
        }
      ],
      "name": "setL2USD",
      "outputs": [],
      "stateMutability": "nonpayable",
      "type": "function"
    },
    {
      "inputs": [
        {
          "internalType": "address",
          "name": "_staker",
          "type": "address"
        }
      ],
      "name": "setStaker",
      "outputs": [],
      "stateMutability": "nonpayable",
      "type": "function"
    },
    {
      "inputs": [
        {
          "internalType": "uint256",
          "name": "amount",
          "type": "uint256"
        }
      ],
      "name": "stakeDAI",
      "outputs": [],
      "stateMutability": "nonpayable",
      "type": "function"
    },
    {
      "inputs": [
        {
          "internalType": "uint256",
          "name": "amount",
          "type": "uint256"
        }
      ],
      "name": "stakeETH",
      "outputs": [],
      "stateMutability": "nonpayable",
      "type": "function"
    },
    {
      "inputs": [],
      "name": "staker",
      "outputs": [
        {
          "internalType": "address",
          "name": "",
          "type": "address"
        }
      ],
      "stateMutability": "view",
      "type": "function"
    },
    {
      "inputs": [],
      "name": "totalETHBalance",
      "outputs": [
        {
          "internalType": "uint256",
          "name": "",
          "type": "uint256"
        }
      ],
      "stateMutability": "view",
      "type": "function"
    },
    {
      "inputs": [],
      "name": "totalUSDBalance",
      "outputs": [
        {
          "internalType": "uint256",
          "name": "",
          "type": "uint256"
        }
      ],
      "stateMutability": "nonpayable",
      "type": "function"
    },
    {
      "inputs": [],
      "name": "totalUSDBalanceNoUpdate",
      "outputs": [
        {
          "internalType": "uint256",
          "name": "",
          "type": "uint256"
        }
      ],
      "stateMutability": "view",
      "type": "function"
    },
    {
      "inputs": [
        {
          "internalType": "address",
          "name": "newOwner",
          "type": "address"
        }
      ],
      "name": "transferOwnership",
      "outputs": [],
      "stateMutability": "nonpayable",
      "type": "function"
    },
    {
      "inputs": [
        {
          "internalType": "address",
          "name": "newImplementation",
          "type": "address"
        },
        {
          "internalType": "bytes",
          "name": "data",
          "type": "bytes"
        }
      ],
      "name": "upgradeToAndCall",
      "outputs": [],
      "stateMutability": "payable",
      "type": "function"
    },
    {
      "inputs": [
        {
          "internalType": "address",
          "name": "to",
          "type": "address"
        },
        {
          "internalType": "uint256",
          "name": "amount",
          "type": "uint256"
        }
      ],
      "name": "withdrawEth",
      "outputs": [],
      "stateMutability": "nonpayable",
      "type": "function"
    },
    {
      "inputs": [
        {
          "internalType": "address",
          "name": "to",
          "type": "address"
        },
        {
          "internalType": "uint256",
          "name": "amount",
          "type": "uint256"
        }
      ],
      "name": "withdrawStEth",
      "outputs": [],
      "stateMutability": "nonpayable",
      "type": "function"
    },
    {
      "inputs": [
        {
          "internalType": "address",
          "name": "to",
          "type": "address"
        },
        {
          "internalType": "uint256",
          "name": "amount",
          "type": "uint256"
        }
      ],
      "name": "withdrawUSD",
      "outputs": [],
      "stateMutability": "nonpayable",
      "type": "function"
    },
    {
      "inputs": [],
      "name": "wrappedEth",
      "outputs": [
        {
          "internalType": "contract WrappedToken",
          "name": "",
          "type": "address"
        }
      ],
      "stateMutability": "view",
      "type": "function"
    },
    {
      "inputs": [],
      "name": "wrappedUSD",
      "outputs": [
        {
          "internalType": "contract WrappedToken",
          "name": "",
          "type": "address"
        }
      ],
      "stateMutability": "view",
      "type": "function"
    },
    {
      "stateMutability": "payable",
      "type": "receive"
    }
  ],
  "transactionHash": "0x1729674468a5f556cb5c6a178493de9ae2b1aae79165f993d3eebfef06762f21",
  "args": [],
  "numDeployments": 1,
  "solcInputHash": "6cde7f6378c2716e46539fff4ae0ba3f",
  "bytecode": "0x60a06040523060805234801561001457600080fd5b50608051614bee61003e600039600081816126ae015281816126d801526128250152614bee6000f3fe6080604052600436106200024c5760003560e01c8063032c36c414620002b657806303373ee514620002f057806310406a3514620003175780631a66371a146200033c5780631b9a91a414620003545780631d212c9614620003795780632bb33bbe146200039e57806335fac3b114620003c35780633ec97e1d14620003db5780634789badd14620003f35780634e1d184014620004205780634f1ef286146200044557806352d1902d146200045c578063555a23bb146200047457806356b22bf214620004995780635ebaf1db14620004be57806364aab23914620004e557806368ca883a146200050a5780636c9fb45d146200052c5780636cf510da14620005575780636ecc20da1462000579578063715018a6146200059e57806379408c4314620005b65780637d46b0af14620005ce5780638850aa4614620006025780638aba131714620006275780638da5cb5b146200064a5780638e472433146200066257806391f80f801462000687578063a29a43bb14620006a9578063a3fc73cd14620006ce578063a44098e114620006f3578063ad3cb1cc1462000715578063ad9d4ba31462000757578063b5063588146200076e578063b853c8cc1462000793578063b8d120f014620007b8578063bb7ea01914620007dd578063c057e2491462000802578063c0c53b8b1462000827578063d252ea25146200084c578063df6e69731462000863578063e02f64f21462000888578063ee62ef6c14620008ad578063f02bb2f414620008cb578063f2fde38b14620008f0578063fef2acae146200091557600080fd5b36620002b15773889edc2edab5f40e902b864ad4d7ade8e412f9b0193301620002a4576040513481527f78c2c7732c04afe7a845fba707807efa67ff5532e94fda81f42bc62a80a9f8439060200160405180910390a1005b620002af336200092d565b005b600080fd5b348015620002c357600080fd5b50600454620002d8906001600160a01b031681565b604051620002e7919062003697565b60405180910390f35b348015620002fd57600080fd5b50620003086103e881565b604051908152602001620002e7565b3480156200032457600080fd5b50620002af62000336366004620036c1565b620009bb565b3480156200034957600080fd5b506200030862000ad8565b3480156200036157600080fd5b50620002af62000373366004620036c1565b62000dca565b3480156200038657600080fd5b50620002af62000398366004620036ff565b62000efc565b348015620003ab57600080fd5b50620002af620003bd366004620036c1565b62000f71565b348015620003d057600080fd5b506200030861271081565b348015620003e857600080fd5b50620002d861dead81565b3480156200040057600080fd5b506000546200040f9060ff1681565b6040519015158152602001620002e7565b3480156200042d57600080fd5b50620002af6200043f3660046200371f565b620010d7565b620002af62000456366004620037e1565b620012c6565b3480156200046957600080fd5b5062000308620012eb565b3480156200048157600080fd5b50620002af62000493366004620036ff565b6200130b565b348015620004a657600080fd5b50620002af620004b8366004620036c1565b62001363565b348015620004cb57600080fd5b50600054620002d89061010090046001600160a01b031681565b348015620004f257600080fd5b50620002af6200050436600462003893565b620013f2565b3480156200051757600080fd5b50600354620002d8906001600160a01b031681565b3480156200053957600080fd5b5062000543600281565b604051600f9190910b8152602001620002e7565b3480156200056457600080fd5b50600554620002d8906001600160a01b031681565b3480156200058657600080fd5b50620002af6200059836600462003893565b62001431565b348015620005ab57600080fd5b50620002af6200146d565b348015620005c357600080fd5b506200030862001485565b348015620005db57600080fd5b50620005f3620005ed3660046200371f565b62001590565b604051620002e79190620038eb565b3480156200060f57600080fd5b50620002af62000621366004620036c1565b62001769565b3480156200063457600080fd5b506000546200040f90600160a81b900460ff1681565b3480156200065757600080fd5b50620002d862001846565b3480156200066f57600080fd5b50620002af6200068136600462003917565b62001863565b3480156200069457600080fd5b50600154620002d8906001600160a01b031681565b348015620006b657600080fd5b50620002af620006c836600462003976565b620018f0565b348015620006db57600080fd5b50620002af620006ed36600462003917565b6200192d565b3480156200070057600080fd5b50600254620002d8906001600160a01b031681565b3480156200072257600080fd5b5062000748604051806040016040528060058152602001640352e302e360dc1b81525081565b604051620002e79190620039ea565b620002af6200076836600462003976565b6200092d565b3480156200077b57600080fd5b50620002af6200078d366004620039ff565b620019b2565b348015620007a057600080fd5b50620002af620007b2366004620036c1565b62001a35565b348015620007c557600080fd5b50620002af620007d736600462003a37565b62001ab7565b348015620007ea57600080fd5b50620002af620007fc36600462003976565b62001b60565b3480156200080f57600080fd5b50620002af6200082136600462003976565b62001bdf565b3480156200083457600080fd5b50620002af6200084636600462003aa1565b62001c89565b3480156200085957600080fd5b5062000543600081565b3480156200087057600080fd5b50620002af62000882366004620036c1565b62001f5d565b3480156200089557600080fd5b50620002af620008a7366004620036c1565b6200207d565b348015620008ba57600080fd5b5062000308670de0b6b3a764000081565b348015620008d857600080fd5b50620002af620008ea36600462003976565b620021e0565b348015620008fd57600080fd5b50620002af6200090f36600462003976565b6200228a565b3480156200092257600080fd5b5062000308620022cc565b60006200093a3462002358565b905062000948828262002380565b60035460015462000968916001600160a01b039081169116848462002442565b336001600160a01b0316826001600160a01b03167f5e7e61836e7aac688d4f66257806e3118cc7a380422ee384512b7812e53cd1aa3484604051620009af92919062003af3565b60405180910390a35050565b60048054604051632770a7eb60e21b81526001600160a01b0390911691639dc29fac91620009ee91339186910162003b01565b600060405180830381600087803b15801562000a0957600080fd5b505af115801562000a1e573d6000803e3d6000fd5b505060405163ef693bed60e01b815273373238337bfe1146fb49989fc222523f83081ddb925063ef693bed915062000a5d908590859060040162003b01565b600060405180830381600087803b15801562000a7857600080fd5b505af115801562000a8d573d6000803e3d6000fd5b50505050816001600160a01b0316336001600160a01b03167fad3c54c4fffd720f5ea7bdf12784fb570c90a5cc66326f2e78cdd9dc3a210db08384604051620009af92919062003af3565b60008073373238337bfe1146fb49989fc222523f83081ddb6001600160a01b0316634ba2363a6040518163ffffffff1660e01b8152600401602060405180830381865afa15801562000b2e573d6000803e3d6000fd5b505050506040513d601f19601f8201168201806040525081019062000b54919062003b1a565b9050600062000cb362000c48836001600160a01b031663487bf0826040518163ffffffff1660e01b8152600401602060405180830381865afa15801562000b9f573d6000803e3d6000fd5b505050506040513d601f19601f8201168201806040525081019062000bc5919062003b3a565b846001600160a01b03166320aba08b6040518163ffffffff1660e01b8152600401602060405180830381865afa15801562000c04573d6000803e3d6000fd5b505050506040513d601f19601f8201168201806040525081019062000c2a919062003b3a565b62000c36904262003b6a565b676765c793fa10079d601b1b62002561565b836001600160a01b031663c92aecc46040518163ffffffff1660e01b8152600401602060405180830381865afa15801562000c87573d6000803e3d6000fd5b505050506040513d601f19601f8201168201806040525081019062000cad919062003b3a565b6200262c565b6040516388787f2b60e01b815290915062000d3f9073373238337bfe1146fb49989fc222523f83081ddb906388787f2b9062000cf490309060040162003697565b602060405180830381865afa15801562000d12573d6000803e3d6000fd5b505050506040513d601f19601f8201168201806040525081019062000d38919062003b3a565b826200262c565b6040516370a0823160e01b815260008051602062004b59833981519152906370a082319062000d7390309060040162003697565b602060405180830381865afa15801562000d91573d6000803e3d6000fd5b505050506040513d601f19601f8201168201806040525081019062000db7919062003b3a565b62000dc3919062003b80565b9250505090565b600354604051632770a7eb60e21b81526001600160a01b0390911690639dc29fac9062000dfe903390859060040162003b01565b600060405180830381600087803b15801562000e1957600080fd5b505af115801562000e2e573d6000803e3d6000fd5b50505050600080836001600160a01b03168360405160006040518083038185875af1925050503d806000811462000e82576040519150601f19603f3d011682016040523d82523d6000602084013e62000e87565b606091505b50915091508162000eb85780604051639a367e1760e01b815260040162000eaf9190620039ea565b60405180910390fd5b836001600160a01b0316336001600160a01b031660008051602062004b99833981519152858660405162000eee92919062003af3565b60405180910390a350505050565b60005461010090046001600160a01b0316331462000f2d57604051631e31a89f60e21b815260040160405180910390fd5b62000f388162002659565b60405181151581527fc236baa3e21fdc712591cbbebfb2930bae5f479427ab19de579ef52e28680426906020015b60405180910390a150565b62000f7b6200266c565b600354604080516318160ddd60e01b815290516000926001600160a01b0316916318160ddd9160048083019260209291908290030181865afa15801562000fc6573d6000803e3d6000fd5b505050506040513d601f19601f8201168201806040525081019062000fec919062003b3a565b62000ff6620022cc565b62001002919062003b6a565b9050818111156200102657604051633ce95f8560e11b815260040160405180910390fd5b6003546040516340c10f1960e01b81526001600160a01b03909116906340c10f19906200105a908690869060040162003b01565b600060405180830381600087803b1580156200107557600080fd5b505af11580156200108a573d6000803e3d6000fd5b50505050826001600160a01b03167fe912b71534193399d2c9c1ec0a0a5fa5f22d77907a892d10365e898978c4842783604051620010ca91815260200190565b60405180910390a2505050565b60005461010090046001600160a01b031633146200110857604051631e31a89f60e21b815260040160405180910390fd5b600073889edc2edab5f40e902b864ad4d7ade8e412f9b16001600160a01b031663526eae3e6040518163ffffffff1660e01b8152600401602060405180830381865afa1580156200115d573d6000803e3d6000fd5b505050506040513d601f19601f8201168201806040525081019062001183919062003b3a565b604051633155f1fd60e11b815290915060009073889edc2edab5f40e902b864ad4d7ade8e412f9b1906362abe3fa90620011c99087908790600190889060040162003bc9565b600060405180830381865afa158015620011e7573d6000803e3d6000fd5b505050506040513d6000823e601f3d908101601f1916820160405262001211919081019062003bf2565b60405163e3afe0a360e01b815290915073889edc2edab5f40e902b864ad4d7ade8e412f9b19063e3afe0a390620012519087908790869060040162003ca2565b600060405180830381600087803b1580156200126c57600080fd5b505af115801562001281573d6000803e3d6000fd5b505050507f7aee03fd3b4f28038c0a19aae4813d09e881d6334d568d75f13c2147621a14668484604051620012b892919062003ccc565b60405180910390a150505050565b620012d0620026a3565b620012db826200274c565b620012e7828262002756565b5050565b6000620012f76200281a565b5060008051602062004b7983398151915290565b620013156200266c565b60008054821515600160a81b0260ff60a81b199091161790556040517f215a7d64fb51bebc34020eacfcbd22580622c6148ad085a557d7b3c4b850372c9062000f6690831515815260200190565b6000620013708262002864565b90506200137e838262002b42565b6004546002546200139e916001600160a01b039081169116858462002442565b336001600160a01b0316836001600160a01b03167f67046042551d73147aa29767c53a6787176add2c91a452108118bd0fad9c78608484604051620013e592919062003af3565b60405180910390a3505050565b60005461010090046001600160a01b031633146200142357604051631e31a89f60e21b815260040160405180910390fd5b6200142e8162002bd2565b50565b60005461010090046001600160a01b031633146200146257604051631e31a89f60e21b815260040160405180910390fd5b6200142e8162002d9d565b620014776200266c565b62001483600062002e61565b565b60405163d7f7098f60e01b815260009073373238337bfe1146fb49989fc222523f83081ddb9063d7f7098f90620014c190309060040162003697565b6020604051808303816000875af1158015620014e1573d6000803e3d6000fd5b505050506040513d601f19601f8201168201806040525081019062001507919062003b3a565b6040516370a0823160e01b815260008051602062004b59833981519152906370a08231906200153b90309060040162003697565b602060405180830381865afa15801562001559573d6000803e3d6000fd5b505050506040513d601f19601f820116820180604052508101906200157f919062003b3a565b6200158b919062003b80565b905090565b60005460609061010090046001600160a01b03163314620015c457604051631e31a89f60e21b815260040160405180910390fd5b6000805b838110156200160557848482818110620015e657620015e662003cea565b9050602002013582620015fa919062003b80565b9150600101620015c8565b5060405163095ea7b360e01b815273ae7ab96520de3a18e5e111b5eaab095312d7fe849063095ea7b390620016559073889edc2edab5f40e902b864ad4d7ade8e412f9b190859060040162003b01565b6020604051808303816000875af115801562001675573d6000803e3d6000fd5b505050506040513d601f19601f820116820180604052508101906200169b919062003d00565b50604051636b34082160e11b815273889edc2edab5f40e902b864ad4d7ade8e412f9b19063d668104290620016d99087908790309060040162003d20565b6000604051808303816000875af1158015620016f9573d6000803e3d6000fd5b505050506040513d6000823e601f3d908101601f1916820160405262001723919081019062003bf2565b91507f739045819b08e6460066e1a5d4637e55804ab88b0c81458bb5472dbc589717158285856040516200175a9392919062003d4e565b60405180910390a15092915050565b6000620017768262002ebf565b6003546040516340c10f1960e01b81529192506001600160a01b0316906340c10f1990620017ab908690869060040162003b01565b600060405180830381600087803b158015620017c657600080fd5b505af1158015620017db573d6000803e3d6000fd5b5050600354600154620017ff93506001600160a01b03918216925016858462002442565b336001600160a01b0316836001600160a01b03167fbfd9907006e12fdb4699f6e85603e9892fb5757c6042047d8169c4eb1b71ed958484604051620013e592919062003af3565b6000806200185362002f6d565b546001600160a01b031692915050565b60405163d505accf60e01b815273ae7ab96520de3a18e5e111b5eaab095312d7fe849063d505accf90620018a890339030908a908a908a908a908a9060040162003d78565b600060405180830381600087803b158015620018c357600080fd5b505af1158015620018d8573d6000803e3d6000fd5b50505050620018e8868662001769565b505050505050565b620018fa6200266c565b6001600160a01b038116620019225760405163d92e233d60e01b815260040160405180910390fd5b6200142e8162002f91565b60405163d505accf60e01b815273a0b86991c6218b36c1d19d4a2e9eb0ce3606eb489063d505accf906200197290339030908a908a908a908a908a9060040162003d78565b600060405180830381600087803b1580156200198d57600080fd5b505af1158015620019a2573d6000803e3d6000fd5b50505050620018e8868662001363565b6000620019c0838362002fe3565b9050620019ce848262002b42565b600454600254620019ee916001600160a01b039081169116868462002442565b336001600160a01b0316846001600160a01b03167fba1a428b44730bdf399a9671fc82b388a7a4c5e66996f90f7ec91318763f1fd7858460405162000eee92919062003af3565b600062001a428262003399565b905062001a50838262002b42565b60045460025462001a70916001600160a01b039081169116858462002442565b336001600160a01b0316836001600160a01b03167feede33f976b77d678e192513c23c8f35e7726af75e036b9f4d7000c2c410f7268484604051620013e592919062003af3565b6040516323f2ebc360e21b815233600482015230602482015260448101869052606481018590526001608482015260ff841660a482015260c4810183905260e4810182905260008051602062004b5983398151915290638fcbaf0c9061010401600060405180830381600087803b15801562001b3257600080fd5b505af115801562001b47573d6000803e3d6000fd5b5050505062001b57878762001a35565b50505050505050565b62001b6a6200266c565b6001600160a01b03811662001b925760405163d92e233d60e01b815260040160405180910390fd5b600580546001600160a01b0319166001600160a01b0383161790556040517f6bd18dd71dbbe09ce1c748bd59a9d3578fd72f868be620e941baaf7ededc1b2c9062000f6690839062003697565b62001be96200266c565b6001600160a01b03811662001c115760405163d92e233d60e01b815260040160405180910390fd5b6001546001600160a01b03161562001c3c57604051633c89824560e11b815260040160405180910390fd5b600180546001600160a01b0319166001600160a01b0383161790556040517fef378cd64aa039f8aa85e2d1348e2d05fc857350febd6741215907a7176da26b9062000f6690839062003697565b600062001c95620033f5565b805490915060ff600160401b82041615906001600160401b031660008115801562001cbd5750825b90506000826001600160401b0316600114801562001cda5750303b155b90508115801562001ce9575080155b1562001d085760405163f92ee8a960e01b815260040160405180910390fd5b84546001600160401b0319166001178555831562001d3257845460ff60401b1916600160401b1785555b6001600160a01b038616158062001d5057506001600160a01b038816155b8062001d6357506001600160a01b038716155b1562001d825760405163d92e233d60e01b815260040160405180910390fd5b3060405162001d919062003689565b6001600160a01b0390911681526060602082018190526014908201527308ac8cecad8cae6e640aee4c2e0e0cac8408aa8960631b608082015260a060408201819052600590820152640caee8aa8960db1b60c082015260e001604051809103906000f08015801562001e07573d6000803e3d6000fd5b50600380546001600160a01b0319166001600160a01b0392909216919091179055604051309062001e389062003689565b6001600160a01b03909116815260606020820181905260149082015273115919d95b195cdcc815dc985c1c1959081554d160621b608082015260a06040820181905260059082015264195dd554d160da1b60c082015260e001604051809103906000f08015801562001eae573d6000803e3d6000fd5b50600480546001600160a01b03199081166001600160a01b0393841617909155600580549091169188169190911790556000805460ff60a81b1916815562001ef69062002659565b62001f018762002f91565b62001f0c8862003419565b831562001f5357845460ff60401b19168555604051600181527fc7f505b2f371ae2175ee4913f4499e1f2633a7b5936321eed1cdaeb6115181d29060200160405180910390a15b5050505050505050565b600354604051632770a7eb60e21b81526001600160a01b0390911690639dc29fac9062001f91903390859060040162003b01565b600060405180830381600087803b15801562001fac57600080fd5b505af115801562001fc1573d6000803e3d6000fd5b505060405163a9059cbb60e01b815273ae7ab96520de3a18e5e111b5eaab095312d7fe84925063a9059cbb915062002000908590859060040162003b01565b6020604051808303816000875af115801562002020573d6000803e3d6000fd5b505050506040513d601f19601f8201168201806040525081019062002046919062003d00565b50816001600160a01b0316336001600160a01b031660008051602062004b998339815191528384604051620009af92919062003af3565b620020876200266c565b6000600460009054906101000a90046001600160a01b03166001600160a01b03166318160ddd6040518163ffffffff1660e01b8152600401602060405180830381865afa158015620020dd573d6000803e3d6000fd5b505050506040513d601f19601f8201168201806040525081019062002103919062003b3a565b6200210d62000ad8565b62002119919062003b6a565b9050818111156200213d57604051633ce95f8560e11b815260040160405180910390fd5b600480546040516340c10f1960e01b81526001600160a01b03909116916340c10f19916200217091879187910162003b01565b600060405180830381600087803b1580156200218b57600080fd5b505af1158015620021a0573d6000803e3d6000fd5b50505050826001600160a01b03167fff4ccf245d654193481740374c71e8e4d2e48a49d4b6f2e634b3cf202139aab383604051620010ca91815260200190565b620021ea6200266c565b6001600160a01b038116620022125760405163d92e233d60e01b815260040160405180910390fd5b6002546001600160a01b0316156200223d576040516385698c8b60e01b815260040160405180910390fd5b600280546001600160a01b0319166001600160a01b0383161790556040517fbdb2fff55a25f4c33d1f97c239c9f34f0978a7fcb2e8761cf32c59c7e6a3352b9062000f6690839062003697565b620022946200266c565b6001600160a01b038116620022c1576000604051631e4fbdf760e01b815260040162000eaf919062003697565b6200142e8162002e61565b6040516370a0823160e01b815260009073ae7ab96520de3a18e5e111b5eaab095312d7fe84906370a08231906200230890309060040162003697565b602060405180830381865afa15801562002326573d6000803e3d6000fd5b505050506040513d601f19601f820116820180604052508101906200234c919062003b3a565b6200158b904762003b80565b6000816000036200237c576040516356316e8760e01b815260040160405180910390fd5b5090565b60005460ff16156200239757620023978162002d9d565b600054600160a81b900460ff16156200240e576003546040516340c10f1960e01b81526001600160a01b03909116906340c10f1990620023de903090859060040162003b01565b600060405180830381600087803b158015620023f957600080fd5b505af1158015620018e8573d6000803e3d6000fd5b6003546040516340c10f1960e01b81526001600160a01b03909116906340c10f1990620023de908590859060040162003b01565b600054600160a81b900460ff16156200255b5760055460405163095ea7b360e01b81526001600160a01b038681169263095ea7b3926200248b9290911690859060040162003b01565b6020604051808303816000875af1158015620024ab573d6000803e3d6000fd5b505050506040513d601f19601f82011682018060405250810190620024d1919062003d00565b5060055460405163041c592960e51b81526001600160a01b038681166004830152858116602483015284811660448301526064820184905260006084830181905260c060a484015260c48301529091169063838b25209060e401600060405180830381600087803b1580156200254657600080fd5b505af115801562001f53573d6000803e3d6000fd5b50505050565b60008380156200260c576001841680156200257f5785925062002583565b8392505b50600283046002850494505b841562002605578586028687820414620025a857600080fd5b81810181811015620025b957600080fd5b8590049650506001851615620025f9578583028387820414158715151615620025e157600080fd5b81810181811015620025f257600080fd5b8590049350505b6002850494506200258f565b5062002624565b8380156200261e576000925062002622565b8392505b505b509392505050565b6000676765c793fa10079d601b1b62002646838562003db9565b62002652919062003dd3565b9392505050565b6000805460ff1916911515919091179055565b336200267762001846565b6001600160a01b03161462001483573360405163118cdaa760e01b815260040162000eaf919062003697565b306001600160a01b037f00000000000000000000000000000000000000000000000000000000000000001614806200272d57507f00000000000000000000000000000000000000000000000000000000000000006001600160a01b03166200272160008051602062004b79833981519152546001600160a01b031690565b6001600160a01b031614155b15620014835760405163703e46dd60e11b815260040160405180910390fd5b6200142e6200266c565b816001600160a01b03166352d1902d6040518163ffffffff1660e01b8152600401602060405180830381865afa925050508015620027b3575060408051601f3d908101601f19168201909252620027b09181019062003b3a565b60015b620027d55781604051634c9c8ce360e01b815260040162000eaf919062003697565b60008051602062004b7983398151915281146200280957604051632a87526960e21b81526004810182905260240162000eaf565b6200281583836200342e565b505050565b306001600160a01b037f00000000000000000000000000000000000000000000000000000000000000001614620014835760405163703e46dd60e11b815260040160405180910390fd5b60008160000362002888576040516356316e8760e01b815260040160405180910390fd5b600062002895836200348b565b90506000670de0b6b3a7640000827389b78cfa322f6c5de0abceecab66aee45393cc5a6001600160a01b031663568d4b6f6040518163ffffffff1660e01b8152600401602060405180830381865afa158015620028f6573d6000803e3d6000fd5b505050506040513d601f19601f820116820180604052508101906200291c919062003b3a565b62002928919062003db9565b62002934919062003dd3565b905062002942818362003b6a565b6040516323b872dd60e01b815290935073a0b86991c6218b36c1d19d4a2e9eb0ce3606eb48906323b872dd90620029829033903090899060040162003df6565b6020604051808303816000875af1158015620029a2573d6000803e3d6000fd5b505050506040513d601f19601f82011682018060405250810190620029c8919062003d00565b5073a0b86991c6218b36c1d19d4a2e9eb0ce3606eb486001600160a01b031663095ea7b37389b78cfa322f6c5de0abceecab66aee45393cc5a6001600160a01b03166301664f666040518163ffffffff1660e01b8152600401602060405180830381865afa15801562002a3f573d6000803e3d6000fd5b505050506040513d601f19601f8201168201806040525081019062002a65919062003b1a565b866040518363ffffffff1660e01b815260040162002a8592919062003b01565b6020604051808303816000875af115801562002aa5573d6000803e3d6000fd5b505050506040513d601f19601f8201168201806040525081019062002acb919062003d00565b50604051634acc893b60e11b81527389b78cfa322f6c5de0abceecab66aee45393cc5a9063959912769062002b07903090889060040162003b01565b600060405180830381600087803b15801562002b2257600080fd5b505af115801562002b37573d6000803e3d6000fd5b505050505050919050565b60005460ff161562002b595762002b598162002bd2565b600054600160a81b900460ff161562002b9f57600480546040516340c10f1960e01b81526001600160a01b03909116916340c10f1991620023de91309186910162003b01565b600480546040516340c10f1960e01b81526001600160a01b03909116916340c10f1991620023de91869186910162003b01565b6040516370a0823160e01b815260008051602062004b59833981519152906370a082319062002c0690309060040162003697565b602060405180830381865afa15801562002c24573d6000803e3d6000fd5b505050506040513d601f19601f8201168201806040525081019062002c4a919062003b3a565b81111562002c6b5760405163356680b760e01b815260040160405180910390fd5b60405163095ea7b360e01b815260008051602062004b598339815191529063095ea7b39062002cb59073373238337bfe1146fb49989fc222523f83081ddb90859060040162003b01565b6020604051808303816000875af115801562002cd5573d6000803e3d6000fd5b505050506040513d601f19601f8201168201806040525081019062002cfb919062003d00565b50604051633b4da69f60e01b815273373238337bfe1146fb49989fc222523f83081ddb90633b4da69f9062002d37903090859060040162003b01565b600060405180830381600087803b15801562002d5257600080fd5b505af115801562002d67573d6000803e3d6000fd5b505050507f982021fc45e4a9c28ba63e98a2a2e534166e3bcb2ef32e1f120fd754cbb5c7188160405162000f6691815260200190565b4781111562002dbf5760405163356680b760e01b815260040160405180910390fd5b60405163a1903eab60e01b815273ae7ab96520de3a18e5e111b5eaab095312d7fe849063a1903eab90839062002dfb9060009060040162003697565b6000604051808303818588803b15801562002e1557600080fd5b505af115801562002e2a573d6000803e3d6000fd5b50505050507f5ac3d75f987a73cee9a456a277139319eee6559e3d027a360d2fc37ac93e74a38160405162000f6691815260200190565b600062002e6d62002f6d565b80546001600160a01b038481166001600160a01b031983168117845560405193945091169182907f8be0079c531659141344cd1fd0a4f28419497f9722a3daafe3b4186f6b6457e090600090a3505050565b60008160000362002ee3576040516356316e8760e01b815260040160405180910390fd5b6040516323b872dd60e01b815273ae7ab96520de3a18e5e111b5eaab095312d7fe84906323b872dd9062002f209033903090879060040162003df6565b6020604051808303816000875af115801562002f40573d6000803e3d6000fd5b505050506040513d601f19601f8201168201806040525081019062002f66919062003d00565b5090919050565b7f9016d09d72d40fdae2fd8ceac6b6234c7706214fd39c1cd1e609a0528c19930090565b60008054610100600160a81b0319166101006001600160a01b038416021790556040517f6901da73a3480b0bbd7deb64f259ff29a76ce811c7a3e5cf495f0e1eb4fb4dfb9062000f6690839062003697565b60008260000362003007576040516356316e8760e01b815260040160405180910390fd5b6040516370a0823160e01b815260009073dac17f958d2ee523a2206206994597c13d831ec7906370a08231906200304390309060040162003697565b602060405180830381865afa15801562003061573d6000803e3d6000fd5b505050506040513d601f19601f8201168201806040525081019062003087919062003b3a565b6040516323b872dd60e01b815290915073dac17f958d2ee523a2206206994597c13d831ec7906323b872dd90620030c79033903090899060040162003df6565b600060405180830381600087803b158015620030e257600080fd5b505af1158015620030f7573d6000803e3d6000fd5b50506040516370a0823160e01b81526000925083915073dac17f958d2ee523a2206206994597c13d831ec7906370a08231906200313990309060040162003697565b602060405180830381865afa15801562003157573d6000803e3d6000fd5b505050506040513d601f19601f820116820180604052508101906200317d919062003b3a565b62003189919062003b6a565b6040516370a0823160e01b815290915060009060008051602062004b59833981519152906370a0823190620031c390309060040162003697565b602060405180830381865afa158015620031e1573d6000803e3d6000fd5b505050506040513d601f19601f8201168201806040525081019062003207919062003b3a565b60405163095ea7b360e01b815290915073dac17f958d2ee523a2206206994597c13d831ec79063095ea7b390620032599073bebc44782c7db0a1a60cb6fe97d0b483032ff1c790869060040162003b01565b600060405180830381600087803b1580156200327457600080fd5b505af115801562003289573d6000803e3d6000fd5b5050604051630f7c084960e21b81526002600482015260006024820152604481018590526064810188905273bebc44782c7db0a1a60cb6fe97d0b483032ff1c79250633df021249150608401600060405180830381600087803b158015620032f057600080fd5b505af115801562003305573d6000803e3d6000fd5b50506040516370a0823160e01b815283925060008051602062004b5983398151915291506370a08231906200333f90309060040162003697565b602060405180830381865afa1580156200335d573d6000803e3d6000fd5b505050506040513d601f19601f8201168201806040525081019062003383919062003b3a565b6200338f919062003b6a565b9695505050505050565b600081600003620033bd576040516356316e8760e01b815260040160405180910390fd5b6040516323b872dd60e01b815260008051602062004b59833981519152906323b872dd9062002f209033903090879060040162003df6565b7ff0c57e16840df040f15088dc2f81fe391c3923bec73e23a9662efc9c229c6a0090565b62003423620034ba565b6200142e81620034e2565b6200343982620034ec565b6040516001600160a01b038316907fbc7cd75a20ee27fd9adebab32041f755214dbc6bffa90cc0225b39da2e5c2d3b90600090a280511562003481576200281582826200354c565b620012e7620035c8565b60006200349b6006601262003b6a565b620034a890600a62003f17565b620034b4908362003db9565b92915050565b620034c4620035e8565b6200148357604051631afcd79f60e31b815260040160405180910390fd5b62002294620034ba565b806001600160a01b03163b6000036200351c5780604051634c9c8ce360e01b815260040162000eaf919062003697565b60008051602062004b7983398151915280546001600160a01b0319166001600160a01b0392909216919091179055565b6060600080846001600160a01b0316846040516200356b919062003f25565b600060405180830381855af49150503d8060008114620035a8576040519150601f19603f3d011682016040523d82523d6000602084013e620035ad565b606091505b5091509150620035bf85838362003604565b95945050505050565b3415620014835760405163b398979f60e01b815260040160405180910390fd5b6000620035f4620033f5565b54600160401b900460ff16919050565b6060826200361d5762003617826200365f565b62002652565b81511580156200363557506001600160a01b0384163b155b15620036585783604051639996b31560e01b815260040162000eaf919062003697565b5092915050565b805115620036705780518082602001fd5b604051630a12f52160e11b815260040160405180910390fd5b610c158062003f4483390190565b6001600160a01b0391909116815260200190565b6001600160a01b03811681146200142e57600080fd5b60008060408385031215620036d557600080fd5b8235620036e281620036ab565b946020939093013593505050565b80151581146200142e57600080fd5b6000602082840312156200371257600080fd5b81356200265281620036f0565b600080602083850312156200373357600080fd5b82356001600160401b03808211156200374b57600080fd5b818501915085601f8301126200376057600080fd5b8135818111156200377057600080fd5b8660208260051b85010111156200378657600080fd5b60209290920196919550909350505050565b634e487b7160e01b600052604160045260246000fd5b604051601f8201601f191681016001600160401b0381118282101715620037d957620037d962003798565b604052919050565b60008060408385031215620037f557600080fd5b82356200380281620036ab565b91506020838101356001600160401b03808211156200382057600080fd5b818601915086601f8301126200383557600080fd5b8135818111156200384a576200384a62003798565b6200385e601f8201601f19168501620037ae565b915080825287848285010111156200387557600080fd5b80848401858401376000848284010152508093505050509250929050565b600060208284031215620038a657600080fd5b5035919050565b60008151808452602080850194506020840160005b83811015620038e057815187529582019590820190600101620038c2565b509495945050505050565b602081526000620026526020830184620038ad565b803560ff811681146200391257600080fd5b919050565b60008060008060008060c087890312156200393157600080fd5b86356200393e81620036ab565b955060208701359450604087013593506200395c6060880162003900565b92506080870135915060a087013590509295509295509295565b6000602082840312156200398957600080fd5b81356200265281620036ab565b60005b83811015620039b357818101518382015260200162003999565b50506000910152565b60008151808452620039d681602086016020860162003996565b601f01601f19169290920160200192915050565b602081526000620026526020830184620039bc565b60008060006060848603121562003a1557600080fd5b833562003a2281620036ab565b95602085013595506040909401359392505050565b600080600080600080600060e0888a03121562003a5357600080fd5b873562003a6081620036ab565b965060208801359550604088013594506060880135935062003a856080890162003900565b925060a0880135915060c0880135905092959891949750929550565b60008060006060848603121562003ab757600080fd5b833562003ac481620036ab565b9250602084013562003ad681620036ab565b9150604084013562003ae881620036ab565b809150509250925092565b918252602082015260400190565b6001600160a01b03929092168252602082015260400190565b60006020828403121562003b2d57600080fd5b81516200265281620036ab565b60006020828403121562003b4d57600080fd5b5051919050565b634e487b7160e01b600052601160045260246000fd5b81810381811115620034b457620034b462003b54565b80820180821115620034b457620034b462003b54565b81835260006001600160fb1b0383111562003bb057600080fd5b8260051b80836020870137939093016020019392505050565b60608152600062003bdf60608301868862003b96565b6020830194909452506040015292915050565b6000602080838503121562003c0657600080fd5b82516001600160401b038082111562003c1e57600080fd5b818501915085601f83011262003c3357600080fd5b81518181111562003c485762003c4862003798565b8060051b915062003c5b848301620037ae565b818152918301840191848101908884111562003c7657600080fd5b938501935b8385101562003c965784518252938501939085019062003c7b565b98975050505050505050565b60408152600062003cb860408301858762003b96565b82810360208401526200338f8185620038ad565b60208152600062003ce260208301848662003b96565b949350505050565b634e487b7160e01b600052603260045260246000fd5b60006020828403121562003d1357600080fd5b81516200265281620036f0565b60408152600062003d3660408301858762003b96565b905060018060a01b0383166020830152949350505050565b60408152600062003d636040830186620038ad565b82810360208401526200338f81858762003b96565b6001600160a01b0397881681529590961660208601526040850193909352606084019190915260ff16608083015260a082015260c081019190915260e00190565b8082028115828204841417620034b457620034b462003b54565b60008262003df157634e487b7160e01b600052601260045260246000fd5b500490565b6001600160a01b039384168152919092166020820152604081019190915260600190565b600181815b8085111562003e5b57816000190482111562003e3f5762003e3f62003b54565b8085161562003e4d57918102915b93841c939080029062003e1f565b509250929050565b60008262003e7457506001620034b4565b8162003e8357506000620034b4565b816001811462003e9c576002811462003ea75762003ec7565b6001915050620034b4565b60ff84111562003ebb5762003ebb62003b54565b50506001821b620034b4565b5060208310610133831016604e8410600b841016171562003eec575081810a620034b4565b62003ef8838362003e1a565b806000190482111562003f0f5762003f0f62003b54565b029392505050565b600062002652838362003e63565b6000825162003f3981846020870162003996565b919091019291505056fe60806040523480156200001157600080fd5b5060405162000c1538038062000c15833981016040819052620000349162000148565b8181600362000044838262000263565b50600462000053828262000263565b5050600580546001600160a01b0319166001600160a01b039590951694909417909355506200032f915050565b634e487b7160e01b600052604160045260246000fd5b600082601f830112620000a857600080fd5b81516001600160401b0380821115620000c557620000c562000080565b604051601f8301601f19908116603f01168101908282118183101715620000f057620000f062000080565b81604052838152602092508660208588010111156200010e57600080fd5b600091505b8382101562000132578582018301518183018401529082019062000113565b6000602085830101528094505050505092915050565b6000806000606084860312156200015e57600080fd5b83516001600160a01b03811681146200017657600080fd5b60208501519093506001600160401b03808211156200019457600080fd5b620001a28783880162000096565b93506040860151915080821115620001b957600080fd5b50620001c88682870162000096565b9150509250925092565b600181811c90821680620001e757607f821691505b6020821081036200020857634e487b7160e01b600052602260045260246000fd5b50919050565b601f8211156200025e576000816000526020600020601f850160051c81016020861015620002395750805b601f850160051c820191505b818110156200025a5782815560010162000245565b5050505b505050565b81516001600160401b038111156200027f576200027f62000080565b6200029781620002908454620001d2565b846200020e565b602080601f831160018114620002cf5760008415620002b65750858301515b600019600386901b1c1916600185901b1785556200025a565b600085815260208120601f198616915b828110156200030057888601518255948401946001909101908401620002df565b50858210156200031f5787850151600019600388901b60f8161c191681555b5050505050600190811b01905550565b6108d6806200033f6000396000f3fe608060405234801561001057600080fd5b50600436106100a45760003560e01c806306fdde03146100a957806307546172146100c7578063095ea7b3146100e757806318160ddd1461010a57806323b872dd1461011c578063313ce5671461012f57806340c10f191461013e57806370a082311461015357806395d89b411461017c5780639dc29fac14610184578063a9059cbb14610197578063dd62ed3e146101aa575b600080fd5b6100b16101bd565b6040516100be91906106ea565b60405180910390f35b6005546100da906001600160a01b031681565b6040516100be9190610739565b6100fa6100f5366004610769565b61024f565b60405190151581526020016100be565b6002545b6040519081526020016100be565b6100fa61012a366004610793565b610269565b604051601281526020016100be565b61015161014c366004610769565b61028d565b005b61010e6101613660046107cf565b6001600160a01b031660009081526020819052604090205490565b6100b1610309565b610151610192366004610769565b610318565b6100fa6101a5366004610769565b610388565b61010e6101b83660046107f1565b610396565b6060600380546101cc90610824565b80601f01602080910402602001604051908101604052809291908181526020018280546101f890610824565b80156102455780601f1061021a57610100808354040283529160200191610245565b820191906000526020600020905b81548152906001019060200180831161022857829003601f168201915b5050505050905090565b60003361025d8185856103c1565b60019150505b92915050565b6000336102778582856103d3565b61028285858561042f565b506001949350505050565b6005546001600160a01b031633146102b85760405163469d9d3360e01b815260040160405180910390fd5b6102c2828261048e565b816001600160a01b03167f0f6798a560793a54c3bcfe86a93cde1e73087d944c0ea20544137d4121396885826040516102fd91815260200190565b60405180910390a25050565b6060600480546101cc90610824565b6005546001600160a01b031633146103435760405163469d9d3360e01b815260040160405180910390fd5b61034d82826104c8565b816001600160a01b03167fcc16f5dbb4873280815c1ee09dbd06736cffcc184412cf7a71a0fdb75d397ca5826040516102fd91815260200190565b60003361025d81858561042f565b6001600160a01b03918216600090815260016020908152604080832093909416825291909152205490565b6103ce83838360016104fe565b505050565b60006103df8484610396565b90506000198114610429578181101561041a57828183604051637dc7a0d960e11b81526004016104119392919061085e565b60405180910390fd5b610429848484840360006104fe565b50505050565b6001600160a01b038316610459576000604051634b637e8f60e11b81526004016104119190610739565b6001600160a01b03821661048357600060405163ec442f0560e01b81526004016104119190610739565b6103ce8383836105d3565b6001600160a01b0382166104b857600060405163ec442f0560e01b81526004016104119190610739565b6104c4600083836105d3565b5050565b6001600160a01b0382166104f2576000604051634b637e8f60e11b81526004016104119190610739565b6104c4826000836105d3565b6001600160a01b03841661052857600060405163e602df0560e01b81526004016104119190610739565b6001600160a01b038316610552576000604051634a1406b160e11b81526004016104119190610739565b6001600160a01b038085166000908152600160209081526040808320938716835292905220829055801561042957826001600160a01b0316846001600160a01b03167f8c5be1e5ebec7d5bd14f71427d1e84f3dd0314c0f7b2291e5b200ac8c7c3b925846040516105c591815260200190565b60405180910390a350505050565b6001600160a01b0383166105fe5780600260008282546105f3919061087f565b9091555061065d9050565b6001600160a01b0383166000908152602081905260409020548181101561063e5783818360405163391434e360e21b81526004016104119392919061085e565b6001600160a01b03841660009081526020819052604090209082900390555b6001600160a01b03821661067957600280548290039055610698565b6001600160a01b03821660009081526020819052604090208054820190555b816001600160a01b0316836001600160a01b03167fddf252ad1be2c89b69c2b068fc378daa952ba7f163c4a11628f55a4df523b3ef836040516106dd91815260200190565b60405180910390a3505050565b60006020808352835180602085015260005b81811015610718578581018301518582016040015282016106fc565b506000604082860101526040601f19601f8301168501019250505092915050565b6001600160a01b0391909116815260200190565b80356001600160a01b038116811461076457600080fd5b919050565b6000806040838503121561077c57600080fd5b6107858361074d565b946020939093013593505050565b6000806000606084860312156107a857600080fd5b6107b18461074d565b92506107bf6020850161074d565b9150604084013590509250925092565b6000602082840312156107e157600080fd5b6107ea8261074d565b9392505050565b6000806040838503121561080457600080fd5b61080d8361074d565b915061081b6020840161074d565b90509250929050565b600181811c9082168061083857607f821691505b60208210810361085857634e487b7160e01b600052602260045260246000fd5b50919050565b6001600160a01b039390931683526020830191909152604082015260600190565b8082018082111561026357634e487b7160e01b600052601160045260246000fdfea26469706673582212209cd245464de079cf047395a640d3e062a8576223963ce926533888033064552864736f6c634300081700330000000000000000000000006b175474e89094c44da98b954eedeac495271d0f360894a13ba1a3210667c828492db98dca3e2076cc3735a920a3ca505d382bbc98dd409e09cadcfcca8697e6c594347ba2afdf87aa0ecb9281ce09ea76081ad1a2646970667358221220757a413cb250d168f9225f0d9f1a0827d79c213ee071f060dbc4ebd4b6a933b264736f6c63430008170033",
  "devdoc": {
    "errors": {
      "AddressEmptyCode(address)": [
        {
          "details": "There's no code at `target` (it is not a contract)."
        }
      ],
      "ERC1967InvalidImplementation(address)": [
        {
          "details": "The `implementation` of the proxy is invalid."
        }
      ],
      "ERC1967NonPayable()": [
        {
          "details": "An upgrade function sees `msg.value > 0` that may be lost."
        }
      ],
      "FailedInnerCall()": [
        {
          "details": "A call to an address target failed. The target may have reverted."
        }
      ],
      "InvalidInitialization()": [
        {
          "details": "The contract is already initialized."
        }
      ],
      "NotInitializing()": [
        {
          "details": "The contract is not initializing."
        }
      ],
      "OwnableInvalidOwner(address)": [
        {
          "details": "The owner is not a valid owner account. (eg. `address(0)`)"
        }
      ],
      "OwnableUnauthorizedAccount(address)": [
        {
          "details": "The caller account is not authorized to perform an operation."
        }
      ],
      "UUPSUnauthorizedCallContext()": [
        {
          "details": "The call is from an unauthorized context."
        }
      ],
      "UUPSUnsupportedProxiableUUID(bytes32)": [
        {
          "details": "The storage `slot` is unsupported as a UUID."
        }
      ]
    },
    "events": {
      "Initialized(uint64)": {
        "details": "Triggered when the contract has been initialized or reinitialized."
      },
      "Upgraded(address)": {
        "details": "Emitted when the implementation is upgraded."
      }
    },
    "kind": "dev",
    "methods": {
      "depositDAI(address,uint256)": {
        "params": {
          "daiAmount": "Amount to deposit in DAI (wad)",
          "to": "Address to mint wrapped tokens to"
        }
      },
      "depositDAIWithPermit(address,uint256,uint256,uint256,uint8,bytes32,bytes32)": {
        "params": {
          "daiAmount": "Amount to deposit in DAI (wad)",
          "expiry": "Permit signature expiry timestamp",
          "nonce": "Permit signature nonce",
          "r": "Permit signature r parameter",
          "s": "Permit signature s parameter",
          "v": "Permit signature v parameter"
        }
      },
      "depositEth(address)": {
        "params": {
          "to": "Address to mint wrapped tokens to"
        }
      },
      "depositStEth(address,uint256)": {
        "params": {
          "stEthAmount": "Amount to deposit in DAI (wad)",
          "to": "Address to mint wrapped tokens to"
        }
      },
      "depositStEthWithPermit(address,uint256,uint256,uint8,bytes32,bytes32)": {
        "details": "USDC is converted to DAI using Maker DssPsm",
        "params": {
          "deadline": "Permit signature deadline timestamp",
          "r": "Permit signature r parameter",
          "s": "Permit signature s parameter",
          "stEthAmount": "Amount to deposit in USDC (usd)",
          "v": "Permit signature v parameter"
        }
      },
      "depositUSDC(address,uint256)": {
        "details": "USDC is converted to DAI using Maker DssPsm",
        "params": {
          "to": "Address to mint wrapped tokens to",
          "usdcAmount": "Amount to deposit in USDC (usd)"
        }
      },
      "depositUSDCWithPermit(address,uint256,uint256,uint8,bytes32,bytes32)": {
        "details": "USDC is converted to DAI using Maker DssPsm",
        "params": {
          "deadline": "Permit signature deadline timestamp",
          "r": "Permit signature r parameter",
          "s": "Permit signature s parameter",
          "usdcAmount": "Amount to deposit in USDC (usd)",
          "v": "Permit signature v parameter"
        }
      },
      "depositUSDT(address,uint256,uint256)": {
        "details": "USDT is converted to DAI using Maker DssPsm",
        "params": {
          "minDAIAmount": "Minimum amount of DAI to receive from the PSM (slippage protection)",
          "to": "Address to mint wrapped tokens to",
          "usdtAmount": "Amount to deposit in USDT (usd)"
        }
      },
      "mintEthBasedOnStakedAmount(address,uint256)": {
        "details": "The owner can only mint up to the amount of ETH deposited + ETH staking rewards from Lido",
        "params": {
          "amount": "Amount of wrapped tokens to mint",
          "to": "Address to mint wrapped tokens to"
        }
      },
      "mintUSDBasedOnStakedAmount(address,uint256)": {
        "details": "The owner can only mint up to the amount of USD deposited + USD staking rewards from the Maker DSR",
        "params": {
          "amount": "Amount of wrapped tokens to mint",
          "to": "Address to mint wrapped tokens to"
        }
      },
      "owner()": {
        "details": "Returns the address of the current owner."
      },
      "proxiableUUID()": {
        "details": "Implementation of the ERC1822 {proxiableUUID} function. This returns the storage slot used by the implementation. It is used to validate the implementation's compatibility when performing an upgrade. IMPORTANT: A proxy pointing at a proxiable contract should not be considered proxiable itself, because this risks bricking a proxy that upgrades to it, by delegating to itself until out of gas. Thus it is critical that this function revert if invoked through a proxy. This is guaranteed by the `notDelegated` modifier."
      },
      "renounceOwnership()": {
        "details": "Leaves the contract without owner. It will not be possible to call `onlyOwner` functions. Can only be called by the current owner. NOTE: Renouncing ownership will leave the contract without an owner, thereby disabling any functionality that is only available to the owner."
      },
      "setAutoBridge(bool)": {
        "params": {
          "_autoBridge": "True to pause autobridging, false to unpause"
        }
      },
      "setL1StandardBridge(address)": {
        "params": {
          "_l1standardBridge": "Address of the L1StandardBridge contract"
        }
      },
      "setL2Eth(address)": {
        "params": {
          "_l2Eth": "Address of the L2 Wrapped Eth contract"
        }
      },
      "setL2USD(address)": {
        "params": {
          "_l2USD": "Address of the L2 Wrapped USD contract"
        }
      },
      "setStaker(address)": {
        "details": "The staker can manually stake ETH into Lido and DAI into the Maker DSR They can also toggle the autostaking of funds. We always want a bit of ETH and DAI unstaked so users can instantly withdraw funds without waiting for the lido withdrawal period.",
        "params": {
          "_staker": "Address of the new staker"
        }
      },
      "totalETHBalance()": {
        "returns": {
          "_0": "Pooled ETH balance between buffered balance and deposited Lido balance"
        }
      },
      "totalUSDBalance()": {
        "returns": {
          "_0": "Pooled USD balance between buffered balance and deposited DSR balance"
        }
      },
      "totalUSDBalanceNoUpdate()": {
        "details": "Does not update DSR yield",
        "returns": {
          "_0": "Pooled USD balance between buffered balance and deposited DSR balance"
        }
      },
      "transferOwnership(address)": {
        "details": "Transfers ownership of the contract to a new account (`newOwner`). Can only be called by the current owner."
      },
      "upgradeToAndCall(address,bytes)": {
        "custom:oz-upgrades-unsafe-allow-reachable": "delegatecall",
        "details": "Upgrade the implementation of the proxy to `newImplementation`, and subsequently execute the function call encoded in `data`. Calls {_authorizeUpgrade}. Emits an {Upgraded} event."
      },
      "withdrawEth(address,uint256)": {
        "params": {
          "amount": "Amount to withdraw",
          "to": "Address to withdraw Eth to"
        }
      },
      "withdrawStEth(address,uint256)": {
        "params": {
          "amount": "Amount to withdraw",
          "to": "Address to withdraw Eth to"
        }
      },
      "withdrawUSD(address,uint256)": {
        "params": {
          "amount": "Amount to withdraw",
          "to": "Address to withdraw dai to"
        }
      }
    },
    "title": "EdgelessDeposit",
    "version": 1
  },
  "userdoc": {
    "kind": "user",
    "methods": {
      "depositDAI(address,uint256)": {
        "notice": "Deposit DAI, mint wrapped tokens, and bridge to the Edgeless L2"
      },
      "depositDAIWithPermit(address,uint256,uint256,uint256,uint8,bytes32,bytes32)": {
        "notice": "Deposit DAI to the USD pool with a permit signature"
      },
      "depositEth(address)": {
        "notice": "Deposit ETH, mint wrapped tokens, and bridge to the Edgeless L2"
      },
      "depositStEth(address,uint256)": {
        "notice": "Deposit stEth, mint wrapped tokens, and bridge to the Edgeless L2"
      },
      "depositStEthWithPermit(address,uint256,uint256,uint8,bytes32,bytes32)": {
        "notice": "Deposit STETH with a permit signature"
      },
      "depositUSDC(address,uint256)": {
        "notice": "Deposit USDC, mint wrapped tokens, and bridge to the Edgeless L2"
      },
      "depositUSDCWithPermit(address,uint256,uint256,uint8,bytes32,bytes32)": {
        "notice": "Deposit USDC to the USD pool with a permit signature"
      },
      "depositUSDT(address,uint256,uint256)": {
        "notice": "Deposit USDT, mint wrapped tokens, and bridge to the Edgeless L2"
      },
      "mintEthBasedOnStakedAmount(address,uint256)": {
        "notice": "Mint wrapped tokens based on the amount of ETH staked"
      },
      "mintUSDBasedOnStakedAmount(address,uint256)": {
        "notice": "Mint wrapped tokens based on the amount of USD staked"
      },
      "setAutoBridge(bool)": {
        "notice": "Pause autobridging of wrapped tokens to the Edgeless L2"
      },
      "setAutoStake(bool)": {
        "notice": "Set autoStake to true so all deposits sent to this contract will be staked."
      },
      "setL1StandardBridge(address)": {
        "notice": "Set the address of the L1StandardBridge contract"
      },
      "setL2Eth(address)": {
        "notice": "Set the address of the L2 Wrapped Eth contract"
      },
      "setL2USD(address)": {
        "notice": "Set the address of the L2 Wrapped USD contract"
      },
      "setStaker(address)": {
        "notice": "Set the address of staker"
      },
      "stakeDAI(uint256)": {
        "notice": "The staker can manually stake `amount` of DAI into the Maker DSR"
      },
      "stakeETH(uint256)": {
        "notice": "The staker can manually stake `amount` of ETH into Lido"
      },
      "totalETHBalance()": {
        "notice": "Get the current ETH pool balance"
      },
      "totalUSDBalance()": {
        "notice": "Get the current USD pool balance"
      },
      "totalUSDBalanceNoUpdate()": {
        "notice": "Get the current USD pool balance"
      },
      "withdrawEth(address,uint256)": {
        "notice": "Withdraw Eth from the ETH pool"
      },
      "withdrawStEth(address,uint256)": {
        "notice": "Withdraw StEth from the ETH pool"
      },
      "withdrawUSD(address,uint256)": {
        "notice": "Withdraw dai from the stablecoin pool"
      }
    },
    "notice": "EdgelessDeposit is a contract that allows users to deposit ETH, USDC, USDT, or DAI and receive wrapped tokens in return. The wrapped tokens can be used to bridge to the Edgeless L2",
    "version": 1
  },
  "storageLayout": {
    "storage": [
      {
        "astId": 3826,
        "contract": "src/EdgelessDeposit.sol:EdgelessDeposit",
        "label": "autoStake",
        "offset": 0,
        "slot": "0",
        "type": "t_bool"
      },
      {
        "astId": 3828,
        "contract": "src/EdgelessDeposit.sol:EdgelessDeposit",
        "label": "staker",
        "offset": 1,
        "slot": "0",
        "type": "t_address"
      },
      {
        "astId": 2811,
        "contract": "src/EdgelessDeposit.sol:EdgelessDeposit",
        "label": "autoBridge",
        "offset": 21,
        "slot": "0",
        "type": "t_bool"
      },
      {
        "astId": 2813,
        "contract": "src/EdgelessDeposit.sol:EdgelessDeposit",
        "label": "l2ETH",
        "offset": 0,
        "slot": "1",
        "type": "t_address"
      },
      {
        "astId": 2815,
        "contract": "src/EdgelessDeposit.sol:EdgelessDeposit",
        "label": "l2USD",
        "offset": 0,
        "slot": "2",
        "type": "t_address"
      },
      {
        "astId": 2818,
        "contract": "src/EdgelessDeposit.sol:EdgelessDeposit",
        "label": "wrappedEth",
        "offset": 0,
        "slot": "3",
        "type": "t_contract(WrappedToken)4323"
      },
      {
        "astId": 2821,
        "contract": "src/EdgelessDeposit.sol:EdgelessDeposit",
        "label": "wrappedUSD",
        "offset": 0,
        "slot": "4",
        "type": "t_contract(WrappedToken)4323"
      },
      {
        "astId": 2824,
        "contract": "src/EdgelessDeposit.sol:EdgelessDeposit",
        "label": "l1standardBridge",
        "offset": 0,
        "slot": "5",
        "type": "t_contract(IL1StandardBridge)4754"
      }
    ],
    "types": {
      "t_address": {
        "encoding": "inplace",
        "label": "address",
        "numberOfBytes": "20"
      },
      "t_bool": {
        "encoding": "inplace",
        "label": "bool",
        "numberOfBytes": "1"
      },
      "t_contract(IL1StandardBridge)4754": {
        "encoding": "inplace",
        "label": "contract IL1StandardBridge",
        "numberOfBytes": "20"
      },
      "t_contract(WrappedToken)4323": {
        "encoding": "inplace",
        "label": "contract WrappedToken",
        "numberOfBytes": "20"
      }
    }
  }
}