{
  "address": "0x3DBa092668a8224F8F95904283c173269b845aFe",
  "abi": [
    {
      "inputs": [],
      "name": "InsufficientFunds",
      "type": "error"
    },
    {
      "inputs": [],
      "name": "InvalidInitialization",
      "type": "error"
    },
    {
      "inputs": [],
      "name": "NotInitializing",
      "type": "error"
    },
    {
      "inputs": [
        {
          "internalType": "address",
          "name": "sender",
          "type": "address"
        }
      ],
      "name": "OnlyStakingManager",
      "type": "error"
    },
    {
      "inputs": [
        {
          "internalType": "address",
          "name": "owner",
          "type": "address"
        }
      ],
      "name": "OwnableInvalidOwner",
      "type": "error"
    },
    {
      "inputs": [
        {
          "internalType": "address",
          "name": "account",
          "type": "address"
        }
      ],
      "name": "OwnableUnauthorizedAccount",
      "type": "error"
    },
    {
      "inputs": [
        {
          "internalType": "bytes",
          "name": "data",
          "type": "bytes"
        }
      ],
      "name": "TransferFailed",
      "type": "error"
    },
    {
      "anonymous": false,
      "inputs": [
        {
          "indexed": false,
          "internalType": "uint256[]",
          "name": "requestIds",
          "type": "uint256[]"
        }
      ],
      "name": "ClaimedLidoWithdrawals",
      "type": "event"
    },
    {
      "anonymous": false,
      "inputs": [
        {
          "indexed": false,
          "internalType": "uint256",
          "name": "amount",
          "type": "uint256"
        }
      ],
      "name": "EthStaked",
      "type": "event"
    },
    {
      "anonymous": false,
      "inputs": [
        {
          "indexed": false,
          "internalType": "uint256",
          "name": "amount",
          "type": "uint256"
        }
      ],
      "name": "EthWithdrawn",
      "type": "event"
    },
    {
      "anonymous": false,
      "inputs": [
        {
          "indexed": false,
          "internalType": "uint64",
          "name": "version",
          "type": "uint64"
        }
      ],
      "name": "Initialized",
      "type": "event"
    },
    {
      "anonymous": false,
      "inputs": [
        {
          "indexed": true,
          "internalType": "address",
          "name": "previousOwner",
          "type": "address"
        },
        {
          "indexed": true,
          "internalType": "address",
          "name": "newOwner",
          "type": "address"
        }
      ],
      "name": "OwnershipTransferStarted",
      "type": "event"
    },
    {
      "anonymous": false,
      "inputs": [
        {
          "indexed": true,
          "internalType": "address",
          "name": "previousOwner",
          "type": "address"
        },
        {
          "indexed": true,
          "internalType": "address",
          "name": "newOwner",
          "type": "address"
        }
      ],
      "name": "OwnershipTransferred",
      "type": "event"
    },
    {
      "anonymous": false,
      "inputs": [
        {
          "indexed": false,
          "internalType": "uint256[]",
          "name": "requestIds",
          "type": "uint256[]"
        },
        {
          "indexed": false,
          "internalType": "uint256[]",
          "name": "amount",
          "type": "uint256[]"
        }
      ],
      "name": "RequestedLidoWithdrawals",
      "type": "event"
    },
    {
      "anonymous": false,
      "inputs": [
        {
          "indexed": false,
          "internalType": "bool",
          "name": "autoStake",
          "type": "bool"
        }
      ],
      "name": "SetAutoStake",
      "type": "event"
    },
    {
      "anonymous": false,
      "inputs": [
        {
          "indexed": false,
          "internalType": "address",
          "name": "stakingManager",
          "type": "address"
        }
      ],
      "name": "SetStakingManager",
      "type": "event"
    },
    {
      "inputs": [],
      "name": "acceptOwnership",
      "outputs": [],
      "stateMutability": "nonpayable",
      "type": "function"
    },
    {
      "inputs": [],
      "name": "autoStake",
      "outputs": [
        {
          "internalType": "bool",
          "name": "",
          "type": "bool"
        }
      ],
      "stateMutability": "view",
      "type": "function"
    },
    {
      "inputs": [
        {
          "internalType": "uint256[]",
          "name": "requestIds",
          "type": "uint256[]"
        }
      ],
      "name": "claimLidoWithdrawals",
      "outputs": [],
      "stateMutability": "nonpayable",
      "type": "function"
    },
    {
      "inputs": [
        {
          "internalType": "uint256",
          "name": "amount",
          "type": "uint256"
        }
      ],
      "name": "deposit",
      "outputs": [],
      "stateMutability": "payable",
      "type": "function"
    },
    {
      "inputs": [
        {
          "internalType": "address",
          "name": "_owner",
          "type": "address"
        },
        {
          "internalType": "address",
          "name": "_stakingManager",
          "type": "address"
        }
      ],
      "name": "initialize",
      "outputs": [],
      "stateMutability": "nonpayable",
      "type": "function"
    },
    {
      "inputs": [],
      "name": "owner",
      "outputs": [
        {
          "internalType": "address",
          "name": "",
          "type": "address"
        }
      ],
      "stateMutability": "view",
      "type": "function"
    },
    {
      "inputs": [
        {
          "internalType": "uint256",
          "name": "amount",
          "type": "uint256"
        }
      ],
      "name": "ownerDeposit",
      "outputs": [],
      "stateMutability": "payable",
      "type": "function"
    },
    {
      "inputs": [
        {
          "internalType": "uint256",
          "name": "amount",
          "type": "uint256"
        }
      ],
      "name": "ownerWithdraw",
      "outputs": [
        {
          "internalType": "uint256",
          "name": "withdrawnAmount",
          "type": "uint256"
        }
      ],
      "stateMutability": "nonpayable",
      "type": "function"
    },
    {
      "inputs": [],
      "name": "pendingOwner",
      "outputs": [
        {
          "internalType": "address",
          "name": "",
          "type": "address"
        }
      ],
      "stateMutability": "view",
      "type": "function"
    },
    {
      "inputs": [],
      "name": "renounceOwnership",
      "outputs": [],
      "stateMutability": "nonpayable",
      "type": "function"
    },
    {
      "inputs": [
        {
          "internalType": "uint256[]",
          "name": "amount",
          "type": "uint256[]"
        }
      ],
      "name": "requestLidoWithdrawal",
      "outputs": [
        {
          "internalType": "uint256[]",
          "name": "requestIds",
          "type": "uint256[]"
        }
      ],
      "stateMutability": "nonpayable",
      "type": "function"
    },
    {
      "inputs": [
        {
          "internalType": "bool",
          "name": "_autoStake",
          "type": "bool"
        }
      ],
      "name": "setAutoStake",
      "outputs": [],
      "stateMutability": "nonpayable",
      "type": "function"
    },
    {
      "inputs": [
        {
          "internalType": "address",
          "name": "_stakingManager",
          "type": "address"
        }
      ],
      "name": "setStakingManager",
      "outputs": [],
      "stateMutability": "nonpayable",
      "type": "function"
    },
    {
      "inputs": [],
      "name": "stakingManager",
      "outputs": [
        {
          "internalType": "address",
          "name": "",
          "type": "address"
        }
      ],
      "stateMutability": "view",
      "type": "function"
    },
    {
      "inputs": [
        {
          "internalType": "address",
          "name": "newOwner",
          "type": "address"
        }
      ],
      "name": "transferOwnership",
      "outputs": [],
      "stateMutability": "nonpayable",
      "type": "function"
    },
    {
      "inputs": [],
      "name": "underlyingAssetAmount",
      "outputs": [
        {
          "internalType": "uint256",
          "name": "",
          "type": "uint256"
        }
      ],
      "stateMutability": "view",
      "type": "function"
    },
    {
      "inputs": [
        {
          "internalType": "uint256",
          "name": "amount",
          "type": "uint256"
        }
      ],
      "name": "withdraw",
      "outputs": [
        {
          "internalType": "uint256",
          "name": "withdrawnAmount",
          "type": "uint256"
        }
      ],
      "stateMutability": "nonpayable",
      "type": "function"
    }
  ],
  "transactionHash": "0xcdce7e07156447494208491af2c69e5a28d8b89992112577acf8eeac81ded7e7",
  "args": [],
  "numDeployments": 1,
  "solcInputHash": "bf8b7a727f3a5ac94bb63e86a91c9300",
  "bytecode": "0x608060405234801561001057600080fd5b50611245806100206000396000f3fe6080604052600436106100ce5760003560e01c8063141833dc146100d35780631d212c96146100e857806322828cc2146101085780632e1a7d4d1461013e57806333f707d11461016c5780634789badd1461018c578063485cc955146101bd5780634e1d1840146101dd578063715018a6146101fd57806379ba5097146102125780637d46b0af146102275780638da5cb5b14610254578063b00bba6a14610269578063b6b55f2514610289578063e30c39781461029c578063f2fde38b146102b1578063f48ccabd146102d1575b600080fd5b6100e66100e1366004610ddc565b6102e6565b005b3480156100f457600080fd5b506100e6610103366004610e03565b6103b7565b34801561011457600080fd5b50600054610128906001600160a01b031681565b6040516101359190610e27565b60405180910390f35b34801561014a57600080fd5b5061015e610159366004610ddc565b61040c565b604051908152602001610135565b34801561017857600080fd5b5061015e610187366004610ddc565b6104f9565b34801561019857600080fd5b506000546101ad90600160a01b900460ff1681565b6040519015158152602001610135565b3480156101c957600080fd5b506100e66101d8366004610e52565b6105a3565b3480156101e957600080fd5b506100e66101f8366004610e85565b6106be565b34801561020957600080fd5b506100e6610876565b34801561021e57600080fd5b506100e661088a565b34801561023357600080fd5b50610247610242366004610e85565b6108c9565b6040516101359190610f35565b34801561026057600080fd5b50610128610a65565b34801561027557600080fd5b506100e6610284366004610f48565b610a80565b6100e6610297366004610ddc565b610ad3565b3480156102a857600080fd5b50610128610b33565b3480156102bd57600080fd5b506100e66102cc366004610f48565b610b3e565b3480156102dd57600080fd5b5061015e610baf565b6102ee610c39565b4781111561030f5760405163356680b760e01b815260040160405180910390fd5b60405163a1903eab60e01b815273ae7ab96520de3a18e5e111b5eaab095312d7fe849063a1903eab90839061034990600090600401610e27565b6000604051808303818588803b15801561036257600080fd5b505af1158015610376573d6000803e3d6000fd5b50505050507f5ac3d75f987a73cee9a456a277139319eee6559e3d027a360d2fc37ac93e74a3816040516103ac91815260200190565b60405180910390a150565b6103bf610c39565b60008054821515600160a01b0260ff60a01b199091161790556040517fc236baa3e21fdc712591cbbebfb2930bae5f479427ab19de579ef52e28680426906103ac90831515815260200190565b600080546001600160a01b031633146104435733604051638e71c98f60e01b815260040161043a9190610e27565b60405180910390fd5b478083111561045457809150610458565b8291505b6000805460405182916001600160a01b03169085908381818185875af1925050503d80600081146104a5576040519150601f19603f3d011682016040523d82523d6000602084013e6104aa565b606091505b5091509150816104cf5780604051639a367e1760e01b815260040161043a9190610f63565b6040518481526000805160206111f08339815191529060200160405180910390a15050505b919050565b6000610503610c39565b6000805460405182916001600160a01b03169085908381818185875af1925050503d8060008114610550576040519150601f19603f3d011682016040523d82523d6000602084013e610555565b606091505b50915091508161057a5780604051639a367e1760e01b815260040161043a9190610f63565b6040518481526000805160206111f08339815191529060200160405180910390a1509192915050565b60006105ad610c6b565b805490915060ff600160401b82041615906001600160401b03166000811580156105d45750825b90506000826001600160401b031660011480156105f05750303b155b9050811580156105fe575080155b1561061c5760405163f92ee8a960e01b815260040160405180910390fd5b84546001600160401b0319166001178555831561064557845460ff60401b1916600160401b1785555b600080546001600160a81b0319166001600160a01b03881617600160a01b17905561066f87610c8f565b83156106b557845460ff60401b19168555604051600181527fc7f505b2f371ae2175ee4913f4499e1f2633a7b5936321eed1cdaeb6115181d29060200160405180910390a15b50505050505050565b6106c6610c39565b600073889edc2edab5f40e902b864ad4d7ade8e412f9b16001600160a01b031663526eae3e6040518163ffffffff1660e01b8152600401602060405180830381865afa15801561071a573d6000803e3d6000fd5b505050506040513d601f19601f8201168201806040525081019061073e9190610fb2565b604051633155f1fd60e11b815290915060009073889edc2edab5f40e902b864ad4d7ade8e412f9b1906362abe3fa9061078290879087906001908890600401610ffd565b600060405180830381865afa15801561079f573d6000803e3d6000fd5b505050506040513d6000823e601f3d908101601f191682016040526107c7919081019061103a565b60405163e3afe0a360e01b815290915073889edc2edab5f40e902b864ad4d7ade8e412f9b19063e3afe0a390610805908790879086906004016110f7565b600060405180830381600087803b15801561081f57600080fd5b505af1158015610833573d6000803e3d6000fd5b505050507f7aee03fd3b4f28038c0a19aae4813d09e881d6334d568d75f13c2147621a14668484604051610868929190611127565b60405180910390a150505050565b61087e610c39565b6108886000610ca0565b565b3380610894610b33565b6001600160a01b0316146108bd578060405163118cdaa760e01b815260040161043a9190610e27565b6108c681610ca0565b50565b60606108d3610c39565b6000805b8381101561090d578484828181106108f1576108f1611143565b90506020020135826109039190611159565b91506001016108d7565b5060405163095ea7b360e01b815273889edc2edab5f40e902b864ad4d7ade8e412f9b160048201526024810182905273ae7ab96520de3a18e5e111b5eaab095312d7fe849063095ea7b3906044016020604051808303816000875af115801561097a573d6000803e3d6000fd5b505050506040513d601f19601f8201168201806040525081019061099e9190611180565b50604051636b34082160e11b815273889edc2edab5f40e902b864ad4d7ade8e412f9b19063d6681042906109da9087908790309060040161119d565b6000604051808303816000875af11580156109f9573d6000803e3d6000fd5b505050506040513d6000823e601f3d908101601f19168201604052610a21919081019061103a565b91507f739045819b08e6460066e1a5d4637e55804ab88b0c81458bb5472dbc58971715828585604051610a56939291906111c9565b60405180910390a15092915050565b600080610a70610cc7565b546001600160a01b031692915050565b610a88610c39565b600080546001600160a01b0319166001600160a01b0383161790556040517f6ecce10fc14cb0941ba8416ce0e86d44c4b9122f214c5493e737dd16a5faeb65906103ac908390610e27565b6000546001600160a01b03163314610b005733604051638e71c98f60e01b815260040161043a9190610e27565b600054600160a01b900460ff16156108c6574781111561030f5760405163356680b760e01b815260040160405180910390fd5b600080610a70610ceb565b610b46610c39565b6000610b50610ceb565b80546001600160a01b0319166001600160a01b0384169081178255909150610b76610a65565b6001600160a01b03167f38d16b8cac22d99fc7c124b9cd0de2d3fa1faef420bfe791d8c362d765e2270060405160405180910390a35050565b6040516370a0823160e01b815260009073ae7ab96520de3a18e5e111b5eaab095312d7fe84906370a0823190610be9903090600401610e27565b602060405180830381865afa158015610c06573d6000803e3d6000fd5b505050506040513d601f19601f82011682018060405250810190610c2a9190610fb2565b610c349047611159565b905090565b33610c42610a65565b6001600160a01b031614610888573360405163118cdaa760e01b815260040161043a9190610e27565b7ff0c57e16840df040f15088dc2f81fe391c3923bec73e23a9662efc9c229c6a0090565b610c97610d0f565b6108c681610d34565b6000610caa610ceb565b80546001600160a01b03191681559050610cc382610d66565b5050565b7f9016d09d72d40fdae2fd8ceac6b6234c7706214fd39c1cd1e609a0528c19930090565b7f237e158222e3e6968b72b9db0d8043aacf074ad9f650f0d1606b4d82ee432c0090565b610d17610dc2565b61088857604051631afcd79f60e31b815260040160405180910390fd5b610d3c610d0f565b6001600160a01b0381166108bd576000604051631e4fbdf760e01b815260040161043a9190610e27565b6000610d70610cc7565b80546001600160a01b038481166001600160a01b031983168117845560405193945091169182907f8be0079c531659141344cd1fd0a4f28419497f9722a3daafe3b4186f6b6457e090600090a3505050565b6000610dcc610c6b565b54600160401b900460ff16919050565b600060208284031215610dee57600080fd5b5035919050565b80151581146108c657600080fd5b600060208284031215610e1557600080fd5b8135610e2081610df5565b9392505050565b6001600160a01b0391909116815260200190565b80356001600160a01b03811681146104f457600080fd5b60008060408385031215610e6557600080fd5b610e6e83610e3b565b9150610e7c60208401610e3b565b90509250929050565b60008060208385031215610e9857600080fd5b82356001600160401b0380821115610eaf57600080fd5b818501915085601f830112610ec357600080fd5b813581811115610ed257600080fd5b8660208260051b8501011115610ee757600080fd5b60209290920196919550909350505050565b60008151808452602080850194506020840160005b83811015610f2a57815187529582019590820190600101610f0e565b509495945050505050565b602081526000610e206020830184610ef9565b600060208284031215610f5a57600080fd5b610e2082610e3b565b60006020808352835180602085015260005b81811015610f9157858101830151858201604001528201610f75565b506000604082860101526040601f19601f8301168501019250505092915050565b600060208284031215610fc457600080fd5b5051919050565b81835260006001600160fb1b03831115610fe457600080fd5b8260051b80836020870137939093016020019392505050565b606081526000611011606083018688610fcb565b6020830194909452506040015292915050565b634e487b7160e01b600052604160045260246000fd5b6000602080838503121561104d57600080fd5b82516001600160401b038082111561106457600080fd5b818501915085601f83011261107857600080fd5b81518181111561108a5761108a611024565b8060051b604051601f19603f830116810181811085821117156110af576110af611024565b6040529182528482019250838101850191888311156110cd57600080fd5b938501935b828510156110eb578451845293850193928501926110d2565b98975050505050505050565b60408152600061110b604083018587610fcb565b828103602084015261111d8185610ef9565b9695505050505050565b60208152600061113b602083018486610fcb565b949350505050565b634e487b7160e01b600052603260045260246000fd5b8082018082111561117a57634e487b7160e01b600052601160045260246000fd5b92915050565b60006020828403121561119257600080fd5b8151610e2081610df5565b6040815260006111b1604083018587610fcb565b905060018060a01b0383166020830152949350505050565b6040815260006111dc6040830186610ef9565b828103602084015261111d818587610fcb56fe7909752b76037727fecfc6c1abb7264306fd284ff7be21e2aa09bf2fdc00579da264697066735822122013750c06b744a7e26f53c1be93dec38c54569d214e31b2c0e902c56727b2521964736f6c63430008170033",
  "devdoc": {
    "errors": {
      "InvalidInitialization()": [
        {
          "details": "The contract is already initialized."
        }
      ],
      "NotInitializing()": [
        {
          "details": "The contract is not initializing."
        }
      ],
      "OwnableInvalidOwner(address)": [
        {
          "details": "The owner is not a valid owner account. (eg. `address(0)`)"
        }
      ],
      "OwnableUnauthorizedAccount(address)": [
        {
          "details": "The caller account is not authorized to perform an operation."
        }
      ]
    },
    "events": {
      "Initialized(uint64)": {
        "details": "Triggered when the contract has been initialized or reinitialized."
      }
    },
    "kind": "dev",
    "methods": {
      "acceptOwnership()": {
        "details": "The new owner accepts the ownership transfer."
      },
      "owner()": {
        "details": "Returns the address of the current owner."
      },
      "pendingOwner()": {
        "details": "Returns the address of the pending owner."
      },
      "renounceOwnership()": {
        "details": "Leaves the contract without owner. It will not be possible to call `onlyOwner` functions. Can only be called by the current owner. NOTE: Renouncing ownership will leave the contract without an owner, thereby disabling any functionality that is only available to the owner."
      },
      "transferOwnership(address)": {
        "details": "Starts the ownership transfer of the contract to a new account. Replaces the pending transfer if there is one. Can only be called by the current owner."
      }
    },
    "version": 1
  },
  "userdoc": {
    "kind": "user",
    "methods": {
      "deposit(uint256)": {
        "notice": "--------------------------------  External Functions  --------------------------------"
      },
      "ownerDeposit(uint256)": {
        "notice": "----------------------------------  Admin Functions  ----------------------------------"
      },
      "underlyingAssetAmount()": {
        "notice": "---------------------------------  View Functions  ---------------------------------"
      }
    },
    "version": 1
  },
  "storageLayout": {
    "storage": [
      {
        "astId": 3528,
        "contract": "src/strategies/EthStrategy.sol:EthStrategy",
        "label": "stakingManager",
        "offset": 0,
        "slot": "0",
        "type": "t_address"
      },
      {
        "astId": 3530,
        "contract": "src/strategies/EthStrategy.sol:EthStrategy",
        "label": "autoStake",
        "offset": 20,
        "slot": "0",
        "type": "t_bool"
      }
    ],
    "types": {
      "t_address": {
        "encoding": "inplace",
        "label": "address",
        "numberOfBytes": "20"
      },
      "t_bool": {
        "encoding": "inplace",
        "label": "bool",
        "numberOfBytes": "1"
      }
    }
  }
}