{
  "address": "0x90Fac8a6bA861782C7D7081d8AB8013515758A9b",
  "abi": [
    {
      "inputs": [],
      "name": "InsufficientFunds",
      "type": "error"
    },
    {
      "inputs": [],
      "name": "InvalidInitialization",
      "type": "error"
    },
    {
      "inputs": [],
      "name": "NotInitializing",
      "type": "error"
    },
    {
      "inputs": [
        {
          "internalType": "address",
          "name": "sender",
          "type": "address"
        }
      ],
      "name": "OnlyStakingManager",
      "type": "error"
    },
    {
      "inputs": [
        {
          "internalType": "address",
          "name": "owner",
          "type": "address"
        }
      ],
      "name": "OwnableInvalidOwner",
      "type": "error"
    },
    {
      "inputs": [
        {
          "internalType": "address",
          "name": "account",
          "type": "address"
        }
      ],
      "name": "OwnableUnauthorizedAccount",
      "type": "error"
    },
    {
      "inputs": [
        {
          "internalType": "bytes",
          "name": "data",
          "type": "bytes"
        }
      ],
      "name": "TransferFailed",
      "type": "error"
    },
    {
      "anonymous": false,
      "inputs": [
        {
          "indexed": false,
          "internalType": "uint256[]",
          "name": "requestIds",
          "type": "uint256[]"
        }
      ],
      "name": "ClaimedLidoWithdrawals",
      "type": "event"
    },
    {
      "anonymous": false,
      "inputs": [
        {
          "indexed": false,
          "internalType": "uint256",
          "name": "amounts",
          "type": "uint256"
        }
      ],
      "name": "EthStaked",
      "type": "event"
    },
    {
      "anonymous": false,
      "inputs": [
        {
          "indexed": false,
          "internalType": "uint256",
          "name": "amounts",
          "type": "uint256"
        }
      ],
      "name": "EthWithdrawn",
      "type": "event"
    },
    {
      "anonymous": false,
      "inputs": [
        {
          "indexed": false,
          "internalType": "uint64",
          "name": "version",
          "type": "uint64"
        }
      ],
      "name": "Initialized",
      "type": "event"
    },
    {
      "anonymous": false,
      "inputs": [
        {
          "indexed": true,
          "internalType": "address",
          "name": "previousOwner",
          "type": "address"
        },
        {
          "indexed": true,
          "internalType": "address",
          "name": "newOwner",
          "type": "address"
        }
      ],
      "name": "OwnershipTransferStarted",
      "type": "event"
    },
    {
      "anonymous": false,
      "inputs": [
        {
          "indexed": true,
          "internalType": "address",
          "name": "previousOwner",
          "type": "address"
        },
        {
          "indexed": true,
          "internalType": "address",
          "name": "newOwner",
          "type": "address"
        }
      ],
      "name": "OwnershipTransferred",
      "type": "event"
    },
    {
      "anonymous": false,
      "inputs": [
        {
          "indexed": false,
          "internalType": "uint256[]",
          "name": "requestIds",
          "type": "uint256[]"
        },
        {
          "indexed": false,
          "internalType": "uint256[]",
          "name": "amounts",
          "type": "uint256[]"
        }
      ],
      "name": "RequestedLidoWithdrawals",
      "type": "event"
    },
    {
      "anonymous": false,
      "inputs": [
        {
          "indexed": false,
          "internalType": "bool",
          "name": "autoStake",
          "type": "bool"
        }
      ],
      "name": "SetAutoStake",
      "type": "event"
    },
    {
      "anonymous": false,
      "inputs": [
        {
          "indexed": false,
          "internalType": "address",
          "name": "stakingManager",
          "type": "address"
        }
      ],
      "name": "SetStakingManager",
      "type": "event"
    },
    {
      "inputs": [],
      "name": "acceptOwnership",
      "outputs": [],
      "stateMutability": "nonpayable",
      "type": "function"
    },
    {
      "inputs": [],
      "name": "autoStake",
      "outputs": [
        {
          "internalType": "bool",
          "name": "",
          "type": "bool"
        }
      ],
      "stateMutability": "view",
      "type": "function"
    },
    {
      "inputs": [
        {
          "internalType": "uint256[]",
          "name": "requestIds",
          "type": "uint256[]"
        }
      ],
      "name": "claimLidoWithdrawals",
      "outputs": [],
      "stateMutability": "nonpayable",
      "type": "function"
    },
    {
      "inputs": [
        {
          "internalType": "uint256",
          "name": "amounts",
          "type": "uint256"
        }
      ],
      "name": "deposit",
      "outputs": [],
      "stateMutability": "payable",
      "type": "function"
    },
    {
      "inputs": [
        {
          "internalType": "address",
          "name": "_owner",
          "type": "address"
        },
        {
          "internalType": "address",
          "name": "_stakingManager",
          "type": "address"
        }
      ],
      "name": "initialize",
      "outputs": [],
      "stateMutability": "nonpayable",
      "type": "function"
    },
    {
      "inputs": [],
      "name": "owner",
      "outputs": [
        {
          "internalType": "address",
          "name": "",
          "type": "address"
        }
      ],
      "stateMutability": "view",
      "type": "function"
    },
    {
      "inputs": [
        {
          "internalType": "uint256",
          "name": "amount",
          "type": "uint256"
        }
      ],
      "name": "ownerDeposit",
      "outputs": [],
      "stateMutability": "payable",
      "type": "function"
    },
    {
      "inputs": [
        {
          "internalType": "uint256",
          "name": "amount",
          "type": "uint256"
        }
      ],
      "name": "ownerWithdraw",
      "outputs": [
        {
          "internalType": "uint256",
          "name": "withdrawnAmount",
          "type": "uint256"
        }
      ],
      "stateMutability": "nonpayable",
      "type": "function"
    },
    {
      "inputs": [],
      "name": "pendingOwner",
      "outputs": [
        {
          "internalType": "address",
          "name": "",
          "type": "address"
        }
      ],
      "stateMutability": "view",
      "type": "function"
    },
    {
      "inputs": [],
      "name": "renounceOwnership",
      "outputs": [],
      "stateMutability": "nonpayable",
      "type": "function"
    },
    {
      "inputs": [
        {
          "internalType": "uint256[]",
          "name": "amounts",
          "type": "uint256[]"
        }
      ],
      "name": "requestLidoWithdrawal",
      "outputs": [
        {
          "internalType": "uint256[]",
          "name": "requestIds",
          "type": "uint256[]"
        }
      ],
      "stateMutability": "nonpayable",
      "type": "function"
    },
    {
      "inputs": [
        {
          "internalType": "bool",
          "name": "_autoStake",
          "type": "bool"
        }
      ],
      "name": "setAutoStake",
      "outputs": [],
      "stateMutability": "nonpayable",
      "type": "function"
    },
    {
      "inputs": [
        {
          "internalType": "address",
          "name": "_stakingManager",
          "type": "address"
        }
      ],
      "name": "setStakingManager",
      "outputs": [],
      "stateMutability": "nonpayable",
      "type": "function"
    },
    {
      "inputs": [],
      "name": "stakingManager",
      "outputs": [
        {
          "internalType": "address",
          "name": "",
          "type": "address"
        }
      ],
      "stateMutability": "view",
      "type": "function"
    },
    {
      "inputs": [
        {
          "internalType": "address",
          "name": "newOwner",
          "type": "address"
        }
      ],
      "name": "transferOwnership",
      "outputs": [],
      "stateMutability": "nonpayable",
      "type": "function"
    },
    {
      "inputs": [],
      "name": "underlyingAsset",
      "outputs": [
        {
          "internalType": "address",
          "name": "",
          "type": "address"
        }
      ],
      "stateMutability": "pure",
      "type": "function"
    },
    {
      "inputs": [],
      "name": "underlyingAssetAmount",
      "outputs": [
        {
          "internalType": "uint256",
          "name": "",
          "type": "uint256"
        }
      ],
      "stateMutability": "view",
      "type": "function"
    },
    {
      "inputs": [],
      "name": "underlyingAssetAmountNoUpdate",
      "outputs": [
        {
          "internalType": "uint256",
          "name": "",
          "type": "uint256"
        }
      ],
      "stateMutability": "view",
      "type": "function"
    },
    {
      "inputs": [
        {
          "internalType": "uint256",
          "name": "amounts",
          "type": "uint256"
        }
      ],
      "name": "withdraw",
      "outputs": [
        {
          "internalType": "uint256",
          "name": "withdrawnAmount",
          "type": "uint256"
        }
      ],
      "stateMutability": "nonpayable",
      "type": "function"
    }
  ],
  "transactionHash": "0x1c450e02fffc72de0818a5bef9d00831c241eb373e3216e42cfb7c862132cd15",
  "args": [],
  "numDeployments": 1,
  "solcInputHash": "404a57e9177115a388da0654e3829a4b",
  "bytecode": "0x608060405234801561001057600080fd5b506112a1806100206000396000f3fe6080604052600436106100e45760003560e01c8063141833dc146100e95780631d212c96146100fe57806322828cc21461011e5780632e1a7d4d1461015457806333f707d1146101825780634789badd146101a2578063485cc955146101d35780634e1d1840146101f35780636a4e494f14610213578063715018a6146102285780637158da7c1461023d57806379ba5097146102645780637d46b0af146102795780638da5cb5b146102a6578063b00bba6a146102bb578063b6b55f25146102db578063e30c3978146102ee578063f2fde38b14610303578063f48ccabd14610323575b600080fd5b6100fc6100f7366004610e38565b610338565b005b34801561010a57600080fd5b506100fc610119366004610e5f565b610409565b34801561012a57600080fd5b5060005461013e906001600160a01b031681565b60405161014b9190610e83565b60405180910390f35b34801561016057600080fd5b5061017461016f366004610e38565b61045e565b60405190815260200161014b565b34801561018e57600080fd5b5061017461019d366004610e38565b61054b565b3480156101ae57600080fd5b506000546101c390600160a01b900460ff1681565b604051901515815260200161014b565b3480156101df57600080fd5b506100fc6101ee366004610eae565b6105f5565b3480156101ff57600080fd5b506100fc61020e366004610ee1565b610710565b34801561021f57600080fd5b506101746108c8565b34801561023457600080fd5b506100fc610952565b34801561024957600080fd5b5073eeeeeeeeeeeeeeeeeeeeeeeeeeeeeeeeeeeeeeee61013e565b34801561027057600080fd5b506100fc610966565b34801561028557600080fd5b50610299610294366004610ee1565b6109a5565b60405161014b9190610f91565b3480156102b257600080fd5b5061013e610b41565b3480156102c757600080fd5b506100fc6102d6366004610fa4565b610b5c565b6100fc6102e9366004610e38565b610baf565b3480156102fa57600080fd5b5061013e610c0f565b34801561030f57600080fd5b506100fc61031e366004610fa4565b610c1a565b34801561032f57600080fd5b50610174610c8b565b610340610c95565b478111156103615760405163356680b760e01b815260040160405180910390fd5b60405163a1903eab60e01b815273ae7ab96520de3a18e5e111b5eaab095312d7fe849063a1903eab90839061039b90600090600401610e83565b6000604051808303818588803b1580156103b457600080fd5b505af11580156103c8573d6000803e3d6000fd5b50505050507f5ac3d75f987a73cee9a456a277139319eee6559e3d027a360d2fc37ac93e74a3816040516103fe91815260200190565b60405180910390a150565b610411610c95565b60008054821515600160a01b0260ff60a01b199091161790556040517fc236baa3e21fdc712591cbbebfb2930bae5f479427ab19de579ef52e28680426906103fe90831515815260200190565b600080546001600160a01b031633146104955733604051638e71c98f60e01b815260040161048c9190610e83565b60405180910390fd5b47808311156104a6578091506104aa565b8291505b6000805460405182916001600160a01b03169085908381818185875af1925050503d80600081146104f7576040519150601f19603f3d011682016040523d82523d6000602084013e6104fc565b606091505b5091509150816105215780604051639a367e1760e01b815260040161048c9190610fbf565b60405184815260008051602061124c8339815191529060200160405180910390a15050505b919050565b6000610555610c95565b6000805460405182916001600160a01b03169085908381818185875af1925050503d80600081146105a2576040519150601f19603f3d011682016040523d82523d6000602084013e6105a7565b606091505b5091509150816105cc5780604051639a367e1760e01b815260040161048c9190610fbf565b60405184815260008051602061124c8339815191529060200160405180910390a1509192915050565b60006105ff610cc7565b805490915060ff600160401b82041615906001600160401b03166000811580156106265750825b90506000826001600160401b031660011480156106425750303b155b905081158015610650575080155b1561066e5760405163f92ee8a960e01b815260040160405180910390fd5b84546001600160401b0319166001178555831561069757845460ff60401b1916600160401b1785555b600080546001600160a81b0319166001600160a01b03881617600160a01b1790556106c187610ceb565b831561070757845460ff60401b19168555604051600181527fc7f505b2f371ae2175ee4913f4499e1f2633a7b5936321eed1cdaeb6115181d29060200160405180910390a15b50505050505050565b610718610c95565b600073889edc2edab5f40e902b864ad4d7ade8e412f9b16001600160a01b031663526eae3e6040518163ffffffff1660e01b8152600401602060405180830381865afa15801561076c573d6000803e3d6000fd5b505050506040513d601f19601f82011682018060405250810190610790919061100e565b604051633155f1fd60e11b815290915060009073889edc2edab5f40e902b864ad4d7ade8e412f9b1906362abe3fa906107d490879087906001908890600401611059565b600060405180830381865afa1580156107f1573d6000803e3d6000fd5b505050506040513d6000823e601f3d908101601f191682016040526108199190810190611096565b60405163e3afe0a360e01b815290915073889edc2edab5f40e902b864ad4d7ade8e412f9b19063e3afe0a39061085790879087908690600401611153565b600060405180830381600087803b15801561087157600080fd5b505af1158015610885573d6000803e3d6000fd5b505050507f7aee03fd3b4f28038c0a19aae4813d09e881d6334d568d75f13c2147621a146684846040516108ba929190611183565b60405180910390a150505050565b6040516370a0823160e01b815260009073ae7ab96520de3a18e5e111b5eaab095312d7fe84906370a0823190610902903090600401610e83565b602060405180830381865afa15801561091f573d6000803e3d6000fd5b505050506040513d601f19601f82011682018060405250810190610943919061100e565b61094d904761119f565b905090565b61095a610c95565b6109646000610cfc565b565b3380610970610c0f565b6001600160a01b031614610999578060405163118cdaa760e01b815260040161048c9190610e83565b6109a281610cfc565b50565b60606109af610c95565b6000805b838110156109e9578484828181106109cd576109cd6111c6565b90506020020135826109df919061119f565b91506001016109b3565b5060405163095ea7b360e01b815273889edc2edab5f40e902b864ad4d7ade8e412f9b160048201526024810182905273ae7ab96520de3a18e5e111b5eaab095312d7fe849063095ea7b3906044016020604051808303816000875af1158015610a56573d6000803e3d6000fd5b505050506040513d601f19601f82011682018060405250810190610a7a91906111dc565b50604051636b34082160e11b815273889edc2edab5f40e902b864ad4d7ade8e412f9b19063d668104290610ab6908790879030906004016111f9565b6000604051808303816000875af1158015610ad5573d6000803e3d6000fd5b505050506040513d6000823e601f3d908101601f19168201604052610afd9190810190611096565b91507f739045819b08e6460066e1a5d4637e55804ab88b0c81458bb5472dbc58971715828585604051610b3293929190611225565b60405180910390a15092915050565b600080610b4c610d23565b546001600160a01b031692915050565b610b64610c95565b600080546001600160a01b0319166001600160a01b0383161790556040517f6ecce10fc14cb0941ba8416ce0e86d44c4b9122f214c5493e737dd16a5faeb65906103fe908390610e83565b6000546001600160a01b03163314610bdc5733604051638e71c98f60e01b815260040161048c9190610e83565b600054600160a01b900460ff16156109a257478111156103615760405163356680b760e01b815260040160405180910390fd5b600080610b4c610d47565b610c22610c95565b6000610c2c610d47565b80546001600160a01b0319166001600160a01b0384169081178255909150610c52610b41565b6001600160a01b03167f38d16b8cac22d99fc7c124b9cd0de2d3fa1faef420bfe791d8c362d765e2270060405160405180910390a35050565b600061094d6108c8565b33610c9e610b41565b6001600160a01b031614610964573360405163118cdaa760e01b815260040161048c9190610e83565b7ff0c57e16840df040f15088dc2f81fe391c3923bec73e23a9662efc9c229c6a0090565b610cf3610d6b565b6109a281610d90565b6000610d06610d47565b80546001600160a01b03191681559050610d1f82610dc2565b5050565b7f9016d09d72d40fdae2fd8ceac6b6234c7706214fd39c1cd1e609a0528c19930090565b7f237e158222e3e6968b72b9db0d8043aacf074ad9f650f0d1606b4d82ee432c0090565b610d73610e1e565b61096457604051631afcd79f60e31b815260040160405180910390fd5b610d98610d6b565b6001600160a01b038116610999576000604051631e4fbdf760e01b815260040161048c9190610e83565b6000610dcc610d23565b80546001600160a01b038481166001600160a01b031983168117845560405193945091169182907f8be0079c531659141344cd1fd0a4f28419497f9722a3daafe3b4186f6b6457e090600090a3505050565b6000610e28610cc7565b54600160401b900460ff16919050565b600060208284031215610e4a57600080fd5b5035919050565b80151581146109a257600080fd5b600060208284031215610e7157600080fd5b8135610e7c81610e51565b9392505050565b6001600160a01b0391909116815260200190565b80356001600160a01b038116811461054657600080fd5b60008060408385031215610ec157600080fd5b610eca83610e97565b9150610ed860208401610e97565b90509250929050565b60008060208385031215610ef457600080fd5b82356001600160401b0380821115610f0b57600080fd5b818501915085601f830112610f1f57600080fd5b813581811115610f2e57600080fd5b8660208260051b8501011115610f4357600080fd5b60209290920196919550909350505050565b60008151808452602080850194506020840160005b83811015610f8657815187529582019590820190600101610f6a565b509495945050505050565b602081526000610e7c6020830184610f55565b600060208284031215610fb657600080fd5b610e7c82610e97565b60006020808352835180602085015260005b81811015610fed57858101830151858201604001528201610fd1565b506000604082860101526040601f19601f8301168501019250505092915050565b60006020828403121561102057600080fd5b5051919050565b81835260006001600160fb1b0383111561104057600080fd5b8260051b80836020870137939093016020019392505050565b60608152600061106d606083018688611027565b6020830194909452506040015292915050565b634e487b7160e01b600052604160045260246000fd5b600060208083850312156110a957600080fd5b82516001600160401b03808211156110c057600080fd5b818501915085601f8301126110d457600080fd5b8151818111156110e6576110e6611080565b8060051b604051601f19603f8301168101818110858211171561110b5761110b611080565b60405291825284820192508381018501918883111561112957600080fd5b938501935b828510156111475784518452938501939285019261112e565b98975050505050505050565b604081526000611167604083018587611027565b82810360208401526111798185610f55565b9695505050505050565b602081526000611197602083018486611027565b949350505050565b808201808211156111c057634e487b7160e01b600052601160045260246000fd5b92915050565b634e487b7160e01b600052603260045260246000fd5b6000602082840312156111ee57600080fd5b8151610e7c81610e51565b60408152600061120d604083018587611027565b905060018060a01b0383166020830152949350505050565b6040815260006112386040830186610f55565b828103602084015261117981858761102756fe7909752b76037727fecfc6c1abb7264306fd284ff7be21e2aa09bf2fdc00579da2646970667358221220d5f1f460c0801edfd051456aa5ccae8c5dfb1a42c9cc5f06d605ec4c0eba359664736f6c63430008170033",
  "devdoc": {
    "errors": {
      "InvalidInitialization()": [
        {
          "details": "The contract is already initialized."
        }
      ],
      "NotInitializing()": [
        {
          "details": "The contract is not initializing."
        }
      ],
      "OwnableInvalidOwner(address)": [
        {
          "details": "The owner is not a valid owner account. (eg. `address(0)`)"
        }
      ],
      "OwnableUnauthorizedAccount(address)": [
        {
          "details": "The caller account is not authorized to perform an operation."
        }
      ]
    },
    "events": {
      "Initialized(uint64)": {
        "details": "Triggered when the contract has been initialized or reinitialized."
      }
    },
    "kind": "dev",
    "methods": {
      "acceptOwnership()": {
        "details": "The new owner accepts the ownership transfer."
      },
      "owner()": {
        "details": "Returns the address of the current owner."
      },
      "pendingOwner()": {
        "details": "Returns the address of the pending owner."
      },
      "renounceOwnership()": {
        "details": "Leaves the contract without owner. It will not be possible to call `onlyOwner` functions. Can only be called by the current owner. NOTE: Renouncing ownership will leave the contract without an owner, thereby disabling any functionality that is only available to the owner."
      },
      "transferOwnership(address)": {
        "details": "Starts the ownership transfer of the contract to a new account. Replaces the pending transfer if there is one. Can only be called by the current owner."
      }
    },
    "version": 1
  },
  "userdoc": {
    "kind": "user",
    "methods": {
      "deposit(uint256)": {
        "notice": "--------------------------------  External Functions  --------------------------------"
      },
      "ownerDeposit(uint256)": {
        "notice": "----------------------------------  Admin Functions  ----------------------------------"
      },
      "underlyingAsset()": {
        "notice": "---------------------------------  View Functions  ---------------------------------"
      }
    },
    "version": 1
  },
  "storageLayout": {
    "storage": [
      {
        "astId": 5965,
        "contract": "src/strategies/EthStrategy.sol:EthStrategy",
        "label": "stakingManager",
        "offset": 0,
        "slot": "0",
        "type": "t_address"
      },
      {
        "astId": 5967,
        "contract": "src/strategies/EthStrategy.sol:EthStrategy",
        "label": "autoStake",
        "offset": 20,
        "slot": "0",
        "type": "t_bool"
      }
    ],
    "types": {
      "t_address": {
        "encoding": "inplace",
        "label": "address",
        "numberOfBytes": "20"
      },
      "t_bool": {
        "encoding": "inplace",
        "label": "bool",
        "numberOfBytes": "1"
      }
    }
  }
}