{
  "address": "0x13BA53055147D5060B9dE3F03eCe6b55a1B87efF",
  "abi": [
    {
      "inputs": [],
      "name": "InsufficientFunds",
      "type": "error"
    },
    {
      "inputs": [],
      "name": "InvalidInitialization",
      "type": "error"
    },
    {
      "inputs": [],
      "name": "NotInitializing",
      "type": "error"
    },
    {
      "inputs": [
        {
          "internalType": "address",
          "name": "sender",
          "type": "address"
        }
      ],
      "name": "OnlyStakingManager",
      "type": "error"
    },
    {
      "inputs": [
        {
          "internalType": "address",
          "name": "owner",
          "type": "address"
        }
      ],
      "name": "OwnableInvalidOwner",
      "type": "error"
    },
    {
      "inputs": [
        {
          "internalType": "address",
          "name": "account",
          "type": "address"
        }
      ],
      "name": "OwnableUnauthorizedAccount",
      "type": "error"
    },
    {
      "inputs": [],
      "name": "RequestIdsMustBeSorted",
      "type": "error"
    },
    {
      "inputs": [
        {
          "internalType": "bytes",
          "name": "data",
          "type": "bytes"
        }
      ],
      "name": "TransferFailed",
      "type": "error"
    },
    {
      "anonymous": false,
      "inputs": [
        {
          "indexed": false,
          "internalType": "uint256[]",
          "name": "requestIds",
          "type": "uint256[]"
        }
      ],
      "name": "ClaimedLidoWithdrawals",
      "type": "event"
    },
    {
      "anonymous": false,
      "inputs": [
        {
          "indexed": false,
          "internalType": "uint256",
          "name": "amount",
          "type": "uint256"
        }
      ],
      "name": "EthStaked",
      "type": "event"
    },
    {
      "anonymous": false,
      "inputs": [
        {
          "indexed": false,
          "internalType": "uint256",
          "name": "amount",
          "type": "uint256"
        }
      ],
      "name": "EthWithdrawn",
      "type": "event"
    },
    {
      "anonymous": false,
      "inputs": [
        {
          "indexed": false,
          "internalType": "uint64",
          "name": "version",
          "type": "uint64"
        }
      ],
      "name": "Initialized",
      "type": "event"
    },
    {
      "anonymous": false,
      "inputs": [
        {
          "indexed": true,
          "internalType": "address",
          "name": "previousOwner",
          "type": "address"
        },
        {
          "indexed": true,
          "internalType": "address",
          "name": "newOwner",
          "type": "address"
        }
      ],
      "name": "OwnershipTransferStarted",
      "type": "event"
    },
    {
      "anonymous": false,
      "inputs": [
        {
          "indexed": true,
          "internalType": "address",
          "name": "previousOwner",
          "type": "address"
        },
        {
          "indexed": true,
          "internalType": "address",
          "name": "newOwner",
          "type": "address"
        }
      ],
      "name": "OwnershipTransferred",
      "type": "event"
    },
    {
      "anonymous": false,
      "inputs": [
        {
          "indexed": false,
          "internalType": "uint256[]",
          "name": "requestIds",
          "type": "uint256[]"
        },
        {
          "indexed": false,
          "internalType": "uint256[]",
          "name": "amounts",
          "type": "uint256[]"
        }
      ],
      "name": "RequestedLidoWithdrawals",
      "type": "event"
    },
    {
      "anonymous": false,
      "inputs": [
        {
          "indexed": false,
          "internalType": "bool",
          "name": "autoStake",
          "type": "bool"
        }
      ],
      "name": "SetAutoStake",
      "type": "event"
    },
    {
      "anonymous": false,
      "inputs": [
        {
          "indexed": false,
          "internalType": "address",
          "name": "stakingManager",
          "type": "address"
        }
      ],
      "name": "SetStakingManager",
      "type": "event"
    },
    {
      "inputs": [],
      "name": "acceptOwnership",
      "outputs": [],
      "stateMutability": "nonpayable",
      "type": "function"
    },
    {
      "inputs": [],
      "name": "autoStake",
      "outputs": [
        {
          "internalType": "bool",
          "name": "",
          "type": "bool"
        }
      ],
      "stateMutability": "view",
      "type": "function"
    },
    {
      "inputs": [
        {
          "internalType": "uint256[]",
          "name": "requestIds",
          "type": "uint256[]"
        }
      ],
      "name": "claimLidoWithdrawals",
      "outputs": [],
      "stateMutability": "nonpayable",
      "type": "function"
    },
    {
      "inputs": [
        {
          "internalType": "uint256",
          "name": "amount",
          "type": "uint256"
        }
      ],
      "name": "deposit",
      "outputs": [],
      "stateMutability": "payable",
      "type": "function"
    },
    {
      "inputs": [
        {
          "internalType": "address",
          "name": "_owner",
          "type": "address"
        },
        {
          "internalType": "address",
          "name": "_stakingManager",
          "type": "address"
        }
      ],
      "name": "initialize",
      "outputs": [],
      "stateMutability": "nonpayable",
      "type": "function"
    },
    {
      "inputs": [],
      "name": "owner",
      "outputs": [
        {
          "internalType": "address",
          "name": "",
          "type": "address"
        }
      ],
      "stateMutability": "view",
      "type": "function"
    },
    {
      "inputs": [
        {
          "internalType": "uint256",
          "name": "amount",
          "type": "uint256"
        }
      ],
      "name": "ownerDeposit",
      "outputs": [],
      "stateMutability": "payable",
      "type": "function"
    },
    {
      "inputs": [
        {
          "internalType": "uint256",
          "name": "amount",
          "type": "uint256"
        }
      ],
      "name": "ownerWithdraw",
      "outputs": [
        {
          "internalType": "uint256",
          "name": "withdrawnAmount",
          "type": "uint256"
        }
      ],
      "stateMutability": "nonpayable",
      "type": "function"
    },
    {
      "inputs": [],
      "name": "pendingOwner",
      "outputs": [
        {
          "internalType": "address",
          "name": "",
          "type": "address"
        }
      ],
      "stateMutability": "view",
      "type": "function"
    },
    {
      "inputs": [],
      "name": "renounceOwnership",
      "outputs": [],
      "stateMutability": "nonpayable",
      "type": "function"
    },
    {
      "inputs": [
        {
          "internalType": "uint256[]",
          "name": "amounts",
          "type": "uint256[]"
        }
      ],
      "name": "requestLidoWithdrawal",
      "outputs": [
        {
          "internalType": "uint256[]",
          "name": "requestIds",
          "type": "uint256[]"
        }
      ],
      "stateMutability": "nonpayable",
      "type": "function"
    },
    {
      "inputs": [
        {
          "internalType": "bool",
          "name": "_autoStake",
          "type": "bool"
        }
      ],
      "name": "setAutoStake",
      "outputs": [],
      "stateMutability": "nonpayable",
      "type": "function"
    },
    {
      "inputs": [
        {
          "internalType": "address",
          "name": "_stakingManager",
          "type": "address"
        }
      ],
      "name": "setStakingManager",
      "outputs": [],
      "stateMutability": "nonpayable",
      "type": "function"
    },
    {
      "inputs": [],
      "name": "stakingManager",
      "outputs": [
        {
          "internalType": "address",
          "name": "",
          "type": "address"
        }
      ],
      "stateMutability": "view",
      "type": "function"
    },
    {
      "inputs": [
        {
          "internalType": "address",
          "name": "newOwner",
          "type": "address"
        }
      ],
      "name": "transferOwnership",
      "outputs": [],
      "stateMutability": "nonpayable",
      "type": "function"
    },
    {
      "inputs": [],
      "name": "underlyingAssetAmount",
      "outputs": [
        {
          "internalType": "uint256",
          "name": "",
          "type": "uint256"
        }
      ],
      "stateMutability": "view",
      "type": "function"
    },
    {
      "inputs": [
        {
          "internalType": "uint256",
          "name": "amount",
          "type": "uint256"
        }
      ],
      "name": "withdraw",
      "outputs": [
        {
          "internalType": "uint256",
          "name": "withdrawnAmount",
          "type": "uint256"
        }
      ],
      "stateMutability": "nonpayable",
      "type": "function"
    },
    {
      "stateMutability": "payable",
      "type": "receive"
    }
  ],
  "transactionHash": "0x3e5bf97e09294686c679ddf46575567caa0ff9d09223f4598d4b01c9baeafeec",
  "args": [],
  "numDeployments": 1,
  "solcInputHash": "863611cf67f114d731aac8faef38e4b0",
  "bytecode": "0x608060405234801561001057600080fd5b506112e4806100206000396000f3fe6080604052600436106100d25760003560e01c8063141833dc146100de5780631d212c96146100f357806322828cc2146101135780632e1a7d4d1461014957806333f707d1146101775780634789badd14610197578063485cc955146101c85780634e1d1840146101e8578063715018a61461020857806379ba50971461021d5780637d46b0af146102325780638da5cb5b1461025f578063b00bba6a14610274578063b6b55f2514610294578063e30c3978146102a7578063f2fde38b146102bc578063f48ccabd146102dc57600080fd5b366100d957005b600080fd5b6100f16100ec366004610e60565b6102f1565b005b3480156100ff57600080fd5b506100f161010e366004610e87565b6103c2565b34801561011f57600080fd5b50600054610133906001600160a01b031681565b6040516101409190610eab565b60405180910390f35b34801561015557600080fd5b50610169610164366004610e60565b610417565b604051908152602001610140565b34801561018357600080fd5b50610169610192366004610e60565b610504565b3480156101a357600080fd5b506000546101b890600160a01b900460ff1681565b6040519015158152602001610140565b3480156101d457600080fd5b506100f16101e3366004610ed6565b6105ae565b3480156101f457600080fd5b506100f1610203366004610f09565b6106c9565b34801561021457600080fd5b506100f16108fa565b34801561022957600080fd5b506100f161090e565b34801561023e57600080fd5b5061025261024d366004610f09565b61094d565b6040516101409190610fb9565b34801561026b57600080fd5b50610133610ae9565b34801561028057600080fd5b506100f161028f366004610fcc565b610b04565b6100f16102a2366004610e60565b610b57565b3480156102b357600080fd5b50610133610bb7565b3480156102c857600080fd5b506100f16102d7366004610fcc565b610bc2565b3480156102e857600080fd5b50610169610c33565b6102f9610cbd565b4781111561031a5760405163356680b760e01b815260040160405180910390fd5b60405163a1903eab60e01b8152733e3fe7dbc6b4c189e7128855dd526361c49b40af9063a1903eab90839061035490600090600401610eab565b6000604051808303818588803b15801561036d57600080fd5b505af1158015610381573d6000803e3d6000fd5b50505050507f5ac3d75f987a73cee9a456a277139319eee6559e3d027a360d2fc37ac93e74a3816040516103b791815260200190565b60405180910390a150565b6103ca610cbd565b60008054821515600160a01b0260ff60a01b199091161790556040517fc236baa3e21fdc712591cbbebfb2930bae5f479427ab19de579ef52e28680426906103b790831515815260200190565b600080546001600160a01b0316331461044e5733604051638e71c98f60e01b81526004016104459190610eab565b60405180910390fd5b478083111561045f57809150610463565b8291505b6000805460405182916001600160a01b03169085908381818185875af1925050503d80600081146104b0576040519150601f19603f3d011682016040523d82523d6000602084013e6104b5565b606091505b5091509150816104da5780604051639a367e1760e01b81526004016104459190610fe7565b60405184815260008051602061128f8339815191529060200160405180910390a15050505b919050565b600061050e610cbd565b6000805460405182916001600160a01b03169085908381818185875af1925050503d806000811461055b576040519150601f19603f3d011682016040523d82523d6000602084013e610560565b606091505b5091509150816105855780604051639a367e1760e01b81526004016104459190610fe7565b60405184815260008051602061128f8339815191529060200160405180910390a1509192915050565b60006105b8610cef565b805490915060ff600160401b82041615906001600160401b03166000811580156105df5750825b90506000826001600160401b031660011480156105fb5750303b155b905081158015610609575080155b156106275760405163f92ee8a960e01b815260040160405180910390fd5b84546001600160401b0319166001178555831561065057845460ff60401b1916600160401b1785555b600080546001600160a81b0319166001600160a01b03881617600160a01b17905561067a87610d13565b83156106c057845460ff60401b19168555604051600181527fc7f505b2f371ae2175ee4913f4499e1f2633a7b5936321eed1cdaeb6115181d29060200160405180910390a15b50505050505050565b6106d1610cbd565b60005b6106df60018361104c565b8110156107495782826106f3836001611065565b81811061070257610702611078565b9050602002013583838381811061071b5761071b611078565b90506020020135111561074157604051631bdad5d960e11b815260040160405180910390fd5b6001016106d4565b506000731583c7b3f4c3b008720e6bce5726336b0ab25fdd6001600160a01b031663526eae3e6040518163ffffffff1660e01b8152600401602060405180830381865afa15801561079e573d6000803e3d6000fd5b505050506040513d601f19601f820116820180604052508101906107c2919061108e565b604051633155f1fd60e11b8152909150600090731583c7b3f4c3b008720e6bce5726336b0ab25fdd906362abe3fa90610806908790879060019088906004016110d9565b600060405180830381865afa158015610823573d6000803e3d6000fd5b505050506040513d6000823e601f3d908101601f1916820160405261084b9190810190611116565b60405163e3afe0a360e01b8152909150731583c7b3f4c3b008720e6bce5726336b0ab25fdd9063e3afe0a390610889908790879086906004016111d3565b600060405180830381600087803b1580156108a357600080fd5b505af11580156108b7573d6000803e3d6000fd5b505050507f7aee03fd3b4f28038c0a19aae4813d09e881d6334d568d75f13c2147621a146684846040516108ec929190611203565b60405180910390a150505050565b610902610cbd565b61090c6000610d24565b565b3380610918610bb7565b6001600160a01b031614610941578060405163118cdaa760e01b81526004016104459190610eab565b61094a81610d24565b50565b6060610957610cbd565b6000805b838110156109915784848281811061097557610975611078565b90506020020135826109879190611065565b915060010161095b565b5060405163095ea7b360e01b8152731583c7b3f4c3b008720e6bce5726336b0ab25fdd600482015260248101829052733e3fe7dbc6b4c189e7128855dd526361c49b40af9063095ea7b3906044016020604051808303816000875af11580156109fe573d6000803e3d6000fd5b505050506040513d601f19601f82011682018060405250810190610a22919061121f565b50604051636b34082160e11b8152731583c7b3f4c3b008720e6bce5726336b0ab25fdd9063d668104290610a5e9087908790309060040161123c565b6000604051808303816000875af1158015610a7d573d6000803e3d6000fd5b505050506040513d6000823e601f3d908101601f19168201604052610aa59190810190611116565b91507f739045819b08e6460066e1a5d4637e55804ab88b0c81458bb5472dbc58971715828585604051610ada93929190611268565b60405180910390a15092915050565b600080610af4610d4b565b546001600160a01b031692915050565b610b0c610cbd565b600080546001600160a01b0319166001600160a01b0383161790556040517f6ecce10fc14cb0941ba8416ce0e86d44c4b9122f214c5493e737dd16a5faeb65906103b7908390610eab565b6000546001600160a01b03163314610b845733604051638e71c98f60e01b81526004016104459190610eab565b600054600160a01b900460ff161561094a574781111561031a5760405163356680b760e01b815260040160405180910390fd5b600080610af4610d6f565b610bca610cbd565b6000610bd4610d6f565b80546001600160a01b0319166001600160a01b0384169081178255909150610bfa610ae9565b6001600160a01b03167f38d16b8cac22d99fc7c124b9cd0de2d3fa1faef420bfe791d8c362d765e2270060405160405180910390a35050565b6040516370a0823160e01b8152600090733e3fe7dbc6b4c189e7128855dd526361c49b40af906370a0823190610c6d903090600401610eab565b602060405180830381865afa158015610c8a573d6000803e3d6000fd5b505050506040513d601f19601f82011682018060405250810190610cae919061108e565b610cb89047611065565b905090565b33610cc6610ae9565b6001600160a01b03161461090c573360405163118cdaa760e01b81526004016104459190610eab565b7ff0c57e16840df040f15088dc2f81fe391c3923bec73e23a9662efc9c229c6a0090565b610d1b610d93565b61094a81610db8565b6000610d2e610d6f565b80546001600160a01b03191681559050610d4782610dea565b5050565b7f9016d09d72d40fdae2fd8ceac6b6234c7706214fd39c1cd1e609a0528c19930090565b7f237e158222e3e6968b72b9db0d8043aacf074ad9f650f0d1606b4d82ee432c0090565b610d9b610e46565b61090c57604051631afcd79f60e31b815260040160405180910390fd5b610dc0610d93565b6001600160a01b038116610941576000604051631e4fbdf760e01b81526004016104459190610eab565b6000610df4610d4b565b80546001600160a01b038481166001600160a01b031983168117845560405193945091169182907f8be0079c531659141344cd1fd0a4f28419497f9722a3daafe3b4186f6b6457e090600090a3505050565b6000610e50610cef565b54600160401b900460ff16919050565b600060208284031215610e7257600080fd5b5035919050565b801515811461094a57600080fd5b600060208284031215610e9957600080fd5b8135610ea481610e79565b9392505050565b6001600160a01b0391909116815260200190565b80356001600160a01b03811681146104ff57600080fd5b60008060408385031215610ee957600080fd5b610ef283610ebf565b9150610f0060208401610ebf565b90509250929050565b60008060208385031215610f1c57600080fd5b82356001600160401b0380821115610f3357600080fd5b818501915085601f830112610f4757600080fd5b813581811115610f5657600080fd5b8660208260051b8501011115610f6b57600080fd5b60209290920196919550909350505050565b60008151808452602080850194506020840160005b83811015610fae57815187529582019590820190600101610f92565b509495945050505050565b602081526000610ea46020830184610f7d565b600060208284031215610fde57600080fd5b610ea482610ebf565b60006020808352835180602085015260005b8181101561101557858101830151858201604001528201610ff9565b506000604082860101526040601f19601f8301168501019250505092915050565b634e487b7160e01b600052601160045260246000fd5b8181038181111561105f5761105f611036565b92915050565b8082018082111561105f5761105f611036565b634e487b7160e01b600052603260045260246000fd5b6000602082840312156110a057600080fd5b5051919050565b81835260006001600160fb1b038311156110c057600080fd5b8260051b80836020870137939093016020019392505050565b6060815260006110ed6060830186886110a7565b6020830194909452506040015292915050565b634e487b7160e01b600052604160045260246000fd5b6000602080838503121561112957600080fd5b82516001600160401b038082111561114057600080fd5b818501915085601f83011261115457600080fd5b81518181111561116657611166611100565b8060051b604051601f19603f8301168101818110858211171561118b5761118b611100565b6040529182528482019250838101850191888311156111a957600080fd5b938501935b828510156111c7578451845293850193928501926111ae565b98975050505050505050565b6040815260006111e76040830185876110a7565b82810360208401526111f98185610f7d565b9695505050505050565b6020815260006112176020830184866110a7565b949350505050565b60006020828403121561123157600080fd5b8151610ea481610e79565b6040815260006112506040830185876110a7565b905060018060a01b0383166020830152949350505050565b60408152600061127b6040830186610f7d565b82810360208401526111f98185876110a756fe7909752b76037727fecfc6c1abb7264306fd284ff7be21e2aa09bf2fdc00579da2646970667358221220c3ae8e957fc39a6bd2ead0690bea70bda6b0280edf3996e10020e51daf75793864736f6c63430008170033",
  "devdoc": {
    "errors": {
      "InvalidInitialization()": [
        {
          "details": "The contract is already initialized."
        }
      ],
      "NotInitializing()": [
        {
          "details": "The contract is not initializing."
        }
      ],
      "OwnableInvalidOwner(address)": [
        {
          "details": "The owner is not a valid owner account. (eg. `address(0)`)"
        }
      ],
      "OwnableUnauthorizedAccount(address)": [
        {
          "details": "The caller account is not authorized to perform an operation."
        }
      ]
    },
    "events": {
      "Initialized(uint64)": {
        "details": "Triggered when the contract has been initialized or reinitialized."
      }
    },
    "kind": "dev",
    "methods": {
      "acceptOwnership()": {
        "details": "The new owner accepts the ownership transfer."
      },
      "owner()": {
        "details": "Returns the address of the current owner."
      },
      "pendingOwner()": {
        "details": "Returns the address of the pending owner."
      },
      "renounceOwnership()": {
        "details": "Leaves the contract without owner. It will not be possible to call `onlyOwner` functions. Can only be called by the current owner. NOTE: Renouncing ownership will leave the contract without an owner, thereby disabling any functionality that is only available to the owner."
      },
      "transferOwnership(address)": {
        "details": "Starts the ownership transfer of the contract to a new account. Replaces the pending transfer if there is one. Can only be called by the current owner."
      }
    },
    "version": 1
  },
  "userdoc": {
    "kind": "user",
    "methods": {
      "deposit(uint256)": {
        "notice": "--------------------------------  External Functions  --------------------------------"
      },
      "ownerDeposit(uint256)": {
        "notice": "----------------------------------  Admin Functions  ----------------------------------"
      },
      "underlyingAssetAmount()": {
        "notice": "---------------------------------  View Functions  ---------------------------------"
      }
    },
    "version": 1
  },
  "storageLayout": {
    "storage": [
      {
        "astId": 3252,
        "contract": "src/strategies/EthStrategy.sol:EthStrategy",
        "label": "stakingManager",
        "offset": 0,
        "slot": "0",
        "type": "t_address"
      },
      {
        "astId": 3254,
        "contract": "src/strategies/EthStrategy.sol:EthStrategy",
        "label": "autoStake",
        "offset": 20,
        "slot": "0",
        "type": "t_bool"
      },
      {
        "astId": 3258,
        "contract": "src/strategies/EthStrategy.sol:EthStrategy",
        "label": "__gap",
        "offset": 0,
        "slot": "1",
        "type": "t_array(t_uint256)50_storage"
      }
    ],
    "types": {
      "t_address": {
        "encoding": "inplace",
        "label": "address",
        "numberOfBytes": "20"
      },
      "t_array(t_uint256)50_storage": {
        "base": "t_uint256",
        "encoding": "inplace",
        "label": "uint256[50]",
        "numberOfBytes": "1600"
      },
      "t_bool": {
        "encoding": "inplace",
        "label": "bool",
        "numberOfBytes": "1"
      },
      "t_uint256": {
        "encoding": "inplace",
        "label": "uint256",
        "numberOfBytes": "32"
      }
    }
  }
}