{
  "address": "0x5C342987023b568c60B543d56Cf025AFd6cdB30f",
  "abi": [
    {
      "inputs": [],
      "name": "InvalidInitialization",
      "type": "error"
    },
    {
      "inputs": [],
      "name": "NotInitializing",
      "type": "error"
    },
    {
      "inputs": [
        {
          "internalType": "address",
          "name": "sender",
          "type": "address"
        }
      ],
      "name": "OnlyStaker",
      "type": "error"
    },
    {
      "inputs": [
        {
          "internalType": "address",
          "name": "owner",
          "type": "address"
        }
      ],
      "name": "OwnableInvalidOwner",
      "type": "error"
    },
    {
      "inputs": [
        {
          "internalType": "address",
          "name": "account",
          "type": "address"
        }
      ],
      "name": "OwnableUnauthorizedAccount",
      "type": "error"
    },
    {
      "inputs": [
        {
          "internalType": "bytes",
          "name": "data",
          "type": "bytes"
        }
      ],
      "name": "TransferFailed",
      "type": "error"
    },
    {
      "anonymous": false,
      "inputs": [
        {
          "indexed": true,
          "internalType": "address",
          "name": "asset",
          "type": "address"
        },
        {
          "indexed": true,
          "internalType": "contract IStakingStrategy",
          "name": "strategy",
          "type": "address"
        }
      ],
      "name": "AddStrategy",
      "type": "event"
    },
    {
      "anonymous": false,
      "inputs": [
        {
          "indexed": false,
          "internalType": "uint64",
          "name": "version",
          "type": "uint64"
        }
      ],
      "name": "Initialized",
      "type": "event"
    },
    {
      "anonymous": false,
      "inputs": [
        {
          "indexed": true,
          "internalType": "address",
          "name": "previousOwner",
          "type": "address"
        },
        {
          "indexed": true,
          "internalType": "address",
          "name": "newOwner",
          "type": "address"
        }
      ],
      "name": "OwnershipTransferStarted",
      "type": "event"
    },
    {
      "anonymous": false,
      "inputs": [
        {
          "indexed": true,
          "internalType": "address",
          "name": "previousOwner",
          "type": "address"
        },
        {
          "indexed": true,
          "internalType": "address",
          "name": "newOwner",
          "type": "address"
        }
      ],
      "name": "OwnershipTransferred",
      "type": "event"
    },
    {
      "anonymous": false,
      "inputs": [
        {
          "indexed": true,
          "internalType": "address",
          "name": "asset",
          "type": "address"
        },
        {
          "indexed": true,
          "internalType": "contract IStakingStrategy",
          "name": "strategy",
          "type": "address"
        },
        {
          "indexed": false,
          "internalType": "uint256",
          "name": "withdrawnAmount",
          "type": "uint256"
        }
      ],
      "name": "RemoveStrategy",
      "type": "event"
    },
    {
      "anonymous": false,
      "inputs": [
        {
          "indexed": true,
          "internalType": "address",
          "name": "asset",
          "type": "address"
        },
        {
          "indexed": false,
          "internalType": "uint256",
          "name": "index",
          "type": "uint256"
        }
      ],
      "name": "SetActiveStrategy",
      "type": "event"
    },
    {
      "anonymous": false,
      "inputs": [
        {
          "indexed": false,
          "internalType": "bool",
          "name": "autoStake",
          "type": "bool"
        }
      ],
      "name": "SetAutoStake",
      "type": "event"
    },
    {
      "anonymous": false,
      "inputs": [
        {
          "indexed": false,
          "internalType": "address",
          "name": "staker",
          "type": "address"
        }
      ],
      "name": "SetStaker",
      "type": "event"
    },
    {
      "anonymous": false,
      "inputs": [
        {
          "indexed": true,
          "internalType": "address",
          "name": "asset",
          "type": "address"
        },
        {
          "indexed": false,
          "internalType": "uint256",
          "name": "amount",
          "type": "uint256"
        }
      ],
      "name": "Stake",
      "type": "event"
    },
    {
      "anonymous": false,
      "inputs": [
        {
          "indexed": true,
          "internalType": "address",
          "name": "asset",
          "type": "address"
        },
        {
          "indexed": false,
          "internalType": "uint256",
          "name": "amount",
          "type": "uint256"
        }
      ],
      "name": "Withdraw",
      "type": "event"
    },
    {
      "inputs": [],
      "name": "ETH_ADDRESS",
      "outputs": [
        {
          "internalType": "address",
          "name": "",
          "type": "address"
        }
      ],
      "stateMutability": "view",
      "type": "function"
    },
    {
      "inputs": [],
      "name": "acceptOwnership",
      "outputs": [],
      "stateMutability": "nonpayable",
      "type": "function"
    },
    {
      "inputs": [
        {
          "internalType": "address",
          "name": "",
          "type": "address"
        }
      ],
      "name": "activeStrategyIndex",
      "outputs": [
        {
          "internalType": "uint256",
          "name": "",
          "type": "uint256"
        }
      ],
      "stateMutability": "view",
      "type": "function"
    },
    {
      "inputs": [
        {
          "internalType": "address",
          "name": "asset",
          "type": "address"
        },
        {
          "internalType": "contract IStakingStrategy",
          "name": "strategy",
          "type": "address"
        }
      ],
      "name": "addStrategy",
      "outputs": [],
      "stateMutability": "nonpayable",
      "type": "function"
    },
    {
      "inputs": [],
      "name": "autoStake",
      "outputs": [
        {
          "internalType": "bool",
          "name": "",
          "type": "bool"
        }
      ],
      "stateMutability": "view",
      "type": "function"
    },
    {
      "inputs": [],
      "name": "depositor",
      "outputs": [
        {
          "internalType": "address",
          "name": "",
          "type": "address"
        }
      ],
      "stateMutability": "view",
      "type": "function"
    },
    {
      "inputs": [
        {
          "internalType": "address",
          "name": "asset",
          "type": "address"
        }
      ],
      "name": "getActiveStrategy",
      "outputs": [
        {
          "internalType": "contract IStakingStrategy",
          "name": "",
          "type": "address"
        }
      ],
      "stateMutability": "view",
      "type": "function"
    },
    {
      "inputs": [
        {
          "internalType": "address",
          "name": "asset",
          "type": "address"
        }
      ],
      "name": "getAssetTotal",
      "outputs": [
        {
          "internalType": "uint256",
          "name": "total",
          "type": "uint256"
        }
      ],
      "stateMutability": "view",
      "type": "function"
    },
    {
      "inputs": [
        {
          "internalType": "address",
          "name": "_owner",
          "type": "address"
        }
      ],
      "name": "initialize",
      "outputs": [],
      "stateMutability": "nonpayable",
      "type": "function"
    },
    {
      "inputs": [],
      "name": "owner",
      "outputs": [
        {
          "internalType": "address",
          "name": "",
          "type": "address"
        }
      ],
      "stateMutability": "view",
      "type": "function"
    },
    {
      "inputs": [],
      "name": "pendingOwner",
      "outputs": [
        {
          "internalType": "address",
          "name": "",
          "type": "address"
        }
      ],
      "stateMutability": "view",
      "type": "function"
    },
    {
      "inputs": [
        {
          "internalType": "address",
          "name": "asset",
          "type": "address"
        },
        {
          "internalType": "uint256",
          "name": "index",
          "type": "uint256"
        }
      ],
      "name": "removeStrategy",
      "outputs": [],
      "stateMutability": "nonpayable",
      "type": "function"
    },
    {
      "inputs": [],
      "name": "renounceOwnership",
      "outputs": [],
      "stateMutability": "nonpayable",
      "type": "function"
    },
    {
      "inputs": [
        {
          "internalType": "address",
          "name": "asset",
          "type": "address"
        },
        {
          "internalType": "uint256",
          "name": "index",
          "type": "uint256"
        }
      ],
      "name": "setActiveStrategy",
      "outputs": [],
      "stateMutability": "nonpayable",
      "type": "function"
    },
    {
      "inputs": [
        {
          "internalType": "bool",
          "name": "_autoStake",
          "type": "bool"
        }
      ],
      "name": "setAutoStake",
      "outputs": [],
      "stateMutability": "nonpayable",
      "type": "function"
    },
    {
      "inputs": [
        {
          "internalType": "address",
          "name": "_staker",
          "type": "address"
        }
      ],
      "name": "setStaker",
      "outputs": [],
      "stateMutability": "nonpayable",
      "type": "function"
    },
    {
      "inputs": [
        {
          "internalType": "address",
          "name": "asset",
          "type": "address"
        },
        {
          "internalType": "uint256",
          "name": "amount",
          "type": "uint256"
        }
      ],
      "name": "stake",
      "outputs": [],
      "stateMutability": "payable",
      "type": "function"
    },
    {
      "inputs": [],
      "name": "staker",
      "outputs": [
        {
          "internalType": "address",
          "name": "",
          "type": "address"
        }
      ],
      "stateMutability": "view",
      "type": "function"
    },
    {
      "inputs": [
        {
          "internalType": "address",
          "name": "",
          "type": "address"
        },
        {
          "internalType": "uint256",
          "name": "",
          "type": "uint256"
        }
      ],
      "name": "strategies",
      "outputs": [
        {
          "internalType": "contract IStakingStrategy",
          "name": "",
          "type": "address"
        }
      ],
      "stateMutability": "view",
      "type": "function"
    },
    {
      "inputs": [
        {
          "internalType": "address",
          "name": "newOwner",
          "type": "address"
        }
      ],
      "name": "transferOwnership",
      "outputs": [],
      "stateMutability": "nonpayable",
      "type": "function"
    },
    {
      "inputs": [
        {
          "internalType": "uint256",
          "name": "amount",
          "type": "uint256"
        }
      ],
      "name": "withdraw",
      "outputs": [],
      "stateMutability": "nonpayable",
      "type": "function"
    },
    {
      "stateMutability": "payable",
      "type": "receive"
    }
  ],
  "transactionHash": "0xe4b5607fc96ee0ee08da74ca3cb2f7f29df5c4dfaf5893be4e8f959c26df739a",
  "args": [],
  "numDeployments": 1,
  "solcInputHash": "863611cf67f114d731aac8faef38e4b0",
  "bytecode": "0x608060405234801561001057600080fd5b5061117e806100206000396000f3fe6080604052600436106100fe5760003560e01c806310cc25d71461010a578063124a38d81461014a57806318066943146101775780631d212c96146101995780631e18086e146101b95780632e1a7d4d146101d95780634789badd146101f95780635ebaf1db1461022a578063715018a61461024a57806379ba50971461025f5780638da5cb5b146102745780639f8f324414610289578063a29a43bb146102a9578063a734f06e146102c9578063adc9772e146102f1578063b241908314610304578063c4d66de814610324578063c7c4ff4614610344578063e30c397814610364578063ea682eeb14610379578063f2fde38b1461039957600080fd5b3661010557005b600080fd5b34801561011657600080fd5b50610137610125366004610f9a565b60016020526000908152604090205481565b6040519081526020015b60405180910390f35b34801561015657600080fd5b5061016a610165366004610f9a565b6103b9565b6040516101419190610fbe565b34801561018357600080fd5b50610197610192366004610fd2565b610405565b005b3480156101a557600080fd5b506101976101b436600461100b565b610475565b3480156101c557600080fd5b506101976101d436600461102d565b6104d5565b3480156101e557600080fd5b506101976101f4366004611059565b610536565b34801561020557600080fd5b5060035461021a90600160a01b900460ff1681565b6040519015158152602001610141565b34801561023657600080fd5b5060025461016a906001600160a01b031681565b34801561025657600080fd5b50610197610578565b34801561026b57600080fd5b5061019761058c565b34801561028057600080fd5b5061016a6105c8565b34801561029557600080fd5b5061016a6102a436600461102d565b6105e3565b3480156102b557600080fd5b506101976102c4366004610f9a565b61061b565b3480156102d557600080fd5b5061016a73eeeeeeeeeeeeeeeeeeeeeeeeeeeeeeeeeeeeeeee81565b6101976102ff36600461102d565b61066e565b34801561031057600080fd5b5061013761031f366004610f9a565b6106df565b34801561033057600080fd5b5061019761033f366004610f9a565b6107bd565b34801561035057600080fd5b5060035461016a906001600160a01b031681565b34801561037057600080fd5b5061016a6108b6565b34801561038557600080fd5b5061019761039436600461102d565b6108c1565b3480156103a557600080fd5b506101976103b4366004610f9a565b610b6e565b6001600160a01b0381166000908152602081815260408083206001909252822054815481106103ea576103ea611072565b6000918252602090912001546001600160a01b031692915050565b61040d610bdf565b6001600160a01b03828116600081815260208181526040808320805460018101825590845291832090910180546001600160a01b0319169486169485179055517ff5356ea32b86d53c1386eda4d869e6027a0a1d4edebb9c2f778d9f8559d236aa9190a35050565b61047d610bdf565b60038054821515600160a01b0260ff60a01b199091161790556040517fc236baa3e21fdc712591cbbebfb2930bae5f479427ab19de579ef52e28680426906104ca90831515815260200190565b60405180910390a150565b6104dd610bdf565b6001600160a01b03821660008181526001602052604090819020839055517ff0703abfcce99547a9dfd5745a76d9d98e149d7a1e1682bdcba8e517ca3311a19061052a9084815260200190565b60405180910390a25050565b6002546001600160a01b0316331461056c5733604051631f18623160e21b81526004016105639190610fbe565b60405180910390fd5b61057581610c11565b50565b610580610bdf565b61058a6000610d92565b565b33806105966108b6565b6001600160a01b0316146105bf578060405163118cdaa760e01b81526004016105639190610fbe565b61057581610d92565b6000806105d3610db9565b546001600160a01b031692915050565b600060205281600052604060002081815481106105ff57600080fd5b6000918252602090912001546001600160a01b03169150829050565b610623610bdf565b600280546001600160a01b0319166001600160a01b0383161790556040517f6901da73a3480b0bbd7deb64f259ff29a76ce811c7a3e5cf495f0e1eb4fb4dfb906104ca908390610fbe565b6002546001600160a01b0316331461069b5733604051631f18623160e21b81526004016105639190610fbe565b6106a434610ddd565b816001600160a01b03167febedb8b3c678666e7f36970bc8f57abf6d8fa2e828c0da91ea5b75bf68ed101a8260405161052a91815260200190565b6000805b6001600160a01b0383166000908152602081905260409020548110156107b7576001600160a01b038316600090815260208190526040812080548390811061072d5761072d611072565b600091825260209182902001546040805163f48ccabd60e01b815290516001600160a01b039092169350839263f48ccabd926004808401938290030181865afa15801561077e573d6000803e3d6000fd5b505050506040513d601f19601f820116820180604052508101906107a29190611088565b6107ac90846110b7565b9250506001016106e3565b50919050565b60006107c7610e5f565b805490915060ff600160401b82041615906001600160401b03166000811580156107ee5750825b90506000826001600160401b0316600114801561080a5750303b155b905081158015610818575080155b156108365760405163f92ee8a960e01b815260040160405180910390fd5b84546001600160401b0319166001178555831561085f57845460ff60401b1916600160401b1785555b61086886610e83565b83156108ae57845460ff60401b19168555604051600181527fc7f505b2f371ae2175ee4913f4499e1f2633a7b5936321eed1cdaeb6115181d29060200160405180910390a15b505050505050565b6000806105d3610e94565b6108c9610bdf565b6001600160a01b03821660009081526020819052604081208054839081106108f3576108f3611072565b9060005260206000200160009054906101000a90046001600160a01b031690506000816001600160a01b0316632e1a7d4d836001600160a01b031663f48ccabd6040518163ffffffff1660e01b8152600401602060405180830381865afa158015610962573d6000803e3d6000fd5b505050506040513d601f19601f820116820180604052508101906109869190611088565b6040518263ffffffff1660e01b81526004016109a491815260200190565b6020604051808303816000875af11580156109c3573d6000803e3d6000fd5b505050506040513d601f19601f820116820180604052508101906109e79190611088565b6001600160a01b03851660009081526020819052604081205491925090610a10906001906110d0565b6001600160a01b038616600090815260208190526040902080549192509082908110610a3e57610a3e611072565b60009182526020808320909101546001600160a01b038881168452918390526040909220805491909216919086908110610a7a57610a7a611072565b600091825260208083209190910180546001600160a01b0319166001600160a01b0394851617905591871681529081905260409020805480610abe57610abe6110e3565b60008281526020808220830160001990810180546001600160a01b03191690559092019092556001600160a01b0387168252600190526040902054849003610b1a576001600160a01b0385166000908152600160205260408120555b826001600160a01b0316856001600160a01b03167fc11b81149ee1579e4f558be47e79ebdefb8b0882f833687661c60ea700f2f79c84604051610b5f91815260200190565b60405180910390a35050505050565b610b76610bdf565b6000610b80610e94565b80546001600160a01b0319166001600160a01b0384169081178255909150610ba66105c8565b6001600160a01b03167f38d16b8cac22d99fc7c124b9cd0de2d3fa1faef420bfe791d8c362d765e2270060405160405180910390a35050565b33610be86105c8565b6001600160a01b03161461058a573360405163118cdaa760e01b81526004016105639190610fbe565b6000610c3073eeeeeeeeeeeeeeeeeeeeeeeeeeeeeeeeeeeeeeee6103b9565b905060006001600160a01b03821615610cb557604051632e1a7d4d60e01b8152600481018490526001600160a01b03831690632e1a7d4d906024016020604051808303816000875af1158015610c8a573d6000803e3d6000fd5b505050506040513d601f19601f82011682018060405250810190610cae9190611088565b9050610cc7565b478311610cc25782610cc4565b475b90505b60025460405160009182916001600160a01b039091169084908381818185875af1925050503d8060008114610d18576040519150601f19603f3d011682016040523d82523d6000602084013e610d1d565b606091505b509150915081610d425780604051639a367e1760e01b815260040161056391906110f9565b60405185815273eeeeeeeeeeeeeeeeeeeeeeeeeeeeeeeeeeeeeeee907f884edad9ce6fa2440d8a54cc123490eb96d2768479d49ff9c7366125a94243649060200160405180910390a25050505050565b6000610d9c610e94565b80546001600160a01b03191681559050610db582610eb8565b5050565b7f9016d09d72d40fdae2fd8ceac6b6234c7706214fd39c1cd1e609a0528c19930090565b6000610dfc73eeeeeeeeeeeeeeeeeeeeeeeeeeeeeeeeeeeeeeee6103b9565b60405163b6b55f2560e01b8152600481018490529091506001600160a01b0382169063b6b55f259084906024016000604051808303818588803b158015610e4257600080fd5b505af1158015610e56573d6000803e3d6000fd5b50505050505050565b7ff0c57e16840df040f15088dc2f81fe391c3923bec73e23a9662efc9c229c6a0090565b610e8b610f14565b61057581610f39565b7f237e158222e3e6968b72b9db0d8043aacf074ad9f650f0d1606b4d82ee432c0090565b6000610ec2610db9565b80546001600160a01b038481166001600160a01b031983168117845560405193945091169182907f8be0079c531659141344cd1fd0a4f28419497f9722a3daafe3b4186f6b6457e090600090a3505050565b610f1c610f6b565b61058a57604051631afcd79f60e31b815260040160405180910390fd5b610f41610f14565b6001600160a01b0381166105bf576000604051631e4fbdf760e01b81526004016105639190610fbe565b6000610f75610e5f565b54600160401b900460ff16919050565b6001600160a01b038116811461057557600080fd5b600060208284031215610fac57600080fd5b8135610fb781610f85565b9392505050565b6001600160a01b0391909116815260200190565b60008060408385031215610fe557600080fd5b8235610ff081610f85565b9150602083013561100081610f85565b809150509250929050565b60006020828403121561101d57600080fd5b81358015158114610fb757600080fd5b6000806040838503121561104057600080fd5b823561104b81610f85565b946020939093013593505050565b60006020828403121561106b57600080fd5b5035919050565b634e487b7160e01b600052603260045260246000fd5b60006020828403121561109a57600080fd5b5051919050565b634e487b7160e01b600052601160045260246000fd5b808201808211156110ca576110ca6110a1565b92915050565b818103818111156110ca576110ca6110a1565b634e487b7160e01b600052603160045260246000fd5b60006020808352835180602085015260005b818110156111275785810183015185820160400152820161110b565b506000604082860101526040601f19601f830116850101925050509291505056fea2646970667358221220b7e01a760d9a1c62b290402d09acb9008cb41484dc96e1fb9ebb6be316ec9b2064736f6c63430008170033",
  "devdoc": {
    "errors": {
      "InvalidInitialization()": [
        {
          "details": "The contract is already initialized."
        }
      ],
      "NotInitializing()": [
        {
          "details": "The contract is not initializing."
        }
      ],
      "OwnableInvalidOwner(address)": [
        {
          "details": "The owner is not a valid owner account. (eg. `address(0)`)"
        }
      ],
      "OwnableUnauthorizedAccount(address)": [
        {
          "details": "The caller account is not authorized to perform an operation."
        }
      ]
    },
    "events": {
      "Initialized(uint64)": {
        "details": "Triggered when the contract has been initialized or reinitialized."
      }
    },
    "kind": "dev",
    "methods": {
      "acceptOwnership()": {
        "details": "The new owner accepts the ownership transfer."
      },
      "owner()": {
        "details": "Returns the address of the current owner."
      },
      "pendingOwner()": {
        "details": "Returns the address of the pending owner."
      },
      "renounceOwnership()": {
        "details": "Leaves the contract without owner. It will not be possible to call `onlyOwner` functions. Can only be called by the current owner. NOTE: Renouncing ownership will leave the contract without an owner, thereby disabling any functionality that is only available to the owner."
      },
      "transferOwnership(address)": {
        "details": "Starts the ownership transfer of the contract to a new account. Replaces the pending transfer if there is one. Can only be called by the current owner."
      }
    },
    "version": 1
  },
  "userdoc": {
    "kind": "user",
    "methods": {
      "getActiveStrategy(address)": {
        "notice": "---------------------------------  View Functions  ---------------------------------"
      },
      "setStaker(address)": {
        "notice": "----------------------------------  Admin Functions  ----------------------------------"
      },
      "stake(address,uint256)": {
        "notice": "--------------------------------  Staker Functions  --------------------------------"
      }
    },
    "notice": "The purpose of this contract is solely to take in assets and send them to strategies. Upon withdrawal, all assets go to the depositor. The depositor needs to be set after deployment",
    "version": 1
  },
  "storageLayout": {
    "storage": [
      {
        "astId": 2521,
        "contract": "src/StakingManager.sol:StakingManager",
        "label": "strategies",
        "offset": 0,
        "slot": "0",
        "type": "t_mapping(t_address,t_array(t_contract(IStakingStrategy)3159)dyn_storage)"
      },
      {
        "astId": 2525,
        "contract": "src/StakingManager.sol:StakingManager",
        "label": "activeStrategyIndex",
        "offset": 0,
        "slot": "1",
        "type": "t_mapping(t_address,t_uint256)"
      },
      {
        "astId": 2527,
        "contract": "src/StakingManager.sol:StakingManager",
        "label": "staker",
        "offset": 0,
        "slot": "2",
        "type": "t_address"
      },
      {
        "astId": 2529,
        "contract": "src/StakingManager.sol:StakingManager",
        "label": "depositor",
        "offset": 0,
        "slot": "3",
        "type": "t_address"
      },
      {
        "astId": 2531,
        "contract": "src/StakingManager.sol:StakingManager",
        "label": "autoStake",
        "offset": 20,
        "slot": "3",
        "type": "t_bool"
      },
      {
        "astId": 2541,
        "contract": "src/StakingManager.sol:StakingManager",
        "label": "__gap",
        "offset": 0,
        "slot": "4",
        "type": "t_array(t_uint256)50_storage"
      }
    ],
    "types": {
      "t_address": {
        "encoding": "inplace",
        "label": "address",
        "numberOfBytes": "20"
      },
      "t_array(t_contract(IStakingStrategy)3159)dyn_storage": {
        "base": "t_contract(IStakingStrategy)3159",
        "encoding": "dynamic_array",
        "label": "contract IStakingStrategy[]",
        "numberOfBytes": "32"
      },
      "t_array(t_uint256)50_storage": {
        "base": "t_uint256",
        "encoding": "inplace",
        "label": "uint256[50]",
        "numberOfBytes": "1600"
      },
      "t_bool": {
        "encoding": "inplace",
        "label": "bool",
        "numberOfBytes": "1"
      },
      "t_contract(IStakingStrategy)3159": {
        "encoding": "inplace",
        "label": "contract IStakingStrategy",
        "numberOfBytes": "20"
      },
      "t_mapping(t_address,t_array(t_contract(IStakingStrategy)3159)dyn_storage)": {
        "encoding": "mapping",
        "key": "t_address",
        "label": "mapping(address => contract IStakingStrategy[])",
        "numberOfBytes": "32",
        "value": "t_array(t_contract(IStakingStrategy)3159)dyn_storage"
      },
      "t_mapping(t_address,t_uint256)": {
        "encoding": "mapping",
        "key": "t_address",
        "label": "mapping(address => uint256)",
        "numberOfBytes": "32",
        "value": "t_uint256"
      },
      "t_uint256": {
        "encoding": "inplace",
        "label": "uint256",
        "numberOfBytes": "32"
      }
    }
  }
}