{
  "address": "0x719B74bc9A4E826fb71658bE378803DcDaFD33Cf",
  "abi": [
    {
      "inputs": [
        {
          "internalType": "address",
          "name": "target",
          "type": "address"
        }
      ],
      "name": "AddressEmptyCode",
      "type": "error"
    },
    {
      "inputs": [
        {
          "internalType": "address",
          "name": "account",
          "type": "address"
        }
      ],
      "name": "AddressInsufficientBalance",
      "type": "error"
    },
    {
      "inputs": [],
      "name": "FailedInnerCall",
      "type": "error"
    },
    {
      "inputs": [],
      "name": "InvalidInitialization",
      "type": "error"
    },
    {
      "inputs": [],
      "name": "NotInitializing",
      "type": "error"
    },
    {
      "inputs": [
        {
          "internalType": "address",
          "name": "sender",
          "type": "address"
        }
      ],
      "name": "OnlyStaker",
      "type": "error"
    },
    {
      "inputs": [
        {
          "internalType": "address",
          "name": "owner",
          "type": "address"
        }
      ],
      "name": "OwnableInvalidOwner",
      "type": "error"
    },
    {
      "inputs": [
        {
          "internalType": "address",
          "name": "account",
          "type": "address"
        }
      ],
      "name": "OwnableUnauthorizedAccount",
      "type": "error"
    },
    {
      "inputs": [
        {
          "internalType": "address",
          "name": "token",
          "type": "address"
        }
      ],
      "name": "SafeERC20FailedOperation",
      "type": "error"
    },
    {
      "inputs": [
        {
          "internalType": "bytes",
          "name": "data",
          "type": "bytes"
        }
      ],
      "name": "TransferFailed",
      "type": "error"
    },
    {
      "anonymous": false,
      "inputs": [
        {
          "indexed": true,
          "internalType": "address",
          "name": "asset",
          "type": "address"
        },
        {
          "indexed": true,
          "internalType": "contract IStakingStrategy",
          "name": "strategy",
          "type": "address"
        }
      ],
      "name": "AddStrategy",
      "type": "event"
    },
    {
      "anonymous": false,
      "inputs": [
        {
          "indexed": false,
          "internalType": "uint64",
          "name": "version",
          "type": "uint64"
        }
      ],
      "name": "Initialized",
      "type": "event"
    },
    {
      "anonymous": false,
      "inputs": [
        {
          "indexed": true,
          "internalType": "address",
          "name": "previousOwner",
          "type": "address"
        },
        {
          "indexed": true,
          "internalType": "address",
          "name": "newOwner",
          "type": "address"
        }
      ],
      "name": "OwnershipTransferStarted",
      "type": "event"
    },
    {
      "anonymous": false,
      "inputs": [
        {
          "indexed": true,
          "internalType": "address",
          "name": "previousOwner",
          "type": "address"
        },
        {
          "indexed": true,
          "internalType": "address",
          "name": "newOwner",
          "type": "address"
        }
      ],
      "name": "OwnershipTransferred",
      "type": "event"
    },
    {
      "anonymous": false,
      "inputs": [
        {
          "indexed": true,
          "internalType": "address",
          "name": "asset",
          "type": "address"
        },
        {
          "indexed": true,
          "internalType": "contract IStakingStrategy",
          "name": "strategy",
          "type": "address"
        },
        {
          "indexed": false,
          "internalType": "uint256",
          "name": "withdrawnAmount",
          "type": "uint256"
        }
      ],
      "name": "RemoveStrategy",
      "type": "event"
    },
    {
      "anonymous": false,
      "inputs": [
        {
          "indexed": true,
          "internalType": "address",
          "name": "asset",
          "type": "address"
        },
        {
          "indexed": false,
          "internalType": "uint256",
          "name": "index",
          "type": "uint256"
        }
      ],
      "name": "SetActiveStrategy",
      "type": "event"
    },
    {
      "anonymous": false,
      "inputs": [
        {
          "indexed": false,
          "internalType": "bool",
          "name": "autoStake",
          "type": "bool"
        }
      ],
      "name": "SetAutoStake",
      "type": "event"
    },
    {
      "anonymous": false,
      "inputs": [
        {
          "indexed": false,
          "internalType": "address",
          "name": "depositor",
          "type": "address"
        }
      ],
      "name": "SetDepositor",
      "type": "event"
    },
    {
      "anonymous": false,
      "inputs": [
        {
          "indexed": false,
          "internalType": "address",
          "name": "staker",
          "type": "address"
        }
      ],
      "name": "SetStaker",
      "type": "event"
    },
    {
      "anonymous": false,
      "inputs": [
        {
          "indexed": true,
          "internalType": "address",
          "name": "asset",
          "type": "address"
        },
        {
          "indexed": false,
          "internalType": "uint256",
          "name": "amount",
          "type": "uint256"
        }
      ],
      "name": "Stake",
      "type": "event"
    },
    {
      "anonymous": false,
      "inputs": [
        {
          "indexed": true,
          "internalType": "address",
          "name": "asset",
          "type": "address"
        },
        {
          "indexed": false,
          "internalType": "uint256",
          "name": "amount",
          "type": "uint256"
        }
      ],
      "name": "Withdraw",
      "type": "event"
    },
    {
      "inputs": [],
      "name": "ETH_ADDRESS",
      "outputs": [
        {
          "internalType": "address",
          "name": "",
          "type": "address"
        }
      ],
      "stateMutability": "view",
      "type": "function"
    },
    {
      "inputs": [],
      "name": "acceptOwnership",
      "outputs": [],
      "stateMutability": "nonpayable",
      "type": "function"
    },
    {
      "inputs": [
        {
          "internalType": "address",
          "name": "",
          "type": "address"
        }
      ],
      "name": "activeStrategyIndex",
      "outputs": [
        {
          "internalType": "uint256",
          "name": "",
          "type": "uint256"
        }
      ],
      "stateMutability": "view",
      "type": "function"
    },
    {
      "inputs": [
        {
          "internalType": "address",
          "name": "asset",
          "type": "address"
        },
        {
          "internalType": "contract IStakingStrategy",
          "name": "strategy",
          "type": "address"
        }
      ],
      "name": "addStrategy",
      "outputs": [],
      "stateMutability": "nonpayable",
      "type": "function"
    },
    {
      "inputs": [],
      "name": "autoStake",
      "outputs": [
        {
          "internalType": "bool",
          "name": "",
          "type": "bool"
        }
      ],
      "stateMutability": "view",
      "type": "function"
    },
    {
      "inputs": [],
      "name": "depositor",
      "outputs": [
        {
          "internalType": "address",
          "name": "",
          "type": "address"
        }
      ],
      "stateMutability": "view",
      "type": "function"
    },
    {
      "inputs": [
        {
          "internalType": "address",
          "name": "asset",
          "type": "address"
        }
      ],
      "name": "getActiveStrategy",
      "outputs": [
        {
          "internalType": "contract IStakingStrategy",
          "name": "",
          "type": "address"
        }
      ],
      "stateMutability": "view",
      "type": "function"
    },
    {
      "inputs": [
        {
          "internalType": "address",
          "name": "asset",
          "type": "address"
        }
      ],
      "name": "getAssetTotal",
      "outputs": [
        {
          "internalType": "uint256",
          "name": "total",
          "type": "uint256"
        }
      ],
      "stateMutability": "nonpayable",
      "type": "function"
    },
    {
      "inputs": [
        {
          "internalType": "address",
          "name": "asset",
          "type": "address"
        }
      ],
      "name": "getAssetTotalNoUpdate",
      "outputs": [
        {
          "internalType": "uint256",
          "name": "total",
          "type": "uint256"
        }
      ],
      "stateMutability": "view",
      "type": "function"
    },
    {
      "inputs": [
        {
          "internalType": "address",
          "name": "_owner",
          "type": "address"
        },
        {
          "internalType": "address",
          "name": "_staker",
          "type": "address"
        }
      ],
      "name": "initialize",
      "outputs": [],
      "stateMutability": "nonpayable",
      "type": "function"
    },
    {
      "inputs": [],
      "name": "owner",
      "outputs": [
        {
          "internalType": "address",
          "name": "",
          "type": "address"
        }
      ],
      "stateMutability": "view",
      "type": "function"
    },
    {
      "inputs": [],
      "name": "pendingOwner",
      "outputs": [
        {
          "internalType": "address",
          "name": "",
          "type": "address"
        }
      ],
      "stateMutability": "view",
      "type": "function"
    },
    {
      "inputs": [
        {
          "internalType": "address",
          "name": "asset",
          "type": "address"
        },
        {
          "internalType": "uint256",
          "name": "index",
          "type": "uint256"
        }
      ],
      "name": "removeStrategy",
      "outputs": [],
      "stateMutability": "nonpayable",
      "type": "function"
    },
    {
      "inputs": [],
      "name": "renounceOwnership",
      "outputs": [],
      "stateMutability": "nonpayable",
      "type": "function"
    },
    {
      "inputs": [
        {
          "internalType": "address",
          "name": "asset",
          "type": "address"
        },
        {
          "internalType": "uint256",
          "name": "index",
          "type": "uint256"
        }
      ],
      "name": "setActiveStrategy",
      "outputs": [],
      "stateMutability": "nonpayable",
      "type": "function"
    },
    {
      "inputs": [
        {
          "internalType": "bool",
          "name": "_autoStake",
          "type": "bool"
        }
      ],
      "name": "setAutoStake",
      "outputs": [],
      "stateMutability": "nonpayable",
      "type": "function"
    },
    {
      "inputs": [
        {
          "internalType": "address",
          "name": "_depositor",
          "type": "address"
        }
      ],
      "name": "setDepositor",
      "outputs": [],
      "stateMutability": "nonpayable",
      "type": "function"
    },
    {
      "inputs": [
        {
          "internalType": "address",
          "name": "_staker",
          "type": "address"
        }
      ],
      "name": "setStaker",
      "outputs": [],
      "stateMutability": "nonpayable",
      "type": "function"
    },
    {
      "inputs": [
        {
          "internalType": "address",
          "name": "asset",
          "type": "address"
        },
        {
          "internalType": "uint256",
          "name": "amount",
          "type": "uint256"
        }
      ],
      "name": "stake",
      "outputs": [],
      "stateMutability": "payable",
      "type": "function"
    },
    {
      "inputs": [],
      "name": "staker",
      "outputs": [
        {
          "internalType": "address",
          "name": "",
          "type": "address"
        }
      ],
      "stateMutability": "view",
      "type": "function"
    },
    {
      "inputs": [
        {
          "internalType": "address",
          "name": "",
          "type": "address"
        },
        {
          "internalType": "uint256",
          "name": "",
          "type": "uint256"
        }
      ],
      "name": "strategies",
      "outputs": [
        {
          "internalType": "contract IStakingStrategy",
          "name": "",
          "type": "address"
        }
      ],
      "stateMutability": "view",
      "type": "function"
    },
    {
      "inputs": [
        {
          "internalType": "address",
          "name": "newOwner",
          "type": "address"
        }
      ],
      "name": "transferOwnership",
      "outputs": [],
      "stateMutability": "nonpayable",
      "type": "function"
    },
    {
      "inputs": [
        {
          "internalType": "address",
          "name": "asset",
          "type": "address"
        },
        {
          "internalType": "uint256",
          "name": "amount",
          "type": "uint256"
        }
      ],
      "name": "withdraw",
      "outputs": [],
      "stateMutability": "nonpayable",
      "type": "function"
    },
    {
      "stateMutability": "payable",
      "type": "receive"
    }
  ],
  "transactionHash": "0xbcc5cb243f8aee24e53933982c4e8c13b048956c44c58451c7eec5995478a81a",
  "args": [],
  "numDeployments": 1,
  "solcInputHash": "404a57e9177115a388da0654e3829a4b",
  "bytecode": "0x608060405234801561001057600080fd5b50611733806100206000396000f3fe6080604052600436106101145760003560e01c806310cc25d714610120578063124a38d814610160578063180669431461018d5780631d212c96146101af5780631e18086e146101cf5780634789badd146101ef578063485cc955146102205780635ebaf1db14610240578063715018a61461026057806379ba5097146102755780638da5cb5b1461028a57806390bb56981461029f5780639f8f3244146102bf578063a29a43bb146102df578063a734f06e146102ff578063adc9772e14610327578063b24190831461033a578063c7c4ff461461035a578063e30c39781461037a578063ea682eeb1461038f578063f2c098b7146103af578063f2fde38b146103cf578063f3fef3a3146103ef57600080fd5b3661011b57005b600080fd5b34801561012c57600080fd5b5061014d61013b366004611512565b60016020526000908152604090205481565b6040519081526020015b60405180910390f35b34801561016c57600080fd5b5061018061017b366004611512565b61040f565b604051610157919061152f565b34801561019957600080fd5b506101ad6101a8366004611543565b61045b565b005b3480156101bb57600080fd5b506101ad6101ca36600461158a565b6104cb565b3480156101db57600080fd5b506101ad6101ea3660046115a7565b61052b565b3480156101fb57600080fd5b5060035461021090600160a01b900460ff1681565b6040519015158152602001610157565b34801561022c57600080fd5b506101ad61023b366004611543565b61058c565b34801561024c57600080fd5b50600254610180906001600160a01b031681565b34801561026c57600080fd5b506101ad6106a1565b34801561028157600080fd5b506101ad6106b5565b34801561029657600080fd5b506101806106fd565b3480156102ab57600080fd5b5061014d6102ba366004611512565b610718565b3480156102cb57600080fd5b506101806102da3660046115a7565b6107f6565b3480156102eb57600080fd5b506101ad6102fa366004611512565b61082e565b34801561030b57600080fd5b5061018073eeeeeeeeeeeeeeeeeeeeeeeeeeeeeeeeeeeeeeee81565b6101ad6103353660046115a7565b610881565b34801561034657600080fd5b5061014d610355366004611512565b610926565b34801561036657600080fd5b50600354610180906001600160a01b031681565b34801561038657600080fd5b50610180610a0d565b34801561039b57600080fd5b506101ad6103aa3660046115a7565b610a18565b3480156103bb57600080fd5b506101ad6103ca366004611512565b610cb6565b3480156103db57600080fd5b506101ad6103ea366004611512565b610d09565b3480156103fb57600080fd5b506101ad61040a3660046115a7565b610d7a565b6001600160a01b038116600090815260208181526040808320600190925282205481548110610440576104406115d3565b6000918252602090912001546001600160a01b031692915050565b610463610e1f565b6001600160a01b03828116600081815260208181526040808320805460018101825590845291832090910180546001600160a01b0319169486169485179055517ff5356ea32b86d53c1386eda4d869e6027a0a1d4edebb9c2f778d9f8559d236aa9190a35050565b6104d3610e1f565b60038054821515600160a01b0260ff60a01b199091161790556040517fc236baa3e21fdc712591cbbebfb2930bae5f479427ab19de579ef52e286804269061052090831515815260200190565b60405180910390a150565b610533610e1f565b6001600160a01b03821660008181526001602052604090819020839055517ff0703abfcce99547a9dfd5745a76d9d98e149d7a1e1682bdcba8e517ca3311a1906105809084815260200190565b60405180910390a25050565b6000610596610e51565b805490915060ff600160401b82041615906001600160401b03166000811580156105bd5750825b90506000826001600160401b031660011480156105d95750303b155b9050811580156105e7575080155b156106055760405163f92ee8a960e01b815260040160405180910390fd5b84546001600160401b0319166001178555831561062e57845460ff60401b1916600160401b1785555b600280546001600160a01b0319166001600160a01b03881617905561065287610e75565b831561069857845460ff60401b19168555604051600181527fc7f505b2f371ae2175ee4913f4499e1f2633a7b5936321eed1cdaeb6115181d29060200160405180910390a15b50505050505050565b6106a9610e1f565b6106b36000610e86565b565b33806106bf610a0d565b6001600160a01b0316146106f1578060405163118cdaa760e01b81526004016106e8919061152f565b60405180910390fd5b6106fa81610e86565b50565b600080610708610ead565b546001600160a01b031692915050565b6000805b6001600160a01b0383166000908152602081905260409020548110156107f0576001600160a01b0383166000908152602081905260408120805483908110610766576107666115d3565b6000918252602091829020015460408051636a4e494f60e01b815290516001600160a01b0390921693508392636a4e494f926004808401938290030181865afa1580156107b7573d6000803e3d6000fd5b505050506040513d601f19601f820116820180604052508101906107db91906115e9565b6107e59084611618565b92505060010161071c565b50919050565b6000602052816000526040600020818154811061081257600080fd5b6000918252602090912001546001600160a01b03169150829050565b610836610e1f565b600280546001600160a01b0319166001600160a01b0383161790556040517f6901da73a3480b0bbd7deb64f259ff29a76ce811c7a3e5cf495f0e1eb4fb4dfb9061052090839061152f565b6002546001600160a01b031633146108ae5733604051631f18623160e21b81526004016106e8919061152f565b73eeeeeeeeeeeeeeeeeeeeeeeeeeeeeeeeeeeeeeed196001600160a01b038316016108e1576108dc34610ed1565b6108eb565b6108eb8282610f4a565b816001600160a01b03167febedb8b3c678666e7f36970bc8f57abf6d8fa2e828c0da91ea5b75bf68ed101a8260405161058091815260200190565b6000805b6001600160a01b0383166000908152602081905260409020548110156107f0576001600160a01b0383166000908152602081905260408120805483908110610974576109746115d3565b9060005260206000200160009054906101000a90046001600160a01b03169050806001600160a01b031663f48ccabd6040518163ffffffff1660e01b81526004016020604051808303816000875af11580156109d4573d6000803e3d6000fd5b505050506040513d601f19601f820116820180604052508101906109f891906115e9565b610a029084611618565b92505060010161092a565b600080610708611020565b610a20610e1f565b6001600160a01b0382166000908152602081905260408120805483908110610a4a57610a4a6115d3565b60009182526020808320909101546001600160a01b03868116845291839052604083205491169250610a7e9060019061162b565b6001600160a01b038516600090815260208190526040902080549192509082908110610aac57610aac6115d3565b60009182526020808320909101546001600160a01b038781168452918390526040909220805491909216919085908110610ae857610ae86115d3565b600091825260208083209190910180546001600160a01b0319166001600160a01b0394851617905591861681529081905260409020805480610b2c57610b2c61163e565b60008281526020808220830160001990810180546001600160a01b03191690559092019092556001600160a01b0386168252600190526040902054839003610b8a576001600160a01b03841660009081526001602052604090208190555b6000826001600160a01b0316632e1a7d4d846001600160a01b031663f48ccabd6040518163ffffffff1660e01b81526004016020604051808303816000875af1158015610bdb573d6000803e3d6000fd5b505050506040513d601f19601f82011682018060405250810190610bff91906115e9565b6040518263ffffffff1660e01b8152600401610c1d91815260200190565b6020604051808303816000875af1158015610c3c573d6000803e3d6000fd5b505050506040513d601f19601f82011682018060405250810190610c6091906115e9565b9050826001600160a01b0316856001600160a01b03167fc11b81149ee1579e4f558be47e79ebdefb8b0882f833687661c60ea700f2f79c83604051610ca791815260200190565b60405180910390a35050505050565b610cbe610e1f565b600380546001600160a01b0319166001600160a01b0383161790556040517fe5845022cf6cbbb6597b6e3a99005dd423016c1e7ac69c6e621cd47c38a3f3929061052090839061152f565b610d11610e1f565b6000610d1b611020565b80546001600160a01b0319166001600160a01b0384169081178255909150610d416106fd565b6001600160a01b03167f38d16b8cac22d99fc7c124b9cd0de2d3fa1faef420bfe791d8c362d765e2270060405160405180910390a35050565b6002546001600160a01b03163314610da75733604051631f18623160e21b81526004016106e8919061152f565b73eeeeeeeeeeeeeeeeeeeeeeeeeeeeeeeeeeeeeeed196001600160a01b03831601610dda57610dd581611044565b610de4565b610de48282611166565b816001600160a01b03167f884edad9ce6fa2440d8a54cc123490eb96d2768479d49ff9c7366125a94243648260405161058091815260200190565b33610e286106fd565b6001600160a01b0316146106b3573360405163118cdaa760e01b81526004016106e8919061152f565b7ff0c57e16840df040f15088dc2f81fe391c3923bec73e23a9662efc9c229c6a0090565b610e7d611212565b6106fa81611237565b6000610e90611020565b80546001600160a01b03191681559050610ea982611269565b5050565b7f9016d09d72d40fdae2fd8ceac6b6234c7706214fd39c1cd1e609a0528c19930090565b6000610ef073eeeeeeeeeeeeeeeeeeeeeeeeeeeeeeeeeeeeeeee61040f565b60405163b6b55f2560e01b8152600481018490529091506001600160a01b0382169063b6b55f259084906024016000604051808303818588803b158015610f3657600080fd5b505af1158015610698573d6000803e3d6000fd5b6000610f558361040f565b9050610f6c6001600160a01b0384163330856112c5565b60405163095ea7b360e01b81526001600160a01b0384169063095ea7b390610f9a9084908690600401611654565b6020604051808303816000875af1158015610fb9573d6000803e3d6000fd5b505050506040513d601f19601f82011682018060405250810190610fdd919061166d565b5060405163b6b55f2560e01b8152600481018390526001600160a01b0382169063b6b55f2590602401600060405180830381600087803b158015610f3657600080fd5b7f237e158222e3e6968b72b9db0d8043aacf074ad9f650f0d1606b4d82ee432c0090565b600061106373eeeeeeeeeeeeeeeeeeeeeeeeeeeeeeeeeeeeeeee61040f565b905060006001600160a01b038216156110e457604051632e1a7d4d60e01b8152600481018490526001600160a01b03831690632e1a7d4d906024016020604051808303816000875af11580156110bd573d6000803e3d6000fd5b505050506040513d601f19601f820116820180604052508101906110e191906115e9565b90505b60035460405160009182916001600160a01b039091169084908381818185875af1925050503d8060008114611135576040519150601f19603f3d011682016040523d82523d6000602084013e61113a565b606091505b50915091508161115f5780604051639a367e1760e01b81526004016106e891906116ae565b5050505050565b60006111718361040f565b905060006001600160a01b038216156111f257604051632e1a7d4d60e01b8152600481018490526001600160a01b03831690632e1a7d4d906024016020604051808303816000875af11580156111cb573d6000803e3d6000fd5b505050506040513d601f19601f820116820180604052508101906111ef91906115e9565b90505b60035461120c906001600160a01b0386811691168361132c565b50505050565b61121a611357565b6106b357604051631afcd79f60e31b815260040160405180910390fd5b61123f611212565b6001600160a01b0381166106f1576000604051631e4fbdf760e01b81526004016106e8919061152f565b6000611273610ead565b80546001600160a01b038481166001600160a01b031983168117845560405193945091169182907f8be0079c531659141344cd1fd0a4f28419497f9722a3daafe3b4186f6b6457e090600090a3505050565b6040516001600160a01b03848116602483015283811660448301526064820183905261120c9186918216906323b872dd906084015b604051602081830303815290604052915060e01b6020820180516001600160e01b038381831617835250505050611371565b61135283846001600160a01b031663a9059cbb85856040516024016112fa929190611654565b505050565b6000611361610e51565b54600160401b900460ff16919050565b60006113866001600160a01b038416836113cb565b905080516000141580156113ab5750808060200190518101906113a9919061166d565b155b156113525782604051635274afe760e01b81526004016106e8919061152f565b60606113d9838360006113e2565b90505b92915050565b606081471015611407573060405163cd78605960e01b81526004016106e8919061152f565b600080856001600160a01b0316848660405161142391906116e1565b60006040518083038185875af1925050503d8060008114611460576040519150601f19603f3d011682016040523d82523d6000602084013e611465565b606091505b5091509150611475868383611481565b925050505b9392505050565b60608261149657611491826114d4565b61147a565b81511580156114ad57506001600160a01b0384163b155b156114cd5783604051639996b31560e01b81526004016106e8919061152f565b508061147a565b8051156114e45780518082602001fd5b604051630a12f52160e11b815260040160405180910390fd5b6001600160a01b03811681146106fa57600080fd5b60006020828403121561152457600080fd5b813561147a816114fd565b6001600160a01b0391909116815260200190565b6000806040838503121561155657600080fd5b8235611561816114fd565b91506020830135611571816114fd565b809150509250929050565b80151581146106fa57600080fd5b60006020828403121561159c57600080fd5b813561147a8161157c565b600080604083850312156115ba57600080fd5b82356115c5816114fd565b946020939093013593505050565b634e487b7160e01b600052603260045260246000fd5b6000602082840312156115fb57600080fd5b5051919050565b634e487b7160e01b600052601160045260246000fd5b808201808211156113dc576113dc611602565b818103818111156113dc576113dc611602565b634e487b7160e01b600052603160045260246000fd5b6001600160a01b03929092168252602082015260400190565b60006020828403121561167f57600080fd5b815161147a8161157c565b60005b838110156116a557818101518382015260200161168d565b50506000910152565b60208152600082518060208401526116cd81604085016020870161168a565b601f01601f19169190910160400192915050565b600082516116f381846020870161168a565b919091019291505056fea2646970667358221220becfdbdf730be11aa06b4ea3b56942f15feda963a09df607ec3fa3ac6ffec92a64736f6c63430008170033",
  "devdoc": {
    "errors": {
      "AddressEmptyCode(address)": [
        {
          "details": "There's no code at `target` (it is not a contract)."
        }
      ],
      "AddressInsufficientBalance(address)": [
        {
          "details": "The ETH balance of the account is not enough to perform the operation."
        }
      ],
      "FailedInnerCall()": [
        {
          "details": "A call to an address target failed. The target may have reverted."
        }
      ],
      "InvalidInitialization()": [
        {
          "details": "The contract is already initialized."
        }
      ],
      "NotInitializing()": [
        {
          "details": "The contract is not initializing."
        }
      ],
      "OwnableInvalidOwner(address)": [
        {
          "details": "The owner is not a valid owner account. (eg. `address(0)`)"
        }
      ],
      "OwnableUnauthorizedAccount(address)": [
        {
          "details": "The caller account is not authorized to perform an operation."
        }
      ],
      "SafeERC20FailedOperation(address)": [
        {
          "details": "An operation with an ERC20 token failed."
        }
      ]
    },
    "events": {
      "Initialized(uint64)": {
        "details": "Triggered when the contract has been initialized or reinitialized."
      }
    },
    "kind": "dev",
    "methods": {
      "acceptOwnership()": {
        "details": "The new owner accepts the ownership transfer."
      },
      "owner()": {
        "details": "Returns the address of the current owner."
      },
      "pendingOwner()": {
        "details": "Returns the address of the pending owner."
      },
      "renounceOwnership()": {
        "details": "Leaves the contract without owner. It will not be possible to call `onlyOwner` functions. Can only be called by the current owner. NOTE: Renouncing ownership will leave the contract without an owner, thereby disabling any functionality that is only available to the owner."
      },
      "transferOwnership(address)": {
        "details": "Starts the ownership transfer of the contract to a new account. Replaces the pending transfer if there is one. Can only be called by the current owner."
      }
    },
    "version": 1
  },
  "userdoc": {
    "kind": "user",
    "methods": {
      "getActiveStrategy(address)": {
        "notice": "---------------------------------  View Functions  ---------------------------------"
      },
      "setStaker(address)": {
        "notice": "----------------------------------  Admin Functions  ----------------------------------"
      },
      "stake(address,uint256)": {
        "notice": "--------------------------------  Staker Functions  --------------------------------"
      }
    },
    "notice": "The purpose of this contract is solely to take in assets and send them to strategies. Upon withdrawal, all assets go to the depositor. TODO: The depositor needs to be set after deployment",
    "version": 1
  },
  "storageLayout": {
    "storage": [
      {
        "astId": 4114,
        "contract": "src/StakingManager.sol:StakingManager",
        "label": "strategies",
        "offset": 0,
        "slot": "0",
        "type": "t_mapping(t_address,t_array(t_contract(IStakingStrategy)5332)dyn_storage)"
      },
      {
        "astId": 4118,
        "contract": "src/StakingManager.sol:StakingManager",
        "label": "activeStrategyIndex",
        "offset": 0,
        "slot": "1",
        "type": "t_mapping(t_address,t_uint256)"
      },
      {
        "astId": 4120,
        "contract": "src/StakingManager.sol:StakingManager",
        "label": "staker",
        "offset": 0,
        "slot": "2",
        "type": "t_address"
      },
      {
        "astId": 4122,
        "contract": "src/StakingManager.sol:StakingManager",
        "label": "depositor",
        "offset": 0,
        "slot": "3",
        "type": "t_address"
      },
      {
        "astId": 4124,
        "contract": "src/StakingManager.sol:StakingManager",
        "label": "autoStake",
        "offset": 20,
        "slot": "3",
        "type": "t_bool"
      }
    ],
    "types": {
      "t_address": {
        "encoding": "inplace",
        "label": "address",
        "numberOfBytes": "20"
      },
      "t_array(t_contract(IStakingStrategy)5332)dyn_storage": {
        "base": "t_contract(IStakingStrategy)5332",
        "encoding": "dynamic_array",
        "label": "contract IStakingStrategy[]",
        "numberOfBytes": "32"
      },
      "t_bool": {
        "encoding": "inplace",
        "label": "bool",
        "numberOfBytes": "1"
      },
      "t_contract(IStakingStrategy)5332": {
        "encoding": "inplace",
        "label": "contract IStakingStrategy",
        "numberOfBytes": "20"
      },
      "t_mapping(t_address,t_array(t_contract(IStakingStrategy)5332)dyn_storage)": {
        "encoding": "mapping",
        "key": "t_address",
        "label": "mapping(address => contract IStakingStrategy[])",
        "numberOfBytes": "32",
        "value": "t_array(t_contract(IStakingStrategy)5332)dyn_storage"
      },
      "t_mapping(t_address,t_uint256)": {
        "encoding": "mapping",
        "key": "t_address",
        "label": "mapping(address => uint256)",
        "numberOfBytes": "32",
        "value": "t_uint256"
      },
      "t_uint256": {
        "encoding": "inplace",
        "label": "uint256",
        "numberOfBytes": "32"
      }
    }
  }
}