{
  "address": "0x34217AA078B50C785e31324Be5a2e3b65c122360",
  "abi": [
    {
      "inputs": [
        {
          "internalType": "address",
          "name": "target",
          "type": "address"
        }
      ],
      "name": "AddressEmptyCode",
      "type": "error"
    },
    {
      "inputs": [
        {
          "internalType": "address",
          "name": "implementation",
          "type": "address"
        }
      ],
      "name": "ERC1967InvalidImplementation",
      "type": "error"
    },
    {
      "inputs": [],
      "name": "ERC1967NonPayable",
      "type": "error"
    },
    {
      "inputs": [],
      "name": "FailedInnerCall",
      "type": "error"
    },
    {
      "inputs": [],
      "name": "InsufficientBalance",
      "type": "error"
    },
    {
      "inputs": [],
      "name": "InsufficientFunds",
      "type": "error"
    },
    {
      "inputs": [],
      "name": "InvalidInitialization",
      "type": "error"
    },
    {
      "inputs": [],
      "name": "MaxMintExceeded",
      "type": "error"
    },
    {
      "inputs": [],
      "name": "NotInitializing",
      "type": "error"
    },
    {
      "inputs": [
        {
          "internalType": "address",
          "name": "owner",
          "type": "address"
        }
      ],
      "name": "OwnableInvalidOwner",
      "type": "error"
    },
    {
      "inputs": [
        {
          "internalType": "address",
          "name": "account",
          "type": "address"
        }
      ],
      "name": "OwnableUnauthorizedAccount",
      "type": "error"
    },
    {
      "inputs": [],
      "name": "SenderIsNotStaker",
      "type": "error"
    },
    {
      "inputs": [
        {
          "internalType": "bytes",
          "name": "data",
          "type": "bytes"
        }
      ],
      "name": "TransferFailed",
      "type": "error"
    },
    {
      "inputs": [],
      "name": "UUPSUnauthorizedCallContext",
      "type": "error"
    },
    {
      "inputs": [
        {
          "internalType": "bytes32",
          "name": "slot",
          "type": "bytes32"
        }
      ],
      "name": "UUPSUnsupportedProxiableUUID",
      "type": "error"
    },
    {
      "inputs": [],
      "name": "ZeroAddress",
      "type": "error"
    },
    {
      "inputs": [],
      "name": "ZeroDeposit",
      "type": "error"
    },
    {
      "anonymous": false,
      "inputs": [
        {
          "indexed": false,
          "internalType": "uint256[]",
          "name": "requestIds",
          "type": "uint256[]"
        }
      ],
      "name": "ClaimedLidoWithdrawals",
      "type": "event"
    },
    {
      "anonymous": false,
      "inputs": [
        {
          "indexed": false,
          "internalType": "uint256",
          "name": "amount",
          "type": "uint256"
        }
      ],
      "name": "DaiStaked",
      "type": "event"
    },
    {
      "anonymous": false,
      "inputs": [
        {
          "indexed": true,
          "internalType": "address",
          "name": "to",
          "type": "address"
        },
        {
          "indexed": true,
          "internalType": "address",
          "name": "from",
          "type": "address"
        },
        {
          "indexed": false,
          "internalType": "uint256",
          "name": "daiAmount",
          "type": "uint256"
        },
        {
          "indexed": false,
          "internalType": "uint256",
          "name": "mintAmount",
          "type": "uint256"
        }
      ],
      "name": "DepositDAI",
      "type": "event"
    },
    {
      "anonymous": false,
      "inputs": [
        {
          "indexed": true,
          "internalType": "address",
          "name": "to",
          "type": "address"
        },
        {
          "indexed": true,
          "internalType": "address",
          "name": "from",
          "type": "address"
        },
        {
          "indexed": false,
          "internalType": "uint256",
          "name": "ethAmount",
          "type": "uint256"
        },
        {
          "indexed": false,
          "internalType": "uint256",
          "name": "mintAmount",
          "type": "uint256"
        }
      ],
      "name": "DepositEth",
      "type": "event"
    },
    {
      "anonymous": false,
      "inputs": [
        {
          "indexed": true,
          "internalType": "address",
          "name": "to",
          "type": "address"
        },
        {
          "indexed": true,
          "internalType": "address",
          "name": "from",
          "type": "address"
        },
        {
          "indexed": false,
          "internalType": "uint256",
          "name": "usdtAmount",
          "type": "uint256"
        },
        {
          "indexed": false,
          "internalType": "uint256",
          "name": "mintAmount",
          "type": "uint256"
        }
      ],
      "name": "DepositStEth",
      "type": "event"
    },
    {
      "anonymous": false,
      "inputs": [
        {
          "indexed": true,
          "internalType": "address",
          "name": "to",
          "type": "address"
        },
        {
          "indexed": true,
          "internalType": "address",
          "name": "from",
          "type": "address"
        },
        {
          "indexed": false,
          "internalType": "uint256",
          "name": "usdcAmount",
          "type": "uint256"
        },
        {
          "indexed": false,
          "internalType": "uint256",
          "name": "mintAmount",
          "type": "uint256"
        }
      ],
      "name": "DepositUSDC",
      "type": "event"
    },
    {
      "anonymous": false,
      "inputs": [
        {
          "indexed": true,
          "internalType": "address",
          "name": "to",
          "type": "address"
        },
        {
          "indexed": true,
          "internalType": "address",
          "name": "from",
          "type": "address"
        },
        {
          "indexed": false,
          "internalType": "uint256",
          "name": "usdtAmount",
          "type": "uint256"
        },
        {
          "indexed": false,
          "internalType": "uint256",
          "name": "mintAmount",
          "type": "uint256"
        }
      ],
      "name": "DepositUSDT",
      "type": "event"
    },
    {
      "anonymous": false,
      "inputs": [
        {
          "indexed": false,
          "internalType": "uint256",
          "name": "amount",
          "type": "uint256"
        }
      ],
      "name": "EthStaked",
      "type": "event"
    },
    {
      "anonymous": false,
      "inputs": [
        {
          "indexed": false,
          "internalType": "uint64",
          "name": "version",
          "type": "uint64"
        }
      ],
      "name": "Initialized",
      "type": "event"
    },
    {
      "anonymous": false,
      "inputs": [
        {
          "indexed": true,
          "internalType": "address",
          "name": "to",
          "type": "address"
        },
        {
          "indexed": false,
          "internalType": "uint256",
          "name": "amount",
          "type": "uint256"
        }
      ],
      "name": "MintWrappedETH",
      "type": "event"
    },
    {
      "anonymous": false,
      "inputs": [
        {
          "indexed": true,
          "internalType": "address",
          "name": "to",
          "type": "address"
        },
        {
          "indexed": false,
          "internalType": "uint256",
          "name": "amount",
          "type": "uint256"
        }
      ],
      "name": "MintWrappedUSD",
      "type": "event"
    },
    {
      "anonymous": false,
      "inputs": [
        {
          "indexed": true,
          "internalType": "address",
          "name": "previousOwner",
          "type": "address"
        },
        {
          "indexed": true,
          "internalType": "address",
          "name": "newOwner",
          "type": "address"
        }
      ],
      "name": "OwnershipTransferred",
      "type": "event"
    },
    {
      "anonymous": false,
      "inputs": [
        {
          "indexed": false,
          "internalType": "uint256",
          "name": "amount",
          "type": "uint256"
        }
      ],
      "name": "RecievedLidoWithdrawal",
      "type": "event"
    },
    {
      "anonymous": false,
      "inputs": [
        {
          "indexed": false,
          "internalType": "uint256[]",
          "name": "requestIds",
          "type": "uint256[]"
        },
        {
          "indexed": false,
          "internalType": "uint256[]",
          "name": "amounts",
          "type": "uint256[]"
        }
      ],
      "name": "RequestedLidoWithdrawals",
      "type": "event"
    },
    {
      "anonymous": false,
      "inputs": [
        {
          "indexed": false,
          "internalType": "bool",
          "name": "autoDeposit",
          "type": "bool"
        }
      ],
      "name": "SetAutoStake",
      "type": "event"
    },
    {
      "anonymous": false,
      "inputs": [
        {
          "indexed": false,
          "internalType": "bool",
          "name": "bridgePaused",
          "type": "bool"
        }
      ],
      "name": "SetBridgePause",
      "type": "event"
    },
    {
      "anonymous": false,
      "inputs": [
        {
          "indexed": false,
          "internalType": "contract IL1StandardBridge",
          "name": "l1standardBridge",
          "type": "address"
        }
      ],
      "name": "SetL1StandardBridge",
      "type": "event"
    },
    {
      "anonymous": false,
      "inputs": [
        {
          "indexed": false,
          "internalType": "address",
          "name": "staker",
          "type": "address"
        }
      ],
      "name": "SetStaker",
      "type": "event"
    },
    {
      "anonymous": false,
      "inputs": [
        {
          "indexed": true,
          "internalType": "address",
          "name": "implementation",
          "type": "address"
        }
      ],
      "name": "Upgraded",
      "type": "event"
    },
    {
      "anonymous": false,
      "inputs": [
        {
          "indexed": true,
          "internalType": "address",
          "name": "from",
          "type": "address"
        },
        {
          "indexed": true,
          "internalType": "address",
          "name": "to",
          "type": "address"
        },
        {
          "indexed": false,
          "internalType": "uint256",
          "name": "ethAmountWithdrew",
          "type": "uint256"
        },
        {
          "indexed": false,
          "internalType": "uint256",
          "name": "burnAmount",
          "type": "uint256"
        }
      ],
      "name": "WithdrawEth",
      "type": "event"
    },
    {
      "anonymous": false,
      "inputs": [
        {
          "indexed": true,
          "internalType": "address",
          "name": "from",
          "type": "address"
        },
        {
          "indexed": true,
          "internalType": "address",
          "name": "to",
          "type": "address"
        },
        {
          "indexed": false,
          "internalType": "uint256",
          "name": "usdAmountWithdrew",
          "type": "uint256"
        },
        {
          "indexed": false,
          "internalType": "uint256",
          "name": "burnAmount",
          "type": "uint256"
        }
      ],
      "name": "WithdrawUSD",
      "type": "event"
    },
    {
      "inputs": [],
      "name": "UPGRADE_INTERFACE_VERSION",
      "outputs": [
        {
          "internalType": "string",
          "name": "",
          "type": "string"
        }
      ],
      "stateMutability": "view",
      "type": "function"
    },
    {
      "inputs": [],
      "name": "_BASIS_POINTS",
      "outputs": [
        {
          "internalType": "uint256",
          "name": "",
          "type": "uint256"
        }
      ],
      "stateMutability": "view",
      "type": "function"
    },
    {
      "inputs": [],
      "name": "_CURVE_DAI_INDEX",
      "outputs": [
        {
          "internalType": "int128",
          "name": "",
          "type": "int128"
        }
      ],
      "stateMutability": "view",
      "type": "function"
    },
    {
      "inputs": [],
      "name": "_CURVE_USDT_INDEX",
      "outputs": [
        {
          "internalType": "int128",
          "name": "",
          "type": "int128"
        }
      ],
      "stateMutability": "view",
      "type": "function"
    },
    {
      "inputs": [],
      "name": "_INITIAL_DEPOSIT_AMOUNT",
      "outputs": [
        {
          "internalType": "uint256",
          "name": "",
          "type": "uint256"
        }
      ],
      "stateMutability": "view",
      "type": "function"
    },
    {
      "inputs": [],
      "name": "_INITIAL_TOKEN_HOLDER",
      "outputs": [
        {
          "internalType": "address",
          "name": "",
          "type": "address"
        }
      ],
      "stateMutability": "view",
      "type": "function"
    },
    {
      "inputs": [],
      "name": "_WAD",
      "outputs": [
        {
          "internalType": "uint256",
          "name": "",
          "type": "uint256"
        }
      ],
      "stateMutability": "view",
      "type": "function"
    },
    {
      "inputs": [],
      "name": "autoStake",
      "outputs": [
        {
          "internalType": "bool",
          "name": "",
          "type": "bool"
        }
      ],
      "stateMutability": "view",
      "type": "function"
    },
    {
      "inputs": [],
      "name": "bridgePaused",
      "outputs": [
        {
          "internalType": "bool",
          "name": "",
          "type": "bool"
        }
      ],
      "stateMutability": "view",
      "type": "function"
    },
    {
      "inputs": [
        {
          "internalType": "uint256[]",
          "name": "requestIds",
          "type": "uint256[]"
        }
      ],
      "name": "claimLidoWithdrawals",
      "outputs": [],
      "stateMutability": "nonpayable",
      "type": "function"
    },
    {
      "inputs": [
        {
          "internalType": "address",
          "name": "to",
          "type": "address"
        },
        {
          "internalType": "uint256",
          "name": "daiAmount",
          "type": "uint256"
        }
      ],
      "name": "depositDAI",
      "outputs": [],
      "stateMutability": "nonpayable",
      "type": "function"
    },
    {
      "inputs": [
        {
          "internalType": "address",
          "name": "to",
          "type": "address"
        },
        {
          "internalType": "uint256",
          "name": "daiAmount",
          "type": "uint256"
        },
        {
          "internalType": "uint256",
          "name": "nonce",
          "type": "uint256"
        },
        {
          "internalType": "uint256",
          "name": "expiry",
          "type": "uint256"
        },
        {
          "internalType": "uint8",
          "name": "v",
          "type": "uint8"
        },
        {
          "internalType": "bytes32",
          "name": "r",
          "type": "bytes32"
        },
        {
          "internalType": "bytes32",
          "name": "s",
          "type": "bytes32"
        }
      ],
      "name": "depositDAIWithPermit",
      "outputs": [],
      "stateMutability": "nonpayable",
      "type": "function"
    },
    {
      "inputs": [
        {
          "internalType": "address",
          "name": "to",
          "type": "address"
        }
      ],
      "name": "depositEth",
      "outputs": [],
      "stateMutability": "payable",
      "type": "function"
    },
    {
      "inputs": [
        {
          "internalType": "address",
          "name": "to",
          "type": "address"
        },
        {
          "internalType": "uint256",
          "name": "stEthAmount",
          "type": "uint256"
        }
      ],
      "name": "depositStEth",
      "outputs": [],
      "stateMutability": "nonpayable",
      "type": "function"
    },
    {
      "inputs": [
        {
          "internalType": "address",
          "name": "to",
          "type": "address"
        },
        {
          "internalType": "uint256",
          "name": "stEthAmount",
          "type": "uint256"
        },
        {
          "internalType": "uint256",
          "name": "deadline",
          "type": "uint256"
        },
        {
          "internalType": "uint8",
          "name": "v",
          "type": "uint8"
        },
        {
          "internalType": "bytes32",
          "name": "r",
          "type": "bytes32"
        },
        {
          "internalType": "bytes32",
          "name": "s",
          "type": "bytes32"
        }
      ],
      "name": "depositStEthWithPermit",
      "outputs": [],
      "stateMutability": "nonpayable",
      "type": "function"
    },
    {
      "inputs": [
        {
          "internalType": "address",
          "name": "to",
          "type": "address"
        },
        {
          "internalType": "uint256",
          "name": "usdcAmount",
          "type": "uint256"
        }
      ],
      "name": "depositUSDC",
      "outputs": [],
      "stateMutability": "nonpayable",
      "type": "function"
    },
    {
      "inputs": [
        {
          "internalType": "address",
          "name": "to",
          "type": "address"
        },
        {
          "internalType": "uint256",
          "name": "usdcAmount",
          "type": "uint256"
        },
        {
          "internalType": "uint256",
          "name": "deadline",
          "type": "uint256"
        },
        {
          "internalType": "uint8",
          "name": "v",
          "type": "uint8"
        },
        {
          "internalType": "bytes32",
          "name": "r",
          "type": "bytes32"
        },
        {
          "internalType": "bytes32",
          "name": "s",
          "type": "bytes32"
        }
      ],
      "name": "depositUSDCWithPermit",
      "outputs": [],
      "stateMutability": "nonpayable",
      "type": "function"
    },
    {
      "inputs": [
        {
          "internalType": "address",
          "name": "to",
          "type": "address"
        },
        {
          "internalType": "uint256",
          "name": "usdtAmount",
          "type": "uint256"
        },
        {
          "internalType": "uint256",
          "name": "minDAIAmount",
          "type": "uint256"
        }
      ],
      "name": "depositUSDT",
      "outputs": [],
      "stateMutability": "nonpayable",
      "type": "function"
    },
    {
      "inputs": [
        {
          "internalType": "address",
          "name": "_owner",
          "type": "address"
        },
        {
          "internalType": "address",
          "name": "_staker",
          "type": "address"
        },
        {
          "internalType": "contract IL1StandardBridge",
          "name": "_l1standardBridge",
          "type": "address"
        },
        {
          "internalType": "address",
          "name": "_l2Eth",
          "type": "address"
        },
        {
          "internalType": "address",
          "name": "_l2USD",
          "type": "address"
        }
      ],
      "name": "initialize",
      "outputs": [],
      "stateMutability": "nonpayable",
      "type": "function"
    },
    {
      "inputs": [],
      "name": "l1standardBridge",
      "outputs": [
        {
          "internalType": "contract IL1StandardBridge",
          "name": "",
          "type": "address"
        }
      ],
      "stateMutability": "view",
      "type": "function"
    },
    {
      "inputs": [],
      "name": "l2ETH",
      "outputs": [
        {
          "internalType": "address",
          "name": "",
          "type": "address"
        }
      ],
      "stateMutability": "view",
      "type": "function"
    },
    {
      "inputs": [],
      "name": "l2USD",
      "outputs": [
        {
          "internalType": "address",
          "name": "",
          "type": "address"
        }
      ],
      "stateMutability": "view",
      "type": "function"
    },
    {
      "inputs": [
        {
          "internalType": "address",
          "name": "to",
          "type": "address"
        },
        {
          "internalType": "uint256",
          "name": "amount",
          "type": "uint256"
        }
      ],
      "name": "mintEthBasedOnStakedAmount",
      "outputs": [],
      "stateMutability": "nonpayable",
      "type": "function"
    },
    {
      "inputs": [
        {
          "internalType": "address",
          "name": "to",
          "type": "address"
        },
        {
          "internalType": "uint256",
          "name": "amount",
          "type": "uint256"
        }
      ],
      "name": "mintUSDBasedOnStakedAmount",
      "outputs": [],
      "stateMutability": "nonpayable",
      "type": "function"
    },
    {
      "inputs": [],
      "name": "owner",
      "outputs": [
        {
          "internalType": "address",
          "name": "",
          "type": "address"
        }
      ],
      "stateMutability": "view",
      "type": "function"
    },
    {
      "inputs": [],
      "name": "proxiableUUID",
      "outputs": [
        {
          "internalType": "bytes32",
          "name": "",
          "type": "bytes32"
        }
      ],
      "stateMutability": "view",
      "type": "function"
    },
    {
      "inputs": [],
      "name": "renounceOwnership",
      "outputs": [],
      "stateMutability": "nonpayable",
      "type": "function"
    },
    {
      "inputs": [
        {
          "internalType": "uint256[]",
          "name": "amount",
          "type": "uint256[]"
        }
      ],
      "name": "requestLidoWithdrawal",
      "outputs": [
        {
          "internalType": "uint256[]",
          "name": "requestIds",
          "type": "uint256[]"
        }
      ],
      "stateMutability": "nonpayable",
      "type": "function"
    },
    {
      "inputs": [
        {
          "internalType": "bool",
          "name": "_autoStake",
          "type": "bool"
        }
      ],
      "name": "setAutoStake",
      "outputs": [],
      "stateMutability": "nonpayable",
      "type": "function"
    },
    {
      "inputs": [
        {
          "internalType": "bool",
          "name": "_bridgePaused",
          "type": "bool"
        }
      ],
      "name": "setBridgePause",
      "outputs": [],
      "stateMutability": "nonpayable",
      "type": "function"
    },
    {
      "inputs": [
        {
          "internalType": "contract IL1StandardBridge",
          "name": "_l1standardBridge",
          "type": "address"
        }
      ],
      "name": "setL1StandardBridge",
      "outputs": [],
      "stateMutability": "nonpayable",
      "type": "function"
    },
    {
      "inputs": [
        {
          "internalType": "address",
          "name": "_staker",
          "type": "address"
        }
      ],
      "name": "setStaker",
      "outputs": [],
      "stateMutability": "nonpayable",
      "type": "function"
    },
    {
      "inputs": [
        {
          "internalType": "uint256",
          "name": "amount",
          "type": "uint256"
        }
      ],
      "name": "stakeDAI",
      "outputs": [],
      "stateMutability": "nonpayable",
      "type": "function"
    },
    {
      "inputs": [
        {
          "internalType": "uint256",
          "name": "amount",
          "type": "uint256"
        }
      ],
      "name": "stakeETH",
      "outputs": [],
      "stateMutability": "nonpayable",
      "type": "function"
    },
    {
      "inputs": [],
      "name": "staker",
      "outputs": [
        {
          "internalType": "address",
          "name": "",
          "type": "address"
        }
      ],
      "stateMutability": "view",
      "type": "function"
    },
    {
      "inputs": [],
      "name": "totalETHBalance",
      "outputs": [
        {
          "internalType": "uint256",
          "name": "",
          "type": "uint256"
        }
      ],
      "stateMutability": "view",
      "type": "function"
    },
    {
      "inputs": [],
      "name": "totalUSDBalance",
      "outputs": [
        {
          "internalType": "uint256",
          "name": "",
          "type": "uint256"
        }
      ],
      "stateMutability": "nonpayable",
      "type": "function"
    },
    {
      "inputs": [],
      "name": "totalUSDBalanceNoUpdate",
      "outputs": [
        {
          "internalType": "uint256",
          "name": "",
          "type": "uint256"
        }
      ],
      "stateMutability": "view",
      "type": "function"
    },
    {
      "inputs": [
        {
          "internalType": "address",
          "name": "newOwner",
          "type": "address"
        }
      ],
      "name": "transferOwnership",
      "outputs": [],
      "stateMutability": "nonpayable",
      "type": "function"
    },
    {
      "inputs": [
        {
          "internalType": "address",
          "name": "newImplementation",
          "type": "address"
        },
        {
          "internalType": "bytes",
          "name": "data",
          "type": "bytes"
        }
      ],
      "name": "upgradeToAndCall",
      "outputs": [],
      "stateMutability": "payable",
      "type": "function"
    },
    {
      "inputs": [
        {
          "internalType": "address",
          "name": "to",
          "type": "address"
        },
        {
          "internalType": "uint256",
          "name": "amount",
          "type": "uint256"
        }
      ],
      "name": "withdrawEth",
      "outputs": [],
      "stateMutability": "nonpayable",
      "type": "function"
    },
    {
      "inputs": [
        {
          "internalType": "address",
          "name": "to",
          "type": "address"
        },
        {
          "internalType": "uint256",
          "name": "amount",
          "type": "uint256"
        }
      ],
      "name": "withdrawStEth",
      "outputs": [],
      "stateMutability": "nonpayable",
      "type": "function"
    },
    {
      "inputs": [
        {
          "internalType": "address",
          "name": "to",
          "type": "address"
        },
        {
          "internalType": "uint256",
          "name": "amount",
          "type": "uint256"
        }
      ],
      "name": "withdrawUSD",
      "outputs": [],
      "stateMutability": "nonpayable",
      "type": "function"
    },
    {
      "inputs": [],
      "name": "wrappedEth",
      "outputs": [
        {
          "internalType": "contract WrappedToken",
          "name": "",
          "type": "address"
        }
      ],
      "stateMutability": "view",
      "type": "function"
    },
    {
      "inputs": [],
      "name": "wrappedUSD",
      "outputs": [
        {
          "internalType": "contract WrappedToken",
          "name": "",
          "type": "address"
        }
      ],
      "stateMutability": "view",
      "type": "function"
    },
    {
      "stateMutability": "payable",
      "type": "receive"
    }
  ],
  "transactionHash": "0x1c0b16aa04477e1eb21b70ff870ff921cf4cb1735dfe9d8b2833f4f85e4bb8c4",
  "args": [],
  "numDeployments": 1,
  "solcInputHash": "e148b736187285366955264b210632ee",
  "bytecode": "0x60a06040523060805234801561001457600080fd5b506080516149a461003e6000396000818161250b01528181612535015261268201526149a46000f3fe608060405260043610620002345760003560e01c8063032c36c4146200029e57806303373ee514620002d857806310406a3514620002ff5780631459457a14620003245780631a66371a14620003495780631b9a91a414620003615780631d212c96146200038657806325d0c3aa14620003ab5780632bb33bbe14620003d057806335fac3b114620003f55780633ec97e1d146200040d5780634789badd14620004255780634e1d184014620004525780634f1ef286146200047757806352d1902d146200048e57806356b22bf214620004a65780635ebaf1db14620004cb57806364aab23914620004f257806368ca883a14620005175780636c9fb45d14620005395780636ccf20d514620005645780636cf510da14620005875780636ecc20da14620005a9578063715018a614620005ce57806379408c4314620005e65780637d46b0af14620005fe5780638850aa4614620006325780638da5cb5b14620006575780638e472433146200066f57806391f80f801462000694578063a29a43bb14620006b6578063a3fc73cd14620006db578063a44098e11462000700578063ad3cb1cc1462000722578063ad9d4ba31462000764578063b5063588146200077b578063b853c8cc14620007a0578063b8d120f014620007c5578063bb7ea01914620007ea578063d252ea25146200080f578063df6e69731462000826578063e02f64f2146200084b578063ee62ef6c1462000870578063f2fde38b146200088e578063fef2acae14620008b357600080fd5b36620002995773cf117961421ca9e546cd7f50bc73abcdb30395321933016200028c576040513481527f78c2c7732c04afe7a845fba707807efa67ff5532e94fda81f42bc62a80a9f8439060200160405180910390a1005b6200029733620008cb565b005b600080fd5b348015620002ab57600080fd5b50600454620002c0906001600160a01b031681565b604051620002cf919062003423565b60405180910390f35b348015620002e557600080fd5b50620002f06103e881565b604051908152602001620002cf565b3480156200030c57600080fd5b50620002976200031e3660046200344d565b62000959565b3480156200033157600080fd5b5062000297620003433660046200347c565b62000a76565b3480156200035657600080fd5b50620002f062000d92565b3480156200036e57600080fd5b5062000297620003803660046200344d565b62001084565b3480156200039357600080fd5b5062000297620003a536600462003507565b620011b6565b348015620003b857600080fd5b5062000297620003ca36600462003507565b6200122b565b348015620003dd57600080fd5b5062000297620003ef3660046200344d565b62001283565b3480156200040257600080fd5b50620002f061271081565b3480156200041a57600080fd5b50620002c061dead81565b3480156200043257600080fd5b50600054620004419060ff1681565b6040519015158152602001620002cf565b3480156200045f57600080fd5b50620002976200047136600462003527565b620013e9565b6200029762000488366004620035e9565b620015d8565b3480156200049b57600080fd5b50620002f0620015fd565b348015620004b357600080fd5b5062000297620004c53660046200344d565b6200161d565b348015620004d857600080fd5b50600054620002c09061010090046001600160a01b031681565b348015620004ff57600080fd5b5062000297620005113660046200369b565b620016ac565b3480156200052457600080fd5b50600354620002c0906001600160a01b031681565b3480156200054657600080fd5b5062000550600281565b604051600f9190910b8152602001620002cf565b3480156200057157600080fd5b506000546200044190600160a81b900460ff1681565b3480156200059457600080fd5b50600554620002c0906001600160a01b031681565b348015620005b657600080fd5b5062000297620005c83660046200369b565b620016eb565b348015620005db57600080fd5b506200029762001727565b348015620005f357600080fd5b50620002f06200173f565b3480156200060b57600080fd5b50620006236200061d36600462003527565b6200184a565b604051620002cf9190620036f3565b3480156200063f57600080fd5b5062000297620006513660046200344d565b62001a23565b3480156200066457600080fd5b50620002c062001b00565b3480156200067c57600080fd5b50620002976200068e3660046200371f565b62001b1d565b348015620006a157600080fd5b50600154620002c0906001600160a01b031681565b348015620006c357600080fd5b5062000297620006d53660046200377e565b62001baa565b348015620006e857600080fd5b5062000297620006fa3660046200371f565b62001be7565b3480156200070d57600080fd5b50600254620002c0906001600160a01b031681565b3480156200072f57600080fd5b5062000755604051806040016040528060058152602001640352e302e360dc1b81525081565b604051620002cf9190620037f2565b62000297620007753660046200377e565b620008cb565b3480156200078857600080fd5b50620002976200079a36600462003807565b62001c6c565b348015620007ad57600080fd5b5062000297620007bf3660046200344d565b62001cef565b348015620007d257600080fd5b5062000297620007e43660046200383f565b62001d71565b348015620007f757600080fd5b5062000297620008093660046200377e565b62001e1a565b3480156200081c57600080fd5b5062000550600081565b3480156200083357600080fd5b5062000297620008453660046200344d565b62001e99565b3480156200085857600080fd5b50620002976200086a3660046200344d565b62001fb9565b3480156200087d57600080fd5b50620002f0670de0b6b3a764000081565b3480156200089b57600080fd5b5062000297620008ad3660046200377e565b6200211c565b348015620008c057600080fd5b50620002f06200215e565b6000620008d834620021ea565b9050620008e6828262002212565b60035460015462000906916001600160a01b03908116911684846200228d565b336001600160a01b0316826001600160a01b03167f5e7e61836e7aac688d4f66257806e3118cc7a380422ee384512b7812e53cd1aa34846040516200094d929190620038a9565b60405180910390a35050565b60048054604051632770a7eb60e21b81526001600160a01b0390911691639dc29fac916200098c913391869101620038b7565b600060405180830381600087803b158015620009a757600080fd5b505af1158015620009bc573d6000803e3d6000fd5b505060405163ef693bed60e01b815273f7f0de3744c82825d77eda8ce78f07a916fb6be7925063ef693bed9150620009fb9085908590600401620038b7565b600060405180830381600087803b15801562000a1657600080fd5b505af115801562000a2b573d6000803e3d6000fd5b50505050816001600160a01b0316336001600160a01b03167fad3c54c4fffd720f5ea7bdf12784fb570c90a5cc66326f2e78cdd9dc3a210db083846040516200094d929190620038a9565b600062000a8262002333565b805490915060ff600160401b82041615906001600160401b031660008115801562000aaa5750825b90506000826001600160401b0316600114801562000ac75750303b155b90508115801562000ad6575080155b1562000af55760405163f92ee8a960e01b815260040160405180910390fd5b84546001600160401b0319166001178555831562000b1f57845460ff60401b1916600160401b1785555b6001600160a01b038816158062000b3d57506001600160a01b038a16155b8062000b5057506001600160a01b038916155b8062000b6357506001600160a01b038716155b8062000b7657506001600160a01b038616155b1562000b955760405163d92e233d60e01b815260040160405180910390fd5b3060405162000ba49062003415565b6001600160a01b0390911681526060602082018190526014908201527308ac8cecad8cae6e640aee4c2e0e0cac8408aa8960631b608082015260a060408201819052600590820152640caee8aa8960db1b60c082015260e001604051809103906000f08015801562000c1a573d6000803e3d6000fd5b50600380546001600160a01b0319166001600160a01b0392909216919091179055604051309062000c4b9062003415565b6001600160a01b03909116815260606020820181905260149082015273115919d95b195cdcc815dc985c1c1959081554d160621b608082015260a06040820181905260059082015264195dd554d160da1b60c082015260e001604051809103906000f08015801562000cc1573d6000803e3d6000fd5b50600480546001600160a01b03199081166001600160a01b03938416179091556005805482168b84161790556001805482168a84161781556002805490921692891692909217905560008054600160a81b60ff60a81b1990911617905562000d299062002357565b62000d34896200236a565b62000d3f8a620023bc565b831562000d8657845460ff60401b19168555604051600181527fc7f505b2f371ae2175ee4913f4499e1f2633a7b5936321eed1cdaeb6115181d29060200160405180910390a15b50505050505050505050565b60008073f7f0de3744c82825d77eda8ce78f07a916fb6be76001600160a01b0316634ba2363a6040518163ffffffff1660e01b8152600401602060405180830381865afa15801562000de8573d6000803e3d6000fd5b505050506040513d601f19601f8201168201806040525081019062000e0e9190620038d0565b9050600062000f6d62000f02836001600160a01b031663487bf0826040518163ffffffff1660e01b8152600401602060405180830381865afa15801562000e59573d6000803e3d6000fd5b505050506040513d601f19601f8201168201806040525081019062000e7f9190620038f0565b846001600160a01b03166320aba08b6040518163ffffffff1660e01b8152600401602060405180830381865afa15801562000ebe573d6000803e3d6000fd5b505050506040513d601f19601f8201168201806040525081019062000ee49190620038f0565b62000ef0904262003920565b676765c793fa10079d601b1b620023d1565b836001600160a01b031663c92aecc46040518163ffffffff1660e01b8152600401602060405180830381865afa15801562000f41573d6000803e3d6000fd5b505050506040513d601f19601f8201168201806040525081019062000f679190620038f0565b6200249c565b6040516388787f2b60e01b815290915062000ff99073f7f0de3744c82825d77eda8ce78f07a916fb6be7906388787f2b9062000fae90309060040162003423565b602060405180830381865afa15801562000fcc573d6000803e3d6000fd5b505050506040513d601f19601f8201168201806040525081019062000ff29190620038f0565b826200249c565b6040516370a0823160e01b81526000805160206200492f833981519152906370a08231906200102d90309060040162003423565b602060405180830381865afa1580156200104b573d6000803e3d6000fd5b505050506040513d601f19601f82011682018060405250810190620010719190620038f0565b6200107d919062003936565b9250505090565b600354604051632770a7eb60e21b81526001600160a01b0390911690639dc29fac90620010b89033908590600401620038b7565b600060405180830381600087803b158015620010d357600080fd5b505af1158015620010e8573d6000803e3d6000fd5b50505050600080836001600160a01b03168360405160006040518083038185875af1925050503d80600081146200113c576040519150601f19603f3d011682016040523d82523d6000602084013e62001141565b606091505b509150915081620011725780604051639a367e1760e01b8152600401620011699190620037f2565b60405180910390fd5b836001600160a01b0316336001600160a01b03166000805160206200494f8339815191528586604051620011a8929190620038a9565b60405180910390a350505050565b60005461010090046001600160a01b03163314620011e757604051631e31a89f60e21b815260040160405180910390fd5b620011f28162002357565b60405181151581527fc236baa3e21fdc712591cbbebfb2930bae5f479427ab19de579ef52e28680426906020015b60405180910390a150565b62001235620024c9565b60008054821515600160a81b0260ff60a81b199091161790556040517f099e4eb6c57f0bffa4f59b71af94691f4dec038586ab7450f249542828c75628906200122090831515815260200190565b6200128d620024c9565b600354604080516318160ddd60e01b815290516000926001600160a01b0316916318160ddd9160048083019260209291908290030181865afa158015620012d8573d6000803e3d6000fd5b505050506040513d601f19601f82011682018060405250810190620012fe9190620038f0565b620013086200215e565b62001314919062003920565b9050818111156200133857604051633ce95f8560e11b815260040160405180910390fd5b6003546040516340c10f1960e01b81526001600160a01b03909116906340c10f19906200136c9086908690600401620038b7565b600060405180830381600087803b1580156200138757600080fd5b505af11580156200139c573d6000803e3d6000fd5b50505050826001600160a01b03167fe912b71534193399d2c9c1ec0a0a5fa5f22d77907a892d10365e898978c4842783604051620013dc91815260200190565b60405180910390a2505050565b60005461010090046001600160a01b031633146200141a57604051631e31a89f60e21b815260040160405180910390fd5b600073cf117961421ca9e546cd7f50bc73abcdb30395336001600160a01b031663526eae3e6040518163ffffffff1660e01b8152600401602060405180830381865afa1580156200146f573d6000803e3d6000fd5b505050506040513d601f19601f82011682018060405250810190620014959190620038f0565b604051633155f1fd60e11b815290915060009073cf117961421ca9e546cd7f50bc73abcdb3039533906362abe3fa90620014db908790879060019088906004016200397f565b600060405180830381865afa158015620014f9573d6000803e3d6000fd5b505050506040513d6000823e601f3d908101601f19168201604052620015239190810190620039a8565b60405163e3afe0a360e01b815290915073cf117961421ca9e546cd7f50bc73abcdb30395339063e3afe0a390620015639087908790869060040162003a58565b600060405180830381600087803b1580156200157e57600080fd5b505af115801562001593573d6000803e3d6000fd5b505050507f7aee03fd3b4f28038c0a19aae4813d09e881d6334d568d75f13c2147621a14668484604051620015ca92919062003a82565b60405180910390a150505050565b620015e262002500565b620015ed82620025a9565b620015f98282620025b3565b5050565b60006200160962002677565b506000805160206200490f83398151915290565b60006200162a82620026c1565b90506200163883826200299f565b60045460025462001658916001600160a01b03908116911685846200228d565b336001600160a01b0316836001600160a01b03167f67046042551d73147aa29767c53a6787176add2c91a452108118bd0fad9c786084846040516200169f929190620038a9565b60405180910390a3505050565b60005461010090046001600160a01b03163314620016dd57604051631e31a89f60e21b815260040160405180910390fd5b620016e881620029e9565b50565b60005461010090046001600160a01b031633146200171c57604051631e31a89f60e21b815260040160405180910390fd5b620016e88162002bb4565b62001731620024c9565b6200173d600062002c78565b565b60405163d7f7098f60e01b815260009073f7f0de3744c82825d77eda8ce78f07a916fb6be79063d7f7098f906200177b90309060040162003423565b6020604051808303816000875af11580156200179b573d6000803e3d6000fd5b505050506040513d601f19601f82011682018060405250810190620017c19190620038f0565b6040516370a0823160e01b81526000805160206200492f833981519152906370a0823190620017f590309060040162003423565b602060405180830381865afa15801562001813573d6000803e3d6000fd5b505050506040513d601f19601f82011682018060405250810190620018399190620038f0565b62001845919062003936565b905090565b60005460609061010090046001600160a01b031633146200187e57604051631e31a89f60e21b815260040160405180910390fd5b6000805b83811015620018bf57848482818110620018a057620018a062003aa0565b9050602002013582620018b4919062003936565b915060010162001882565b5060405163095ea7b360e01b8152731643e812ae58766192cf7d2cf9567df2c37e9b7f9063095ea7b3906200190f9073cf117961421ca9e546cd7f50bc73abcdb3039533908590600401620038b7565b6020604051808303816000875af11580156200192f573d6000803e3d6000fd5b505050506040513d601f19601f8201168201806040525081019062001955919062003ab6565b50604051636b34082160e11b815273cf117961421ca9e546cd7f50bc73abcdb30395339063d668104290620019939087908790309060040162003ad6565b6000604051808303816000875af1158015620019b3573d6000803e3d6000fd5b505050506040513d6000823e601f3d908101601f19168201604052620019dd9190810190620039a8565b91507f739045819b08e6460066e1a5d4637e55804ab88b0c81458bb5472dbc5897171582858560405162001a149392919062003b04565b60405180910390a15092915050565b600062001a308262002cd6565b6003546040516340c10f1960e01b81529192506001600160a01b0316906340c10f199062001a659086908690600401620038b7565b600060405180830381600087803b15801562001a8057600080fd5b505af115801562001a95573d6000803e3d6000fd5b505060035460015462001ab993506001600160a01b0391821692501685846200228d565b336001600160a01b0316836001600160a01b03167fbfd9907006e12fdb4699f6e85603e9892fb5757c6042047d8169c4eb1b71ed9584846040516200169f929190620038a9565b60008062001b0d62002d84565b546001600160a01b031692915050565b60405163d505accf60e01b8152731643e812ae58766192cf7d2cf9567df2c37e9b7f9063d505accf9062001b6290339030908a908a908a908a908a9060040162003b2e565b600060405180830381600087803b15801562001b7d57600080fd5b505af115801562001b92573d6000803e3d6000fd5b5050505062001ba2868662001a23565b505050505050565b62001bb4620024c9565b6001600160a01b03811662001bdc5760405163d92e233d60e01b815260040160405180910390fd5b620016e8816200236a565b60405163d505accf60e01b8152736fb5ef893d44f4f88026430d82d4ef269543cb239063d505accf9062001c2c90339030908a908a908a908a908a9060040162003b2e565b600060405180830381600087803b15801562001c4757600080fd5b505af115801562001c5c573d6000803e3d6000fd5b5050505062001ba286866200161d565b600062001c7a838362002da8565b905062001c8884826200299f565b60045460025462001ca8916001600160a01b03908116911686846200228d565b336001600160a01b0316846001600160a01b03167fba1a428b44730bdf399a9671fc82b388a7a4c5e66996f90f7ec91318763f1fd78584604051620011a8929190620038a9565b600062001cfc826200315e565b905062001d0a83826200299f565b60045460025462001d2a916001600160a01b03908116911685846200228d565b336001600160a01b0316836001600160a01b03167feede33f976b77d678e192513c23c8f35e7726af75e036b9f4d7000c2c410f72684846040516200169f929190620038a9565b6040516323f2ebc360e21b815233600482015230602482015260448101869052606481018590526001608482015260ff841660a482015260c4810183905260e481018290526000805160206200492f83398151915290638fcbaf0c9061010401600060405180830381600087803b15801562001dec57600080fd5b505af115801562001e01573d6000803e3d6000fd5b5050505062001e11878762001cef565b50505050505050565b62001e24620024c9565b6001600160a01b03811662001e4c5760405163d92e233d60e01b815260040160405180910390fd5b600580546001600160a01b0319166001600160a01b0383161790556040517f6bd18dd71dbbe09ce1c748bd59a9d3578fd72f868be620e941baaf7ededc1b2c906200122090839062003423565b600354604051632770a7eb60e21b81526001600160a01b0390911690639dc29fac9062001ecd9033908590600401620038b7565b600060405180830381600087803b15801562001ee857600080fd5b505af115801562001efd573d6000803e3d6000fd5b505060405163a9059cbb60e01b8152731643e812ae58766192cf7d2cf9567df2c37e9b7f925063a9059cbb915062001f3c9085908590600401620038b7565b6020604051808303816000875af115801562001f5c573d6000803e3d6000fd5b505050506040513d601f19601f8201168201806040525081019062001f82919062003ab6565b50816001600160a01b0316336001600160a01b03166000805160206200494f83398151915283846040516200094d929190620038a9565b62001fc3620024c9565b6000600460009054906101000a90046001600160a01b03166001600160a01b03166318160ddd6040518163ffffffff1660e01b8152600401602060405180830381865afa15801562002019573d6000803e3d6000fd5b505050506040513d601f19601f820116820180604052508101906200203f9190620038f0565b6200204962000d92565b62002055919062003920565b9050818111156200207957604051633ce95f8560e11b815260040160405180910390fd5b600480546040516340c10f1960e01b81526001600160a01b03909116916340c10f1991620020ac918791879101620038b7565b600060405180830381600087803b158015620020c757600080fd5b505af1158015620020dc573d6000803e3d6000fd5b50505050826001600160a01b03167fff4ccf245d654193481740374c71e8e4d2e48a49d4b6f2e634b3cf202139aab383604051620013dc91815260200190565b62002126620024c9565b6001600160a01b03811662002153576000604051631e4fbdf760e01b815260040162001169919062003423565b620016e88162002c78565b6040516370a0823160e01b8152600090731643e812ae58766192cf7d2cf9567df2c37e9b7f906370a08231906200219a90309060040162003423565b602060405180830381865afa158015620021b8573d6000803e3d6000fd5b505050506040513d601f19601f82011682018060405250810190620021de9190620038f0565b62001845904762003936565b6000816000036200220e576040516356316e8760e01b815260040160405180910390fd5b5090565b60005460ff16156200222957620022298162002bb4565b6003546040516340c10f1960e01b81526001600160a01b03909116906340c10f19906200225d9085908590600401620038b7565b600060405180830381600087803b1580156200227857600080fd5b505af115801562001ba2573d6000803e3d6000fd5b600054600160a81b900460ff166200232d5760055460405163041c592960e51b81526001600160a01b038681166004830152858116602483015284811660448301526064820184905260006084830181905260c060a484015260c48301529091169063838b25209060e401600060405180830381600087803b1580156200231357600080fd5b505af115801562002328573d6000803e3d6000fd5b505050505b50505050565b7ff0c57e16840df040f15088dc2f81fe391c3923bec73e23a9662efc9c229c6a0090565b6000805460ff1916911515919091179055565b60008054610100600160a81b0319166101006001600160a01b038416021790556040517f6901da73a3480b0bbd7deb64f259ff29a76ce811c7a3e5cf495f0e1eb4fb4dfb906200122090839062003423565b620023c6620031ba565b620016e881620031e2565b60008380156200247c57600184168015620023ef57859250620023f3565b8392505b50600283046002850494505b8415620024755785860286878204146200241857600080fd5b818101818110156200242957600080fd5b8590049650506001851615620024695785830283878204141587151516156200245157600080fd5b818101818110156200246257600080fd5b8590049350505b600285049450620023ff565b5062002494565b8380156200248e576000925062002492565b8392505b505b509392505050565b6000676765c793fa10079d601b1b620024b6838562003b6f565b620024c2919062003b89565b9392505050565b33620024d462001b00565b6001600160a01b0316146200173d573360405163118cdaa760e01b815260040162001169919062003423565b306001600160a01b037f00000000000000000000000000000000000000000000000000000000000000001614806200258a57507f00000000000000000000000000000000000000000000000000000000000000006001600160a01b03166200257e6000805160206200490f833981519152546001600160a01b031690565b6001600160a01b031614155b156200173d5760405163703e46dd60e11b815260040160405180910390fd5b620016e8620024c9565b816001600160a01b03166352d1902d6040518163ffffffff1660e01b8152600401602060405180830381865afa92505050801562002610575060408051601f3d908101601f191682019092526200260d91810190620038f0565b60015b620026325781604051634c9c8ce360e01b815260040162001169919062003423565b6000805160206200490f83398151915281146200266657604051632a87526960e21b81526004810182905260240162001169565b620026728383620031ec565b505050565b306001600160a01b037f000000000000000000000000000000000000000000000000000000000000000016146200173d5760405163703e46dd60e11b815260040160405180910390fd5b600081600003620026e5576040516356316e8760e01b815260040160405180910390fd5b6000620026f28362003249565b90506000670de0b6b3a76400008273b480b8dd5a232cb7b227989eacda728d1f247db66001600160a01b031663568d4b6f6040518163ffffffff1660e01b8152600401602060405180830381865afa15801562002753573d6000803e3d6000fd5b505050506040513d601f19601f82011682018060405250810190620027799190620038f0565b62002785919062003b6f565b62002791919062003b89565b90506200279f818362003920565b6040516323b872dd60e01b8152909350736fb5ef893d44f4f88026430d82d4ef269543cb23906323b872dd90620027df9033903090899060040162003bac565b6020604051808303816000875af1158015620027ff573d6000803e3d6000fd5b505050506040513d601f19601f8201168201806040525081019062002825919062003ab6565b50736fb5ef893d44f4f88026430d82d4ef269543cb236001600160a01b031663095ea7b373b480b8dd5a232cb7b227989eacda728d1f247db66001600160a01b03166301664f666040518163ffffffff1660e01b8152600401602060405180830381865afa1580156200289c573d6000803e3d6000fd5b505050506040513d601f19601f82011682018060405250810190620028c29190620038d0565b866040518363ffffffff1660e01b8152600401620028e2929190620038b7565b6020604051808303816000875af115801562002902573d6000803e3d6000fd5b505050506040513d601f19601f8201168201806040525081019062002928919062003ab6565b50604051634acc893b60e11b815273b480b8dd5a232cb7b227989eacda728d1f247db690639599127690620029649030908890600401620038b7565b600060405180830381600087803b1580156200297f57600080fd5b505af115801562002994573d6000803e3d6000fd5b505050505050919050565b60005460ff1615620029b657620029b681620029e9565b600480546040516340c10f1960e01b81526001600160a01b03909116916340c10f19916200225d918691869101620038b7565b6040516370a0823160e01b81526000805160206200492f833981519152906370a082319062002a1d90309060040162003423565b602060405180830381865afa15801562002a3b573d6000803e3d6000fd5b505050506040513d601f19601f8201168201806040525081019062002a619190620038f0565b81111562002a825760405163356680b760e01b815260040160405180910390fd5b60405163095ea7b360e01b81526000805160206200492f8339815191529063095ea7b39062002acc9073f7f0de3744c82825d77eda8ce78f07a916fb6be7908590600401620038b7565b6020604051808303816000875af115801562002aec573d6000803e3d6000fd5b505050506040513d601f19601f8201168201806040525081019062002b12919062003ab6565b50604051633b4da69f60e01b815273f7f0de3744c82825d77eda8ce78f07a916fb6be790633b4da69f9062002b4e9030908590600401620038b7565b600060405180830381600087803b15801562002b6957600080fd5b505af115801562002b7e573d6000803e3d6000fd5b505050507f982021fc45e4a9c28ba63e98a2a2e534166e3bcb2ef32e1f120fd754cbb5c718816040516200122091815260200190565b4781111562002bd65760405163356680b760e01b815260040160405180910390fd5b60405163a1903eab60e01b8152731643e812ae58766192cf7d2cf9567df2c37e9b7f9063a1903eab90839062002c129060009060040162003423565b6000604051808303818588803b15801562002c2c57600080fd5b505af115801562002c41573d6000803e3d6000fd5b50505050507f5ac3d75f987a73cee9a456a277139319eee6559e3d027a360d2fc37ac93e74a3816040516200122091815260200190565b600062002c8462002d84565b80546001600160a01b038481166001600160a01b031983168117845560405193945091169182907f8be0079c531659141344cd1fd0a4f28419497f9722a3daafe3b4186f6b6457e090600090a3505050565b60008160000362002cfa576040516356316e8760e01b815260040160405180910390fd5b6040516323b872dd60e01b8152731643e812ae58766192cf7d2cf9567df2c37e9b7f906323b872dd9062002d379033903090879060040162003bac565b6020604051808303816000875af115801562002d57573d6000803e3d6000fd5b505050506040513d601f19601f8201168201806040525081019062002d7d919062003ab6565b5090919050565b7f9016d09d72d40fdae2fd8ceac6b6234c7706214fd39c1cd1e609a0528c19930090565b60008260000362002dcc576040516356316e8760e01b815260040160405180910390fd5b6040516370a0823160e01b8152600090735858f25cc225525a7494f76d90a6549749b3030b906370a082319062002e0890309060040162003423565b602060405180830381865afa15801562002e26573d6000803e3d6000fd5b505050506040513d601f19601f8201168201806040525081019062002e4c9190620038f0565b6040516323b872dd60e01b8152909150735858f25cc225525a7494f76d90a6549749b3030b906323b872dd9062002e8c9033903090899060040162003bac565b600060405180830381600087803b15801562002ea757600080fd5b505af115801562002ebc573d6000803e3d6000fd5b50506040516370a0823160e01b815260009250839150735858f25cc225525a7494f76d90a6549749b3030b906370a082319062002efe90309060040162003423565b602060405180830381865afa15801562002f1c573d6000803e3d6000fd5b505050506040513d601f19601f8201168201806040525081019062002f429190620038f0565b62002f4e919062003920565b6040516370a0823160e01b81529091506000906000805160206200492f833981519152906370a082319062002f8890309060040162003423565b602060405180830381865afa15801562002fa6573d6000803e3d6000fd5b505050506040513d601f19601f8201168201806040525081019062002fcc9190620038f0565b60405163095ea7b360e01b8152909150735858f25cc225525a7494f76d90a6549749b3030b9063095ea7b3906200301e9073bebc44782c7db0a1a60cb6fe97d0b483032ff1c7908690600401620038b7565b600060405180830381600087803b1580156200303957600080fd5b505af11580156200304e573d6000803e3d6000fd5b5050604051630f7c084960e21b81526002600482015260006024820152604481018590526064810188905273bebc44782c7db0a1a60cb6fe97d0b483032ff1c79250633df021249150608401600060405180830381600087803b158015620030b557600080fd5b505af1158015620030ca573d6000803e3d6000fd5b50506040516370a0823160e01b81528392506000805160206200492f83398151915291506370a08231906200310490309060040162003423565b602060405180830381865afa15801562003122573d6000803e3d6000fd5b505050506040513d601f19601f82011682018060405250810190620031489190620038f0565b62003154919062003920565b9695505050505050565b60008160000362003182576040516356316e8760e01b815260040160405180910390fd5b6040516323b872dd60e01b81526000805160206200492f833981519152906323b872dd9062002d379033903090879060040162003bac565b620031c462003278565b6200173d57604051631afcd79f60e31b815260040160405180910390fd5b62002126620031ba565b620031f78262003294565b6040516001600160a01b038316907fbc7cd75a20ee27fd9adebab32041f755214dbc6bffa90cc0225b39da2e5c2d3b90600090a28051156200323f57620026728282620032f4565b620015f962003370565b6000620032596006601262003920565b6200326690600a62003ccd565b62003272908362003b6f565b92915050565b60006200328462002333565b54600160401b900460ff16919050565b806001600160a01b03163b600003620032c45780604051634c9c8ce360e01b815260040162001169919062003423565b6000805160206200490f83398151915280546001600160a01b0319166001600160a01b0392909216919091179055565b6060600080846001600160a01b03168460405162003313919062003cdb565b600060405180830381855af49150503d806000811462003350576040519150601f19603f3d011682016040523d82523d6000602084013e62003355565b606091505b50915091506200336785838362003390565b95945050505050565b34156200173d5760405163b398979f60e01b815260040160405180910390fd5b606082620033a957620033a382620033eb565b620024c2565b8151158015620033c157506001600160a01b0384163b155b15620033e45783604051639996b31560e01b815260040162001169919062003423565b5092915050565b805115620033fc5780518082602001fd5b604051630a12f52160e11b815260040160405180910390fd5b610c158062003cfa83390190565b6001600160a01b0391909116815260200190565b6001600160a01b0381168114620016e857600080fd5b600080604083850312156200346157600080fd5b82356200346e8162003437565b946020939093013593505050565b600080600080600060a086880312156200349557600080fd5b8535620034a28162003437565b94506020860135620034b48162003437565b93506040860135620034c68162003437565b92506060860135620034d88162003437565b91506080860135620034ea8162003437565b809150509295509295909350565b8015158114620016e857600080fd5b6000602082840312156200351a57600080fd5b8135620024c281620034f8565b600080602083850312156200353b57600080fd5b82356001600160401b03808211156200355357600080fd5b818501915085601f8301126200356857600080fd5b8135818111156200357857600080fd5b8660208260051b85010111156200358e57600080fd5b60209290920196919550909350505050565b634e487b7160e01b600052604160045260246000fd5b604051601f8201601f191681016001600160401b0381118282101715620035e157620035e1620035a0565b604052919050565b60008060408385031215620035fd57600080fd5b82356200360a8162003437565b91506020838101356001600160401b03808211156200362857600080fd5b818601915086601f8301126200363d57600080fd5b813581811115620036525762003652620035a0565b62003666601f8201601f19168501620035b6565b915080825287848285010111156200367d57600080fd5b80848401858401376000848284010152508093505050509250929050565b600060208284031215620036ae57600080fd5b5035919050565b60008151808452602080850194506020840160005b83811015620036e857815187529582019590820190600101620036ca565b509495945050505050565b602081526000620024c26020830184620036b5565b803560ff811681146200371a57600080fd5b919050565b60008060008060008060c087890312156200373957600080fd5b8635620037468162003437565b95506020870135945060408701359350620037646060880162003708565b92506080870135915060a087013590509295509295509295565b6000602082840312156200379157600080fd5b8135620024c28162003437565b60005b83811015620037bb578181015183820152602001620037a1565b50506000910152565b60008151808452620037de8160208601602086016200379e565b601f01601f19169290920160200192915050565b602081526000620024c26020830184620037c4565b6000806000606084860312156200381d57600080fd5b83356200382a8162003437565b95602085013595506040909401359392505050565b600080600080600080600060e0888a0312156200385b57600080fd5b8735620038688162003437565b96506020880135955060408801359450606088013593506200388d6080890162003708565b925060a0880135915060c0880135905092959891949750929550565b918252602082015260400190565b6001600160a01b03929092168252602082015260400190565b600060208284031215620038e357600080fd5b8151620024c28162003437565b6000602082840312156200390357600080fd5b5051919050565b634e487b7160e01b600052601160045260246000fd5b818103818111156200327257620032726200390a565b808201808211156200327257620032726200390a565b81835260006001600160fb1b038311156200396657600080fd5b8260051b80836020870137939093016020019392505050565b606081526000620039956060830186886200394c565b6020830194909452506040015292915050565b60006020808385031215620039bc57600080fd5b82516001600160401b0380821115620039d457600080fd5b818501915085601f830112620039e957600080fd5b815181811115620039fe57620039fe620035a0565b8060051b915062003a11848301620035b6565b818152918301840191848101908884111562003a2c57600080fd5b938501935b8385101562003a4c5784518252938501939085019062003a31565b98975050505050505050565b60408152600062003a6e6040830185876200394c565b8281036020840152620031548185620036b5565b60208152600062003a986020830184866200394c565b949350505050565b634e487b7160e01b600052603260045260246000fd5b60006020828403121562003ac957600080fd5b8151620024c281620034f8565b60408152600062003aec6040830185876200394c565b905060018060a01b0383166020830152949350505050565b60408152600062003b196040830186620036b5565b8281036020840152620031548185876200394c565b6001600160a01b0397881681529590961660208601526040850193909352606084019190915260ff16608083015260a082015260c081019190915260e00190565b80820281158282048414176200327257620032726200390a565b60008262003ba757634e487b7160e01b600052601260045260246000fd5b500490565b6001600160a01b039384168152919092166020820152604081019190915260600190565b600181815b8085111562003c1157816000190482111562003bf55762003bf56200390a565b8085161562003c0357918102915b93841c939080029062003bd5565b509250929050565b60008262003c2a5750600162003272565b8162003c395750600062003272565b816001811462003c52576002811462003c5d5762003c7d565b600191505062003272565b60ff84111562003c715762003c716200390a565b50506001821b62003272565b5060208310610133831016604e8410600b841016171562003ca2575081810a62003272565b62003cae838362003bd0565b806000190482111562003cc55762003cc56200390a565b029392505050565b6000620024c2838362003c19565b6000825162003cef8184602087016200379e565b919091019291505056fe60806040523480156200001157600080fd5b5060405162000c1538038062000c15833981016040819052620000349162000148565b8181600362000044838262000263565b50600462000053828262000263565b5050600580546001600160a01b0319166001600160a01b039590951694909417909355506200032f915050565b634e487b7160e01b600052604160045260246000fd5b600082601f830112620000a857600080fd5b81516001600160401b0380821115620000c557620000c562000080565b604051601f8301601f19908116603f01168101908282118183101715620000f057620000f062000080565b81604052838152602092508660208588010111156200010e57600080fd5b600091505b8382101562000132578582018301518183018401529082019062000113565b6000602085830101528094505050505092915050565b6000806000606084860312156200015e57600080fd5b83516001600160a01b03811681146200017657600080fd5b60208501519093506001600160401b03808211156200019457600080fd5b620001a28783880162000096565b93506040860151915080821115620001b957600080fd5b50620001c88682870162000096565b9150509250925092565b600181811c90821680620001e757607f821691505b6020821081036200020857634e487b7160e01b600052602260045260246000fd5b50919050565b601f8211156200025e576000816000526020600020601f850160051c81016020861015620002395750805b601f850160051c820191505b818110156200025a5782815560010162000245565b5050505b505050565b81516001600160401b038111156200027f576200027f62000080565b6200029781620002908454620001d2565b846200020e565b602080601f831160018114620002cf5760008415620002b65750858301515b600019600386901b1c1916600185901b1785556200025a565b600085815260208120601f198616915b828110156200030057888601518255948401946001909101908401620002df565b50858210156200031f5787850151600019600388901b60f8161c191681555b5050505050600190811b01905550565b6108d6806200033f6000396000f3fe608060405234801561001057600080fd5b50600436106100a45760003560e01c806306fdde03146100a957806307546172146100c7578063095ea7b3146100e757806318160ddd1461010a57806323b872dd1461011c578063313ce5671461012f57806340c10f191461013e57806370a082311461015357806395d89b411461017c5780639dc29fac14610184578063a9059cbb14610197578063dd62ed3e146101aa575b600080fd5b6100b16101bd565b6040516100be91906106ea565b60405180910390f35b6005546100da906001600160a01b031681565b6040516100be9190610739565b6100fa6100f5366004610769565b61024f565b60405190151581526020016100be565b6002545b6040519081526020016100be565b6100fa61012a366004610793565b610269565b604051601281526020016100be565b61015161014c366004610769565b61028d565b005b61010e6101613660046107cf565b6001600160a01b031660009081526020819052604090205490565b6100b1610309565b610151610192366004610769565b610318565b6100fa6101a5366004610769565b610388565b61010e6101b83660046107f1565b610396565b6060600380546101cc90610824565b80601f01602080910402602001604051908101604052809291908181526020018280546101f890610824565b80156102455780601f1061021a57610100808354040283529160200191610245565b820191906000526020600020905b81548152906001019060200180831161022857829003601f168201915b5050505050905090565b60003361025d8185856103c1565b60019150505b92915050565b6000336102778582856103d3565b61028285858561042f565b506001949350505050565b6005546001600160a01b031633146102b85760405163469d9d3360e01b815260040160405180910390fd5b6102c2828261048e565b816001600160a01b03167f0f6798a560793a54c3bcfe86a93cde1e73087d944c0ea20544137d4121396885826040516102fd91815260200190565b60405180910390a25050565b6060600480546101cc90610824565b6005546001600160a01b031633146103435760405163469d9d3360e01b815260040160405180910390fd5b61034d82826104c8565b816001600160a01b03167fcc16f5dbb4873280815c1ee09dbd06736cffcc184412cf7a71a0fdb75d397ca5826040516102fd91815260200190565b60003361025d81858561042f565b6001600160a01b03918216600090815260016020908152604080832093909416825291909152205490565b6103ce83838360016104fe565b505050565b60006103df8484610396565b90506000198114610429578181101561041a57828183604051637dc7a0d960e11b81526004016104119392919061085e565b60405180910390fd5b610429848484840360006104fe565b50505050565b6001600160a01b038316610459576000604051634b637e8f60e11b81526004016104119190610739565b6001600160a01b03821661048357600060405163ec442f0560e01b81526004016104119190610739565b6103ce8383836105d3565b6001600160a01b0382166104b857600060405163ec442f0560e01b81526004016104119190610739565b6104c4600083836105d3565b5050565b6001600160a01b0382166104f2576000604051634b637e8f60e11b81526004016104119190610739565b6104c4826000836105d3565b6001600160a01b03841661052857600060405163e602df0560e01b81526004016104119190610739565b6001600160a01b038316610552576000604051634a1406b160e11b81526004016104119190610739565b6001600160a01b038085166000908152600160209081526040808320938716835292905220829055801561042957826001600160a01b0316846001600160a01b03167f8c5be1e5ebec7d5bd14f71427d1e84f3dd0314c0f7b2291e5b200ac8c7c3b925846040516105c591815260200190565b60405180910390a350505050565b6001600160a01b0383166105fe5780600260008282546105f3919061087f565b9091555061065d9050565b6001600160a01b0383166000908152602081905260409020548181101561063e5783818360405163391434e360e21b81526004016104119392919061085e565b6001600160a01b03841660009081526020819052604090209082900390555b6001600160a01b03821661067957600280548290039055610698565b6001600160a01b03821660009081526020819052604090208054820190555b816001600160a01b0316836001600160a01b03167fddf252ad1be2c89b69c2b068fc378daa952ba7f163c4a11628f55a4df523b3ef836040516106dd91815260200190565b60405180910390a3505050565b60006020808352835180602085015260005b81811015610718578581018301518582016040015282016106fc565b506000604082860101526040601f19601f8301168501019250505092915050565b6001600160a01b0391909116815260200190565b80356001600160a01b038116811461076457600080fd5b919050565b6000806040838503121561077c57600080fd5b6107858361074d565b946020939093013593505050565b6000806000606084860312156107a857600080fd5b6107b18461074d565b92506107bf6020850161074d565b9150604084013590509250925092565b6000602082840312156107e157600080fd5b6107ea8261074d565b9392505050565b6000806040838503121561080457600080fd5b61080d8361074d565b915061081b6020840161074d565b90509250929050565b600181811c9082168061083857607f821691505b60208210810361085857634e487b7160e01b600052602260045260246000fd5b50919050565b6001600160a01b039390931683526020830191909152604082015260600190565b8082018082111561026357634e487b7160e01b600052601160045260246000fdfea26469706673582212209cd245464de079cf047395a640d3e062a8576223963ce926533888033064552864736f6c63430008170033360894a13ba1a3210667c828492db98dca3e2076cc3735a920a3ca505d382bbc00000000000000000000000011fe4b6ae13d2a6055c8d9cf65c55bac32b5d84498dd409e09cadcfcca8697e6c594347ba2afdf87aa0ecb9281ce09ea76081ad1a2646970667358221220883ab6604615c0451466fc785096fe2fb0627285f29ce10b51397068055f391564736f6c63430008170033",
  "devdoc": {
    "errors": {
      "AddressEmptyCode(address)": [
        {
          "details": "There's no code at `target` (it is not a contract)."
        }
      ],
      "ERC1967InvalidImplementation(address)": [
        {
          "details": "The `implementation` of the proxy is invalid."
        }
      ],
      "ERC1967NonPayable()": [
        {
          "details": "An upgrade function sees `msg.value > 0` that may be lost."
        }
      ],
      "FailedInnerCall()": [
        {
          "details": "A call to an address target failed. The target may have reverted."
        }
      ],
      "InvalidInitialization()": [
        {
          "details": "The contract is already initialized."
        }
      ],
      "NotInitializing()": [
        {
          "details": "The contract is not initializing."
        }
      ],
      "OwnableInvalidOwner(address)": [
        {
          "details": "The owner is not a valid owner account. (eg. `address(0)`)"
        }
      ],
      "OwnableUnauthorizedAccount(address)": [
        {
          "details": "The caller account is not authorized to perform an operation."
        }
      ],
      "UUPSUnauthorizedCallContext()": [
        {
          "details": "The call is from an unauthorized context."
        }
      ],
      "UUPSUnsupportedProxiableUUID(bytes32)": [
        {
          "details": "The storage `slot` is unsupported as a UUID."
        }
      ]
    },
    "events": {
      "Initialized(uint64)": {
        "details": "Triggered when the contract has been initialized or reinitialized."
      },
      "Upgraded(address)": {
        "details": "Emitted when the implementation is upgraded."
      }
    },
    "kind": "dev",
    "methods": {
      "depositDAI(address,uint256)": {
        "params": {
          "daiAmount": "Amount to deposit in DAI (wad)",
          "to": "Address to mint wrapped tokens to"
        }
      },
      "depositDAIWithPermit(address,uint256,uint256,uint256,uint8,bytes32,bytes32)": {
        "params": {
          "daiAmount": "Amount to deposit in DAI (wad)",
          "expiry": "Permit signature expiry timestamp",
          "nonce": "Permit signature nonce",
          "r": "Permit signature r parameter",
          "s": "Permit signature s parameter",
          "v": "Permit signature v parameter"
        }
      },
      "depositEth(address)": {
        "params": {
          "to": "Address to mint wrapped tokens to"
        }
      },
      "depositStEth(address,uint256)": {
        "params": {
          "stEthAmount": "Amount to deposit in DAI (wad)",
          "to": "Address to mint wrapped tokens to"
        }
      },
      "depositStEthWithPermit(address,uint256,uint256,uint8,bytes32,bytes32)": {
        "details": "USDC is converted to DAI using Maker DssPsm",
        "params": {
          "deadline": "Permit signature deadline timestamp",
          "r": "Permit signature r parameter",
          "s": "Permit signature s parameter",
          "stEthAmount": "Amount to deposit in USDC (usd)",
          "v": "Permit signature v parameter"
        }
      },
      "depositUSDC(address,uint256)": {
        "details": "USDC is converted to DAI using Maker DssPsm",
        "params": {
          "to": "Address to mint wrapped tokens to",
          "usdcAmount": "Amount to deposit in USDC (usd)"
        }
      },
      "depositUSDCWithPermit(address,uint256,uint256,uint8,bytes32,bytes32)": {
        "details": "USDC is converted to DAI using Maker DssPsm",
        "params": {
          "deadline": "Permit signature deadline timestamp",
          "r": "Permit signature r parameter",
          "s": "Permit signature s parameter",
          "usdcAmount": "Amount to deposit in USDC (usd)",
          "v": "Permit signature v parameter"
        }
      },
      "depositUSDT(address,uint256,uint256)": {
        "details": "USDT is converted to DAI using Maker DssPsm",
        "params": {
          "minDAIAmount": "Minimum amount of DAI to receive from the PSM (slippage protection)",
          "to": "Address to mint wrapped tokens to",
          "usdtAmount": "Amount to deposit in USDT (usd)"
        }
      },
      "mintEthBasedOnStakedAmount(address,uint256)": {
        "details": "The owner can only mint up to the amount of ETH deposited + ETH staking rewards from Lido",
        "params": {
          "amount": "Amount of wrapped tokens to mint",
          "to": "Address to mint wrapped tokens to"
        }
      },
      "mintUSDBasedOnStakedAmount(address,uint256)": {
        "details": "The owner can only mint up to the amount of USD deposited + USD staking rewards from the Maker DSR",
        "params": {
          "amount": "Amount of wrapped tokens to mint",
          "to": "Address to mint wrapped tokens to"
        }
      },
      "owner()": {
        "details": "Returns the address of the current owner."
      },
      "proxiableUUID()": {
        "details": "Implementation of the ERC1822 {proxiableUUID} function. This returns the storage slot used by the implementation. It is used to validate the implementation's compatibility when performing an upgrade. IMPORTANT: A proxy pointing at a proxiable contract should not be considered proxiable itself, because this risks bricking a proxy that upgrades to it, by delegating to itself until out of gas. Thus it is critical that this function revert if invoked through a proxy. This is guaranteed by the `notDelegated` modifier."
      },
      "renounceOwnership()": {
        "details": "Leaves the contract without owner. It will not be possible to call `onlyOwner` functions. Can only be called by the current owner. NOTE: Renouncing ownership will leave the contract without an owner, thereby disabling any functionality that is only available to the owner."
      },
      "setBridgePause(bool)": {
        "params": {
          "_bridgePaused": "True to pause autobridging, false to unpause"
        }
      },
      "setL1StandardBridge(address)": {
        "params": {
          "_l1standardBridge": "Address of the L1StandardBridge contract"
        }
      },
      "setStaker(address)": {
        "details": "The staker can manually stake ETH into Lido and DAI into the Maker DSR They can also toggle the autostaking of funds. We always want a bit of ETH and DAI unstaked so users can instantly withdraw funds without waiting for the lido withdrawal period.",
        "params": {
          "_staker": "Address of the new staker"
        }
      },
      "totalETHBalance()": {
        "returns": {
          "_0": "Pooled ETH balance between buffered balance and deposited Lido balance"
        }
      },
      "totalUSDBalance()": {
        "returns": {
          "_0": "Pooled USD balance between buffered balance and deposited DSR balance"
        }
      },
      "totalUSDBalanceNoUpdate()": {
        "details": "Does not update DSR yield",
        "returns": {
          "_0": "Pooled USD balance between buffered balance and deposited DSR balance"
        }
      },
      "transferOwnership(address)": {
        "details": "Transfers ownership of the contract to a new account (`newOwner`). Can only be called by the current owner."
      },
      "upgradeToAndCall(address,bytes)": {
        "custom:oz-upgrades-unsafe-allow-reachable": "delegatecall",
        "details": "Upgrade the implementation of the proxy to `newImplementation`, and subsequently execute the function call encoded in `data`. Calls {_authorizeUpgrade}. Emits an {Upgraded} event."
      },
      "withdrawEth(address,uint256)": {
        "params": {
          "amount": "Amount to withdraw",
          "to": "Address to withdraw Eth to"
        }
      },
      "withdrawStEth(address,uint256)": {
        "params": {
          "amount": "Amount to withdraw",
          "to": "Address to withdraw Eth to"
        }
      },
      "withdrawUSD(address,uint256)": {
        "params": {
          "amount": "Amount to withdraw",
          "to": "Address to withdraw dai to"
        }
      }
    },
    "title": "EdgelessDeposit",
    "version": 1
  },
  "userdoc": {
    "kind": "user",
    "methods": {
      "depositDAI(address,uint256)": {
        "notice": "Deposit DAI, mint wrapped tokens, and bridge to the Edgeless L2"
      },
      "depositDAIWithPermit(address,uint256,uint256,uint256,uint8,bytes32,bytes32)": {
        "notice": "Deposit DAI to the USD pool with a permit signature"
      },
      "depositEth(address)": {
        "notice": "Deposit ETH, mint wrapped tokens, and bridge to the Edgeless L2"
      },
      "depositStEth(address,uint256)": {
        "notice": "Deposit stEth, mint wrapped tokens, and bridge to the Edgeless L2"
      },
      "depositStEthWithPermit(address,uint256,uint256,uint8,bytes32,bytes32)": {
        "notice": "Deposit STETH with a permit signature"
      },
      "depositUSDC(address,uint256)": {
        "notice": "Deposit USDC, mint wrapped tokens, and bridge to the Edgeless L2"
      },
      "depositUSDCWithPermit(address,uint256,uint256,uint8,bytes32,bytes32)": {
        "notice": "Deposit USDC to the USD pool with a permit signature"
      },
      "depositUSDT(address,uint256,uint256)": {
        "notice": "Deposit USDT, mint wrapped tokens, and bridge to the Edgeless L2"
      },
      "mintEthBasedOnStakedAmount(address,uint256)": {
        "notice": "Mint wrapped tokens based on the amount of ETH staked"
      },
      "mintUSDBasedOnStakedAmount(address,uint256)": {
        "notice": "Mint wrapped tokens based on the amount of USD staked"
      },
      "setAutoStake(bool)": {
        "notice": "Set autoStake to true so all deposits sent to this contract will be staked."
      },
      "setBridgePause(bool)": {
        "notice": "Pause autobridging of wrapped tokens to the Edgeless L2"
      },
      "setL1StandardBridge(address)": {
        "notice": "Set the address of the L1StandardBridge contract"
      },
      "setStaker(address)": {
        "notice": "Set the address of staker"
      },
      "stakeDAI(uint256)": {
        "notice": "The staker can manually stake `amount` of DAI into the Maker DSR"
      },
      "stakeETH(uint256)": {
        "notice": "The staker can manually stake `amount` of ETH into Lido"
      },
      "totalETHBalance()": {
        "notice": "Get the current ETH pool balance"
      },
      "totalUSDBalance()": {
        "notice": "Get the current USD pool balance"
      },
      "totalUSDBalanceNoUpdate()": {
        "notice": "Get the current USD pool balance"
      },
      "withdrawEth(address,uint256)": {
        "notice": "Withdraw Eth from the ETH pool"
      },
      "withdrawStEth(address,uint256)": {
        "notice": "Withdraw StEth from the ETH pool"
      },
      "withdrawUSD(address,uint256)": {
        "notice": "Withdraw dai from the stablecoin pool"
      }
    },
    "notice": "EdgelessDeposit is a contract that allows users to deposit ETH, USDC, USDT, or DAI and receive wrapped tokens in return. The wrapped tokens can be used to bridge to the Edgeless L2",
    "version": 1
  },
  "storageLayout": {
    "storage": [
      {
        "astId": 11836,
        "contract": "src/EdgelessDeposit.sol:EdgelessDeposit",
        "label": "autoStake",
        "offset": 0,
        "slot": "0",
        "type": "t_bool"
      },
      {
        "astId": 11838,
        "contract": "src/EdgelessDeposit.sol:EdgelessDeposit",
        "label": "staker",
        "offset": 1,
        "slot": "0",
        "type": "t_address"
      },
      {
        "astId": 10926,
        "contract": "src/EdgelessDeposit.sol:EdgelessDeposit",
        "label": "bridgePaused",
        "offset": 21,
        "slot": "0",
        "type": "t_bool"
      },
      {
        "astId": 10928,
        "contract": "src/EdgelessDeposit.sol:EdgelessDeposit",
        "label": "l2ETH",
        "offset": 0,
        "slot": "1",
        "type": "t_address"
      },
      {
        "astId": 10930,
        "contract": "src/EdgelessDeposit.sol:EdgelessDeposit",
        "label": "l2USD",
        "offset": 0,
        "slot": "2",
        "type": "t_address"
      },
      {
        "astId": 10933,
        "contract": "src/EdgelessDeposit.sol:EdgelessDeposit",
        "label": "wrappedEth",
        "offset": 0,
        "slot": "3",
        "type": "t_contract(WrappedToken)12333"
      },
      {
        "astId": 10936,
        "contract": "src/EdgelessDeposit.sol:EdgelessDeposit",
        "label": "wrappedUSD",
        "offset": 0,
        "slot": "4",
        "type": "t_contract(WrappedToken)12333"
      },
      {
        "astId": 10939,
        "contract": "src/EdgelessDeposit.sol:EdgelessDeposit",
        "label": "l1standardBridge",
        "offset": 0,
        "slot": "5",
        "type": "t_contract(IL1StandardBridge)12508"
      }
    ],
    "types": {
      "t_address": {
        "encoding": "inplace",
        "label": "address",
        "numberOfBytes": "20"
      },
      "t_bool": {
        "encoding": "inplace",
        "label": "bool",
        "numberOfBytes": "1"
      },
      "t_contract(IL1StandardBridge)12508": {
        "encoding": "inplace",
        "label": "contract IL1StandardBridge",
        "numberOfBytes": "20"
      },
      "t_contract(WrappedToken)12333": {
        "encoding": "inplace",
        "label": "contract WrappedToken",
        "numberOfBytes": "20"
      }
    }
  }
}