{
  "address": "0xA148a703a1Ff4700047b1ea39bEE5405579d2175",
  "abi": [
    {
      "inputs": [],
      "name": "InvalidInitialization",
      "type": "error"
    },
    {
      "inputs": [],
      "name": "NotInitializing",
      "type": "error"
    },
    {
      "inputs": [
        {
          "internalType": "address",
          "name": "sender",
          "type": "address"
        }
      ],
      "name": "OnlyStaker",
      "type": "error"
    },
    {
      "inputs": [
        {
          "internalType": "address",
          "name": "owner",
          "type": "address"
        }
      ],
      "name": "OwnableInvalidOwner",
      "type": "error"
    },
    {
      "inputs": [
        {
          "internalType": "address",
          "name": "account",
          "type": "address"
        }
      ],
      "name": "OwnableUnauthorizedAccount",
      "type": "error"
    },
    {
      "inputs": [
        {
          "internalType": "bytes",
          "name": "data",
          "type": "bytes"
        }
      ],
      "name": "TransferFailed",
      "type": "error"
    },
    {
      "anonymous": false,
      "inputs": [
        {
          "indexed": false,
          "internalType": "uint64",
          "name": "version",
          "type": "uint64"
        }
      ],
      "name": "Initialized",
      "type": "event"
    },
    {
      "anonymous": false,
      "inputs": [
        {
          "indexed": true,
          "internalType": "address",
          "name": "previousOwner",
          "type": "address"
        },
        {
          "indexed": true,
          "internalType": "address",
          "name": "newOwner",
          "type": "address"
        }
      ],
      "name": "OwnershipTransferStarted",
      "type": "event"
    },
    {
      "anonymous": false,
      "inputs": [
        {
          "indexed": true,
          "internalType": "address",
          "name": "previousOwner",
          "type": "address"
        },
        {
          "indexed": true,
          "internalType": "address",
          "name": "newOwner",
          "type": "address"
        }
      ],
      "name": "OwnershipTransferred",
      "type": "event"
    },
    {
      "inputs": [],
      "name": "ETH_ADDRESS",
      "outputs": [
        {
          "internalType": "address",
          "name": "",
          "type": "address"
        }
      ],
      "stateMutability": "view",
      "type": "function"
    },
    {
      "inputs": [],
      "name": "acceptOwnership",
      "outputs": [],
      "stateMutability": "nonpayable",
      "type": "function"
    },
    {
      "inputs": [
        {
          "internalType": "address",
          "name": "",
          "type": "address"
        }
      ],
      "name": "activeStrategyIndex",
      "outputs": [
        {
          "internalType": "uint256",
          "name": "",
          "type": "uint256"
        }
      ],
      "stateMutability": "view",
      "type": "function"
    },
    {
      "inputs": [
        {
          "internalType": "address",
          "name": "asset",
          "type": "address"
        },
        {
          "internalType": "contract IStakingStrategy",
          "name": "strategy",
          "type": "address"
        }
      ],
      "name": "addStrategy",
      "outputs": [],
      "stateMutability": "nonpayable",
      "type": "function"
    },
    {
      "inputs": [],
      "name": "autoStake",
      "outputs": [
        {
          "internalType": "bool",
          "name": "",
          "type": "bool"
        }
      ],
      "stateMutability": "view",
      "type": "function"
    },
    {
      "inputs": [],
      "name": "depositor",
      "outputs": [
        {
          "internalType": "address",
          "name": "",
          "type": "address"
        }
      ],
      "stateMutability": "view",
      "type": "function"
    },
    {
      "inputs": [
        {
          "internalType": "address",
          "name": "asset",
          "type": "address"
        }
      ],
      "name": "getActiveStrategy",
      "outputs": [
        {
          "internalType": "contract IStakingStrategy",
          "name": "",
          "type": "address"
        }
      ],
      "stateMutability": "view",
      "type": "function"
    },
    {
      "inputs": [
        {
          "internalType": "address",
          "name": "asset",
          "type": "address"
        }
      ],
      "name": "getAssetTotal",
      "outputs": [
        {
          "internalType": "uint256",
          "name": "total",
          "type": "uint256"
        }
      ],
      "stateMutability": "nonpayable",
      "type": "function"
    },
    {
      "inputs": [
        {
          "internalType": "address",
          "name": "asset",
          "type": "address"
        }
      ],
      "name": "getAssetTotalNoUpdate",
      "outputs": [
        {
          "internalType": "uint256",
          "name": "total",
          "type": "uint256"
        }
      ],
      "stateMutability": "view",
      "type": "function"
    },
    {
      "inputs": [
        {
          "internalType": "address",
          "name": "_owner",
          "type": "address"
        },
        {
          "internalType": "address",
          "name": "_staker",
          "type": "address"
        }
      ],
      "name": "initialize",
      "outputs": [],
      "stateMutability": "nonpayable",
      "type": "function"
    },
    {
      "inputs": [],
      "name": "owner",
      "outputs": [
        {
          "internalType": "address",
          "name": "",
          "type": "address"
        }
      ],
      "stateMutability": "view",
      "type": "function"
    },
    {
      "inputs": [],
      "name": "pendingOwner",
      "outputs": [
        {
          "internalType": "address",
          "name": "",
          "type": "address"
        }
      ],
      "stateMutability": "view",
      "type": "function"
    },
    {
      "inputs": [
        {
          "internalType": "address",
          "name": "asset",
          "type": "address"
        },
        {
          "internalType": "uint256",
          "name": "index",
          "type": "uint256"
        }
      ],
      "name": "removeStrategy",
      "outputs": [],
      "stateMutability": "nonpayable",
      "type": "function"
    },
    {
      "inputs": [],
      "name": "renounceOwnership",
      "outputs": [],
      "stateMutability": "nonpayable",
      "type": "function"
    },
    {
      "inputs": [
        {
          "internalType": "address",
          "name": "asset",
          "type": "address"
        },
        {
          "internalType": "uint256",
          "name": "index",
          "type": "uint256"
        }
      ],
      "name": "setActiveStrategy",
      "outputs": [],
      "stateMutability": "nonpayable",
      "type": "function"
    },
    {
      "inputs": [
        {
          "internalType": "bool",
          "name": "_autoStake",
          "type": "bool"
        }
      ],
      "name": "setAutoStake",
      "outputs": [],
      "stateMutability": "nonpayable",
      "type": "function"
    },
    {
      "inputs": [
        {
          "internalType": "address",
          "name": "_depositor",
          "type": "address"
        }
      ],
      "name": "setDepositor",
      "outputs": [],
      "stateMutability": "nonpayable",
      "type": "function"
    },
    {
      "inputs": [
        {
          "internalType": "address",
          "name": "_staker",
          "type": "address"
        }
      ],
      "name": "setStaker",
      "outputs": [],
      "stateMutability": "nonpayable",
      "type": "function"
    },
    {
      "inputs": [
        {
          "internalType": "address",
          "name": "asset",
          "type": "address"
        },
        {
          "internalType": "uint256",
          "name": "amount",
          "type": "uint256"
        }
      ],
      "name": "stake",
      "outputs": [],
      "stateMutability": "payable",
      "type": "function"
    },
    {
      "inputs": [],
      "name": "staker",
      "outputs": [
        {
          "internalType": "address",
          "name": "",
          "type": "address"
        }
      ],
      "stateMutability": "view",
      "type": "function"
    },
    {
      "inputs": [
        {
          "internalType": "address",
          "name": "",
          "type": "address"
        },
        {
          "internalType": "uint256",
          "name": "",
          "type": "uint256"
        }
      ],
      "name": "strategies",
      "outputs": [
        {
          "internalType": "contract IStakingStrategy",
          "name": "",
          "type": "address"
        }
      ],
      "stateMutability": "view",
      "type": "function"
    },
    {
      "inputs": [
        {
          "internalType": "address",
          "name": "newOwner",
          "type": "address"
        }
      ],
      "name": "transferOwnership",
      "outputs": [],
      "stateMutability": "nonpayable",
      "type": "function"
    },
    {
      "inputs": [
        {
          "internalType": "address",
          "name": "asset",
          "type": "address"
        },
        {
          "internalType": "uint256",
          "name": "amount",
          "type": "uint256"
        }
      ],
      "name": "withdraw",
      "outputs": [],
      "stateMutability": "nonpayable",
      "type": "function"
    },
    {
      "stateMutability": "payable",
      "type": "receive"
    }
  ],
  "transactionHash": "0xc248255615d3a726e0eb402e74e288a41324ba90efbee28881b638634c73cfcb",
  "args": [],
  "numDeployments": 1,
  "solcInputHash": "ed32ee4c17dd39e2986a7b96d2fdc8da",
  "bytecode": "0x608060405234801561001057600080fd5b506113ec806100206000396000f3fe6080604052600436106101145760003560e01c806310cc25d714610120578063124a38d814610160578063180669431461018d5780631d212c96146101af5780631e18086e146101cf5780634789badd146101ef578063485cc955146102205780635ebaf1db14610240578063715018a61461026057806379ba5097146102755780638da5cb5b1461028a57806390bb56981461029f5780639f8f3244146102bf578063a29a43bb146102df578063a734f06e146102ff578063adc9772e14610327578063b24190831461033a578063c7c4ff461461035a578063e30c39781461037a578063ea682eeb1461038f578063f2c098b7146103af578063f2fde38b146103cf578063f3fef3a3146103ef57600080fd5b3661011b57005b600080fd5b34801561012c57600080fd5b5061014d61013b3660046111e2565b60016020526000908152604090205481565b6040519081526020015b60405180910390f35b34801561016c57600080fd5b5061018061017b3660046111e2565b61040f565b6040516101579190611206565b34801561019957600080fd5b506101ad6101a836600461121a565b61045b565b005b3480156101bb57600080fd5b506101ad6101ca366004611261565b61049f565b3480156101db57600080fd5b506101ad6101ea36600461127e565b6104c5565b3480156101fb57600080fd5b5060035461021090600160a01b900460ff1681565b6040519015158152602001610157565b34801561022c57600080fd5b506101ad61023b36600461121a565b6104e9565b34801561024c57600080fd5b50600254610180906001600160a01b031681565b34801561026c57600080fd5b506101ad6105fe565b34801561028157600080fd5b506101ad610612565b34801561029657600080fd5b5061018061065a565b3480156102ab57600080fd5b5061014d6102ba3660046111e2565b610675565b3480156102cb57600080fd5b506101806102da36600461127e565b610753565b3480156102eb57600080fd5b506101ad6102fa3660046111e2565b61078b565b34801561030b57600080fd5b5061018073eeeeeeeeeeeeeeeeeeeeeeeeeeeeeeeeeeeeeeee81565b6101ad61033536600461127e565b6107b5565b34801561034657600080fd5b5061014d6103553660046111e2565b61081e565b34801561036657600080fd5b50600354610180906001600160a01b031681565b34801561038657600080fd5b50610180610905565b34801561039b57600080fd5b506101ad6103aa36600461127e565b610910565b3480156103bb57600080fd5b506101ad6103ca3660046111e2565b610b5d565b3480156103db57600080fd5b506101ad6103ea3660046111e2565b610b87565b3480156103fb57600080fd5b506101ad61040a36600461127e565b610bf8565b6001600160a01b038116600090815260208181526040808320600190925282205481548110610440576104406112aa565b6000918252602090912001546001600160a01b031692915050565b610463610c5d565b6001600160a01b039182166000908152602081815260408220805460018101825590835291200180546001600160a01b03191691909216179055565b6104a7610c5d565b60038054911515600160a01b0260ff60a01b19909216919091179055565b6104cd610c5d565b6001600160a01b03909116600090815260016020526040902055565b60006104f3610c8f565b805490915060ff600160401b82041615906001600160401b031660008115801561051a5750825b90506000826001600160401b031660011480156105365750303b155b905081158015610544575080155b156105625760405163f92ee8a960e01b815260040160405180910390fd5b84546001600160401b0319166001178555831561058b57845460ff60401b1916600160401b1785555b600280546001600160a01b0319166001600160a01b0388161790556105af87610cb3565b83156105f557845460ff60401b19168555604051600181527fc7f505b2f371ae2175ee4913f4499e1f2633a7b5936321eed1cdaeb6115181d29060200160405180910390a15b50505050505050565b610606610c5d565b6106106000610cc4565b565b338061061c610905565b6001600160a01b03161461064e578060405163118cdaa760e01b81526004016106459190611206565b60405180910390fd5b61065781610cc4565b50565b600080610665610ce7565b546001600160a01b031692915050565b6000805b6001600160a01b03831660009081526020819052604090205481101561074d576001600160a01b03831660009081526020819052604081208054839081106106c3576106c36112aa565b6000918252602091829020015460408051636a4e494f60e01b815290516001600160a01b0390921693508392636a4e494f926004808401938290030181865afa158015610714573d6000803e3d6000fd5b505050506040513d601f19601f8201168201806040525081019061073891906112c0565b61074290846112ef565b925050600101610679565b50919050565b6000602052816000526040600020818154811061076f57600080fd5b6000918252602090912001546001600160a01b03169150829050565b610793610c5d565b600280546001600160a01b0319166001600160a01b0392909216919091179055565b6002546001600160a01b031633146107e25733604051631f18623160e21b81526004016106459190611206565b73eeeeeeeeeeeeeeeeeeeeeeeeeeeeeeeeeeeeeeed196001600160a01b038316016108145761081034610d0b565b5050565b6108108282610d84565b6000805b6001600160a01b03831660009081526020819052604090205481101561074d576001600160a01b038316600090815260208190526040812080548390811061086c5761086c6112aa565b9060005260206000200160009054906101000a90046001600160a01b03169050806001600160a01b031663f48ccabd6040518163ffffffff1660e01b81526004016020604051808303816000875af11580156108cc573d6000803e3d6000fd5b505050506040513d601f19601f820116820180604052508101906108f091906112c0565b6108fa90846112ef565b925050600101610822565b600080610665610ebe565b610918610c5d565b6001600160a01b0382166000908152602081905260408120805483908110610942576109426112aa565b60009182526020808320909101546001600160a01b0386811684529183905260408320549116925061097690600190611308565b6001600160a01b0385166000908152602081905260409020805491925090829081106109a4576109a46112aa565b60009182526020808320909101546001600160a01b0387811684529183905260409092208054919092169190859081106109e0576109e06112aa565b600091825260208083209190910180546001600160a01b0319166001600160a01b0394851617905591861681529081905260409020805480610a2457610a2461131b565b60008281526020808220830160001990810180546001600160a01b03191690559092019092556001600160a01b0386168252600190526040902054839003610a82576001600160a01b03841660009081526001602052604090208190555b816001600160a01b0316632e1a7d4d836001600160a01b031663f48ccabd6040518163ffffffff1660e01b81526004016020604051808303816000875af1158015610ad1573d6000803e3d6000fd5b505050506040513d601f19601f82011682018060405250810190610af591906112c0565b6040518263ffffffff1660e01b8152600401610b1391815260200190565b6020604051808303816000875af1158015610b32573d6000803e3d6000fd5b505050506040513d601f19601f82011682018060405250810190610b5691906112c0565b5050505050565b610b65610c5d565b600380546001600160a01b0319166001600160a01b0392909216919091179055565b610b8f610c5d565b6000610b99610ebe565b80546001600160a01b0319166001600160a01b0384169081178255909150610bbf61065a565b6001600160a01b03167f38d16b8cac22d99fc7c124b9cd0de2d3fa1faef420bfe791d8c362d765e2270060405160405180910390a35050565b6002546001600160a01b03163314610c255733604051631f18623160e21b81526004016106459190611206565b73eeeeeeeeeeeeeeeeeeeeeeeeeeeeeeeeeeeeeeed196001600160a01b03831601610c535761081081610ee2565b6108108282610ffd565b33610c6661065a565b6001600160a01b031614610610573360405163118cdaa760e01b81526004016106459190611206565b7ff0c57e16840df040f15088dc2f81fe391c3923bec73e23a9662efc9c229c6a0090565b610cbb611100565b61065781611125565b6000610cce610ebe565b80546001600160a01b0319168155905061081082611157565b7f9016d09d72d40fdae2fd8ceac6b6234c7706214fd39c1cd1e609a0528c19930090565b6000610d2a73eeeeeeeeeeeeeeeeeeeeeeeeeeeeeeeeeeeeeeee61040f565b60405163b6b55f2560e01b8152600481018490529091506001600160a01b0382169063b6b55f259084906024016000604051808303818588803b158015610d7057600080fd5b505af11580156105f5573d6000803e3d6000fd5b6000610d8f8361040f565b6040516323b872dd60e01b8152336004820152306024820152604481018490529091506001600160a01b038416906323b872dd906064016020604051808303816000875af1158015610de5573d6000803e3d6000fd5b505050506040513d601f19601f82011682018060405250810190610e099190611331565b5060405163095ea7b360e01b81526001600160a01b0384169063095ea7b390610e38908490869060040161134e565b6020604051808303816000875af1158015610e57573d6000803e3d6000fd5b505050506040513d601f19601f82011682018060405250810190610e7b9190611331565b5060405163b6b55f2560e01b8152600481018390526001600160a01b0382169063b6b55f2590602401600060405180830381600087803b158015610d7057600080fd5b7f237e158222e3e6968b72b9db0d8043aacf074ad9f650f0d1606b4d82ee432c0090565b6000610f0173eeeeeeeeeeeeeeeeeeeeeeeeeeeeeeeeeeeeeeee61040f565b905060006001600160a01b03821615610f8257604051632e1a7d4d60e01b8152600481018490526001600160a01b03831690632e1a7d4d906024016020604051808303816000875af1158015610f5b573d6000803e3d6000fd5b505050506040513d601f19601f82011682018060405250810190610f7f91906112c0565b90505b60035460405160009182916001600160a01b039091169084908381818185875af1925050503d8060008114610fd3576040519150601f19603f3d011682016040523d82523d6000602084013e610fd8565b606091505b509150915081610b565780604051639a367e1760e01b81526004016106459190611367565b60006110088361040f565b905060006001600160a01b0382161561108957604051632e1a7d4d60e01b8152600481018490526001600160a01b03831690632e1a7d4d906024016020604051808303816000875af1158015611062573d6000803e3d6000fd5b505050506040513d601f19601f8201168201806040525081019061108691906112c0565b90505b60035460405163a9059cbb60e01b81526001600160a01b038681169263a9059cbb926110bd9290911690859060040161134e565b6020604051808303816000875af11580156110dc573d6000803e3d6000fd5b505050506040513d601f19601f82011682018060405250810190610b569190611331565b6111086111b3565b61061057604051631afcd79f60e31b815260040160405180910390fd5b61112d611100565b6001600160a01b03811661064e576000604051631e4fbdf760e01b81526004016106459190611206565b6000611161610ce7565b80546001600160a01b038481166001600160a01b031983168117845560405193945091169182907f8be0079c531659141344cd1fd0a4f28419497f9722a3daafe3b4186f6b6457e090600090a3505050565b60006111bd610c8f565b54600160401b900460ff16919050565b6001600160a01b038116811461065757600080fd5b6000602082840312156111f457600080fd5b81356111ff816111cd565b9392505050565b6001600160a01b0391909116815260200190565b6000806040838503121561122d57600080fd5b8235611238816111cd565b91506020830135611248816111cd565b809150509250929050565b801515811461065757600080fd5b60006020828403121561127357600080fd5b81356111ff81611253565b6000806040838503121561129157600080fd5b823561129c816111cd565b946020939093013593505050565b634e487b7160e01b600052603260045260246000fd5b6000602082840312156112d257600080fd5b5051919050565b634e487b7160e01b600052601160045260246000fd5b80820180821115611302576113026112d9565b92915050565b81810381811115611302576113026112d9565b634e487b7160e01b600052603160045260246000fd5b60006020828403121561134357600080fd5b81516111ff81611253565b6001600160a01b03929092168252602082015260400190565b60006020808352835180602085015260005b8181101561139557858101830151858201604001528201611379565b506000604082860101526040601f19601f830116850101925050509291505056fea2646970667358221220b41cc22f60679ed8e427bc2a07ad909487624b4aa11487d0a0029d9a4356c65464736f6c63430008170033",
  "devdoc": {
    "errors": {
      "InvalidInitialization()": [
        {
          "details": "The contract is already initialized."
        }
      ],
      "NotInitializing()": [
        {
          "details": "The contract is not initializing."
        }
      ],
      "OwnableInvalidOwner(address)": [
        {
          "details": "The owner is not a valid owner account. (eg. `address(0)`)"
        }
      ],
      "OwnableUnauthorizedAccount(address)": [
        {
          "details": "The caller account is not authorized to perform an operation."
        }
      ]
    },
    "events": {
      "Initialized(uint64)": {
        "details": "Triggered when the contract has been initialized or reinitialized."
      }
    },
    "kind": "dev",
    "methods": {
      "acceptOwnership()": {
        "details": "The new owner accepts the ownership transfer."
      },
      "owner()": {
        "details": "Returns the address of the current owner."
      },
      "pendingOwner()": {
        "details": "Returns the address of the pending owner."
      },
      "renounceOwnership()": {
        "details": "Leaves the contract without owner. It will not be possible to call `onlyOwner` functions. Can only be called by the current owner. NOTE: Renouncing ownership will leave the contract without an owner, thereby disabling any functionality that is only available to the owner."
      },
      "transferOwnership(address)": {
        "details": "Starts the ownership transfer of the contract to a new account. Replaces the pending transfer if there is one. Can only be called by the current owner."
      }
    },
    "version": 1
  },
  "userdoc": {
    "kind": "user",
    "methods": {
      "setAutoStake(bool)": {
        "notice": "----------------- Helper Functions -----------------"
      }
    },
    "notice": "The purpose of this contract is solely to take in assets and send them to strategies. Upon withdrawal, all assets go to the depositor. TODO: The depositor needs to be set after deployment",
    "version": 1
  },
  "storageLayout": {
    "storage": [
      {
        "astId": 11927,
        "contract": "src/StakingManager.sol:StakingManager",
        "label": "strategies",
        "offset": 0,
        "slot": "0",
        "type": "t_mapping(t_address,t_array(t_contract(IStakingStrategy)13054)dyn_storage)"
      },
      {
        "astId": 11931,
        "contract": "src/StakingManager.sol:StakingManager",
        "label": "activeStrategyIndex",
        "offset": 0,
        "slot": "1",
        "type": "t_mapping(t_address,t_uint256)"
      },
      {
        "astId": 11933,
        "contract": "src/StakingManager.sol:StakingManager",
        "label": "staker",
        "offset": 0,
        "slot": "2",
        "type": "t_address"
      },
      {
        "astId": 11935,
        "contract": "src/StakingManager.sol:StakingManager",
        "label": "depositor",
        "offset": 0,
        "slot": "3",
        "type": "t_address"
      },
      {
        "astId": 11937,
        "contract": "src/StakingManager.sol:StakingManager",
        "label": "autoStake",
        "offset": 20,
        "slot": "3",
        "type": "t_bool"
      }
    ],
    "types": {
      "t_address": {
        "encoding": "inplace",
        "label": "address",
        "numberOfBytes": "20"
      },
      "t_array(t_contract(IStakingStrategy)13054)dyn_storage": {
        "base": "t_contract(IStakingStrategy)13054",
        "encoding": "dynamic_array",
        "label": "contract IStakingStrategy[]",
        "numberOfBytes": "32"
      },
      "t_bool": {
        "encoding": "inplace",
        "label": "bool",
        "numberOfBytes": "1"
      },
      "t_contract(IStakingStrategy)13054": {
        "encoding": "inplace",
        "label": "contract IStakingStrategy",
        "numberOfBytes": "20"
      },
      "t_mapping(t_address,t_array(t_contract(IStakingStrategy)13054)dyn_storage)": {
        "encoding": "mapping",
        "key": "t_address",
        "label": "mapping(address => contract IStakingStrategy[])",
        "numberOfBytes": "32",
        "value": "t_array(t_contract(IStakingStrategy)13054)dyn_storage"
      },
      "t_mapping(t_address,t_uint256)": {
        "encoding": "mapping",
        "key": "t_address",
        "label": "mapping(address => uint256)",
        "numberOfBytes": "32",
        "value": "t_uint256"
      },
      "t_uint256": {
        "encoding": "inplace",
        "label": "uint256",
        "numberOfBytes": "32"
      }
    }
  }
}